:1000000063C2000092C2000090C200008EC20000D5
:100010008CC200008AC2000088C2000086C20000B4
:1000200084C200000C94060F0C94060F0C94060F6B
:100030007CC200000C94A22A78C2000076C20000A4
:1000400074C2000072C2000070C200006EC20000E4
:100050006CC200006AC2000068C200000C946B31E0
:1000600064C200000C94D40E0C94FF0D5EC200001C
:100070005CC200005AC2000058C2000056C2000014
:1000800054C2000052C2000050C200004EC2000024
:100090000C94A20E0C94C00D48C200000C94100FDA
:1000A00044C2000042C2000040C200003EC2000044
:1000B0003CC200003AC2000038C2000036C2000054
:1000C00034C2000032C2000030C200000C94700E36
:1000D0000C94810D2AC200000C943E0E0C94420D2B
:1000E00024C200004C36ED36EF3681365336963654
:1000F0006836AB36E336C836E836CD36F336C13629
:100100005B3AE33A993A2A39E33AE33AE33AE33A93
:100110008F38E33AE33AE33AE33AE33AC439E33A6D
:100120009F38E33AE33AD637E33A553940465346E7
:1001300056465C465F4662466E4668466E463A499B
:100140003A493A497B463A49AE463A499C48AB4817
:100150007446A7462C474247CF48C748C248304953
:10016000FC18FF18EE18F218F818361903190719B9
:100170000D19111915191B191F19231936192919C8
:100180002D1931194C1D511D561D601D6A1DE31D91
:10019000741D7C1D841D8E1D981DA21DB11DBB1DCF
:1001A000E31DC51DCF1DD91D73207C2084208A200E
:1001B00092209820B720A020A920E421E9218721BE
:1001C000A021FC21B121B8217322C321E421B12156
:1001D000E9218721A021FC211B222D223F22372645
:1001E0009D26C826F526FB2608270E271B277827DD
:1001F000D727D7279F2765266C266E26702672265E
:100200007426762678267A267C26DE2DE82DF22D99
:100210000E2E192E282E2C2E302E4A2E4E2E542ED7
:100220005A2EE42EF42EFD2E312F582F662F6D2FCF
:10023000762F4E414E494E495459494E46CDCCCC6D
:100240003D0AD7233C17B7D13877CC2B329595E6AA
:10025000241FB14F0A000020410000C84200401C8A
:100260004620BCBE4CCA1B0E5AAEC59D7400407AD7
:1002700010F35A00A0724E18090010A5D4E800002F
:10028000E87648170000E40B54020000CA9A3B00CD
:100290000000E1F505000080969800000040420F44
:1002A000000000A08601000000102700000000E808
:1002B00003000000006400000000000A00000000CD
:1002C000000100000000002C76D888DC674F08236E
:1002D000DFC1DFAE59E1B1B796E5E3E453C63AE6D4
:1002E00051997696E8E6C28426EB898C9B62ED40B4
:1002F0007C6FFCEFBC9C9F40F2BAA56FA5F4900503
:100300005A2AF75C936B6CF9676DC11BFCE0E40D36
:1003100047FEF520E6B500D0ED902E03009435772A
:10032000050080841E080000204E0A000000C80C52
:10033000333333330F986E12831141EF8D211489BB
:100340003BE65516CFFEE6DB18D1844B381BF77C15
:100350001D901DA4BBE424203284725E228100C95A
:10036000F124ECA1E53D275A444100565447005280
:100370004D430047535600475354004753410047ED
:100380004C4C004747410041504200870383037FA4
:10039000037B03770373036F036B036703010000A1
:1003A000098B030200002200250028002B002E00EC
:1003B0003100340002010000050108010B010000BA
:1003C0002100240027002A002D0030003300010105
:1003D0000000040107010A010505050507050808D5
:1003E0000808020202020A0A0808040404040101BF
:1003F00001010101010103030303030303030407D4
:1004000007070C0C0C0C0C0C0C0C0202020206066A
:100410000606060606060B0B0B0B0B0B0B0B01025D
:100420001020200808102040102040800201020106
:1004300008040201010204081020408080402010BE
:100440000804020180040201804020100804020117
:10045000080402010102040810204080010204087F
:1004600010204080000020002300260029002C00DE
:100470002F00320000010000030106010901000005
:100480000A0B02090C0D0E0807030401000000000E
:10049000000000000000000000000000000000005C
:1004A0000000000000000000000012111000000019
:1004B000000000000000000000000000000000003C
:1004C00000000000334BC24511241FBECFEFD1E224
:1004D000DEBFCDBF00E00CBF27E1ACE0BDE001C056
:1004E0001D92A234B207E1F71DE0A0E0B2E0EAE11C
:1004F000FCEB00E00BBF02C007900D92AC30B107DF
:10050000D9F712E0C3E6D2E000E006C02197010966
:10051000802FFE010E94BE58C236D10780E0080736
:10052000A9F70E948D3B0C94FC5D6ACDE0919B1174
:10053000F0919C110190F081E02D682F8BE991E101
:100540001995029709F09DC08091EE11882361F002
:100550008091CD1188608093CD111092EF11809120
:10056000EE1181508093EE118091C81180FF0CC074
:100570002091ED119091C71120FF04C02091EC1142
:10058000291710F49093EC1181FF0CC09091C311C6
:100590009093E8119091C4119093E9119091C51135
:1005A0009093EA1182FF10C09091C1119093E611CF
:1005B0009091C0119093E5119091BF119093E41127
:1005C0009091C6119093EB1183FF09C088E0EAEA8D
:1005D000F1E1AFECB1E101900D928A95E1F78091E4
:1005E000C81184FF10C04091B2115091B3116091B5
:1005F000B4117091B5114093D7115093D8116093F5
:10060000D9117093DA1186FF10C04091BA11509140
:10061000BB116091BC117091BD114093DF115093DB
:10062000E0116093E1117093E21185FF10C04091D9
:10063000B6115091B7116091B8117091B9114093F2
:10064000DB115093DC116093DD117093DE1187FF95
:1006500004C08091BE118093E3119091ED118091BF
:10066000C811892B8093ED118091CD1184FF09C0B1
:100670001092F0118091EE11811103C081E08093FE
:10068000EE1108950C945B5929E134E0FC013183AB
:1006900020830C94AA2FCF92DF92EF92FF920F93B8
:1006A0001F93CF93DF93EC016A017B0120E030E0E0
:1006B000A901C701B6010E945158181624F0F7FA93
:1006C000F094F7F8F094FE01E55FFE4F8081682F0B
:1006D00070E080E090E00E9484559B01AC01C7016E
:1006E000B6010E947E5590915E0E8E01005F1E4FF6
:1006F00087FF0AC09923A9F110925E0EF8011082BB
:1007000088E00E945E2A2DC091110FC081E0809385
:100710005E0E0E94431E0E94825560935A0E709393
:100720005B0E80935C0E90935D0EF80180818111C9
:1007300018C00E94431E0E94825520915A0E30918B
:100740005B0E40915C0E50915D0E0E94F756C45FA7
:10075000DE4F288139814A815B810E9451581816E9
:100760005CF0F8018081DF91CF911F910F91FF9094
:10077000EF90DF90CF90089581E0F801808388EEBC
:1007800093E00E94E912EDCFCF92DF92EF92FF92B9
:100790000F931F93FC01E254FF4F0190F081E02D75
:1007A0003197329718F080960E9441101F910F9157
:1007B000FF90EF90DF90CF900895DC011C9295E0C0
:1007C000E9EEF2E0549601900D929A95E1F70895C2
:1007D0004F925F926F927F928F929F92AF92BF9251
:1007E000CF92DF92EF92FF920F931F93CF93DF93FD
:1007F000CDB7DEB7A1970FB6F894DEBF0FBECDBF61
:100800006C012EEBC20ED11CD6012D913C91261706
:10081000370709F42FC17B018C0122303105D1F556
:10082000FC01878D8F93868D8F9385ED98E09F9344
:100830008F938CEA9DE09F938F930E94335B8CEAA9
:100840009DE00E94E024D8015E968D919C915F9777
:1008500013969C938E9312975A968D919C915B97C9
:1008600015969C938E9314975C968D919C915D97B1
:1008700017969C938E93169719961C921E92189712
:1008800061E0C8010E94E4240F900F900F900F9038
:100890000F900F90F601F182E082F2E0EF16F10482
:1008A00009F471C024F4EF2809F49DC0E3C085E089
:1008B000E816F1040CF0DEC0F801E857FF4F108293
:1008C0001182128213823497108211821282138253
:1008D000680198E5C90ED11CD6018C9181114AC0DE
:1008E000D801DC96ED91FC91DD9780809180A2800B
:1008F000B3807801B4E4EB0EF11CF70180829182A1
:10090000A282B382D801DA96ED91FC91DB978081C7
:100910009181A281B381F801E85BFF4F80839183CD
:10092000A283B3833C964080518062807380A30190
:100930009201C501B4010E945158181634F4F70110
:10094000408251826282738215C0F801E05BFF4FE2
:100950004080518062807380A3019201C501B4017F
:100960000E947E5587FF06C0D7014D925D926D9221
:100970007C92139781E0F6018083C80189599F4FCB
:100980000E94993077C089EE98E00E94E024C80167
:100990000E948724880F991FD8015F969C938E939D
:1009A0005E9713961C921E92129715961C921E9299
:1009B0001497EE24EA9433E0F32E1796FC92EE920D
:1009C000169719961C921E92189760E0C8010E9413
:1009D000E424F801F38EE28E158E148E85E099E002
:1009E0000E94E02447C0F801E857FF4F10821182AF
:1009F0001282138234971082118212821382BC9762
:100A00001082D80158962D913C91599756968D9108
:100A10009C915797281B390B1A968D919C911B9787
:100A20002817390714F0019707C09195819591090E
:100A3000821793070CF4C901F801E856FF4F918320
:100A4000808381E2F82EFE0131966F01DF01EF2DE8
:100A50001D92EA95E9F7C601B0DED801AE51BF4F4D
:100A6000F60101900D92FA94E1F740E050E0BA01EE
:100A7000C80111DEA1960FB6F894DEBF0FBECDBF40
:100A8000DF91CF911F910F91FF90EF90DF90CF906A
:100A9000BF90AF909F908F907F906F905F904F909E
:100AA0000895CF92DF92EF92FF92CF93DF93EC0104
:100AB0006A017B01CB01BA010E94C4577983688324
:100AC000072E000C880B990B0E9484559B01AC01EA
:100AD000C701B6010E94F75620E030E048EC52E42E
:100AE0000E94E3550E94C4577B836A83CE01DF9145
:100AF000CF91FF90EF90DF90CF9008950F931F93C9
:100B0000CF93DF938C01EB01FC0140A151A162A1C5
:100B100073A1CE010196C5DFF80144A155A166A1DC
:100B200077A1CE010596BDDFF80140A551A562A5CC
:100B300073A5CE010996B5DFF801E45BFF4F808114
:100B400091819B8B8A8B7D96808191819D8B8C8BF3
:100B500085E0EEEEF2E0DE011D9601900D928A95A1
:100B6000E1F781E08883DF91CF911F910F91089584
:100B7000EF92FF920F931F93CF93DF938C01EB01C2
:100B8000FC01808591859C878B8782859385019761
:100B90009E878D87E656FF4F80819181998B888B48
:100BA000F80182818A8B7801FCE9EF0EF11CF701D4
:100BB000448D558D668D778DCE01439672DFF7019A
:100BC000408D518D628D738DCE0147966ADFF8019D
:100BD000848195819D8F8C8F868197819F8F8E8F49
:100BE0008AE0E3EFF2E0DE01119601900D928A9522
:100BF000E1F781E08883DF91CF911F910F91FF9002
:100C0000EF900895CF92DF92EF92FF92CF93DF9310
:100C1000EC0168817981072E000C880B990B0E94EA
:100C200084556B017C018A819B81BC01990F880BE3
:100C3000990B0E9484552FE632E143E85AE30E9463
:100C4000E3559B01AC01C701B6010E94F856DF9144
:100C5000CF91FF90EF90DF90CF900895CF92DF92E9
:100C6000EF92FF92CF93DF93EC0168817981072E99
:100C7000000C880B990B0E9484556B017C018A81C2
:100C80009B81BC01990F880B990B0E9484552AE027
:100C900037ED43E25CE30E94E3559B01AC01C701E1
:100CA000B6010E94F856DF91CF91FF90EF90DF9050
:100CB000CF9008950F931F93CF93DF93CDB7DEB7F7
:100CC000FC01E254FF4F20813181232B09F047C002
:100CD0008C018985882349F08B899C89F80191874B
:100CE000808760E0C8010E94E4248D85882349F054
:100CF0008A8D90E0F8019383828360E0C8010E94AE
:100D0000E4248E85882351F0CE014B96A7DFF801AD
:100D1000E854FF4F60837183828393838F85882398
:100D200051F0CE014F969ADFF801EC54FF4F6083EB
:100D30007183828393838989882399F08A898823A0
:100D400081F08CA19DA1F801958384838EA19FA140
:100D50009783868360E0C8010E94E42402C080E09B
:100D600001C081E0DF91CF911F910F910895EF9223
:100D7000FF920F931F93CF93DF931F92CDB7DEB7F0
:100D80007C01FC0100811181C80169830E94975692
:100D90006981681719F0C8010E949F56C7010F901A
:100DA000DF91CF911F910F91FF90EF9008950F93D6
:100DB0001F93CF93DF931F921F92CDB7DEB78B01A6
:100DC000FB0160819A838983CE010196D0DFC8013F
:100DD0000F900F90DF91CF911F910F910895CF93B6
:100DE000DF931F921F92CDB7DEB71A821982CE0110
:100DF0000196BDDF0F900F90DF91CF910895BC0158
:100E000087E491E10C94722CFC01608371837F93E1
:100E10006F9389ED94E09F938F938CE59DE09F9372
:100E20008F930E94335B0F900F900F900F900F9055
:100E30000F908CE59DE0E3CFFC01608371837F938D
:100E40006F938DE299E09F938F938CE59DE09F9344
:100E50008F930E94335B0F900F900F900F900F9025
:100E60000F908CE59DE0CBCFEF92FF920F931F93F5
:100E7000CF93DF93CDB7DEB769970FB6F894DEBF97
:100E80000FBECDBF8C0180E499E0698FB8DF698D1A
:100E9000662399F086E1E5E8F2E0DE011196019023
:100EA0000D928A95E1F782E599E0A9DF8E010F5F47
:100EB0001F4F8DE7E82EF12C06C0BE016F5F7F4FFC
:100EC000C8011CDEF3CFF80161918F01F88EEF8A23
:100ED000CE0147964CDFFFEFEF1AFF0A83E9E816D1
:100EE000F10489F7BE01695E7F4F83E990E05FDF1F
:100EF00081E99BE084DF81E069960FB6F894DEBF5C
:100F00000FBECDBFDF91CF911F910F91FF90EF905A
:100F10000895EF92FF920F931F93CF93DF93CDB776
:100F2000DEB7A3970FB6F894DEBF0FBECDBF8C011E
:100F300080E799E06BA363DF6BA1662399F082E5FC
:100F400099E05DDF80E2E7EBF2E0DE0111960190CF
:100F50000D928A95E1F78E010F5F1F4F89E4E82E0D
:100F6000F12C06C0BE016F5F7F4FC80101DEF3CFD9
:100F7000F80161918F01FAA2E9A2CE018196F7DE14
:100F8000FFEFEF1AFF0A89E6E816F10489F7BE01C0
:100F90006F5D7F4F89E690E00ADF81E99BE02FDFFC
:100FA00081E0A3960FB6F894DEBF0FBECDBFDF91F0
:100FB000CF911F910F91FF90EF90089529E434E0B5
:100FC000FC0131832083EF59FF4F21E534E0318369
:100FD000208389599F4F0C94942FEF92FF920F9387
:100FE0001F93CF93DF93EC018DE794E0998388837F
:100FF000FE01EF59FF4F85E894E091838083FB96D3
:101000008DE894E0918380837E0184ECE80EF11CEE
:10101000E114F10461F08E010E511F4F0E151F05F2
:1010200031F006501109C8010E94FA29F7CFCE010C
:10103000DF91CF911F910F91FF90EF90BFCF089557
:10104000CF93DF93EC016F3F710509F050F48C8171
:101050009D816817790729F07D836C8386E00E9463
:10106000251D8C819D81DF91CF910895CF93DF93D2
:10107000EC018A819B816817790729F07B836A8359
:1010800087E00E94F61C8A819B81DF91CF910895B1
:101090002F923F924F925F926F927F928F929F9288
:1010A000AF92BF92CF92DF92EF92FF920F931F9376
:1010B000CF93DF9300D0CDB7DEB71C018B012A831D
:1010C0003B8349830E94B8244C018091520E2A81AF
:1010D0003B81498181110EC0F101808D918D66891E
:1010E0007789861B970B9093510E8093500E81E069
:1010F0008093520EF10164847584468457844111B3
:1011000089016101F5E6CF0ED11CF601A080B18006
:10111000A114B10429F48091500E9091510E07C092
:10112000F101808D918D26893789821B930B081BD5
:10113000190B780117FF04C0EE24FF24E01AF10A0E
:10114000F10162817381072E000C880B990B0E94BC
:101150008455F10122893389448955890E94E355D8
:101160000E94C457E616F7068CF0F101ED59FF4FC7
:101170008614970424F480819181019739F04814F2
:101180005904C4F480819181892BA1F4AB2871F1B9
:1011900060E070E0C1018F599F4F52DFF101808DF7
:1011A000918D26893789821B930B9093510E8093E2
:1011B000500E1CC061E070E00E151F0511F460E0D8
:1011C00070E0808191816817790721F0C1018F5902
:1011D0009F4F4CDFF601808191818F3F910531F067
:1011E0006FEF70E0C1018F599F4F2ADFC8010F9048
:1011F0000F900F90DF91CF911F910F91FF90EF9083
:10120000DF90CF90BF90AF909F908F907F906F9026
:101210005F904F903F902F9008950F931F93CF931F
:10122000DF93FC01E254FF4F2081318121303105F1
:1012300009F440C08B01EC0122303105D1F4CF59C3
:10124000DF4F61E070E01016110614F460E070E00A
:10125000CE010CDF6FEF70E0CE01F2DE68EE73E0DE
:1012600080E090E00E940B1E60E070E0CE01E8DEBE
:1012700021C060E070E0ACDAFE01E856FF4F20814B
:101280003181C801820F931F6A857B858617970776
:101290001CF06150710907C071956195710968175B
:1012A00079070CF4BC017183608320E030E040E0FA
:1012B000CE01EEDE81E090E0DF91CF911F910F91A2
:1012C0000895CF92DF92EF92FF926B017C0120E0B4
:1012D00030E0A9010E947E5587FF0AC020E030E07F
:1012E00044EB53E4C701B6010E94F8566B017C0140
:1012F00020E030E044EB53E4C701B601FF90EF90EB
:10130000DF90CF900C94FC572DEB33E0FC01318340
:101310002083805C9E4F0C94FA29CF93DF93EC01DD
:10132000F3DFCE01DF91CF910C945B598D54914046
:10133000F4CF8D549140E8CFFC01208D318D428D4A
:10134000538D64897589868997890E94F856B9CF2B
:1013500081E00895FC01108208955F926F927F9260
:101360008F929F92AF92BF92CF92DF92EF92FF92B5
:101370000F931F93CF93DF93EC018B859C85AD85F5
:10138000BE850196A11DB11D8B879C87AD87BE8749
:10139000643279F48AA984FF02C08F7E8AAB1EA6CC
:1013A0001A8281E08BAB18AA8AA98D7F8F7D8AABC8
:1013B00022C1162F0BA9023039F56A3219F483E0E5
:1013C0008BAB1AC080EE860F8F35C0F48EA58627B2
:1013D0008EA7E881F9810284F385E02DCE0119956D
:1013E000882309F4E8C01C3209F08AC08AA98D7FDD
:1013F0008AAB8FA58F5F8FA718AAFDC0CE018D96EF
:10140000A9DF1A821BAAE0C0013009F07DC08EA5B9
:1014100086278EA76C3221F48A818111E5C0CEC067
:1014200088A9811106C0603521F48AA980628AAB3F
:1014300067C09AA995FF10C0843058F4E881F981FB
:101440000480F581E02D612FCE011995811158C0DE
:10145000B5C04CEF942E05C0823008F451C03EEF69
:10146000932E980EE881F9810280F381E02DCE0160
:1014700019956A80E62CF12CC92CD12CFC013396ED
:101480008490FC017490662009F4A1C0671460F098
:10149000282D30E0270D311DE216F3062CF4062D21
:1014A000071996C01E173CF40196FC018591949192
:1014B000009721F783C00F5F0815B0F7FB01E00F1D
:1014C000F11DE00FF11DA591B491A9015D01A21AD2
:1014D000B30AE42FE21BE91550F4FA015490F50128
:1014E000E40FF51FE4914F5F5F4F5E1691F39D018E
:1014F000F901EC0DFD1DE4911E13D4CF070D0A83F5
:1015000088A98F5F88AB77C0033009F05AC010629A
:101510008FE9810F863010F4175501C0105328A9A8
:101520008EA5612F70E021110DC091E098AB90E085
:1015300024E0959587952A95E1F78617970709F492
:101540005AC02EC08F7090E08617970749F58AA978
:1015500081FF0CC08D7F8AAB2F5F28ABE881F981BA
:101560000284F385E02D6CE2CE0119958B819C817C
:10157000AD81BE810196A11DB11D8B839C83AD837E
:10158000BE83E881F9810680F781E02DCE011995AF
:101590009AA980FB94F99AAB1BAA82E090E02DC037
:1015A0008F819885A985BA850196A11DB11D8F836C
:1015B0009887A987BA87CE018D96CCDE1A821BAA9E
:1015C0001AC0011118C01A8280E090E016C000E035
:1015D000FC01349665917491FB01E00FF11DE00F61
:1015E000F11D2591349184CFCE018D96B3DE0FA7E6
:1015F00018AA82E08BAB81E090E0DF91CF911F9140
:101600000F91FF90EF90DF90CF90BF90AF909F90A1
:101610008F907F906F905F9008950F931F93CF935B
:10162000DF93FC01A685B7858D01005C1F4FE801A3
:101630008881998101968F739927AD014E5B5F4F29
:10164000EA012881398182179307D1F3E8012881C3
:101650003981A20FB31F6C93A685B785A05CBF4FDD
:1016600011969C938E93A689B7892C9181E090E086
:10167000078C02C0880F991F0A94E2F7822B8C9383
:1016800081E081A30488F589E02D808180648083D6
:1016900081E090E0DF91CF911F910F910895FC01BF
:1016A00081A1882329F0A489B5898C9186FFFBCF7D
:1016B00011A20895FC01A485B585FD01E05CFF4FF2
:1016C000208131813296808191812817390779F004
:1016D00080819181A80FB91F8C91208131812F5F6A
:1016E0003F4F2F7333273183208390E008958FEF8E
:1016F0009FEF0895DC011C96ED91FC911D97DF0191
:10170000A05CBF4F2D913C91119712968D919C91A9
:1017100011972817390739F08D919C91E80FF91F1F
:10172000808190E008958FEF9FEF0895FC0124855C
:101730003585F901E05CFF4F8081918132962081EF
:101740003181821B930B8F7399270895CF93DF9379
:10175000DC01862F9296ED91FC919397309719F0CA
:10176000DF91CF9119941C96ED91FC911D97BF01CB
:10177000605C7F4FEB01288139812F5F3F4F2F73D2
:101780003327AF014E5B5F4FEA014881598124172F
:10179000350771F0EB0148815981E40FF51F808313
:1017A0001C96ED91FC911D97E05CFF4F31832083E7
:1017B000DF91CF9108950895E0914F0F80914E0FE2
:1017C000E81730F4F0E0EC58F04F808190E0089595
:1017D0008FEF9FEF089590914F0F80914E0F9817C4
:1017E00050F4E92FF0E0EC58F04F208130E09F5F9B
:1017F00090934F0F02C02FEF3FEFC90108958091E2
:101800004E0F90E020914F0F821B9109089585EDB6
:101810008093BC008091BC0084FDFCCF1092BA0F75
:1018200008954091810E262F30E0240F311D213282
:101830003105DCF42091BA0F2430C9F4FC0180E0BA
:1018400090E0861758F43091810E2191DC01A15A65
:10185000B14FA30FB11D2C930196F3CF8091810E50
:10186000680F6093810E80E0089581E0089582E022
:101870000895CF92DF92EF92FF920F931F93CF9331
:10188000DF937C01262F972F8A018091500F8823A8
:1018900091F0C62FD72F6E01C40ED51ECC15DD05D5
:1018A00069F06991D701ED91FC910190F081E02DF3
:1018B000C7011995F3CF642F822FB3DFC801DF91E1
:1018C000CF911F910F91FF90EF90DF90CF900895EF
:1018D000CF93DF931F92CDB7DEB769832091500F6E
:1018E0002223D1F02091730F203240F021E030E02C
:1018F000FC013383228380E090E014C08091510F7B
:10190000E82FF0E0EE5AF04F998190838F5F80933B
:10191000510F8093730F04C061E0CE01019681DF07
:1019200081E090E00F90DF91CF910895FC01148247
:1019300015821682178210821182128213821186FA
:101940001086138612861586148617861686118AC7
:10195000108A138A128A148A168A178A158A81E0D5
:10196000818F828F138E87E0808F148E158ECF012A
:101970004E96F0CCCF92DF92EF92FF920F931F938F
:10198000CF93DF93EC016A017B014115514E610554
:10199000710509F1EC89FD8981E090E008A002C0A1
:1019A000880F991F0A94E2F7808360E079E08DE365
:1019B00090E0A70196010E94BC5689019A0101504E
:1019C0001109210931093695279517950795980131
:1019D00001151041A8F0EC89FD89108260E874E8D7
:1019E0008EE190E0A70196010E94BC56DA01C90180
:1019F0000197A109B109B695A795979587959C017F
:101A0000E889F9893083EA89FB89208319A2EE8964
:101A1000FF89408181E090E09C010C8C02C0220F84
:101A2000331F0A94E2F7242B2083EE89FF8940813B
:101A30009C010D8C02C0220F331F0A94E2F7242B65
:101A40002083EE89FF8940819C010E8C02C0220F09
:101A5000331F0A94E2F7242B2083EE89FF8920812B
:101A60000F8C02C0880F991F0A94E2F78095822399
:101A70008083DF91CF911F910F91FF90EF90DF90C6
:101A8000CF9008951F920F920FB60F9211240BB6AC
:101A90000F922F933F938F939F93EF93FF932091F8
:101AA0002F10309130108091311090913210281702
:101AB000390731F4809131018F7D8093310114C059
:101AC000E0913110F0913210E151F04F208180917E
:101AD00031109091321001968F73992790933210A4
:101AE0008093311020933601FF91EF919F918F9158
:101AF0003F912F910F900BBE0F900FBE0F901F9034
:101B000018951F920F920FB60F9211240BB60F92D9
:101B10002F933F938F939F93EF93FF932091971071
:101B2000309198108091991090919A102817390748
:101B300031F48091D1008F7D8093D10014C0E09169
:101B40009910F0919A10E95AFF4E208180919910D6
:101B500090919A1001968F73992790939A10809381
:101B600099102093D600FF91EF919F918F913F9113
:101B70002F910F900BBE0F900FBE0F901F901895D6
:101B80001F920F920FB60F9211240BB60F922F9344
:101B90003F938F939F93EF93FF932091FF1030918A
:101BA000001180910111909102112817390731F429
:101BB0008091C9008F7D8093C90014C0E09101110C
:101BC000F0910211E154FF4E20818091011190911A
:101BD000021101968F73992790930211809301113E
:101BE0002093CE00FF91EF919F918F913F912F9184
:101BF0000F900BBE0F900FBE0F901F9018951F9265
:101C00000F920FB60F9211240BB60F922F933F93A2
:101C10008F939F93EF93FF93209143113091441141
:101C200080914511909146112817390731F4809120
:101C3000C1008F7D8093C10014C0E0914511F091E7
:101C40004611ED5FFE4E2081809145119091461125
:101C500001968F7399279093461180934511209395
:101C6000C600FF91EF919F918F913F912F910F901F
:101C70000BBE0F900FBE0F901F9018951F920F92E2
:101C80000FB60F9211240BB60F922F933F934F93E1
:101C90005F936F937F938F939F93AF93BF93EF93D4
:101CA000FF938091300182FD06C06091360183E38D
:101CB00090E14CDD02C080913601FF91EF91BF9120
:101CC000AF919F918F917F916F915F914F913F91D4
:101CD0002F910F900BBE0F900FBE0F901F90189575
:101CE0001F920F920FB60F9211240BB60F922F93E3
:101CF0003F934F935F936F937F938F939F93AF9394
:101D0000BF93EF93FF938091D00082FD06C0609156
:101D1000D6008BE990E11ADD02C08091D600FF91D8
:101D2000EF91BF91AF919F918F917F916F915F9153
:101D30004F913F912F910F900BBE0F900FBE0F90C0
:101D40001F9018951F920F920FB60F9211240BB689
:101D50000F922F933F934F935F936F937F938F9344
:101D60009F93AF93BF93EF93FF938091C80082FD41
:101D700006C06091CE0087E791E1E8DC02C0809167
:101D8000CE00FF91EF91BF91AF919F918F917F9185
:101D90006F915F914F913F912F910F900BBE0F90DC
:101DA0000FBE0F901F9018951F920F920FB60F92B3
:101DB00011240BB60F922F933F934F935F936F9322
:101DC0007F938F939F93AF93BF93EF93FF938091F4
:101DD000C00082FD06C06091C60087E491E1B6DCD8
:101DE00002C08091C600FF91EF91BF91AF919F918A
:101DF0008F917F916F915F914F913F912F910F90B4
:101E00000BBE0F900FBE0F901F9018951F920F9250
:101E10000FB60F9211240F900FBE0F901F901895C0
:101E20001F920F920FB60F9211240BB60F922F93A1
:101E30003F934F935F936F937F938F939F93AF9352
:101E4000BF93EF93FF938091B900887F803609F4A8
:101E50009CC068F5883209F45BC090F4803109F4C5
:101E600054C038F4882309F4F6C0883009F44DC012
:101E7000F5C0883109F44CC0803209F45DC0EEC071
:101E8000803409F468C048F4803309F455C08833BD
:101E900009F0E4C08093B80FD8C0803509F44FC072
:101EA000883509F45DC0883409F0D8C0D6C08839B7
:101EB00009F4C7C0A8F4883709F467C038F4883635
:101EC00009F463C0803709F460C0C8C0883809F4D9
:101ED000B8C0803909F45FC0803809F0BFC05BC06A
:101EE000803B09F486C038F4803A09F466C0883A29
:101EF00009F47FC0B3C0803C09F4A7C0883C09F452
:101F0000A4C0883B09F48AC0A9C08091B50F10C055
:101F10009091B70F8091B60F981770F5E091B70FB9
:101F200081E08E0F8093B70FF0E0EC56F04F808188
:101F30008093BB0085EC86C08093B80F8EC0E09183
:101F4000B70F81E08E0F8093B70F8091BB00F0E058
:101F5000EC56F04F80839091B70F8091B60F6EC012
:101F6000E091B70F81E08E0F8093B70F8091BB0097
:101F7000F0E0EC56F04F80838091B90F81116DC075
:101F800081E08093B40F84EA61C083E08093BA0F4C
:101F90001092A50ECFCF8091A50E803208F051C0CF
:101FA000E091A50E81E08E0F8093A50E8091BB007D
:101FB000F0E0EB57F14F8083BDCF85EC8093BC0000
:101FC0001092BA0F8091A50E803230F4E091A50EE8
:101FD000F0E0EB57F14F10826091A50E70E0E091B8
:101FE000830EF091840E85E89EE019951092A50E5F
:101FF00035C084E08093BA0F1092820E1092810E49
:10200000E0917F0EF091800E19958091810E8111E3
:1020100005C081E08093810E10925F0EE091820EE8
:1020200081E08E0F8093820EF0E0E15AF14F8081C3
:102030008093BB009091820E8091810E981708F4D6
:1020400079CF85E88093BC0009C085EC8093BC0003
:102050001092BA0F03C01092B80FD9DBFF91EF9125
:10206000BF91AF919F918F917F916F915F914F91B0
:102070003F912F910F900BBE0F900FBE0F901F90AE
:1020800018952F923F924F925F926F927F928F920C
:102090009F92AF92BF92CF92DF92EF92FF920F93F7
:1020A0001F93CF93DF9300D01F92CDB7DEB71C01F3
:1020B0002A013B014801590120E030E0A901C30198
:1020C000B2010E947E5587FD78C020E030E0A90172
:1020D000C501B4010E947E5587FD6FC020E030E04D
:1020E000A901C701B6010E947E5587FD66C0F101B6
:1020F000408251826282738284829582A682B782F4
:10210000C086D186E286F38664A575A586A597A5C7
:102110000E94825520E030E04AE754E40E945C5778
:1021200069837A838B839C83F10144865586668616
:1021300077869B01AC01C501B4010E94E3554B01B8
:102140005C01F101608B718B828B938B29813A81C9
:102150004B815C81C701B6010E945C576B017C0119
:10216000F101648B758B868B978B808D918D019798
:1021700021F5A301920160E070E0CB010E94F756C7
:10218000F1016487758786879787A501940160E0D0
:1021900070E0CB010E94F756F101608B718B828B4E
:1021A000938BA701960160E070E0CB010E94F75687
:1021B000F101648B758B868B978B0F900F900F902E
:1021C0000F90DF91CF911F910F91FF90EF90DF90D3
:1021D000CF90BF90AF909F908F907F906F905F90C7
:1021E0004F903F902F900895BF92CF92DF92EF9241
:1021F000FF920F931F93CF93DF93CDB7DEB7629714
:102200000FB6F894DEBF0FBECDBF8C01B62E7A019B
:1022100069016CE67AE0CE010D960E944A2A61E2DD
:10222000CE010D960E9417296B2DCE010D960E94AE
:1022300017298AE0E816F1042CF460E3CE010D962C
:102240000E9417294AE0B701CE0101960E94FF299A
:10225000BE01635F7F4FCE0107960E94422ABE01F6
:102260006F5F7F4FCE0107960E94A029BC01CE016F
:102270000D960E94E529CE0107960E94FA29CE010B
:1022800001960E94FA296DE3CE010D960E9417294E
:10229000B601CE010D960E94382964E2CE010D965A
:1022A0000E941729F801EB5EFD4F80819181892BF7
:1022B00079F07801AFEEEA1AADEFFA0AB701CE0174
:1022C0000D960E9438296CE67AE0C7010E94D02959
:1022D000F801E95EFD4F80819181DC01ED91FC9177
:1022E00049895A896D857E850280F381E02D199593
:1022F0006AE070E080E090E00E940B1ECE010D9637
:102300000E94FA2962960FB6F894DEBF0FBECDBFC9
:10231000DF91CF911F910F91FF90EF90DF90CF90C1
:10232000BF900895FC01E15BFE4F0190F081E02D2C
:10233000808D918D26893789821B930B0895FC012E
:10234000E15BFE4F0190F081E02DE456FF4F648D7C
:10235000758D868D978D0895FC0120A9213019F087
:10236000223029F008C081E0653461F40CC081E0BE
:102370006D3441F408C0633429F42AE0FC0122835F
:1023800081E0089580E0089521E0FC01828187309A
:1023900009F020E0822F08958DE993E00895FC0173
:1023A000E15BFE4F8081918184569F4F0C949C0984
:1023B000CF92DF92EF92FF926A017B01FC01E15B19
:1023C000FE4F0190F081E02DE456FF4F248D358DB6
:1023D000468D578DC701B6010E94F756FF90EF90CA
:1023E000DF90CF900C946109CF92DF92EF92FF9231
:1023F0006A017B01FC01E15BFE4F0190F081E02D61
:10240000E456FF4F248D358D468D578DC701B6019B
:102410000E94F856FF90EF90DF90CF900C946109E6
:10242000CF92DF92EF92FF92CF93DF93EC016A019C
:102430007B0120E030E0A901C701B6010E947E5572
:1024400087FF0AC020E030E044EB53E4C701B60147
:102450000E94F8566B017C0120E030E044EB53E42D
:10246000C701B6010E94FC57688379838A839B83E6
:10247000DF91CF91FF90EF90DF90CF900895209162
:10248000A80E3091A90E2130310559F4811103C0F5
:1024900083E090E002C082E090E09093A90E8093E8
:1024A000A80E8091A80E9091A90E08950F931F93E6
:1024B000CF93DF9365E370E082EB95E10E94732C8C
:1024C000082F0295069506950370282F30E0A90184
:1024D00094E0559547959A95E1F7142F137035952B
:1024E000279535952795C22FC370D82FD3708BE6CB
:1024F0009AE00E946731011104C08DE69AE00E94C3
:1025000067311F92DF931F92CF931F921F931F92E9
:102510000F9380E79AE09F938F938EEF9EE09F93B7
:102520008F930E94335B8EEF9EE00E9467318DB7E0
:102530009EB70C960FB6F8949EBF0FBE8DBF87E472
:1025400091E1DF91CF911F910F91A9C8CF93DF93B4
:10255000EC0165E370E082EB95E10E94732C20971B
:1025600031F0982F92959695969593709883282F91
:1025700030E094E0359527959A95E1F72370233064
:1025800029F4982F937081E0933009F080E0DF9177
:10259000CF91089590E0FC01E25EFB4F2491FC0195
:1025A000E852FC4F8491882399F090E0880F991F9E
:1025B000FC01E254FC4FA591B491FC01EC55FC4F99
:1025C000859194918FB7F894EC91E22BEC938FBFA7
:1025D00008958F929F92AF92BF92CF92DF92EF9227
:1025E000FF92CF9320910002283021F02F3F09F075
:1025F000C8C204C0E3EAF3E0C491E7C028E0209336
:102600000002E3EAF3E0C491CF3F09F4BAC2C2305A
:1026100009F472C04CF5CC2309F451C0C13009F063
:10262000D4C0109280001092810020918100286017
:102630002093810020918100216020938100E0EEB1
:10264000F3E0E491F0E0EE0FFF1FEC55FC4F259115
:1026500034913093CD0F2093CC0FE6E2F4E0E49177
:10266000E093CB0FC1E0B3C0C43009F48BC00CF4CD
:1026700066C0C53009F0A9C0109220011092210156
:1026800020912101286020932101209121012160C6
:1026900020932101E0EEF3E0E491F0E0EE0FFF1F64
:1026A000EC55FC4F259134913093C40F2093C30F08
:1026B000E6E2F4E0E491E093C20FC5E088C014BC08
:1026C00015BC24B5226024BD25B5216025BDE0EEF2
:1026D000F3E0E491F0E0EE0FFF1FEC55FC4F259185
:1026E00034913093D00F2093CF0FE6E2F4E0E491E1
:1026F000E093CE0FC0E06BC01092B0001092B1001A
:102700002091B00022602093B0002091B1002160A0
:102710002093B100E0EEF3E0E491F0E0EE0FFF1F54
:10272000EC55FC4F259134913093BD0F2093BC0F95
:10273000E6E2F4E0E491E093BB0FC2E048C01092FF
:1027400090001092910020919100286020939100B8
:1027500020919100216020939100E0EEF3E0E4915C
:10276000F0E0EE0FFF1FEC55FC4F259134913093B4
:10277000CA0F2093C90FE6E2F4E0E491E093C80F9A
:10278000C3E025C01092A0001092A1002091A100EA
:1027900028602093A1002091A10021602093A10036
:1027A000E0EEF3E0E491F0E0EE0FFF1FEC55FC4F9C
:1027B000259134913093C70F2093C60FE6E2F4E0E1
:1027C000E491E093C50FC4E002C0C7FDDAC16C011B
:1027D00088E0E0DEE12CF12C8C2F8D7F09F0A9C080
:1027E00060E072E18AE790E0A70196010E94A2589A
:1027F00049015A01BA01A901415051096109710900
:102800004F3F51056105710509F008F445C060E4CA
:1028100072E48FE090E0A70196010E94A258BA01ED
:10282000A9014150510961097109C230E9F44F3FD2
:1028300051056105710509F008F4A1C160E970ED69
:1028400083E090E0A70196010E94A258BA01A90175
:1028500041505109610971094F3F510561057105E9
:1028600009F0A8F583E05EC04F3F51056105710591
:10287000A9F0A0F068E478EE81E090E0A70196016D
:102880000E94A258BA01A901415051096109710978
:10289000CC2309F423C16BC181E001C082E0CC23C9
:1028A00089F040C0D501C4012AE0B595A795979558
:1028B00087952A95D1F7AC01BD01415051096109B5
:1028C000710985E095B5987F892B85BD8CC068E43A
:1028D00078EE81E090E0A70196010E94A258BA012B
:1028E000A90141505109610971094F3F5105610525
:1028F000710509F008F4F0C064E274EF80E090E044
:10290000A70196010E94A258BA01A901415051099C
:10291000610971094F3F51056105710511F008F01A
:10292000FCC085E09091B100987F892B8093B10025
:1029300049C060E072E18AE790E0A70196010E9439
:10294000A258BA01A9014150510961097109411503
:10295000510581E06807710580F068E478EE81E058
:1029600090E0A70196010E94A258BA01A901415026
:1029700051096109710983E001C081E0C13039F476
:1029800090918100987F892B809381003EC0C33055
:1029900039F490919100987F892B809391005DC0CC
:1029A000C43039F49091A100987F892B8093A100C5
:1029B00069C0C53039F490912101987F892B8093AB
:1029C000210175C0C230B1F134F4CC2361F0C130C3
:1029D00009F0D7C01AC0C43009F454C0F4F1C530AE
:1029E00009F465C0CEC047BD8FEF9FEFDC01809337
:1029F000E10F9093E20FA093E30FB093E40F809167
:102A00006E00826080936E00BCC05093890040933A
:102A100088008FEF9FEFDC018093DD0F9093DE0F36
:102A2000A093DF0FB093E00F80916F0082608093DE
:102A30006F00A7C04093B3008FEF9FEFDC0180933E
:102A4000BE0F9093BF0FA093C00FB093C10F8091A2
:102A5000700082608093700094C0509399004093FE
:102A600098008FEF9FEFDC018093D90F9093DA0FDE
:102A7000A093DB0FB093DC0F809171008260809394
:102A800071007FC05093A9004093A8008FEF9FEF83
:102A9000DC018093D50F9093D60FA093D70FB093FE
:102AA000D80F809172008260809372006AC0509348
:102AB0002901409328018FEF9FEFDC018093D10F14
:102AC0009093D20FA093D30FB093D40F8091730043
:102AD00082608093730055C084E024CF4F3F51053E
:102AE00061057105C1F0B8F062E17AE780E090E03D
:102AF000A70196010E94A258BA01A90141505109AB
:102B0000610971094F3F51056105710511F008F028
:102B1000C9CE84E0D7CE83E0D5CE62E17AE780E00B
:102B200090E0A70196010E94A258BA01A901415064
:102B30005109610971094F3F510561057105A9F0FE
:102B4000A0F0D501C4013AE0B595A7959795879572
:102B50003A95D1F7AC01BD014150510961097109A4
:102B6000CC2309F4AECE87E0DDCE86E098CE4F3F91
:102B700051056105710509F080F684E090CE82E090
:102B8000D1CECF91FF90EF90DF90CF90BF90AF90DC
:102B90009F908F90089580ED97E01BDD68EE73E0C5
:102BA00080E090E00E940B1E88E00C945E2A9091D9
:102BB000BA0F9111FCCF91E09093BA0F9093B90F97
:102BC0002FEF2093B80F1092B70F260F2093B60F58
:102BD0009093B50F9091B50F880F892B8093B50F07
:102BE0008091B40F813061F41092B40F8091B50FD1
:102BF0008093BB008091BC0083FDF8CF85EC01C0C1
:102C000085EE8093BC008091BA0F8130E1F3809112
:102C1000B70F861710F46091B70FA4E9BFE024E75F
:102C20003FE0F9018E2F821B861718F48D91819356
:102C3000F9CF862F0895382F2091730F9091720F3E
:102C4000213208F049C08091BA0F8111FCCF42E0D7
:102C50004093BA0F3093B90F3FEF3093B80F1092F3
:102C6000B70F2093B60FA2E5BFE044E95FE0FA0199
:102C70003E2F341B321718F43D913193F9CF109247
:102C8000B50F2091B50F990F922B9093B50F90919E
:102C9000B40F913061F41092B40F9091B50F9093EE
:102CA000BB009091BC0093FDF8CF95EC01C095EE70
:102CB0009093BC009091BA0F9230E1F39091B80FCD
:102CC0009F3F79F08091B80F803241F08091B80F2A
:102CD000803331F084E005C081E003C082E001C0B0
:102CE00083E01092510F1092730F1092500F0895BD
:102CF000CF92DF92EF92FF920F931F93CF93DF93C8
:102D000000D000D0CDB7DEB76C017B018CE0F601BE
:102D100011928A95E9F78E010F5F1F4F86E0F80147
:102D200011928A95E9F7FB01838191E09093500F0E
:102D30008093720F1092510F1092730F6AE18BE61D
:102D400091E10E94680C81E076DF66E0F701838103
:102D50002EDF10924F0F80934E0F36E0F32EF00EC1
:102D60008BE691E10E94EB0BF80181938F01FE123B
:102D7000F7CFEC80F12CFE2CEE248B81E82A0E811B
:102D800010E0102F00278D81082B6A8170E0762FCC
:102D900066278981682B072E000C880B990B0E94EF
:102DA000845520E030E040E85DE30E94E355F60101
:102DB0006083718382839383B701FF0C880B990B27
:102DC0000E94845520E030E040E85DE30E94E35536
:102DD000F6016483758386839783B801110F880B8E
:102DE000990B0E94845520E030E040E85DE30E94AA
:102DF000E355F6016087718782879387C60126961F
:102E00000FB6F894DEBF0FBECDBFDF91CF911F91FB
:102E10000F91FF90EF90DF90CF9008950F931F9345
:102E2000CF93DF93EC018D818F938C818F938B8176
:102E30008F938A818F9389818F9388818F9387E87D
:102E40009AE09F938F930EEF1EE01F930F930E94C3
:102E5000335BC8010E9467318B858F938A858F937E
:102E600089858F9388858F938F818F938E818F93A0
:102E700088EA9AE09F938F931F930F930E94335B8E
:102E8000C8010E94673189898F9388898F938F85C4
:102E90008F938E858F938D858F938C858F9380EC08
:102EA0009AE09F938F931F930F930E94335BC80107
:102EB0000E9467318B898F938A898F9387ED9AE07F
:102EC0009F938F931F930F930E94335B8DB79EB791
:102ED00084960FB6F8949EBF0FBE8DBFC8010E94A6
:102EE00067318D898F938C898F9389EE9AE09F93B8
:102EF0008F931F930F930E94335BC8010E94673129
:102F00000F900F900F900F900F900F9087E491E12A
:102F1000DF91CF911F910F910C944F0B1F93CF9383
:102F2000DF93CDB7DEB72C970FB6F894DEBF0FBE98
:102F3000CDBFCE0101960ADB182F62EB75E1CE0101
:102F40000196D6DE89819A81AB81BC818093C415BC
:102F50009093C515A093C615B093C715812F2C96D5
:102F60000FB6F894DEBF0FBECDBFDF91CF911F919A
:102F70000895EF92FF920F931F93CF93DF93CDB7F6
:102F8000DEB7EA970FB6F894DEBF0FBECDBFF82EBE
:102F9000BE016F5F7F4F82EB95E10E94BB20FF2057
:102FA00039F089EF9AE00E94673109EE13E019C009
:102FB00083E19BE0F8CFFF2011F182EB95E10E94C5
:102FC0009A22E82EBE016F5F7F4F82EB95E10E944F
:102FD000BB206CDA64E670E080E090E01CD6E11083
:102FE00012C00150110939F78AE29BE00E94673153
:102FF00082E49BE00E94673183E090E079C0CE01DB
:103000008596A4DADECF52DABE016B5D7F4F82EB8C
:1030100095E10E94C52284E89BE00E9467317EDF33
:103020006091C4157091C5158091C6159091C71512
:103030000E94C457672B21F485E99BE00E94673109
:10304000F11003C082E090E053C080EC9BE00E944E
:103050006731CE018596E2DE86ED9BE00E94673106
:1030600005E610E00150110969F3BE016F5F7F4F63
:1030700082EB95E10E94BB2062EF7BE087E491E167
:103080000E94722C4D895E896F89788D20E030E036
:1030900087E491E10E94952B66EF7BE087E491E164
:1030A0000E94722C498D5A8D6B8D7C8D20E030E012
:1030B00087E491E10E94952B6BEF7BE087E491E13F
:1030C0000E94722C4D8D5E8D6F8D78A120E030E0D6
:1030D00087E491E10E94952B61E07CE087E491E137
:1030E0000E94722C64EF71E080E090E094D5BACF3A
:1030F000EA960FB6F894DEBF0FBECDBFDF91CF9139
:103100001F910F91FF90EF900895CF93DF93FC01F3
:10311000448155816081718187E491E10E940D288D
:10312000EC0160E07CE087E491E10E94382B8C0F99
:103130009D1FDF91CF910895CF93DF93EC0164E25F
:103140000E941729811103C0CE010E947729CE0168
:10315000DF91CF910895CF92DF92EF92FF920F937C
:103160001F93CF93DF936B01770FEE08FF08F7FEF5
:103170001BC0EC016DE20E94312B8C0144275527C6
:10318000BA014C195D096E097F092AE0CE010E943F
:103190004D2B800F911FDF91CF911F910F91FF90C9
:1031A000EF90DF90CF9008952AE0B701A601DF915C
:1031B000CF911F910F91FF90EF90DF90CF900C94E3
:1031C0004D2B90E0FC013197E231F10508F04EC043
:1031D0008827E055FF4F8F4F0C94BE588091800098
:1031E0008F7703C0809180008F7D80938000089549
:1031F00080918000877FF9CF84B58F7702C084B536
:103200008F7D84BD08958091B0008F7703C0809139
:10321000B0008F7D8093B0000895809190008F77EB
:1032200007C0809190008F7D03C080919000877FC0
:103230008093900008958091A0008F7707C08091BF
:10324000A0008F7D03C08091A000877F8093A000A5
:103250000895809120018F7707C0809120018F7D94
:1032600003C080912001877F8093200108953FB79C
:10327000F8948091E90F9091EA0FA091EB0FB09133
:10328000EC0F26B5A89B05C02F3F19F00196A11D94
:10329000B11D3FBFBA2FA92F982F8827820F911DEC
:1032A000A11DB11DBC01CD0142E0660F771F881F33
:1032B000991F4A95D1F708950F931F93CF93DF93EA
:1032C000EC01892B09F451C08881882309F44DC091
:1032D000843209F4219664E287E491E10E94312B63
:1032E0008E01C0E0D0E0F80161918F01662361F0AA
:1032F0006A3211F0DD2311F0DF5F01C0C62787E4D9
:1033000091E10E94312BEFCFD1112FC06AE287E407
:1033100091E10E94312B6C2F70E084E075956795E8
:103320008A95E1F76A30710514F0695C01C0605D4F
:1033300087E491E10E94312BCF70CA3010F067E32F
:1033400001C060E36C0F87E491E10E94312B6DE0D6
:1033500087E491E10E94312B6AE087E491E1DF91FB
:10336000CF911F910F910C94312BDF91CF911F9131
:103370000F910895EF92FF920F931F93CF93DF93D6
:1033800000D000D0CDB7DEB77C018C010A5B1E4FA8
:1033900063E07CE0F801808191810E94722CF7014A
:1033A000EC52FF4F808191818130910589F02CF49E
:1033B000892BA9F46FE07CE00DC08330910529F0E2
:1033C000049769F46FEC74E005C06DE07CE002C026
:1033D00061E17CE0F801808191810E94722C6CE2B5
:1033E000F801808191810E94312BF701EA52FF4F51
:1033F00060817181F80180819181ADDE6CE2F8011C
:10340000808191810E94312BC70188529F4F0E9479
:103410002E06AB01BC0122E030E0F80180819181F1
:103420000E94952B6CE2F801808191810E94312BE2
:10343000C70184529F4F0E942E06AB01BC0122E0BF
:1034400030E0F801808191810E94952B6CE2F801B7
:10345000808191810E94312BF701E052FF4F408122
:1034600050E060E070E02AE0F801808191810E94E4
:103470004D2B6CE2F801808191810E94312BC701B4
:103480008F519F4F0E942E06AB01BC0122E030E01D
:10349000F801808191810E94952BF0ECEF1AFEEFEC
:1034A000FF0AB701CE0101960E94422A8D819E81BA
:1034B000892B19F089819A8102C080E090E0FCDEBE
:1034C000CE0101960E94FA2960E070E0C7010E94D7
:1034D000C02826960FB6F894DEBF0FBECDBFDF9191
:1034E000CF911F910F91FF90EF900895EF92FF926F
:1034F0000F931F93CF93DF9300D000D0CDB7DEB7EB
:103500007C018C010B511F4FFC01E35BFE4FB801A6
:10351000828193810E947E0581E0F80180830F59AA
:103520001F4F63E17CE0F801808191810E94722C41
:103530002AE045E050E060E070E0F8018081918190
:103540000E944D2B64EF79E0F801808191810E9407
:10355000722CC7018A519F4F0E942E06AB01BC01FD
:1035600022E030E0F801808191810E94952B6CE28D
:10357000F801808191810E94312BC70186519F4FB4
:103580000E942E06AB01BC0122E030E0F8018081F0
:1035900091810E94952B6CE2F801808191810E94BB
:1035A000312BC70182519F4F0E942E06AB01BC01F7
:1035B00022E030E0F801808191810E94952B6CE23D
:1035C000F801808191810E94312BF701E950FF4F72
:1035D0004081518160E070E02AE0F80180819181B2
:1035E0000E944D2B6CE2F801808191810E94312B69
:1035F000F701E750FF4F808191818130910541F0C3
:103600008230910541F0892B69F461EC79E005C0C5
:103610006BE17CE002C06DE07CE0F801808191818B
:103620000E94722CF0ECEF1AFEEFFF0AB701CE01F8
:1036300001960E94422A8D819E81892B19F08981F1
:103640009A8102C080E090E037DECE0101960E94B0
:10365000FA2960E070E0C7010E94C02826960FB6E4
:10366000F894DEBF0FBECDBFDF91CF911F910F91B8
:10367000FF90EF900895EF92FF920F931F93CF93D7
:10368000DF9300D000D0CDB7DEB77C018C010550B0
:103690001F4FFC01E35BFE4FB801828193810E94C2
:1036A000B80581E0F8018083055B1F4F63E17CE092
:1036B000F801808191810E94722C2AE043E050E061
:1036C00060E070E0F801808191810E944D2B64EFF1
:1036D00079E0F801808191810E94722CF701EA5F04
:1036E000FE4F60817181F8018081918134DD6CE24F
:1036F000F801808191810E94312BF701E85FFE4F34
:103700004081518160E070E02AE0F8018081918180
:103710000E944D2B6CE2F801808191810E94312B37
:10372000F701E65FFE4F6081062E000C770BF80173
:103730008081918110DD6CE2F801808191810E948D
:10374000312BF701E55FFE4F80819181009729F0D1
:10375000019751F46DE17CE002C06FE07CE0F8017C
:10376000808191810E94722C6CE2F80180819181AC
:103770000E94312BF701E35FFE4F408150E060E093
:1037800070E02AE0F801808191810E944D2B6CE26B
:10379000F801808191810E94312BC701825F9E4F89
:1037A0000E942E06AB01BC0122E030E0F8018081CE
:1037B00091810E94952B6CE2F801808191810E9499
:1037C000312BC7018E5E9E4F0E942E06AB01BC01BD
:1037D00022E030E0F801808191810E94952B6CE21B
:1037E000F801808191810E94312BF701EA5EFE4F42
:1037F000408150E060E070E02AE0F8018081918132
:103800000E944D2BF0ECEF1AFEEFFF0AB701CE013C
:1038100001960E94422A8D819E81892B19F089810F
:103820009A8102C080E090E047DDCE0101960E94BF
:10383000FA2960E070E0C7010E94C02826960FB602
:10384000F894DEBF0FBECDBFDF91CF911F910F91D6
:10385000FF90EF900895FC01DB0180A9882321F0FF
:103860004C3209F050C016C011961C921E9213964D
:103870001C921E92129782A9826082AB11AA81E0EB
:103880004D3209F080E092A980FB90F992AB882339
:1038900039F36EC081A9811102C081E081AB12961B
:1038A0008D919C911397892BB9F482A980FF29C02F
:1038B00012968D919C9113979195819591091396EC
:1038C0009C938E9312978D919C91119791958195D0
:1038D00091098D939C9315C02AE081A991E0980FDE
:1038E00091AB833010F712964D915C911397249F02
:1038F000C001259F900D112413969C938E931297CF
:10390000ECCF81E008954E3219F481E081AB30C0F4
:1039100081A9811113C02D913C9111975AE0529FBA
:10392000C001539F900D1124042E000C550B4053E1
:103930005109480F591F4D935C931AC091E0980F9D
:1039400091AB8330A8F412962D913C9113975AE0D5
:10395000529FC001539F900D1124042E000C550B53
:1039600040535109480F591F13965C934E93129779
:1039700080E008950F931F93CF93DF93EC018901AB
:103980006ADF882331F098A9992319F091E0F801B2
:103990009083DF91CF911F910F910895CF93DF9383
:1039A000282F30E0F901E258FB4F8491F901E25EE3
:1039B000FB4FD491F901E852FC4FC491CC2389F01C
:1039C0008111FFDBEC2FF0E0EE0FFF1FEC59FB4FF6
:1039D000A591B491EC91ED2381E090E021F480E099
:1039E00002C080E090E0DF91CF9108951F93CF93C4
:1039F000DF93282F30E0F901E258FB4F8491F90161
:103A0000E25EFB4FD491F901E852FC4FC491CC2304
:103A1000C1F0162F8111D5DBEC2FF0E0EE0FFF1F68
:103A2000EC55FC4FA591B4918FB7F894111105C0D6
:103A30009C91ED2FE095E92302C0EC91ED2BEC93E6
:103A40008FBFDF91CF911F9108951F93CF93DF9385
:103A5000182FEB010E94CA12209711F460E004C0F5
:103A6000CF3FD10531F461E0812FDF91CF911F91DC
:103A7000BDCFE12FF0E0E258FB4FE4914E2F50E034
:103A8000FA013197E231F10508F09DC08827EE5325
:103A9000FF4F8F4F0C94BE5884B5806884BDC7BD5E
:103AA00097C084B5806284BDC8BD92C080918000FB
:103AB000806880938000D0938900C093880088C07C
:103AC00080918000806280938000D0938B00C093AF
:103AD0008A007EC080918000886080938000D093AF
:103AE0008D00C0938C0074C08091B000806880937A
:103AF000B000C093B3006CC08091B000806280932E
:103B0000B000C093B40064C080919000806880933E
:103B10009000D0939900C09398005AC08091900073
:103B2000806280939000D0939B00C0939A0050C015
:103B300080919000886080939000D0939D00C09306
:103B40009C0046C08091A00080688093A000809176
:103B5000A0008F7B8093A000D093A900C093A80001
:103B600037C08091A00080628093A000D093AB000A
:103B7000C093AA002DC08091A00088608093A0000F
:103B8000D093AD00C093AC0023C080912001806829
:103B900080932001D0932901C093280119C08091FE
:103BA0002001806280932001D0932B01C0932A01D1
:103BB0000FC080912001886080932001D0932D0157
:103BC000C0932C0105C0C038D1050CF04CCF46CFB6
:103BD000DF91CF911F910895863308F0865390911D
:103BE0007B00282F2870977F922B90937B00877003
:103BF000806480937C0080917A00806480937A0056
:103C000080917A0086FDFCCF809178002091790028
:103C100090E0922B08958F929F92AF92BF92CF9295
:103C2000DF92EF92FF926B017C0121DB4B015C0183
:103C3000C114D104E104F104E9F019DBDC01CB018A
:103C400088199909AA09BB09883E9340A105B105C5
:103C500078F321E0C21AD108E108F10888EE880E55
:103C600083E0981EA11CB11CC114D104E104F1042D
:103C700021F7DECFFF90EF90DF90CF90BF90AF9015
:103C80009F908F9008952FB7F8946091E50F7091F1
:103C9000E60F8091E70F9091E80F2FBF0895FC0188
:103CA000613311F0613411F483E013C0603321F00B
:103CB0006E3411F0663511F414A60CC0623311F0A5
:103CC000643411F484E005C0663311F0653429F4DE
:103CD00081E084A785A5816085A780E008958F9203
:103CE0009F92AF92BF92CF92DF92EF92FF924B01E1
:103CF0005C016B017C0184E0F694E794D794C7944F
:103D00008A95D1F7D501C40122E0B695A79597957C
:103D100087952A95D1F7C80ED91EEA1EFB1ED7013A
:103D2000C60134E0B695A795979587953A95D1F752
:103D3000C80ED91EEA1EFB1EBB27AF2D9E2D8D2D52
:103D4000C80ED91EEA1EFB1EC701AA27BB27C80E34
:103D5000D91EEA1EFB1EA3E0B0E0A70196010E9457
:103D6000DE56A5019401261B370B480B590BABE01F
:103D7000B0E00E94DE56DC01CB0165E0B695A79568
:103D8000979587956A95D1F7BC01CD016C0D7D1D86
:103D90008E1D9F1DFF90EF90DF90CF90BF90AF9052
:103DA0009F908F900895CF92DF92EF92FF921F9392
:103DB000CF93DF93FC01EB01142F80A9811108C080
:103DC000188219821A821B8211AA82A9826082AB90
:103DD0001E3281F01C3209F07BC081A9882351F08A
:103DE00081A9843091F5288139814A815B81A4E6DB
:103DF000B0E045C081E081AB8981982F92959F709A
:103E00008F702AE0929F800D11249A8191118C5914
:103E10004881942F92959F704F702AE0929F400D99
:103E2000112450E09CE3899F400D511D1124052E63
:103E3000000C660B770B488359836A837B831E32A1
:103E400009F4A5C01C3261F243C0853039F42881E1
:103E500039814A815B81AAE0B0E011C08630F1F07F
:103E600008F097C0288139814A815B81833019F439
:103E7000A8EEB3E004C0823029F4A0E1B7E20E94CA
:103E8000DE5608C0813051F460EA76E881E090E0C7
:103E90000E94AD56688379838A839B83C880D980CA
:103EA000EA80FB80D701C601880F991FAA1FBB1F9C
:103EB000BC01CD016F5F7F4F8F4F9F4F10DFC60E4C
:103EC000D71EE81EF91EC882D982EA82FB8261C031
:103ED00081A9811118C0812F110F990BC097092E4C
:103EE000000CAA0BBB0B488159816A817B8134E0AD
:103EF000440F551F661F771F3A95D1F7842B952BDA
:103F0000A62BB72B40C08F5F81AB8730C0F42881D0
:103F100039814A815B81AAE0B0E00E94DE56212F00
:103F2000110F330B205331096901330FEE08FF08DD
:103F3000DC01CB018C0D9D1DAE1DBF1D24C0873043
:103F400031F5C880D980EA80FB80D701C601880F8F
:103F5000991FAA1FBB1FBC01CD016F5F7F4F8F4F01
:103F60009F4FBDDEDC01CB018C0D9D1DAE1DBF1D25
:103F7000193324F00296A11DB11D05C014331CF0A5
:103F80000196A11DB11D88839983AA83BB8380E01C
:103F900001C081E0DF91CF911F91FF90EF90DF9002
:103FA000CF900895FC01DB0180A9882321F04C32D9
:103FB00009F050C016C011961C921E9213961C92C6
:103FC0001E92129782A9826082AB11AA81E04D32C3
:103FD00009F080E092A980FB90F992AB882339F335
:103FE0006EC081A9811102C081E081AB12968D91D2
:103FF0009C911397892BB9F482A980FF29C012964E
:104000008D919C91139791958195910913969C930D
:104010008E9312978D919C9111979195819591090D
:104020008D939C9315C03AE081A991E0980F91ABD4
:10403000281710F312964D915C911397349FC0018D
:10404000359F900D112413969C938E931297ECCF6D
:1040500081E008954E3219F481E081AB30C081A92E
:10406000811113C02D913C9111975AE0529FC001CC
:10407000539F900D1124042E000C550B40535109F1
:10408000480F591F4D935C931AC091E0980F91AB64
:104090002817A8F012962D913C9113975AE0529F41
:1040A000C001539F900D1124042E000C550B40535A
:1040B0005109480F591F13965C934E93129780E055
:1040C00008950F931F93DC01D0960C91D09710E0C8
:1040D0000930110508F04BC0F8018827EC52FF4F5A
:1040E0008F4F0C94BE586C3209F441C0660F605675
:1040F000862F880F880F04C096968C9196978053D0
:10410000680F96966C9333C0660F6056862F880FA3
:10411000880F04C095968C9195978053680F95965B
:104120006C9325C0660F6056862F880F880F04C0D9
:1041300094968C9194978053680F94966C9317C0C3
:10414000660F6056862F880F880F680F9B966C93BA
:104150000EC09B968C919B978053680F9B966C9397
:104160009B979D968C919D9784609D968C9381E002
:104170001F910F910895EF92FF920F931F93CF938A
:10418000DF93CDB7DEB72C970FB6F894DEBF0FBE26
:10419000CDBF7C018B0184E2FB0111928A95E9F786
:1041A00084E290E0A0E0B0E0FB0180839183A283F1
:1041B000B383F70184819581A681B781FB01848354
:1041C0009583A683B78383E090E0A0E0B0E080878A
:1041D0009187A287B38757DDF801608B718B828B43
:1041E000938BB701CE0101960E94781689819A813E
:1041F000AB81BC81F801848B958BA68BB78B8D81AD
:104200009E81AF81B885808F918FA28FB38F898572
:104210009A85AB85BC85848F958FA68FB78F81E0FB
:104220002C960FB6F894DEBF0FBECDBFDF91CF91B5
:104230001F910F91FF90EF9008950F931F93CF93CD
:10424000DF938C01EB0188E2FB0111928A95E9F77B
:104250004BE050E06FE17CE0CE010E94FF5A1B86EC
:1042600081E090E0A0E0B0E08C879D87AE87BF87BB
:10427000F80184819581A681B781888B998BAA8B5F
:10428000BB8B83E090E0A0E0B0E08C8B9D8BAE8B8D
:10429000BF8B1CA21DA21EA21FA2188E198E1A8EE1
:1042A0001B8E1C8E1D8E1E8E1F8E8AE097EDA3E244
:1042B000BCE388A399A3AAA3BBA3DF91CF911F91CD
:1042C0000F910895CF93DF93EC01462F8A818230BE
:1042D00079F0873009F469C0813009F004C1E881C0
:1042E000F9810084F185E02DCE01DF91CF91199401
:1042F000EFA58E2F90E0FC013197E930F10508F031
:10430000F2C08827E352FF4F8F4F0C94BE588AA902
:1043100082FFE9C088A98111E6C0433509F0E3C0F6
:104320008F859889A989BA89B095A095909581952E
:104330009F4FAF4FBF4F8F87988BA98BBA8BD3C03E
:104340004C3231F488A9811103C08AA98B7F8AABD2
:104350008AA982FFC8C0BE016D5E7F4FCE0123DDFA
:10436000C2C088A98111BFC0642FCE0198DCBBC038
:10437000BE016D5D7F4FCE01A7D2882309F4B3C083
:104380009DA590687AC022E0BE01695E7F4FCE0194
:1043900009DE882309F4A7C021E098A9911101C082
:1043A00020E09DA520FB94F968C0EFA58E2F90E03A
:1043B000FC013197E930F10508F095C08827EA51F2
:1043C000FF4F8F4F0C94BE58642FCE01DF91CF91D9
:1043D00078CE88A9882339F08AA982FF84C0BE01DB
:1043E000615F7F4FBBCF91E04C3209F490E08AA926
:1043F00090FB82F98AABF0CF9AA992FB882780F9CB
:1044000092FF71C098A991116EC09DA598609DA75B
:10441000473509F068C04B895C896D897E89709544
:104420006095509541955F4F6F4F7F4F4B8B5C8BE5
:104430006D8B7E8B59C023E0BE01655E7F4FCE0140
:10444000B1DD882309F44FC021E098A9911101C082
:1044500020E09DA520FB95F910C022E0BE01615E21
:104460007F4FCE019FDD8823F1F121E098A99111C2
:1044700001C020E09DA520FB96F99DA735C088A925
:104480008230F9F038F4882391F0813061F568A525
:10449000605314C0843001F1D0F0853021F56AA555
:1044A0006053460F4AA78DA582608DA71CC06C3251
:1044B000D1F0440F4056642F660F660F460F48A791
:1044C00012C0440F4056642F660F660F02C069A5E4
:1044D0006053460F49A707C0440F4056642F660F2C
:1044E000660F460F4AA781E0DF91CF910895CF93E1
:1044F000DF931F92CDB7DEB7FC01838191E09093EB
:10450000500F8093720F1092510F1092730F8BE621
:1045100091E149830E94680C4981642F8BE691E107
:104520000E94680C81E00E941B1681E00F90DF91D1
:10453000CF91089565E370E00E94732C803CB8F041
:10454000282F30E0A90164E0559547956A95E1F779
:104550004370433061F43595279535952795237041
:10456000233029F4982F937081E0933009F080E094
:104570000895462FFC01608771876DE370E0B7DF17
:104580006EE170E080E090E046CBCF92DF92EF9258
:10459000FF920F931F93CF93DF93EC018B01CADF40
:1045A000E82E882309F4DFC0C884D98460E070E075
:1045B000CE01DFDF69E170E080E090E02CDB66E5B2
:1045C00070E0CE010E94732CF82E65E570E0CE01FC
:1045D0000E94732C2F2D30E0322F2227282BF80138
:1045E0003183208368E570E0CE010E94732CF82EA1
:1045F00067E570E0CE010E94732C2F2D30E0322F42
:104600002227282BF801338322836AE570E0CE014C
:104610000E94732CF82E69E570E0CE010E94732C85
:104620002F2D30E0322F2227282BF80135832483C9
:1046300062E670E0CE010E94732CF82E61E670E015
:10464000CE010E94732C2F2D30E0322F2227282BF1
:10465000F8013783268364E670E0CE010E94732C54
:10466000F82E63E670E0CE010E94732C2F2D30E00F
:10467000322F2227282BF8013187208766E670E049
:10468000CE010E94732CF82E65E670E0CE010E94E8
:10469000732C2F2D30E0322F2227282BF80133875F
:1046A00022876CE570E0CE010E94732CF82E6BE53A
:1046B00070E0CE010E94732C2F2D30E0322F222784
:1046C000282BF801358724876EE570E0CE010E9423
:1046D000732CF82E6DE570E0CE010E94732C2F2D07
:1046E00030E0322F2227282BF8013787268760E613
:1046F00070E0CE010E94732CF82E6FE570E0CE01C1
:104700000E94732C2F2D30E0322F2227282BF80106
:10471000318B208B68E670E0CE010E94732CF82E5E
:1047200067E670E0CE010E94732C2F2D30E0322F0F
:104730002227282BF801338B228B6AE670E0CE010A
:104740000E94732CF82E69E670E0CE010E94732C53
:104750002F2D30E0322F2227282BF801358B248B88
:10476000B601CE0106DF8E2DDF91CF911F910F9103
:10477000FF90EF90DF90CF9008950895DC01509660
:104780002D913C9151971C96ED91FC911D97848140
:1047900095812817390788F40190F081E02D309732
:1047A00029F41092ED0FEDEEFFE002C0E20FF31FCF
:1047B0008081082E000C990B08958FEF9FEF0895CC
:1047C000FC0120893189A485B58514968D919C9131
:1047D000159728173907A8F4C9010196918B808B8A
:1047E0008D919C91009729F41092ED0FEDEEFFE072
:1047F00003C0FC01E20FF31F8081082E000C990B0F
:1048000008958FEF9FEF0895FC01A485B585149658
:104810008D919C91159720893189821B930B089566
:10482000FC018485958503D581E090E008950C9482
:104830005B590C945B59DC01FB0181E04C3209F0BF
:1048400080E0D0969C91D09791111AC0811138C008
:1048500081E04D3209F080E0D2969C91D29780FBA6
:1048600090F9D2969C93D297882331F09260D29699
:104870009C9311821082089550E0405351090FC05B
:10488000811110C0208131815AE0529FC001539F95
:10489000900D112450E040535109480F591F518386
:1048A000408310C0D2969C91892F817090FF0AC0DE
:1048B00020813181319521953109318320830895FB
:1048C00080E0089581E00895DC01FB01D2968C918F
:1048D000D2978E7FD2968C93D29791E04C3209F08A
:1048E00090E0D0968C91811104C091110CC040537E
:1048F00008C091110AC0405380819AE0899F400D01
:104900001124408302C080E0089581E00895CF9291
:10491000DF92EF92FF920F931F93CF93DF938DE27D
:10492000C82EDD24D394E12CF12C00E014E081E0CA
:10493000C81AD10889F08EE34FD9EC016AE070E023
:1049400080E090E068D9C017D1070CF48E01EC1616
:10495000FD066CF77E01EBCFC701801B910BDF9149
:10496000CF911F910F91FF90EF90DF90CF9008951E
:104970000F931F93CF93DF93EC018EE32DD98C011E
:104980008C859D85B801681B790B072E000C880B60
:10499000990B0E9484552A893B894C895D890E9424
:1049A000E3550E94C4572A853B85621B730B798FA0
:1049B000688FC801DF91CF911F910F9108950895DD
:1049C000BC0187E491E18EC76F927F928F929F9294
:1049D000AF92BF92CF92DF92EF92FF920F931F930D
:1049E000CF93DF93CDB7DEB72B970FB6F894DEBF2A
:1049F0000FBECDBF7C01D62EFC0122813381A901DF
:104A0000440F551F84819581840F951F9587848756
:104A100066817781641B750B77876687681B790BC6
:104A2000718B608B072E000C880B990B0E948455AC
:104A30009B01AC0160E070EC8FE794E40E945C574E
:104A4000F701628B738B848B958B2285338580E095
:104A500092E0821B930B20853185820F931F978BE9
:104A6000868BC70185DFDD2009F49BC086E29CE0D0
:104A70009F938F9389E29CE09F938F938CEAC82E3B
:104A80008DE0D82EDF92CF920E94335BC60198DF73
:104A9000C7016EDFF701768467849484858410896A
:104AA00001898EE399D86F927F928F929F920F9394
:104AB0001F939F938F9386E49CE09F938F93DF9245
:104AC000CF920E94335BC6017BDFF7016289738955
:104AD000848995898E010F5F1F4F22E048E00E9474
:104AE000F6509F938F9382E79CE09F938F93DF9282
:104AF000CF920E94335BC60163DFF7018285938505
:104B000026893789AC01415051095F934F933F93F8
:104B10002F939195819591099F938F93808D918D7E
:104B2000821B930B9F938F9380E99CE09F938F93BD
:104B3000DF92CF920E94335B0FB6F894DEBF0FBEB8
:104B4000CDBFC6013DDFC701E2DE8C01F7018381E5
:104B50008F9382818F931F930F938AEB9CE09F9397
:104B60008F93DF92CF920E94335BC60129DF0FB68D
:104B7000F894DEBF0FBECDBFF70182819381081785
:104B800019073CF487E491E10E944F0B80E090E02C
:104B900002C082E090E00FB6F894DEBF0FBECDBF3A
:104BA00002C080E090E02B960FB6F894DEBF0FBEF7
:104BB000CDBFDF91CF911F910F91FF90EF90DF90CC
:104BC000CF90BF90AF909F908F907F906F900895FF
:104BD000CF93DF93FC011282DC01139686E0ED0196
:104BE00019928A95E9F7128E949685E0ED01199253
:104BF0008A95E9F710AA1A968AE0ED0119928A952A
:104C0000E9F75F961C92119688E0ED0119928A955A
:104C1000E9F790961C9211961C92ED58FF4F118265
:104C20001082DF91CF910895CF93DF93EC018A5AE0
:104C30009F4FCEDF1A821BAADF91CF9108950F9369
:104C40001F93CF93DF93DC0112960C9112970A30D9
:104C500008F4A8C110E0F8013A97EC30F10508F02B
:104C6000A6C18827E151FF4F8F4F0C94BE589F96E5
:104C70009C919F97913009F09AC1D0968C91D097D2
:104C800081110BC0603331F0613309F092C1909310
:104C9000EE0F8DC11092EE0F8AC1813009F048C02D
:104CA0008091EE0F811131C0462F660F550B660BB8
:104CB000770BFA01F097EA30F10508F07AC18827FE
:104CC000E550FF4F8F4F0C94BE58A753BF4F81E064
:104CD00090E08D939C936EC18BE027C08CE025C043
:104CE0008DE023C08EE021C08FE01FC080E11DC099
:104CF00081E11BC082E119C083E112968C93129767
:104D0000A753BF4F81E190E03BC0603329F061338E
:104D100009F04FC185E109C084E112968C93129786
:104D2000A753BF4F82E190E02BC012968C933FC1F6
:104D300081E06C3209F03DC13DC19F968C919F97F7
:104D4000823009F034C1D0968C91D09781112FC157
:104D50006C3209F42CC16235B1F034F4693409F0D5
:104D600026C1A753BF4FA4C0693631F0623709F09E
:104D70001EC1A753BF4FA1C0A753BF4F82E090E011
:104D80008D939C9314C1A753BF4F85E090E0F8CF5B
:104D90009F968C919F97823009F009C1D0968C9193
:104DA000D097811104C16C3209F401C16235C1F0A0
:104DB00044F4693409F0FBC0A753BF4F87E090E08B
:104DC000DFCF693641F0623709F0F1C0A753BF4F1A
:104DD00088E090E0D5CFA753BF4F86E090E0D0CFDA
:104DE000A753BF4F89E090E0CBCFFD01E753FF4FC2
:104DF0008CE090E005C0FD01E753FF4F8DE090E0AF
:104E000091838083CD01DF91CF911F910F91C4C712
:104E1000FD01E753FF4F8EE090E005C0FD01E75331
:104E2000FF4F8FE090E091838083CD01DF91CF91A0
:104E30001F910F9155C7462FED01FD01E753FF4F1D
:104E400080E190E0918380839FA5943009F440C075
:104E500058F49230E1F0933009F0A9C0BD016F59C8
:104E60007F4FCD01E8DCA3C09630E1F1A8F1973087
:104E700009F09DC09D01225A3F4FBD0164597F4FEB
:104E8000CD010E94BA1CDE01A85ABF4F88C088A974
:104E9000811116C0633539F0643569F06134A9F4C5
:104EA000A15ABF4F05C0A15ABF4F1D921C927FC08F
:104EB00083E090E065CFA15ABF4F84E090E060CFDF
:104EC000823018F46C3209F472C0CE01ADDE6FC0CE
:104ED000BD016D597F4F03C0BD0169597F4FCE01A0
:104EE00034D665C0BD0165597F4FCD01EDDC5FC093
:104EF0009F968C919F97823009F059C0D0968C91E3
:104F0000D097811154C06C3209F451C0673489F0D4
:104F1000693449F0613409F04AC0FD01E753FF4F9D
:104F200085E190E038C0FD01E753FF4F83E190E059
:104F300032C0FD01E753FF4F84E190E02CC09F9603
:104F40008C919F97823099F5D0968C91D097811152
:104F50002EC06C3261F16734C9F044F4633439F522
:104F6000FD01E753FF4F87E190E015C0693441F040
:104F70006235E9F4FD01E753FF4F8AE190E00BC091
:104F8000FD01E753FF4F88E190E005C0FD01E753C5
:104F9000FF4F89E190E091838083A853BF4F81E068
:104FA0008C9308C0DF91CF911F910F918BC981E045
:104FB00001C080E0DF91CF911F910F9108950F9371
:104FC0001F93CF93DF93EC010E94AD098C010097F2
:104FD00019F0029721F019C0CE0126DE16C09AA959
:104FE00091FF0DC09D7F9AAB88A98F5F88ABE88148
:104FF000F9810284F385E02D6CE2CE011995FE0162
:10500000E953FF4F81E080831BAAC801DF91CF9154
:105010001F910F91089508950895CF92DF92EF9216
:10502000FF920F931F93CF93DF936C017A018B0153
:10503000C0E0D0E0CE15DF0589F0D8016D918D017B
:10504000D601ED91FC910190F081E02DC6011995FA
:10505000892B11F47E0102C02196ECCFC701DF91AC
:10506000CF911F910F91FF90EF90DF90CF90089517
:105070000E94D75A0F931F93CF93DF93EC0188813F
:105080009981009729F02A813B812617370788F4F8
:105090008B016F5F7F4F0E94F359009761F09983F6
:1050A00088831B830A832C813D81232B11F4FC010F
:1050B000108281E001C080E0DF91CF911F910F91BC
:1050C0000895EF92FF920F931F93CF93DF93FC010C
:1050D000248135816115710511F480E018C04115F6
:1050E0005105A1F07B01EC018A01020F131FB801E9
:1050F000C1DF882391F3288139818C819D81B7019B
:10510000820F931F0E94F85A1D830C8381E0DF9168
:10511000CF911F910F91FF90EF900895CF93DF9360
:10512000DC011496ED91FC9115976E177F0728F519
:105130004115510511F19F01261B370B42175307EB
:1051400008F49A01DB01EC0188819981E21BF30BE1
:10515000FD83EC83AF01461B570B260F371FBC01A5
:10516000620F731F8A0F9B1F0E94FF5AE881F9810B
:105170008C819D81E80FF91F1082DF91CF910895F6
:105180004FEF5FEFCBCFCF93DF93FC0124813581CD
:10519000232B69F0C081D181062E000C770BCE0144
:1051A0000E94E45A009719F08C1B9D0B02C08FEFF0
:1051B0009FEFDF91CF910895FC0124813581621723
:1051C000730748F480819181009729F0FC01E60F74
:1051D000F71F8081089580E00895EF92FF920F936A
:1051E0001F93CF93DF9300D01F92CDB7DEB77C0122
:1051F000862F4AE08E010F5F1F4FB80190E00E949A
:105200005051F80101900020E9F73197AF01401BA0
:10521000510BB801C70155DF0F900F900F900F9001
:10522000DF91CF911F910F91FF90EF900895CF9351
:10523000DF931F921F92CDB7DEB769831A8241E0D8
:1052400050E0BE016F5F7F4F3CDF0F900F90DF910A
:10525000CF9108956115710549F0FB01019000207F
:10526000E9F73197AF01461B570B2BCF80E008952C
:10527000FB01448155816081718123CF0F931F937E
:10528000CF93DF938C01EB01FC018081918100972A
:10529000B1F0688179816115710579F0428153819E
:1052A0002C813D814217530740F00E94F85A8C81AF
:1052B0009D81F8019583848313C00E945B59888186
:1052C0009981F801918380838A819B819383828372
:1052D0008C819D8195838483198218821B821A8216
:1052E0001D821C82DF91CF911F910F910895CF9362
:1052F000DF93EC0188819981009711F00E945B593E
:10530000198218821D821C821B821A82DF91CF9122
:105310000895CF93DF93EC016115710559F0FB01FE
:1053200001900020E9F73197AF01461B570BC9DE0A
:10533000811102C0CE01DBDFCE01DF91CF91089554
:10534000CF93DF93EC01FB01448155816081718132
:10535000B8DE811102C0CE01CADFCE01DF91CF914C
:105360000895EF92FF920F931F93CF93DF93EC0179
:105370007B018A01BA017EDE811103C0CE01B7DF55
:1053800007C01D830C83B701888199810E94F85A58
:10539000CE01DF91CF911F910F91FF90EF90089573
:1053A000CF93DF93EC016115710551F0FB01019082
:1053B0000020E9F73197AF01461B570BD2DF01C040
:1053C00096DFCE01DF91CF910895CF93DF93EC016B
:1053D000FB018617970751F0608171816115710596
:1053E00021F044815581BDDF01C081DFCE01DF9115
:1053F000CF910895FC01808191810C945B590F93AA
:105400001F93CF93DF93CDB7DEB762970FB6F894B3
:10541000DEBF0FBECDBF8C01CB01F801118210821F
:10542000138212821582148250E0BE016F5F7F4F9B
:105430000E944651BE016F5F7F4FC801B1DF629687
:105440000FB6F894DEBF0FBECDBFDF91CF911F9195
:105450000F910895CF93DF931F921F92CDB7DEB7C0
:10546000FC011182108213821282158214826983D8
:105470001A82BE016F5F7F4F93DF0F900F90DF9115
:10548000CF910895FC01118210821382128215823D
:1054900014829BCFFC01118210821382128215822A
:1054A00014826115710549F0FB0101900020E9F7B4
:1054B0003197AF01461B570B54CF089590910002CE
:1054C00098133DC0E3EAF3E0E4919FEF909300026C
:1054D000E230C9F050F4EE2399F0E13081F590917B
:1054E0006F009D7F90936F002AC0E43019F1E0F0C7
:1054F000E53029F5909173009D7F909373001FC054
:1055000010926E001CC0909170009D7F909370006F
:1055100091E09093B0009091B100987F9460909347
:10552000B1001092B3000BC0909171009D7F9093D9
:10553000710005C0909172009D7F9093720060E0B1
:105540000C94F61C1F920F920FB60F9211240BB6FB
:105550000F922F933F934F935F936F937F938F930C
:105560009F93AF93BF93EF93FF938091BE0F909162
:10557000BF0FA091C00FB091C10F892B8A2B8B2B2D
:1055800051F18091BB0FE091BC0FF091BD0F908164
:10559000892780838091BE0F9091BF0FA091C00F8B
:1055A000B091C10F181619061A061B06BCF480919B
:1055B000BE0F9091BF0FA091C00FB091C10F019786
:1055C000A109B1098093BE0F9093BF0FA093C00FA4
:1055D000B093C10F03C08091000270DFFF91EF9183
:1055E000BF91AF919F918F917F916F915F914F91FB
:1055F0003F912F910F900BBE0F900FBE0F901F90F9
:1056000018950F931F93CF93DF93EC010E94431ED5
:10561000688779878A879B87E881F9810680F78187
:10562000E02DCE01199597FF17C00E94431E0885F3
:1056300019852A853B85DC01CB01801B910BA20BD0
:10564000B30B0C811D812E813F8180179107A2072A
:10565000B30710F38FEF9FEFDF91CF911F910F9161
:105660000895DC01ED91FC910190F081E02D1994F9
:105670006115710579F0FB0101900020E9F7319780
:10568000AF01461B570BDC01ED91FC910280F381C9
:10569000E02D199480E090E008954F925F926F9210
:1056A0007F92EF92FF920F931F93CF93DF93CDB72B
:1056B000DEB7A1970FB6F894DEBF0FBECDBF7C0159
:1056C000FA01CB0119A2223008F42AE08E010F5D05
:1056D0001F4F422E512C612C712CBF01A30192014E
:1056E0000E94BC56F901CA01015011096A3014F434
:1056F000605D01C0695CD8016C93232B242B252BA2
:1057000061F7B801C701B4DFA1960FB6F894DEBF08
:105710000FBECDBFDF91CF911F910F91FF90EF9002
:105720007F906F905F904F9008954F925F926F922D
:105730007F928F929F92AF92BF92CF92DF92EF9221
:10574000FF92CF93DF93EC016A017B01B22E9A01A5
:10575000AB01C701B6010E949758882319F06BEF7F
:105760007CE027C026013701E89477F82FEF3FEF60
:105770004FE75FE7C301B2010E94975881110DC046
:105780002FEF3FEF4FE75FE7C301B2010E947E5565
:1057900018161CF46FEF7CE00CC02FEF3FEF4FE7C3
:1057A0005FE4C701B6010E945158181694F463E0F3
:1057B0007DE0CE01DF91CF91FF90EF90DF90CF9011
:1057C000BF90AF909F908F907F906F905F904F9021
:1057D0004FCF2FEF3FEF4FE75FECC701B6010E94BD
:1057E0007E5587FDE4CF20E030E0A901C701B60176
:1057F0000E947E5587FF09C06DE2CE0132DF4C0169
:10580000F7FAF094F7F8F09402C0812C912CA12CB7
:1058100060E070E080E09FE3AB1440F420E030E013
:1058200040E251E40E945C57A394F6CF9B01AC0187
:10583000C701B6010E94F8562B013C010E94C957CE
:105840006B017C010E9482559B01AC01C301B20136
:105850000E94F7562B013C012AE0B701A601CE01B8
:105860001CDF7C01E80CF91CBB2029F06EE2CE01A4
:10587000F8DEE80EF91EDB2CDD2021F120E030E01F
:1058800040E251E4C301B2010E94E3552B013C0107
:105890000E94C9574B01A12CB12C2AE0B501A401EB
:1058A000CE01FBDEE80EF91EC501B4010E9482554F
:1058B0009B01AC01C301B2010E94F7562B013C01D0
:1058C000DA94DACFC701DF91CF91FF90EF90DF90AC
:1058D000CF90BF90AF909F908F907F906F905F9090
:1058E0004F900895C5CECF93DF93EC018B8191E06B
:1058F0009093500F8093720F1092510F1092730F6C
:105900008BE691E10E94680C81E00E941B1661E029
:105910008B810E94D71510924F0F80934E0F8BE60C
:1059200091E10E94EB0BDF91CF910895CF93FC01A1
:10593000DB0182A98E7F82AB81E04C3209F080E0EE
:1059400090A9911106C0811117C050E04053510930
:1059500010C0811113C050E0405351096D917C91EA
:105960001197CAE0C69FC001C79F900D1124480F30
:10597000591F4D935C9302C080E008C080A9882322
:1059800021F081E0F901808301C081E0CF91089589
:105990000F931F93CF93DF93EC018B0198A9911183
:1059A00016C04D34D9F04435A1F4CB010E942E0627
:1059B000AB01BC01E881F9810684F785E02DCE01B9
:1059C0001995AB01BC01C8010E94510507C0923076
:1059D00018F0CE0129D902C04C32D9F781E0DF910D
:1059E000CF911F910F910895CF92DF92FF920F9365
:1059F0001F93CF93DF93EC018B0169010E942B1C55
:105A0000F82E8823A1F0F801408151814C545F4F5A
:105A10004836514030F0F80111821082CE0104D98D
:105A200006C088A9882319F081E0F60180838F2DB4
:105A3000DF91CF911F910F91FF90DF90CF9008954C
:105A4000FF920F931F93CF93DF93CDB7DEB72F97BE
:105A50000FB6F894DEBF0FBECDBF8C01F42E6CE6FE
:105A60007AE018DD61E2C801E2DB67E07DE0C801B1
:105A7000F1DB1B861A861D861C861F861E864AE061
:105A8000BE016F5F7F4F8F2D90E00E946F51BE016E
:105A90006F5F7F4FCE010A9683DCBE01665F7F4F4A
:105AA000C801E6DBCE010A96A5DC64E2C801BFDBD3
:105AB000C8012F960FB6F894DEBF0FBECDBFDF91A1
:105AC000CF911F910F91FF900895CF92DF92FF9297
:105AD0000F931F93CF93DF938B01FB01C480D5807D
