:100000005BC200008AC2000088C2000086C20000F5
:1000100084C2000082C2000080C200007EC20000D4
:100020007CC200000C94851A0C94851A0C94851AD5
:1000300074C200000C945C1370C200006EC2000019
:100040006CC200006AC2000068C2000066C2000004
:1000500064C2000062C2000060C200000C94AC3DAB
:100060005CC200000C94531A0C947E1956C2000016
:1000700054C2000052C2000050C200004EC2000034
:100080004CC200004AC2000048C2000046C2000044
:100090000C94211A0C943F1940C200000C948F1A42
:1000A0003CC200003AC2000038C2000036C2000064
:1000B00034C2000032C2000030C200002EC2000074
:1000C0002CC200002AC2000028C200000C94EF19C4
:1000D0000C94001922C200000C94BD190C94C11894
:1000E0001CC20000890B990BA30BD70BFD0B0B0C4B
:1000F000120C1B0C820C8C0C960CB20CBD0CCC0C94
:10010000D00CD40CEE0CF20CF80CFE0C2C0D920D55
:10011000BD0DEA0DF00DFD0D030E100E6F0ECF0E8E
:10012000CF0E960E5A0D610D630D650D670D690DAD
:100130006B0D6D0D6F0D710D83498E499149974976
:100140009A499D49C049AC49C049EE4BEE4BEE4B34
:10015000CF49EE4B004AEE4BB04BBE4BC649FA4975
:10016000964AAB4A3E4B754BD54BCE4BCA4BDD4BFB
:100170001C221F220E22122218225622232227225C
:100180002D22312235223B223F2243225622492270
:100190004D225122AD22B222B722C122CB224423CA
:1001A000D522DD22E522EF22F922032312231C238C
:1001B0004423262330233A2345244E2456245C240A
:1001C00064246A24892472247B2488268D2622268E
:1001D0003B26A0264D2655261E27612688264D261D
:1001E0008D2622263B26A026BF26D126E426CB3804
:1001F000E939EB392039D538423900396939CA39FA
:10020000AB39CD39AE39873AA339043A9F3AD93A56
:10021000BC3AF33A333A4E414E494E495459494E4D
:1002200046CDCCCC3D0AD7233C17B7D13877CC2B61
:10023000329595E6241FB14F0A000020410000C806
:100240004200401C4620BCBE4CCA1B0E5AAEC59D87
:100250007400407A10F35A00A0724E18090010A5DD
:10026000D4E80000E87648170000E40B54020000D0
:10027000CA9A3B000000E1F5050000809698000056
:100280000040420F000000A086010000001027007F
:10029000000000E803000000006400000000000A05
:1002A00000000000000100000000002C76D888DC6F
:1002B000674F0823DFC1DFAE59E1B1B796E5E3E44C
:1002C00053C63AE651997696E8E6C28426EB898CC5
:1002D0009B62ED407C6FFCEFBC9C9F40F2BAA56F27
:1002E000A5F490055A2AF75C936B6CF9676DC11BF6
:1002F000FCE0E40D47FEF520E6B500D0ED902E03BE
:1003000000943577050080841E080000204E0A0006
:100310000000C80C333333330F986E12831141EF52
:100320008D2114893BE65516CFFEE6DB18D1844BB0
:10033000381BF77C1D901DA4BBE424203284725E20
:10034000228100C9F124ECA1E53D275A4441005621
:1003500057520056544700524D430048444D004701
:100360005356004753540047534100474C4C0047F5
:100370004741004150420073036F036B03670363FF
:10038000035F035B03570353034F034B0301000059
:100390000B7703000020002300260029002C002FEB
:1003A0000032000001000003010601090100000AFB
:1003B0000B02090C0D0E08070304010000000000E9
:1003C000000000000000000000000000000000002D
:1003D00000000000000000000012111000000000EA
:1003E000000000000000000000000000000000000D
:1003F0000000000200002200250028002B002E0033
:100400003100340002010000050108010B01000069
:100410002100240027002A002D00300033000101B4
:100420000000040107010A01050505050705080884
:100430000808020202020A0A08080404040401016E
:100440000101010101010303030303030303040783
:1004500007070C0C0C0C0C0C0C0C0202020206061A
:100460000606060606060B0B0B0B0B0B0B0B01020D
:1004700010202008081020401020408002010201B6
:10048000080402010102040810204080804020106E
:1004900008040201800402018040201008040201C7
:1004A000080402010102040810204080010204082F
:1004B000102040807752BE4811241FBECFEFD1E2FA
:1004C000DEBFCDBF00E00CBF1CE0A0E0B2E0EEEF6D
:1004D000FCEC00E00BBF02C007900D92AA3CB107F4
:1004E000D9F725E1AAECBCE001C01D92A83DB207F6
:1004F000E1F712E0CBE5D2E000E006C02197010968
:10050000802FFE010E944461CA35D10780E00807B0
:10051000A9F70E943B3E0C946E6672CDE0918E0F5F
:10052000F0918F0F0190F081E02D682F8EE89FE011
:100530001995029709F09DC08091E10F882361F021
:100540008091C00F88608093C00F1092E20F80915D
:10055000E10F81508093E10F8091BB0F80FF0CC0B1
:100560002091E00F9091BA0F20FF04C02091DF0F7F
:10057000291710F49093DF0F81FF0CC09091B60FF4
:100580009093DB0F9091B70F9093DC0F9091B80F81
:100590009093DD0F82FF10C09091B40F9093D90F0C
:1005A0009091B30F9093D80F9091B20F9093D70F73
:1005B0009091B90F9093DE0F83FF09C088E0EDE9B9
:1005C000FFE0A2ECBFE001900D928A95E1F78091E7
:1005D000BB0F84FF10C04091A50F5091A60F6091F2
:1005E000A70F7091A80F4093CA0F5093CB0F609341
:1005F000CC0F7093CD0F86FF10C04091AD0F50917E
:10060000AE0F6091AF0F7091B00F4093D20F509327
:10061000D30F6093D40F7093D50F85FF10C0409116
:10062000A90F5091AA0F6091AB0F7091AC0F40933E
:10063000CE0F5093CF0F6093D00F7093D10F87FFE1
:1006400004C08091B10F8093D60F9091E00F8091FC
:10065000BB0F892B8093E00F8091C00F84FF09C0EE
:100660001092E30F8091E10F811103C081E080932C
:10067000E10F08950C94E161CF93DF93EC01FC014D
:10068000EE57FE4F88EE93E0A0E0B0E080839183C8
:10069000A283B383349681E090E091838083329685
:1006A00080830E94A03DC757DE4F688379838A8389
:1006B0009B83DF91CF910895FC01EB50FF4F808128
:1006C00091810197039710F080E0089581E00895EB
:1006D0006F927F928F929F92AF92BF92CF92DF9252
:1006E000EF92FF920F931F93CF93DF9300D01F924F
:1006F000CDB7DEB73C014801590149835A836B836A
:100700007C83DADF49815A816B817C81811106C04B
:1007100095018401C3014E960E94C01B0F900F905B
:100720000F900F90DF91CF911F910F91FF90EF905D
:10073000DF90CF90BF90AF909F908F907F906F9001
:100740000895CF92DF92EF92FF92CF93DF93EC0167
:100750006A017B0120E030E0A901C701B6010E94D7
:10076000045E87FF0AC020E030E044EB53E4C70199
:10077000B6010E949A5F6B017C0120E030E044EBFF
:1007800053E4C701B6010E949E60C550DF4F6883E5
:1007900079838A839B83DF91CF91FF90EF90DF90E5
:1007A000CF900895DC011C9295E0E9EEF2E05496BA
:1007B00001900D929A95E1F708958F929F92AF92D2
:1007C000BF92CF92DF92EF92FF920F931F93CF933E
:1007D000DF93EC014A015B01CB01BA010E94666024
:1007E0006B017C017983688320E030E048EC52E4BF
:1007F000C501B4010E94695E0E9466602CE9860111
:100800002003A001219F500D1124CA01860F971FBC
:100810009B838A83CE01DF91CF911F910F91FF902F
:10082000EF90DF90CF90BF90AF909F908F90089502
:100830000F931F93CF93DF938C01EB01FC01468D47
:10084000578D60A171A1CE010196B7DFF80142A1D9
:1008500053A164A175A1CE010596AFDFF80146A1B1
:1008600057A160A571A5CE010996A7DFF801E65B47
:10087000FF4F808191819B8B8A8B7D9680819181B6
:100880009D8B8C8B85E0EEEEF2E0DE011D960190F3
:100890000D928A95E1F781E08883DF91CF911F91D6
:1008A0000F910895EF92FF920F931F93CF93DF93D1
:1008B0008C01EB01FC01808591859C878B8782856B
:1008C000938501979E878D87E856FF4F80819181A0
:1008D000998B888BF80182818A8B7801FAE9EF0E77
:1008E000F11CF70142A953A964A975A9CE01439649
:1008F00064DFF70146A557A560A971A9CE01479607
:100900005CDFF801848195819D8F8C8F8681978132
:100910009F8F8E8F8AE0E3EFF2E0DE011196019067
:100920000D928A95E1F781E08883DF91CF911F9145
:100930000F91FF90EF900895CF92DF92EF92FF9288
:10094000CF93DF93EC0168817981072E000C880B2F
:10095000990B0E940A5E6B017C018A819B81BC011C
:10096000990F880B990B0E940A5E2AE037ED43E24B
:100970005CE30E94695E9B01AC01C701B6010E9465
:100980009A5FDF91CF91FF90EF90DF90CF90089525
:10099000EF92FF920F931F93CF93DF93CDB7DEB704
:1009A0007C0125EFE20EF11CF70120813181232B20
:1009B00009F04CC08C018B85882349F08D899E8974
:1009C000F8019187808760E0C8010E94643C8F85B0
:1009D000882349F08C8D90E0F8019383828360E056
:1009E000C8010E94643C8889882351F0CE014D964D
:1009F000A3DFF801E453FF4F608371838283938305
:100A00008989882379F0CE01819696DFF7012081CC
:100A10003181232B39F4F801E853FF4F6083718350
:100A2000828393838B89882399F08C89882381F032
:100A30008EA19FA1F8019583848388A599A59783AA
:100A4000868360E0C8010E94643C02C080E001C06F
:100A500081E0DF91CF911F910F91FF90EF9008956A
:100A6000FC01EE5BFE4F2081222319F0815A9E4F3C
:100A700063CFFC01E550FF4F6081718182819381DA
:100A80000895EF92FF920F931F93CF93DF931F92DE
:100A9000CDB7DEB77C01FC0100811181C8016983FB
:100AA0000E941D5F6981681719F0C8010E94255FC7
:100AB000C7010F90DF91CF911F910F91FF90EF90A1
:100AC0000895BC0187E59FE00C943F15EF92FF92DB
:100AD0000F931F93CF93DF93EC018B017C018DE685
:100AE000E81A8EEFF80AF70180819181681779077B
:100AF000C9F0719788EE93E0A0E0B0E08083918325
:100B0000A283B383349684E190E09183808332960C
:100B100081E080830E94A03DC757DE4F68837983C0
:100B20008A839B83F701118300831F930F938AE6C7
:100B300097E09F938F938AEC9CE09F938F930E9402
:100B4000A5630F900F900F900F900F900F908AEC6D
:100B50009CE0DF91CF911F910F91FF90EF90B1CF6B
:100B60000F931F93CF93DF93EC018B01FC01EB56A6
:100B7000FE4F718360831F936F9381E897E09F938B
:100B80008F938AEC9CE09F938F930E94A5638AECDD
:100B90009CE097DF0F900F900F900F900F900F90A9
:100BA000012BD9F0FE01EE57FE4F80ED97E0A0E05B
:100BB000B0E080839183A283B383349684E190E094
:100BC00091838083329681E080830E94A03DC75745
:100BD000DE4F688379838A839B83DF91CF911F9156
:100BE0000F910895CF92DF92EF92FF920F931F9390
:100BF000CF93DF93EC016A017B0120E030E0A90193
:100C0000C701B6010E94F360181624F0F7FAF094B9
:100C1000F7F8F094FE01E357FE4F8081682F70E0F3
:100C200080E090E00E940A5E9B01AC01C701B60122
:100C30000E94045E9091870D8E010E561E4F87FF15
:100C400013C0992309F43EC01092870DF801108259
:100C500082E40E941813FE01E857FE4F108260E004
:100C600070E0CE017DDF2EC091110FC081E0809336
:100C7000870D0E94A03D0E94085E6093830D7093D3
:100C8000840D8093850D9093860DF80180818111EC
:100C900019C00E94A03D0E94085E2091830D3091F2
:100CA000840D4091850D5091860D0E94995FFE0143
:100CB000E257FE4F20813181428153810E94F360CF
:100CC00018165CF0F8018081DF91CF911F910F9190
:100CD000FF90EF90DF90CF900895FF24F394F801F8
:100CE000F08262E070E0CE013BDFFE01EE57FE4F86
:100CF00088EE93E0A0E0B0E080839183A283B38389
:100D000034968FEF93E0918380833296F0820E9435
:100D1000A03DC757DE4F688379838A839B83D2CFF8
:100D20004F925F926F927F928F929F92AF92BF92FB
:100D3000CF92DF92EF92FF920F931F93CF93DF93A7
:100D4000CDB7DEB7C254D1090FB6F894DEBF0FBEDF
:100D5000CDBF6C0125EFC20ED11CD601AD90BC9069
:100D6000A616B70609F484C17B018C01B3E0AB166B
:100D7000B10431F0E5E0AE16B10409F441C04DC054
:100D80000E942B3C4C01880C991CF3E08F169104B7
:100D90001CF423E0822E912C9F928F9284E997E09D
:100DA0009F938F938CE795E19F938F930E94A56308
:100DB0008CE795E10E94263CD80113969C928E9276
:100DC00012975A968D919C915B9715969C938E9352
:100DD00014975C968D919C915D9717969C938E933A
:100DE000169719961C921E92189761E0C8010E94EE
:100DF000643C0F900F900F900F900F900F900DC0CC
:100E00006430710551F4865C9E4F96DDAB01BC01E8
:100E1000C80189509F4F0E940410F6018080918084
:100E2000F182E082F3E0EF16F104A9F02CF4EF2850
:100E3000A1F580EE97E00DC084E0E816F10439F0EA
:100E4000A6E0EA16F10449F584EC97E002C088EACE
:100E500097E037DE22C08BEF97E00E94263CF80136
:100E60001382128215821482EE24EA9493E0F92E02
:100E7000F782E6821186108660E0C8010E94643C19
:100E8000D8015B96FC92EE925A975D961C921E9248
:100E90005C9787E198E00E94263CF601E080F180B3
:100EA000F5E08F16910489F581E2982E3E0122E249
:100EB000620E711CD301E92D1D92EA95E9F7C30179
:100EC00071DCF301DE011196892D01900D928A9556
:100ED000E1F7FE013196D801A35EBE4F01900D925D
:100EE0009A94E1F70E94A03DF801E25CFE4F608316
:100EF000718382839383E95AFF4F808191810697A2
:100F000021F460E070E0C8012BDEE114F10409F483
:100F100077C0F7FCADC0F4E0EF1AF10822E0E2166A
:100F2000F10408F0A5C0F801E053FF4F8081882349
:100F300009F49AC0EA54F1091082118212821382D4
:100F400034971082118212821382680186E5C80EDE
:100F5000D11CD6018C9181114AC0D801DA96ED914D
:100F6000FC91DB9780809180A280B3807801B2E40D
:100F7000EB0EF11CF70180829182A282B382D8012C
:100F8000D896ED91FC91D99780819181A281B3810E
:100F9000F801EA5BFF4F80839183A283B3833C9681
:100FA0004080518062807380A3019201C501B40129
:100FB0000E94F360181634F4F70140825182628275
:100FC000738215C0F801E25BFF4F40805180628060
:100FD0007380A3019201C501B4010E94045E87FFE2
:100FE00006C0D7014D925D926D927C92139781E07D
:100FF000F6018083C8018B599F4F0E94623138C02F
:10100000F801EA57FF4F108211821282138234973F
:101010001082118212821382BC971082D8015896D6
:101020002D913C91599756968D919C915797281BDD
:10103000390B1A968D919C911B972817390714F03C
:10104000019707C0919581959109821793070CF438
:10105000C901F801EA56FF4F9183808340E050E0D8
:10106000BA01C801BFDD04C0F601B182A08201C08F
:1010700081E0CE5BDF4F0FB6F894DEBF0FBECDBF71
:10108000DF91CF911F910F91FF90EF90DF90CF9064
:10109000BF90AF909F908F907F906F905F904F9098
:1010A000089523E434E0FC0131832083E15AFF4FAB
:1010B0002BE434E0318320838B599F4F0C94EA2E2C
:1010C000EF92FF920F931F93CF93DF93EC0187E78B
:1010D00094E099838883FE01E15AFF4F8FE794E003
:1010E00091838083FB9687E894E0918380837E01DF
:1010F0008FEFE80EF11CE114F10461F08E01035E44
:101100001E4F0E151F0531F006501109C8010E942F
:10111000A212F7CFCE01DF91CF911F910F91FF90D7
:10112000EF90BFCF0895CF93DF93EC016F3F710530
:1011300009F050F48C819D816817790729F07D832F
:101140006C8386E00E9486228C819D81DF91CF9105
:101150000895CF93DF93EC018A819B81681779070B
:1011600029F07B836A8387E00E9457228A819B81D2
:10117000DF91CF9108952F923F924F925F926F929D
:101180007F928F929F92AF92BF92CF92DF92EF9217
:10119000FF920F931F93CF93DF9300D0CDB7DEB7AD
:1011A0001C018B012A833B8349830E94FD3B4C0138
:1011B00080917B0D2A813B81498181110EC0F10113
:1011C000808D918D66897789861B970B90937A0D18
:1011D0008093790D81E080937B0DF10164847584A7
:1011E00046845784411189016101F3E6CF0ED11C79
:1011F000F601A080B180A114B10429F48091790D89
:1012000090917A0D07C0F101808D918D26893789E3
:10121000821B930B081B190B780117FF04C0EE24E7
:10122000FF24E01AF10AF10162817381072E000C9C
:10123000880B990B0E940A5EF10122893389448947
:1012400055890E94695E0E946660E616F7068CF07A
:10125000F101EF59FF4F8614970424F480819181A6
:10126000019739F048145904C4F480819181892B85
:10127000A1F4AB2871F160E070E0C101815A9F4F89
:1012800052DFF101808D918D26893789821B930B66
:1012900090937A0D8093790D1CC061E070E00E157B
:1012A0001F0511F460E070E0808191816817790773
:1012B00021F0C101815A9F4F4CDFF601808191815D
:1012C0008F3F910531F06FEF70E0C101815A9F4F60
:1012D0002ADFC8010F900F900F90DF91CF911F91DF
:1012E0000F91FF90EF90DF90CF90BF90AF909F90C5
:1012F0008F907F906F905F904F903F902F900895C8
:101300000F931F93CF93DF93EC018B01FC01EB5004
:10131000FF4F20813181213031050CF1233031051F
:101320000CF441C023303105D1F4C15ADF4F61E0E4
:1013300070E01016110614F460E070E0CE0109DFD1
:101340006FEF70E0CE01EFDE68EE73E080E090E0DA
:101350000E946C2360E070E0CE01E5DE21C060E019
:1013600070E0CE01DDDCFE01EA56FF4F8081918105
:10137000800F911F6A857B85861797071CF0615047
:10138000710907C0719561957109681779070CF4A7
:10139000BC017183608320E030E040E0CE01EBDEF1
:1013A00081E090E002C080E090E0DF91CF911F915A
:1013B0000F910895CF92DF92EF92FF926B017C0123
:1013C00020E030E0A9010E94045E87FF0AC020E00F
:1013D00030E044EB53E4C701B6010E949A5F6B0111
:1013E0007C0120E030E044EB53E4C701B601FF90FC
:1013F000EF90DF90CF900C949E6027EA33E0FC01E1
:101400003183208382579E4F0C94A212CF93DF9397
:10141000EC01F3DFCE01DF91CF910C94E161805AB2
:101420009140F4CF805A9140E8CFFC0126A537A522
:1014300040A951A962A573A584A595A50E949A5FAC
:10144000B9CFCF92DF92EF92FF920F931F93CF937A
:10145000DF93EC017B01FC01EB50FF4F0081118118
:101460002BD9811139C0E114F10431F0EA94EF284D
:1014700051F4CE01F5DA04C0CE0186569F4FD5DF78
:101480006B017C0106C0C12CD12C80E8E82E8FEBCB
:10149000F82EB701A601CE0154D9B701A601CE019D
:1014A00089509F4FB1D50115110551F017FD14C09A
:1014B000045011090330110578F460E070E002C0B7
:1014C00064E070E0CE01DF91CF911F910F91FF900A
:1014D000EF90DF90CF9024CCDF91CF911F910F91AF
:1014E000FF90EF90DF90CF9008950895FC0127A51D
:1014F000213069F02230A1F4FC01E953FF4F21E0D3
:101500002083B99687E190E09183808309C0462FBC
:101510009C0128533F4FBC0167537F4F0E94ED2130
:1015200081E00895CF93DF93EC018A5A9F4F0E9488
:10153000693D1A821BAADF91CF9108950F931F93E3
:10154000CF93DF93EC018B0198A9911114C04D3416
:10155000C9F0443591F4CB01EFD9AB01BC01E8816E
:10156000F9810288F389E02DCE011995AB01BC0108
:10157000C80123D907C0923018F0CE01D3DF02C0D2
:101580004C32D9F781E0DF91CF911F910F910895EF
:10159000CF92DF92FF920F931F93CF93DF93EC01D3
:1015A0008B0169010E945E21F82E8823A1F0F801C9
:1015B000408151814C545F4F4836514030F0F80122
:1015C00011821082CE01AEDF06C088A9882319F0EF
:1015D00081E0F60180838F2DDF91CF911F910F91D4
:1015E000FF90DF90CF900895FF920F931F93CF93BA
:1015F000DF93EC018B010E945E21F82E882371F0AD
:101600008AA980FD06C0F8018081918188369140C9
:101610002CF0F80111821082CE0184DF8F2DDF9132
:10162000CF911F910F91FF900895CF93DF93EC011D
:10163000462F8FA58430C9F060F4823079F0833072
:1016400009F04BC09E0122583F4FBE016B587F4F9F
:1016500012C08530A1F08630E1F03FC09E012358D2
:101660003F4FBE016F587F4F06C09E0121583F4F2C
:10167000BE0167587F4FCE010E94ED212EC09E0112
:1016800020583F4FBE016E577F4FCE010E94AA27C0
:1016900024C088A9811117C06D3439F06D3659F016
:1016A0006134A9F482E090E008C0FE01EC57FF4FDE
:1016B000118210820EC081E090E0FE01EC57FF4FD6
:1016C0009183808306C0823010F46C3211F0CE0119
:1016D00029DFC059DF4F81E0888381E0DF91CF911E
:1016E00008950F931F93CF93DF93DC019F96EC91A6
:1016F0009F970E2F10E0F8013297E830F10508F0BF
:10170000B1C0462FEC018827EE58FF4F8F4F0C9445
:101710004461BD016F567F4FCD010E94913B8823EC
:1017200009F4A0C088A9882309F49CC0C957DF4FD9
:1017300097C09D0128573F4FBD016D567F4FCD018A
:101740000E94AA278FC081E06C3209F080E098A93E
:10175000911116C0811186C091E04D3209F090E0E0
:101760008AA990FB80F98AABFE01EB56FF4F9923C3
:1017700021F082608AAB108275C04053408372C0F2
:1017800081110BC0FE01EB56FF4F40538081BAE040
:101790008B9F400D1124408361C08AA980FF5EC0E9
:1017A000FE01EB56FF4F80818195808357C088A949
:1017B00081111CC0603581F0633531F06C32D1F499
:1017C000C657DF4F18824EC0FD01EA56FF4F118207
:1017D0001082C657DF4F44C0FD01EA56FF4F81E03B
:1017E00090E091838083C657DF4F3BC0823010F476
:1017F0006C32C1F1CE0196DE35C0BD0168567F4F17
:10180000CD010E94DA3B882369F188A9882351F130
:10181000C557DF4F25C09D0124573F4FBD01675677
:101820007F4F06C09D0123573F4FBD0163567F4F39
:10183000CE01AEDE17C0BD016F557F4FCD010E94B6
:10184000DA3B882341F088A9882329F081E0FE0152
:10185000E257FF4F8083CA57DF4F02C0C757DF4FA1
:1018600081E0888381E0DF91CF911F910F910895EE
:10187000462FFC0127A5223069F02830F9F02130ED
:1018800039F59C0122533F4FBC0160537F4F0E94AA
:10189000ED211EC0FC0120A9211109C0623511F003
:1018A0006C3439F4FC01EC52FF4F408311C02230FC
:1018B00010F038DE0DC06C32E1F70AC0FC01E353D2
:1018C000FF4F21E02083B39688E190E091838083ED
:1018D00081E008950F931F93CF93DF93DC019F96D0
:1018E000EC919F970E2F10E0F8013397EC30F10543
:1018F00008F094C0462FEC018827E658FF4F8F4F21
:101900000C9444619D0129553F4FBD0161557F4FA6
:10191000CD010E94ED2182C088A9811138C06235B5
:1019200011F06C3459F4CD54DF4F25C088A98111D2
:101930002EC06B3431F06E3409F470C0CE01F2DD8C
:101940006DC0C155DF4FCE010E949C0421E73DE3ED
:101950004AE05FE30E94695EAB01BC01CE010E94D8
:10196000DD035CC088A9811112C0613411F06635B5
:1019700029F7CC54DF4F488351C088A9811107C093
:10198000613411F06635D1F6CB54DF4FF4CF82309D
:10199000A8F64C3299F642C0BD016A547F4F2BC065
:1019A000BD016A547F4F21C0CD0186549F4F28A9A5
:1019B00021110AC03AA932603AAB6C3239F0FC010D
:1019C000E20FF11D40832AC06C3229F4FC01E20FC2
:1019D000F11D108223C0243090F320C0BD0161545A
:1019E0007F4F09C0BD0161547F4FCE01A7DD16C0F6
:1019F000BD016D537F4FCE01F7DD10C0BD016D53AA
:101A00007F4FCD019BDDFE01EA55FF4F81E08083D2
:101A1000C051DF4F86E190E09983888381E0DF91B8
:101A2000CF911F910F9108950F931F93CF93DF9341
:101A3000DC0112960C9112970C3008F4AAC110E048
:101A4000F8013C97EC30F10508F0A9C18827EA5766
:101A5000FF4F8F4F0C9444619F969C919F979130BC
:101A600009F09DC1D0968C91D09781110BC0603345
:101A700031F0613309F095C19093880D90C11092B7
:101A8000880D8DC1813009F048C08091880D811189
:101A900031C0462F660F550B660B770BFA01F09796
:101AA000EA30F10508F07DC18827EE56FF4F8F4FD1
:101AB0000C944461A051BF4F81E090E08D939C93C2
:101AC00071C18DE027C08EE025C08FE023C080E18A
:101AD00021C081E11FC082E11DC083E11BC084E100
:101AE00019C085E112968C931297A051BF4F81E1E6
:101AF00090E03DC0603329F0613309F052C187E1C5
:101B000009C086E112968C931297A051BF4F82E1D3
:101B100090E02DC012968C9342C181E06C3209F0A6
:101B200040C140C19F968C919F97823009F037C188
:101B3000D0968C91D097811132C16C3209F42FC1AB
:101B40006235C1F044F4693409F029C1A051BF4F96
:101B500083E090E00CC0693631F0623709F01FC1B4
:101B6000A051BF4F9BC0A051BF4F82E090E08D932A
:101B70009C9315C1A051BF4F96C09F968C919F9783
:101B8000823009F00CC1D0968C91D097811107C199
:101B90006C3209F404C16235C1F044F4693409F0CF
:101BA000FEC0A051BF4F87E090E0E1CF693641F021
:101BB000623709F0F4C0A051BF4F88E090E0D7CF62
:101BC000A051BF4F86E090E0D2CFA051BF4F89E037
:101BD00090E0CDCFFD01E051FF4F8CE090E005C0DB
:101BE000FD01E051FF4F8DE090E091838083CD01B6
:101BF000DF91CF911F910F9174CDFD01E051FF4F07
:101C00008EE090E005C0FD01E051FF4F8FE090E0D5
:101C100091838083CD01DF91CF911F910F9105CDED
:101C2000462FED01FD01E051FF4F80E190E09183EF
:101C300080839FA5943009F441C060F49230E9F0AC
:101C4000933009F0ACC0BD016F597F4FCD010E94A8
:101C5000913BA5C09630E1F1A8F1973009F09FC003
:101C60009D01225A3F4FBD0164597F4FCD010E9413
:101C7000ED21DE01A85ABF4F89C088A9811116C085
:101C8000633539F0643569F06134A9F4A15ABF4F66
:101C900005C0A15ABF4F1D921C9281C084E090E004
:101CA00066CFA15ABF4F85E090E061CF823018F433
:101CB0006C3209F474C0CE0135DC71C0BD016D59C0
:101CC0007F4F03C0BD0169597F4FCE018DDC67C0D6
:101CD000BD0165597F4FCD010E94DA3B60C09F96E0
:101CE0008C919F97823009F05AC0D0968C91D097F2
:101CF000811155C06C3209F452C0673489F06934DF
:101D000049F0613409F04BC0FD01E051FF4F85E11E
:101D100090E038C0FD01E051FF4F83E190E032C018
:101D2000FD01E051FF4F84E190E02CC09F968C9123
:101D30009F978230A1F5D0968C91D09781112FC0BA
:101D40006C3269F16734C9F044F4633441F5FD0144
:101D5000E051FF4F89E190E015C0693441F06235F0
:101D6000F1F4FD01E051FF4F8CE190E00BC0FD016B
:101D7000E051FF4F8AE190E005C0FD01E051FF4FC7
:101D80008BE190E091838083A151BF4F81E08C93E0
:101D900009C0DF91CF911F910F910C94F22581E042
:101DA00001C080E0DF91CF911F910F9108950F93B3
:101DB0001F93CF93DF93EC010E9492248C01009734
:101DC00019F0029721F019C0CE01ACDB16C09AA918
:101DD00091FF0DC09D7F9AAB88A98F5F88ABE8818A
:101DE000F9810684F785E02D6CE2CE011995FE019C
:101DF000E251FF4F81E080831BAAC801DF91CF91A0
:101E00001F910F910895FC018485958542D381E04F
:101E100090E00895FC01EE55FE4F0190F081E02D19
:101E2000808D918D26893789821B930B0895FC0143
:101E3000EE55FE4F0190F081E02DE656FF4F62A96E
:101E400073A984A995A90895FC0120A9213019F04E
:101E5000223029F008C081E0653461F40CC081E0D3
:101E60006D3441F408C0633429F42CE0FC01228372
:101E700081E0089580E0089521E0FC0182818830AE
:101E800009F020E0822F08958DE893E00895FC0189
:101E9000EE55FE4F8081918186569F4FC6CACF92E4
:101EA000DF92EF92FF926A017B01FC01EE55FE4F3B
:101EB0000190F081E02DE656FF4F22A933A944A9F5
:101EC00055A9C701B6010E949A5FFF90EF90DF907D
:101ED000CF9070CACF92DF92EF92FF926A017B019E
:101EE000FC01EE55FE4F0190F081E02DE656FF4FCC
:101EF00022A933A944A955A9C701B6010E94995F37
:101F0000FF90EF90DF90CF9055CACF92DF92EF9283
:101F1000FF92CF93DF93EC016A017B0120E030E078
:101F2000A901C701B6010E94045E87FF0AC020E034
:101F300030E044EB53E4C701B6010E949A5F6B01A5
:101F40007C0120E030E044EB53E4C701B6010E947D
:101F50009E60688379838A839B83DF91CF91FF9012
:101F6000EF90DF90CF9008952091890D30918A0DE8
:101F70002130310559F4811103C083E090E002C0A3
:101F800082E090E090938A0D8093890D8091890D75
:101F900090918A0D08950F931F93CF93DF938C0137
:101FA000EC0187EF93E089939993C8010F96CAD209
:101FB000C8010996C7D2CE01DF91CF911F910F9131
:101FC000C1C2CF93DF93EB010E941D5F8883CE01D6
:101FD000DF91CF9108950F931F93CF93DF931F92BB
:101FE0001F92CDB7DEB78B01FB0160819A83898395
:101FF000CE0101960E944105C8010F900F90DF911C
:10200000CF911F910F910895CF92DF92EF92FF929F
:10201000CF93DF93EC016A017B0120E030E0A9015E
:10202000C701B6010E94045E87FF0AC020E030E0CD
:1020300044EB53E4C701B6010E949A5F6B017C0137
:1020400020E030E044EB53E4C701B6010E949E60FB
:10205000688379838A839B83DF91CF91FF90EF9090
:10206000DF90CF900895EF92FF920F931F93CF933D
:10207000DF93CDB7DEB768970FB6F894DEBF0FBE1B
:10208000CDBF8C01F62E84EA99E00E946105B8016B
:102090006F577E4F8DE790E09EDFFF20A1F086E135
:1020A000E4E8F2E0DE01119601900D928A95E1F7E5
:1020B00084EF99E00E9461058E010F5F1F4F8EE74C
:1020C000E82EF12C07C0BE016F5F7F4FC8010E9450
:1020D0001804F2CFF80161918F01F88EEF8ACE01DA
:1020E00047960E944105FFEFEF1AFF0A84E9E816C0
:1020F000F10481F71F921F921F928EE78F9387EB57
:1021000099E09F938F938AEC9CE09F938F930E941A
:10211000A5638AEC9CE00E9461050FB6F894DEBFCF
:102120000FBECDBF8981882379F08A89882361F029
:102130008989882349F08E85882331F08F8588230B
:1021400019F08889811104C08DEC99E00E94610525
:1021500088EC99E00E94610581E068960FB6F894DA
:10216000DEBF0FBECDBFDF91CF911F910F91FF90CA
:10217000EF900895EF92FF920F931F93CF93DF9309
:10218000CDB7DEB7A2970FB6F894DEBF0FBECDBFB6
:102190008C01F62E8EED99E00E946105B8016F5713
:1021A0007E4F89E490E017DFFF20A1F083EF99E0F4
:1021B0000E94610580E2E7EBF2E0DE0111960190FA
:1021C0000D928A95E1F78E010F5F1F4F8AE4E82E8A
:1021D000F12C07C0BE016F5F7F4FC8010E945204FF
:1021E000F2CFF80161918F01FAA2E9A2CE018196A6
:1021F0000E944105FFEFEF1AFF0A8AE6E816F10494
:1022000081F78AE79BE00E94610581E0A2960FB604
:10221000F894DEBF0FBECDBFDF91CF911F910F911C
:10222000FF90EF9008950895CF92DF92EF92FF9282
:102230000F931F93CF93DF936C017A018B01C0E062
:10224000D0E0CE15DF0589F0D8016D918D01D60162
:10225000ED91FC910190F081E02DC6011995892B3B
:1022600011F47E0102C02196ECCFC701DF91CF911E
:102270001F910F91FF90EF90DF90CF9008950E94F3
:102280005D63CF93DF93FC012481358142175307AF
:1022900078F4C081D181062E000C770BCE01840F1B
:1022A000951F0E947B63009719F08C1B9D0B02C049
:1022B0008FEF9FEFDF91CF910895FC01248135814D
:1022C0006217730748F480819181009729F0FC011F
:1022D000E60FF71F8081089580E00895FC012481B6
:1022E0003581232B31F421E061157105A1F0FB014B
:1022F00008C0FC01808191816115710531F421E0F4
:10230000FC018081882339F005C00E94866321E0AA
:10231000892B09F020E0822F08950F931F93CF930C
:10232000DF938C01EB01FC01808191810097B1F07A
:10233000688179816115710579F0428153812C8121
:102340003D814217530740F00E948F638C819D812D
:10235000F8019583848313C00E94E161888199818B
:10236000F801918380838A819B81938382838C810E
:102370009D8195838483198218821B821A821D8213
:102380001C82DF91CF911F910F9108950F931F939E
:10239000CF93DF93EC0188819981009729F02A81FE
:1023A0003B812617370788F48B016F5F7F4F0E94B0
:1023B0007962009761F0998388831B830A832C815B
:1023C0003D81232B11F4FC01108281E001C080E0EB
:1023D000DF91CF911F910F910895EF92FF920F938C
:1023E0001F93CF93DF93FC01248135816115710523
:1023F00011F480E018C041155105A1F07B01EC01FA
:102400008A01020F131FB801C1DF882391F32881CD
:1024100039818C819D81B701820F931F0E948F6348
:102420001D830C8381E0DF91CF911F910F91FF906D
:10243000EF900895EF92FF920F931F93CF93DF9346
:10244000CDB7DEB728970FB6F894DEBF0FBECDBF6D
:102450007C01CB014AE08E010F5F1F4FB8010E9443
:10246000D659F80101900020E9F73197AF01401BE0
:10247000510BB801C701B1DF28960FB6F894DEBF43
:102480000FBECDBFDF91CF911F910F91FF90EF90C5
:102490000895CF93DF931F921F92CDB7DEB7698364
:1024A0001A8241E050E0BE016F5F7F4F96DF0F90D0
:1024B0000F90DF91CF910895CF93DF93EC01888146
:1024C0009981009711F00E94E161198218821D82A2
:1024D0001C821B821A82DF91CF910895EF92FF92A6
:1024E0000F931F93CF93DF93EC017B018A01BA0115
:1024F0004DDF811103C0CE01DFDF07C01D830C83D8
:10250000B701888199810E948F63CE01DF91CF91BD
:102510001F910F91FF90EF900895CF93DF93EC01FF
:102520006115710551F0FB0101900020E9F7319729
:10253000AF01461B570BD2DF01C0BEDFCE01DF91DA
:10254000CF910895FC01808191810C94E161FB01A0
:10255000DC0111961C921E9213961C921E921297E9
:1025600015961C921E9214978617970741F060816A
:1025700071816115710519F044815581AFCF0895BE
:10258000FC0111821082138212821582148261155D
:10259000710549F0FB0101900020E9F73197AF0187
:1025A000461B570B9BCF0895BF92CF92DF92EF92BD
:1025B000FF920F931F93CF93DF937C016B018A01EE
:1025C000E9012417350720F4812F8901C42FD82F62
:1025D0006DED7BE0C701D4DFD60114968D919C91FF
:1025E000159708171907C8F48C179D0708F4EC0114
:1025F000D601ED91FC911197EC0FFD1FB080108278
:102600004D915C91BA01600F711FC70186DFD60141
:10261000ED91FC91EC0FFD1FB082C701DF91CF91CE
:102620001F910F91FF90EF90DF90CF90BF90089592
:102630009091B00298133DC0E3EFF3E0E4919FEF77
:102640009093B002E230C9F050F4EE2399F0E130FB
:1026500081F590916F009D7F90936F002AC0E430C8
:1026600019F1E0F0E53029F5909173009D7F90938A
:1026700073001FC010926E001CC0909170009D7F6F
:102680009093700091E09093B0009091B100987F8A
:1026900094609093B1001092B3000BC090917100C0
:1026A0009D7F9093710005C0909172009D7F9093E3
:1026B000720060E00C9457221F920F920FB60F9297
:1026C00011240BB60F922F933F934F935F936F9309
:1026D0007F938F939F93AF93BF93EF93FF938091DB
:1026E0008E1490918F14A0919014B0919114892B15
:1026F0008A2B8B2B51F180918B14E0918C14F091EB
:102700008D1490818927808380918E1490918F14ED
:10271000A0919014B0919114181619061A061B0670
:10272000BCF480918E1490918F14A0919014B0916C
:1027300091140197A109B10980938E1490938F147D
:10274000A0939014B093911403C08091B00270DFF5
:10275000FF91EF91BF91AF919F918F917F916F9179
:102760005F914F913F912F910F900BBE0F900FBE35
:102770000F901F901895DC01ED91FC910190F08174
:10278000E02D19946115710579F0FB01019000208D
:10279000E9F73197AF01461B570BDC01ED91FC9136
:1027A0000280F381E02D199480E090E008954F922B
:1027B0005F926F927F92EF92FF920F931F93CF934E
:1027C000DF93CDB7DEB7A1970FB6F894DEBF0FBE8B
:1027D000CDBF7C01FA01CB0119A2223008F42AE016
:1027E0008E010F5D1F4F422E512C612C712CBF01A9
:1027F000A30192010E94425FF901CA01015011092F
:102800006A3014F4605D01C0695CD8016C93232BBD
:10281000242B252B61F7B801C701B4DFA1960FB6B1
:10282000F894DEBF0FBECDBFDF91CF911F910F9106
:10283000FF90EF907F906F905F904F9008958F92F0
:102840009F92AF92BF92CF92DF92EF92FF920F933F
:102850001F93CF93DF937C018B016C0182E0C80E44
:10286000D11C4701E5E08E0E911CC0E0D0E0F601DE
:1028700041916F0150E060E070E02AE0C80197DF0D
:102880005C016EE2C80177DF8A0D9B1DC80FD91F5E
:10289000C814D90461F7F701458150E060E070E0A9
:1028A0002AE0C80184DF8C0F9D1FDF91CF911F911B
:1028B0000F91FF90EF90DF90CF90BF90AF909F90DF
:1028C0008F9008954F925F926F927F928F929F9216
:1028D000AF92BF92CF92DF92EF92FF92CF93DF93AE
:1028E000EC016A017B01B22E9A01AB01C701B6016E
:1028F0000E943961882319F06BE37AE027C0260132
:102900003701E89477F82FEF3FEF4FE75FE7C30118
:10291000B2010E94396181110DC02FEF3FEF4FE7E7
:102920005FE7C301B2010E94045E18161CF46FE356
:102930007AE00CC02FEF3FEF4FE75FE4C701B6012D
:102940000E94F360181694F463E47AE0CE01DF91FC
:10295000CF91FF90EF90DF90CF90BF90AF909F907E
:102960008F907F906F905F904F900CCF2FEF3FEF45
:102970004FE75FECC701B6010E94045E87FDE4CF1C
:1029800020E030E0A901C701B6010E94045E87FF84
:1029900009C06DE2CE01EFDE4C01F7FAF094F7F8D2
:1029A000F09402C0812C912CA12C60E070E080E0BA
:1029B0009FE3AB1440F420E030E040E251E40E9499
:1029C000FE5FA394F6CF9B01AC01C701B6010E9444
:1029D0009A5F2B013C010E946B606B017C010E949D
:1029E000085E9B01AC01C301B2010E94995F2B01FB
:1029F0003C012AE0B701A601CE01D9DE7C01E80C3A
:102A0000F91CBB2029F06EE2CE01B5DEE80EF91EFE
:102A1000DB2CDD2021F120E030E040E251E4C30175
:102A2000B2010E94695E2B013C010E946B604B0168
:102A3000A12CB12C2AE0B501A401CE01B8DEE80E2C
:102A4000F91EC501B4010E94085E9B01AC01C301DF
:102A5000B2010E94995F2B013C01DA94DACFC701E1
:102A6000DF91CF91FF90EF90DF90CF90BF90AF902C
:102A70009F908F907F906F905F904F90089582CE3F
:102A8000CF93DF93EC018B8191E09093DB148093E3
:102A9000FD141092DC141092FE148BE79FE08ED28E
:102AA00081E00E94932861E08B810E94F0281092BF
:102AB0009314809392148BE79FE003D2DF91CF9120
:102AC0000895CF93DF931F92CDB7DEB7FC018381CA
:102AD00091E09093DB148093FD141092DC1410921B
:102AE000FE148BE79FE0498369D24981642F8BE70D
:102AF0009FE064D281E00E94932881E00F90DF91F3
:102B0000CF91089565E370E0BBDF803CB8F0282FDB
:102B100030E0A90164E0559547956A95E1F7437067
:102B2000433061F4359527953595279523702330EB
:102B300029F4982F937081E0933009F080E0089594
:102B4000CF92DF92EF92FF920F931F93CF93DF9379
:102B5000EC018B01D7DFE82E882309F4CAC0C884B2
:102B6000D98460E070E0CE01FFD269E170E080E0DE
:102B700090E00E946C2366E570E0CE0181DFF82EC4
:102B800065E570E0CE017CDF2F2D30E0322F22276B
:102B9000282BF8013183208368E570E0CE0170DFD7
:102BA000F82E67E570E0CE016BDF2F2D30E0322F7D
:102BB0002227282BF801338322836AE570E0CE01B7
:102BC0005FDFF82E69E570E0CE015ADF2F2D30E08F
:102BD000322F2227282BF8013583248362E670E008
:102BE000CE014EDFF82E61E670E0CE0149DF2F2DD9
:102BF00030E0322F2227282BF8013783268364E622
:102C000070E0CE013DDFF82E63E670E0CE0138DFE4
:102C10002F2D30E0322F2227282BF80131872087F3
:102C200066E670E0CE012CDFF82E65E670E0CE019E
:102C300027DF2F2D30E0322F2227282BF801338772
:102C400022876CE570E0CE011BDFF82E6BE570E0AB
:102C5000CE0116DF2F2D30E0322F2227282BF8014E
:102C6000358724876EE570E0CE010ADFF82E6DE52A
:102C700070E0CE0105DF2F2D30E0322F2227282BE8
:102C8000F8013787268760E670E0CE01F9DEF82E7E
:102C90006FE570E0CE01F4DE2F2D30E0322F2227D9
:102CA000282BF801318B208B68E670E0CE01E8DE3E
:102CB000F82E67E670E0CE01E3DE2F2D30E0322FF4
:102CC0002227282BF801338B228B6AE670E0CE0195
:102CD000D7DEF82E69E670E0CE01D2DE2F2D30E08F
:102CE000322F2227282BF801358B248BB601CE01F9
:102CF0003BD28E2DDF91CF911F910F91FF90EF90DE
:102D0000DF90CF9008950F931F93CF93DF93FC0133
:102D1000A685B7858D01005C1F4FE80188819981E8
:102D200001968F739927AD014E5B5F4FEA012881B1
:102D3000398182179307D1F3E80128813981A20FE5
:102D4000B31F6C93A685B785A05CBF4F11969C936B
:102D50008E93A689B7892C9181E090E0078C02C000
:102D6000880F991F0A94E2F7822B8C9381E081A34C
:102D70000488F589E02D80818064808381E090E083
:102D8000DF91CF911F910F910895FC0181A18823BC
:102D900029F0A489B5898C9186FFFBCF11A20895F3
:102DA000FC01A485B585FD01E05CFF4F20813181E8
:102DB0003296808191812817390779F0808191813D
:102DC000A80FB91F8C91208131812F5F3F4F2F7346
:102DD00033273183208390E008958FEF9FEF08958C
:102DE000DC011C96ED91FC911D97DF01A05CBF4FAB
:102DF0002D913C91119712968D919C9111972817C6
:102E0000390739F08D919C91E80FF91F808190E08E
:102E100008958FEF9FEF0895FC0124853585F90112
:102E2000E05CFF4F80819181329620813181821B4D
:102E3000930B8F7399270895CF93DF93DC01862F2F
:102E40009296ED91FC919397309719F0DF91CF9185
:102E500019941C96ED91FC911D97BF01605C7F4F0A
:102E6000EB01288139812F5F3F4F2F733327AF014B
:102E70004E5B5F4FEA01488159812417350771F095
:102E8000EB0148815981E40FF51F80831C96ED9179
:102E9000FC911D97E05CFF4F31832083DF91CF9140
:102EA00008950895E091931480919214E81730F4F6
:102EB000F0E0EC56FB4E808190E008958FEF9FEF9D
:102EC00008959091931480919214981750F4E92FDB
:102ED000F0E0EC56FB4E208130E09F5F909393141E
:102EE00002C02FEF3FEFC90108958091921490E046
:102EF00020919314821B9109089585ED8093BC0065
:102F00008091BC0084FDFCCF1092DA1408954091AA
:102F10006014262F30E0240F311D21323105DCF4FE
:102F20002091DA142430C9F4FC0180E090E0861787
:102F300058F4309160142191DC01A25CBB4EA30FC8
:102F4000B11D2C930196F3CF80916014680F6093AC
:102F5000601480E0089581E0089582E00895CF92A2
:102F6000DF92EF92FF920F931F93CF93DF937C0139
:102F7000262F972F8A018091DB14882391F0C62F8A
:102F8000D72F6E01C40ED51ECC15DD0569F06991F1
:102F9000D701ED91FC910190F081E02DC7011995C9
:102FA000F3CF642F822FB3DFC801DF91CF911F9140
:102FB0000F91FF90EF90DF90CF900895CF93DF9324
:102FC0001F92CDB7DEB769832091DB142223D1F0A5
:102FD0002091FE14203240F021E030E0FC013383E8
:102FE000228380E090E014C08091DC14E82FF0E0B0
:102FF000E352FB4E998190838F5F8093DC14809322
:10300000FE1404C061E0CE01019681DF81E090E012
:103010000F90DF91CF910895EF92FF920F931F933E
:10302000CF93DF93CDB7DEB72C970FB6F894DEBF02
:103030000FBECDBF7C018B0184E2FB0111928A950A
:10304000E9F784E290E0A0E0B0E0FB0180839183A7
:10305000A283B383F70184819581A681B781FB01A7
:1030600084839583A683B78383E090E0A0E0B0E0FB
:1030700080879187A287B3870E94A03DF801608B6B
:10308000718B828B938BB701CE0101960E94B6356E
:1030900089819A81AB81BC81F801848B958BA68B49
:1030A000B78B8D819E81AF81B885808F918FA28FE4
:1030B000B38F89859A85AB85BC85848F958FA68FC4
:1030C000B78F81E02C960FB6F894DEBF0FBECDBF50
:1030D000DF91CF911F910F91FF90EF9008950F9383
:1030E0001F93CF93DF938C01EB0188E2FB011192D8
:1030F0008A95E9F74BE050E067E47AE0CE010E9460
:1031000096631B8681E090E0A0E0B0E08C879D870D
:10311000AE87BF87F80184819581A681B781888BAE
:10312000998BAA8BBB8B83E090E0A0E0B0E08C8B06
:103130009D8BAE8BBF8B1CA21DA21EA21FA2188E40
:10314000198E1A8E1B8E1C8E1D8E1E8E1F8E8AE06F
:1031500097EDA3E2BCE388A399A3AAA3BBA3DF9145
:10316000CF911F910F910895462FFC0160877187C1
:103170006DE370E0A6DC6EE170E080E090E00C941E
:103180006C231F920F920FB60F9211240BB60F9261
:103190002F933F938F939F93EF93FF9320911B0E59
:1031A00030911C0E80911D0E90911E0E281739072C
:1031B00031F4809131018F7D8093310114C0E09111
:1031C0001D0EF0911E0EE552F24F208180911D0ED2
:1031D00090911E0E01968F73992790931E0E8093E7
:1031E0001D0E20933601FF91EF919F918F913F919A
:1031F0002F910F900BBE0F900FBE0F901F90189540
:103200001F920F920FB60F9211240BB60F922F93AD
:103210003F938F939F93EF93FF932091830E309171
:10322000840E8091850E9091860E2817390731F40F
:103230008091D1008F7D8093D10014C0E091850EE4
:10324000F091860EED5BF14F20818091850E90917B
:10325000860E01968F7399279093860E8093850E24
:103260002093D600FF91EF919F918F913F912F91E5
:103270000F900BBE0F900FBE0F901F9018951F92CE
:103280000F920FB60F9211240BB60F922F933F930C
:103290008F939F93EF93FF932091EB0E3091EC0E61
:1032A0008091ED0E9091EE0E2817390731F4809140
:1032B000C9008F7D8093C90014C0E091ED0EF0919C
:1032C000EE0EE555F14F20818091ED0E9091EE0EBE
:1032D00001968F7399279093EE0E8093ED0E2093B5
:1032E000CE00FF91EF919F918F913F912F910F9081
:1032F0000BBE0F900FBE0F901F9018951F920F924C
:103300000FB60F9211240BB60F922F933F938F930A
:103310009F93EF93FF932091530F3091540F80911F
:10332000550F9091560F2817390731F48091C1003D
:103330008F7D8093C10014C0E091550FF091560F1E
:10334000ED5EF04F20818091550F9091560F0196C0
:103350008F7399279093560F8093550F2093C60033
:10336000FF91EF919F918F913F912F910F900BBE05
:103370000F900FBE0F901F9018951F920F920FB6CF
:103380000F9211240BB60F922F933F934F935F939D
:103390006F937F938F939F93AF93BF93EF93FF931D
:1033A0008091300182FD06C0609136018FE19EE080
:1033B00043DD02C080913601FF91EF91BF91AF9143
:1033C0009F918F917F916F915F914F913F912F913D
:1033D0000F900BBE0F900FBE0F901F9018951F926D
:1033E0000F920FB60F9211240BB60F922F933F93AB
:1033F0004F935F936F937F938F939F93AF93BF93FD
:10340000EF93FF938091D00082FD06C06091D600BB
:1034100087E89EE011DD02C08091D600FF91EF9118
:10342000BF91AF919F918F917F916F915F914F91DC
:103430003F912F910F900BBE0F900FBE0F901F90DA
:1034400018951F920F920FB60F9211240BB60F9280
:103450002F933F934F935F936F937F938F939F939C
:10346000AF93BF93EF93FF938091C80082FD06C096
:103470006091CE008FEE9EE0DFDC02C08091CE0036
:10348000FF91EF91BF91AF919F918F917F916F913C
:103490005F914F913F912F910F900BBE0F900FBEF8
:1034A0000F901F9018951F920F920FB60F92112434
:1034B0000BB60F922F933F934F935F936F937F932E
:1034C0008F939F93AF93BF93EF93FF938091C0002F
:1034D00082FD06C06091C60087E59FE0ADDC02C0BA
:1034E0008091C600FF91EF91BF91AF919F918F9115
:1034F0007F916F915F914F913F912F910F900BBEF4
:103500000F900FBE0F901F9018951F920F920FB63D
:103510000F9211240F900FBE0F901F9018951F92BD
:103520000F920FB60F9211240BB60F922F933F9369
:103530004F935F936F937F938F939F93AF93BF93BB
:10354000EF93FF938091B900887F803609F49CC087
:1035500068F5883209F45BC090F4803109F454C0F6
:1035600038F4882309F4F6C0883009F44DC0F5C05A
:10357000883109F44CC0803209F45DC0EEC080345B
:1035800009F468C048F4803309F455C0883309F061
:10359000E4C08093D814D8C0803509F44FC0883572
:1035A00009F45DC0883409F0D8C0D6C0883909F460
:1035B000C7C0A8F4883709F467C038F4883609F41E
:1035C00063C0803709F460C0C8C0883809F4B8C047
:1035D000803909F45FC0803809F0BFC05BC0803B10
:1035E00009F486C038F4803A09F466C0883A09F4D0
:1035F0007FC0B3C0803C09F4A7C0883C09F4A4C0D4
:10360000883B09F48AC0A9C08091B51410C090917C
:10361000D7148091D614981770F5E091D71481E0F3
:103620008E0F8093D714F0E0EA54FB4E8081809394
:10363000BB0085EC86C08093D8148EC0E091D7146F
:1036400081E08E0F8093D7148091BB00F0E0EA54A4
:10365000FB4E80839091D7148091D6146EC0E09178
:10366000D71481E08E0F8093D7148091BB00F0E0D7
:10367000EA54FB4E80838091D91481116DC081E0A2
:103680008093B41484EA61C083E08093DA141092CA
:103690008414CFCF80918414803208F051C0E0911F
:1036A000841481E08E0F809384148091BB00F0E03D
:1036B000EC59FB4E8083BDCF85EC8093BC0010920B
:1036C000DA1480918414803230F4E0918414F0E0B4
:1036D000EC59FB4E10826091841470E0E09162140A
:1036E000F091631484E694E119951092841435C026
:1036F00084E08093DA141092611410926014E091C7
:103700005E14F0915F14199580916014811105C0C9
:1037100081E08093601410923E14E091611481E086
:103720008E0F80936114F0E0E25CFB4E8081809309
:10373000BB009091611480916014981708F479CFC0
:1037400085E88093BC0009C085EC8093BC00109292
:10375000DA1403C01092D814D0DBFF91EF91BF911F
:10376000AF919F918F917F916F915F914F913F9119
:103770002F910F900BBE0F900FBE0F901F901895BA
:103780002F923F924F925F926F927F928F929F9271
:10379000AF92BF92CF92DF92EF92FF920F931F935F
:1037A000CF93DF9300D01F92CDB7DEB71C01CB01C2
:1037B000BA0148015901C982DA82EB82FC8220E019
:1037C00030E048EC52E40E94695E6B017C0120E02D
:1037D00030E0A9010E94F36020E030E040E05FE3C8
:1037E00087FD05C0C701B6010E949A5F04C0C701EA
:1037F000B6010E94995F0E9466600E940A5E20E006
:1038000030E048EC52E40E94FE5F6B017C0120E056
:1038100030E048EC52E4C501B4010E94695E4B01FE
:103820005C0120E030E0A9010E94F36020E030E07C
:1038300040E05FE387FD05C0C501B4010E949A5FC7
:1038400004C0C501B4010E94995F0E9466600E9495
:103850000A5E20E030E048EC52E40E94FE5F2B015B
:103860003C0120E030E048EC52E469817A818B81B0
:103870009C810E94695E4B015C0120E030E0A9015F
:103880000E94F36020E030E040E05FE387FD05C088
:10389000C501B4010E949A5F04C0C501B4010E9431
:1038A000995F0E9466600E940A5E20E030E048EC6A
:1038B00052E40E94FE5F4B015C0120E030E0A90170
:1038C000C701B6010E94045E87FD78C020E030E0A9
:1038D000A901C301B2010E94045E87FD6FC020E010
:1038E00030E0A901C501B4010E94045E87FD66C0F5
:1038F000F101C082D182E282F382448255826682E3
:10390000778280869186A286B38664A575A586A5F2
:1039100097A50E94085E20E030E04AE754E40E9448
:10392000FE5F69837A838B839C83F101C486D5868D
:10393000E686F7869B01AC01C301B2010E94695E75
:103940002B013C01F101608B718B828B938B298160
:103950003A814B815C81C501B4010E94FE5F4B013D
:103960005C01F101648B758B868B978B808D918DBB
:10397000019721F5A701960160E070E0CB010E945C
:10398000995FF1016487758786879787A301920104
:1039900060E070E0CB010E94995FF101608B718B58
:1039A000828B938BA501940160E070E0CB010E94B3
:1039B000995FF101648B758B868B978B0F900F90BD
:1039C0000F900F90DF91CF911F910F91FF90EF908B
:1039D000DF90CF90BF90AF909F908F907F906F902F
:1039E0005F904F903F902F900895FC01613311F04C
:1039F000613411F483E013C0603321F06E3411F0B0
:103A0000663511F414A60CC0623311F0643411F45D
:103A100084E005C0663311F0653429F481E084A7A1
:103A200085A5816085A780E00895CF92DF92EF920F
:103A3000FF921F93CF93DF93FC01EB01142F80A91A
:103A4000811108C0188219821A821B8211AA82A9C8
:103A5000826082AB1E3281F01C3209F07CC081A9E9
:103A6000882351F081A9843091F5288139814A81D8
:103A70005B81A4E6B0E045C081E081AB8981982FED
:103A800092959F708F702AE0929F800D11249A81E9
:103A900091118C594881942F92959F704F702AE014
:103AA000929F400D112450E09CE3899F400D511DD1
:103AB0001124052E000C660B770B488359836A830B
:103AC0007B831E3209F4A7C01C3261F244C08530EA
:103AD00039F4288139814A815B81AAE0B0E011C0C4
:103AE0008630F1F008F099C0288139814A815B81E4
:103AF000833019F4A8EEB3E004C0823029F4A0E1C9
:103B0000B7E20E94805F08C0813051F460EA76E835
:103B100081E090E00E94335F688379838A839B838E
:103B2000C880D980EA80FB80D701C601880F991F21
:103B3000AA1FBB1FBC01CD016F5F7F4F8F4F9F4FEF
:103B40000E942227C60ED71EE81EF91EC882D982FF
:103B5000EA82FB8262C081A9811118C0812F110FF6
:103B6000990BC097092E000CAA0BBB0B48815981F9
:103B70006A817B8134E0440F551F661F771F3A9599
:103B8000D1F7842B952BA62BB72B41C08F5F81AB30
:103B90008730C0F4288139814A815B81AAE0B0E096
:103BA0000E94805F212F110F330B205331096901CF
:103BB000330FEE08FF08DC01CB018C0D9D1DAE1DFF
:103BC000BF1D25C0873039F5C880D980EA80FB80C9
:103BD000D701C601880F991FAA1FBB1FBC01CD01C9
:103BE0006F5F7F4F8F4F9F4F0E942227DC01CB01D9
:103BF0008C0D9D1DAE1DBF1D193324F00296A11D15
:103C0000B11D05C014331CF00196A11DB11D8883A0
:103C10009983AA83BB8380E001C081E0DF91CF91CB
:103C20001F91FF90EF90DF90CF9008953FB7F894E9
:103C30008091871490918814A0918914B0918A146E
:103C400026B5A89B05C02F3F19F00196A11DB11DF7
:103C50003FBFBA2FA92F982F8827820F911DA11D32
:103C6000B11DBC01CD0142E0660F771F881F991F6F
:103C70004A95D1F70895CF92DF92EF92FF920F937A
:103C80001F93CF93DF9300D000D0CDB7DEB77C0178
:103C90008C010C561E4F6EE47AE0F8018081918110
:103CA0000E943F156701F6E8CF1AFEEFDF0AF60122
:103CB0006081F801808191810E94BB136CE2F80160
:103CC000808191810E94BB13F701E558FE4F60810E
:103CD000F801808191810E94EE376CE2F8018081C9
:103CE00091810E94BB13F701E458FE4F6081F801F7
:103CF000808191810E94EE376CE2F8018081918190
:103D00000E94BB13F701E358FE4F6081F8018081E8
:103D100091810E94EE376CE2F801808191810E94CE
:103D2000BB13F701E258FE4F6081F8018081918159
:103D30000E94EE376CE2F801808191810E94BB13F2
:103D4000F6012081F80180819181233451F5759726
:103D50004081518160E070E02AE00E94D7136CE25C
:103D6000F801808191810E94BB13F701EF57FE4F4C
:103D70006081062E000C770BF801808191810E94F2
:103D8000F5376CE2F801808191810E94BB13F70145
:103D9000EE57FE4F6081F801808191810E94EE37DD
:103DA00004C067E079E00E943F15F2E7EF1AFEEFEA
:103DB000FF0AB701CE0101960E94A7128D819E8154
:103DC000892B19F089819A8102C080E090E00E94DD
:103DD0002B38CE0101960E94A212C7010E94893899
:103DE00026960FB6F894DEBF0FBECDBFDF91CF9100
:103DF0001F910F91FF90EF90DF90CF900895EF9279
:103E0000FF920F931F93CF93DF9300D000D0CDB7D5
:103E1000DEB77C018C010C561E4F68E57AE0F80194
:103E2000808191810E943F15F701E550FF4F80810D
:103E300091818430910544F48130910584F4892B7B
:103E4000A9F466E67AE00DC08430910529F0059763
:103E500069F464E67AE005C062E67AE002C068E6EA
:103E60007AE0F801808191810E943F156CE2F801AF
:103E7000808191810E94BB13F701E350FF4F608165
:103E80007181F801808191810E94F5376CE2F8011F
:103E9000808191810E94BB13C70181509F4F0E9476
:103EA0009C04AB01BC0122E030E0F80180819181EB
:103EB0000E9462146CE2F801808191810E94BB1320
:103EC000C7018D5F9E4F0E949C04AB01BC0122E0A4
:103ED00030E0F801808191810E9462146CE2F80167
:103EE000808191810E94BB13F701E95FFE4F6081E1
:103EF000F801808191810E94EE376CE2F8018081A7
:103F000091810E94BB13C701885F9E4F0E949C0451
:103F1000AB01BC0122E030E0F801808191810E9478
:103F20006214F2E7EF1AFEEFFF0AB701CE01019625
:103F30000E94A7128D819E81892B19F089819A8117
:103F400002C080E090E00E942B38CE0101960E94D2
:103F5000A212C7010E94893826960FB6F894DEBFD8
:103F60000FBECDBFDF91CF911F910F91FF90EF90CA
:103F70000895EF92FF920F931F93CF93DF9300D09A
:103F800000D0CDB7DEB77C018C01045F1E4FFC0171
:103F9000E056FE4FB801828193810E94180481E0AF
:103FA000F801808308571F4F6AE67AE0F8018081A4
:103FB00091810E943F1565E0F801808191810E9406
:103FC000EE3768E079E0F801808191810E943F1529
:103FD000C701835F9E4F0E949C04AB01BC0122E09D
:103FE00030E0F801808191810E9462146CE2F80156
:103FF000808191810E94BB13C7018F5E9E4F0E94FA
:104000009C04AB01BC0122E030E0F8018081918189
:104010000E9462146CE2F801808191810E94BB13BE
:10402000C7018B5E9E4F0E949C04AB01BC0122E045
:1040300030E0F801808191810E9462146CE2F80105
:10404000808191810E94BB13F701E25EFE4F4081A7
:10405000518160E070E02AE0F801808191810E9446
:10406000D7136CE2F801808191810E94BB13F701A4
:10407000E05EFE4F808191818130910541F0823078
:10408000910541F0892B69F46BEF78E005C062E798
:104090007AE002C062E67AE0F801808191810E94B4
:1040A0003F15F2E7EF1AFEEFFF0AB701CE010196C6
:1040B0000E94A7128D819E81892B19F089819A8196
:1040C00002C080E090E00E942B38CE0101960E9451
:1040D000A212C7010E94893826960FB6F894DEBF57
:1040E0000FBECDBFDF91CF911F910F91FF90EF9049
:1040F0000895EF92FF920F931F93CF93DF9300D019
:1041000000D0CDB7DEB77C018C010E5D1E4FFC01E7
:10411000E056FE4FB801828193810E94520481E0F3
:10412000F80180830E581F4F6AE67AE0F80180811B
:1041300091810E943F1563E0F801808191810E9486
:10414000EE3768E079E0F801808191810E943F15A7
:10415000F701E35DFE4F60817181F80180819181FB
:104160000E94F5376CE2F801808191810E94BB13B7
:10417000F701E15DFE4F4081518160E070E02AE08F
:10418000F801808191810E94D7136CE2F80180814F
:1041900091810E94BB13F701EF5CFE4F6081062EF8
:1041A000000C770BF801808191810E94F5376CE259
:1041B000F801808191810E94BB13F701EE5CFE4FF4
:1041C00080819181009729F0019751F464E77AE0AA
:1041D00002C066E67AE0F801808191810E943F1575
:1041E0006CE2F801808191810E94BB13F701EC5CC5
:1041F000FE4F6081F801808191810E94EE376CE270
:10420000F801808191810E94BB13C7018B5C9E4F96
:104210000E949C04AB01BC0122E030E0F8018081E7
:1042200091810E9462146CE2F801808191810E9468
:10423000BB13C701875C9E4F0E949C04AB01BC016D
:1042400022E030E0F801808191810E9462146CE2EA
:10425000F801808191810E94BB13F701E35CFE4F5E
:104260006081F801808191810E94EE37F2E7EF1AB8
:10427000FEEFFF0AB701CE0101960E94A7128D81C1
:104280009E81892B19F089819A8102C080E090E09B
:104290000E942B38CE0101960E94A212C7010E94F3
:1042A000893826960FB6F894DEBF0FBECDBFDF91DA
:1042B000CF911F910F91FF90EF900895FC01DB01CA
:1042C00080A9882321F04C3209F050C016C0119605
:1042D0001C921E9213961C921E92129782A98260C3
:1042E00082AB11AA81E04D3209F080E092A980FBF7
:1042F00090F992AB882339F36EC081A9811102C075
:1043000081E081AB12968D919C911397892BB9F422
:1043100082A980FF29C012968D919C911397919547
:104320008195910913969C938E9312978D919C91F0
:1043300011979195819591098D939C9315C02AE0D1
:1043400081A991E0980F91AB833010F712964D91AF
:104350005C911397249FC001259F900D1124139603
:104360009C938E931297ECCF81E008954E3219F40E
:1043700081E081AB30C081A9811113C02D913C91A6
:1043800011975AE0529FC001539F900D1124042EA3
:10439000000C550B40535109480F591F4D935C9326
:1043A0001AC091E0980F91AB8330A8F412962D912A
:1043B0003C9113975AE0529FC001539F900D1124D6
:1043C000042E000C550B40535109480F591F1396EA
:1043D0005C934E93129780E008950F931F93CF93B1
:1043E000DF93EC0189016ADF882331F098A99923D2
:1043F00019F091E0F8019083DF91CF911F910F9117
:10440000089590E0FC013197E231F10508F04EC0CB
:104410008827E854FF4F8F4F0C94446180918000AF
:104420008F7703C0809180008F7D809380000895F6
:1044300080918000877FF9CF84B58F7702C084B5E3
:104440008F7D84BD08958091B0008F7703C08091E7
:10445000B0008F7D8093B0000895809190008F7799
:1044600007C0809190008F7D03C080919000877F6E
:104470008093900008958091A0008F7707C080916D
:10448000A0008F7D03C08091A000877F8093A00053
:104490000895809120018F7707C0809120018F7D42
:1044A00003C080912001877F8093200108951F938E
:1044B000CF93DF93282F30E0F901E355FC4F84912F
:1044C000F901E259FB4FD491F901E85DFB4FC4912A
:1044D000CC23C1F0162F811194DFEC2FF0E0EE0F0A
:1044E000FF1FEC50FC4FA591B4918FB7F8941111B8
:1044F00005C09C91ED2FE095E92302C0EC91ED2BD6
:10450000EC938FBFDF91CF911F9108951F93CF93AD
:10451000DF93182FEB010E94362B209711F460E0F7
:1045200004C0CF3FD10531F461E0812FDF91CF91FD
:104530001F91BDCFE12FF0E0E355FC4FE4914E2FEA
:1045400050E0FA013197E231F10508F09DC088276B
:10455000E653FF4F8F4F0C94446184B5806884BD4F
:10456000C7BD97C084B5806284BDC8BD92C080912C
:104570008000806880938000D0938900C093880079
:1045800088C080918000806280938000D0938B00EF
:10459000C0938A007EC080918000886080938000F4
:1045A000D0938D00C0938C0074C08091B00080685F
:1045B0008093B000C093B3006CC08091B000806263
:1045C0008093B000C093B40064C080919000806874
:1045D00080939000D0939900C09398005AC0809126
:1045E0009000806280939000D0939B00C0939A00CB
:1045F00050C080919000886080939000D0939D007F
:10460000C0939C0046C08091A00080688093A00069
:104610008091A0008F7B8093A000D093A900C093CD
:10462000A80037C08091A00080628093A000D09342
:10463000AB00C093AA002DC08091A0008860809339
:10464000A000D093AD00C093AC0023C080912001A6
:10465000806880932001D0932901C093280119C05C
:1046600080912001806280932001D0932B01C09320
:104670002A010FC080912001886080932001D0938F
:104680002D01C0932C0105C0C038D1050CF04CCFD2
:1046900046CFDF91CF911F910895863308F086535E
:1046A00090917B00282F2870977F922B90937B000E
:1046B0008770806480937C0080917A00806480930E
:1046C0007A0080917A0086FDFCCF8091780020915D
:1046D000790090E0922B08958F929F92AF92BF92B3
:1046E000CF92DF92EF92FF926B017C019FDA4B0138
:1046F0005C01C114D104E104F104E9F097DADC01B2
:10470000CB0188199909AA09BB09883E9340A105E4
:10471000B10578F321E0C21AD108E108F10888EE6A
:10472000880E83E0981EA11CB11CC114D104E104C1
:10473000F10421F7DECFFF90EF90DF90CF90BF9094
:10474000AF909F908F900895FC01DB0180A9882392
:1047500021F04C3209F050C016C011961C921E92E6
:1047600013961C921E92129782A9826082AB11AAA4
:1047700081E04D3209F080E092A980FB90F992AB84
:10478000882339F36EC081A9811102C081E081AB19
:1047900012968D919C911397892BB9F482A980FF71
:1047A00029C012968D919C911397919581959109AD
:1047B00013969C938E9312978D919C91119791953E
:1047C000819591098D939C9315C03AE081A991E060
:1047D000980F91AB281710F312964D915C91139797
:1047E000349FC001359F900D112413969C938E9396
:1047F0001297ECCF81E008954E3219F481E081AB3D
:1048000030C081A9811113C02D913C9111975AE0BC
:10481000529FC001539F900D1124042E000C550B84
:1048200040535109480F591F4D935C931AC091E0B2
:10483000980F91AB2817A8F012962D913C911397E1
:104840005AE0529FC001539F900D1124042E000C7A
:10485000550B40535109480F591F13965C934E93C3
:10486000129780E008950F931F93DC01D0960C916E
:10487000D09710E00930110508F04BC0F8018827E7
:10488000E452FF4F8F4F0C9444616C3209F441C0E5
:10489000660F6056862F880F880F04C096968C91FD
:1048A00096978053680F96966C9333C0660F605648
:1048B000862F880F880F04C095968C91959780530A
:1048C000680F95966C9325C0660F6056862F880FEB
:1048D000880F04C094968C9194978053680F949697
:1048E0006C9317C0660F6056862F880F880F680F6D
:1048F0009B966C930EC09B968C919B978053680FF0
:104900009B966C939B979D968C919D9784609D96AA
:104910008C9381E01F910F91089581E00895FC012F
:10492000108208955F926F927F928F929F92AF92C2
:10493000BF92CF92DF92EF92FF920F931F93CF938C
:10494000DF93EC018B859C85AD85BE850196A11D0D
:10495000B11D8B879C87AD87BE87643279F48AA9A5
:1049600084FF02C08F7E8AAB1EA61A8281E08BABC9
:1049700018AA8AA98D7F8F7D8AAB22C1162F0BA919
:10498000023039F56A3219F483E08BAB1AC080EE3D
:10499000860F8F35C0F48EA586278EA7E881F98112
:1049A0000684F785E02DCE011995882309F4E8C027
:1049B0001C3209F08AC08AA98D7F8AAB8FA58F5FD0
:1049C0008FA718AAFDC0CE018D96A9DF1A821BAA57
:1049D000E0C0013009F07DC08EA586278EA76C321D
:1049E00021F48A818111E5C0CEC088A9811106C059
:1049F000603521F48AA980628AAB67C09AA995FFC5
:104A000010C0843058F4E881F9810480F581E02DEC
:104A1000612FCE011995811158C0B5C04CEF942E6D
:104A200005C0823008F451C03EEF932E980EE88105
:104A3000F9810280F381E02DCE0119956A80E62C80
:104A4000F12CC92CD12CFC0133968490FC0174907C
:104A5000662009F4A1C0671460F0282D30E0270D0E
:104A6000311DE216F3062CF4062D071996C01E1709
:104A70003CF40196FC0185919491009721F783C045
:104A80000F5F0815B0F7FB01E00FF11DE00FF11DFE
:104A9000A591B491A9015D01A21AB30AE42FE21B0A
:104AA000E91550F4FA015490F501E40FF51FE49173
:104AB0004F5F5F4F5E1691F39D01F901EC0DFD1DF7
:104AC000E4911E13D4CF070D0A8388A98F5F88ABAA
:104AD00077C0033009F05AC010628FE9810F863029
:104AE00010F4175501C0105328A98EA5612F70E04E
:104AF00021110DC091E098AB90E024E09595879549
:104B00002A95E1F78617970709F45AC02EC08F70CF
:104B100090E08617970749F58AA981FF0CC08D7F21
:104B20008AAB2F5F28ABE881F9810684F785E02DF9
:104B30006CE2CE0119958B819C81AD81BE8101967D
:104B4000A11DB11D8B839C83AD83BE83E881F98158
:104B50000680F781E02DCE0119959AA980FB94F982
:104B60009AAB1BAA82E090E02DC08F819885A98521
:104B7000BA850196A11DB11D8F839887A987BA8731
:104B8000CE018D96CCDE1A821BAA1AC0011118C064
:104B90001A8280E090E016C000E0FC013496659136
:104BA0007491FB01E00FF11DE00FF11D259134918F
:104BB00084CFCE018D96B3DE0FA718AA82E08BAB0F
:104BC00081E090E0DF91CF911F910F91FF90EF90E6
:104BD000DF90CF90BF90AF909F908F907F906F901D
:104BE0005F900895CF93DF93EC019A81973009F499
:104BF0007AC0462F983028F4913079F0923099F0AD
:104C00001DC1983009F475C09A3009F017C1E881C8
:104C1000F9810484F585E02D0CC1E881F9810084D7
:104C2000F185E02D06C1EFA58E2F90E0FC013197B4
:104C3000E930F10508F002C18827EB51FF4F8F4F93
:104C40000C9444618AA982FFF9C088A98111F6C039
:104C5000433509F0F3C08F859889A989BA89B09541
:104C6000A095909581959F4FAF4FBF4F8F87988BA1
:104C7000A98BBA8BE3C04C3231F488A9811103C0EF
:104C80008AA98B7F8AAB8AA982FFD8C0BE016D5EDC
:104C90007F4FCE010E94151DD1C088A98111CEC0C1
:104CA000642FCE010E94F51CC9C0BE016D5D7F4F0F
:104CB000CE010E94DA3B882309F4C0C09DA590680C
:104CC00081C022E0BE01695E7F4FCE013DDD8823B9
:104CD00009F4B4C021E098A9911101C020E09DA57C
:104CE00020FB94F96FC0E881F9810284F385E02DFF
:104CF000A1C0EFA58E2F90E0FC013197E930F105BE
:104D000008F09CC08827E251FF4F8F4F0C944461FC
:104D1000642FCE01DF91CF91A6CD88A9882339F0E9
:104D20008AA982FF8BC0BE01615F7F4FB2CF91E045
:104D30004C3209F490E08AA990FB82F98AABF0CF5B
:104D40009AA992FB882780F992FF78C098A99111BF
:104D500075C09DA598609DA7473509F06FC04B8928
:104D60005C896D897E8970956095509541955F4FFE
:104D70006F4F7F4F4B8B5C8B6D8B7E8B60C023E0C6
:104D8000BE01655E7F4FCE01DFDC882309F456C08B
:104D900021E098A9911101C020E09DA520FB95F983
:104DA00011C022E0BE01615E7F4FCE01CDDC8823C1
:104DB00009F444C021E098A9911101C020E09DA50B
:104DC00020FB96F99DA73BC088A98230F9F038F402
:104DD000882391F0813091F568A5605314C0843028
:104DE00001F1D0F0853051F56AA56053460F4AA70E
:104DF0008DA582608DA722C06C3201F1440F405610
:104E0000642F660F660F460F48A718C0440F405620
:104E1000642F660F660F02C069A56053460F49A74D
:104E20000DC0440F4056642F660F660F460F4AA709
:104E300005C0642FCE01DF91CF91199481E0DF91FD
:104E4000CF9108958F929F92AF92BF92CF92DF92AF
:104E5000EF92FF924B015C016B017C0184E0F694C0
:104E6000E794D794C7948A95D1F7D501C40122E07D
:104E7000B695A795979587952A95D1F7C80ED91E0F
:104E8000EA1EFB1ED701C60134E0B695A79597959B
:104E900087953A95D1F7C80ED91EEA1EFB1EBB278F
:104EA000AF2D9E2D8D2DC80ED91EEA1EFB1EC701EB
:104EB000AA27BB27C80ED91EEA1EFB1EA3E0B0E03E
:104EC000A70196010E94805FA5019401261B370B64
:104ED000480B590BABE0B0E00E94805FDC01CB01D6
:104EE00065E0B695A795979587956A95D1F7BC012A
:104EF000CD016C0D7D1D8E1D9F1DFF90EF90DF90ED
:104F0000CF90BF90AF909F908F900895FC01148236
:104F100015821682178210821182128213821186E4
:104F20001086138612861586148617861686118AB1
:104F3000108A138A128A148A168A178A158A81E0BF
:104F4000818F828F138E87E0808F148E158ECF0114
:104F50004E96E5CCCF93FC01DB0182A98E7F82AB1C
:104F600081E04C3209F080E090A9911106C08111D6
:104F700017C050E04053510910C0811113C050E0D8
:104F8000405351096D917C911197CAE0C69FC001B1
:104F9000C79F900D1124480F591F4D935C9302C079
:104FA00080E008C080A9882321F081E0F901808396
:104FB00001C081E0CF9108951F93CF93DF93182F05
:104FC000C0910312D091041260E070E08BEF91E188
:104FD0000E94B41869E170E080E090E07DDB40E081
:104FE00067E070E08BEF91E10E946115112311F0F1
:104FF00040E801C040E06FE370E08BEF91E10E9478
:1050000061156AE070E080E090E066DBBE018BEF46
:1050100091E10E94B41864E170E080E090E0DF91DB
:10502000CF911F9159CB0F931F93CF93DF93EC0137
:105030008D818F938C818F938B818F938A818F93B6
:1050400089818F9388818F9386E79AE09F938F93CE
:1050500002E215E11F930F930E94A563C8010E940D
:105060008D358B858F938A858F9389858F938885DE
:105070008F938F818F938E818F9387E99AE09F938F
:105080008F931F930F930E94A563C8010E948D35D3
:1050900089898F9388898F938F858F938E858F933E
:1050A0008D858F938C858F938FEA9AE09F938F9352
:1050B0001F930F930E94A563C8010E948D358B89B1
:1050C0008F938A898F9386EC9AE09F938F931F9397
:1050D0000F930E94A5638DB79EB784960FB6F89480
:1050E0009EBF0FBE8DBFC8010E948D358D898F93E5
:1050F0008C898F9388ED9AE09F938F931F930F93E2
:105100000E94A563C8010E948D350F900F900F90EB
:105110000F900F900F9087E59FE0DF91CF911F9147
:105120000F910C94C516382F2091FE149091FD1408
:10513000213208F049C08091DA148111FCCF42E09D
:105140004093DA143093D9143FEF3093D81410926F
:10515000D7142093D614ADEDB4E146EB54E1FA0137
:105160003E2F341B321718F43D913193F9CF109232
:10517000B5142091B514990F922B9093B51490917A
:10518000B414913061F41092B4149091B5149093CA
:10519000BB009091BC0093FDF8CF95EC01C095EE5B
:1051A0009093BC009091DA149230E1F39091D8146E
:1051B0009F3F79F08091D814803241F08091D814CB
:1051C000803331F084E005C081E003C082E001C09B
:1051D00083E01092DC141092FE141092DB140895F8
:1051E0009091DA149111FCCF91E09093DA1490939E
:1051F000D9142FEF2093D8141092D714260F209390
:10520000D6149093B5149091B514880F892B809380
:10521000B5148091B414813061F41092B41480916B
:10522000B5148093BB008091BC0083FDF8CF85EC62
:1052300001C085EE8093BC008091DA148130E1F3E7
:105240008091D714861710F46091D714A6EBB4E1BF
:1052500024E934E1F9018E2F821B861718F48D9111
:105260008193F9CF862F08952F923F924F925F92AC
:105270006F927F928F929F92AF92BF92CF92DF9266
:10528000EF92FF920F931F93CF93DF93CDB7DEB7CB
:1052900028970FB6F894DEBF0FBECDBFE5E0F2E170
:1052A00040815181E7E0F2E130812181E9E0F2E1E2
:1052B00020803180EBE0F2E140805180EDE0F2E1CE
:1052C00060807180EFE0F2E180809180E1E1F2E1C5
:1052D000A080B180E3E1F2E1C080D180E5E1F2E1BC
:1052E000E080F180E7E1F2E100811181E9E1F2E1A2
:1052F0008081898391819A8380E02E833D834B83D3
:105300005C835ADE809103129091041298878F83F8
:1053100060E070E08BEF91E10E94B41869E170E009
:1053200080E090E0D9D94B8165E570E08BEF91E1A9
:105330000E9461155C81452F66E570E08BEF91E17D
:105340000E9461153D81432F67E570E08BEF91E18D
:105350000E9461152E81422F68E570E08BEF91E18C
:105360000E946115422D69E570E08BEF91E10E948A
:105370006115432D6AE570E08BEF91E10E946115A4
:10538000442D61E670E08BEF91E10E946115452D9F
:1053900062E670E08BEF91E10E946115462D63E6B5
:1053A00070E08BEF91E10E946115472D64E670E09B
:1053B0008BEF91E10E946115482D65E670E08BEF5F
:1053C00091E10E946115492D66E670E08BEF91E155
:1053D0000E9461154A2D6BE570E08BEF91E10E9410
:1053E00061154B2D6CE570E08BEF91E10E9461152A
:1053F0004C2D6DE570E08BEF91E10E9461154D2D14
:105400006EE570E08BEF91E10E9461154E2D6FE526
:1054100070E08BEF91E10E9461154F2D60E670E026
:105420008BEF91E10E946115402F67E670E08BEFF2
:1054300091E10E946115412F68E670E08BEF91E1E8
:105440000E946115498169E670E08BEF91E10E944D
:1054500061154A816AE670E08BEF91E10E94611567
:105460006F8178858BEF91E10E94B41881E02896D6
:105470000FB6F894DEBF0FBECDBFDF91CF911F9165
:105480000F91FF90EF90DF90CF90BF90AF909F90E3
:105490008F907F906F905F904F903F902F908CCD2A
:1054A000CF93DF93CDB7DEB72A970FB6F894DEBF60
:1054B0000FBECDBF8B818093FD1188E28093FE11DA
:1054C00087E390E0A0E0B0E08093FF11909300129A
:1054D000A0930112B093021289859A8590930412C9
:1054E0008093031210929314109292141092DC1471
:1054F0001092FE141092DA1481E08093D914109265
:10550000B41461E084E10E94572261E085E10E94C9
:1055100057228091B9008E7F8093B9008091B900A5
:105520008D7F8093B90088E48093B80085E48093F0
:10553000BC0060E070E08BEF91E10E944015803A82
:1055400071F460E070E08BEF91E10E94B41840E2EA
:105550006FE370E08BEF91E10E94611512C068EE7D
:1055600073E080E090E0B8D860E070E08BEF91E10C
:105570000E944015803A29F3109231121092301295
:1055800068C060E070E08BEF91E10E944015803AC6
:1055900031F06AE070E080E090E09ED8F2CF62E304
:1055A00070E080E090E098D840E06EE370E08BEF30
:1055B00091E10E9461156AE070E080E090E08CD893
:1055C00040E067E070E08BEF91E10E94611540E000
:1055D0006FE370E08BEF91E10E9461156AE070E08B
:1055E00080E090E079D86CE070E08BEF91E10E9470
:1055F000B41864E170E080E090E06ED881E090E063
:10560000909331128093301288EE9AE00E948D358B
:105610008CEF9AE00E948D351F9285E18F931F9247
:1056200084E18F9388E09BE09F938F9382E295E1E2
:105630009F938F930E94A56382E295E10E948D352E
:1056400087E59FE00E94C5160FB6F894DEBF0FBE37
:10565000CDBF80913012909131122A960FB6F894F6
:10566000DEBF0FBECDBFDF91CF91089590E0FC016A
:10567000E259FB4F2491FC01E85DFB4F84918823A4
:1056800099F090E0880F991FFC01E25FFB4FA59114
:10569000B491FC01EC50FC4F859194918FB7F89434
:1056A000EC91E22BEC938FBF08953F924F925F9263
:1056B0006F927F928F929F92AF92BF92CF92DF9222
:1056C000EF92FF920F931F93CF93DF9300D01F921F
:1056D000CDB7DEB72091B002223421F02F3F09F080
:1056E0001CC304C0E3EFF3E03490EDC022E4209348
:1056F000B002E3EFF3E0E491EF3F09F40EC3E230D0
:1057000009F474C054F5EE2309F453C0E13009F0F4
:10571000D9C01092800010928100209181002860F1
:105720002093810020918100216020938100EAE68E
:10573000F4E0E491F0E0EE0FFF1FEC50FC4F2591F8
:10574000349130930A1520930915E0EBF4E0E491CD
:10575000E093081533243394B8C0E43009F48EC0C4
:105760000CF468C0E53009F0ADC010922001109231
:105770002101209121012860209321012091210104
:10578000216020932101EAE6F4E0E491F0E0EE0FDD
:10579000FF1FEC50FC4F259134913093011520935D
:1057A0000015E0EBF4E0E491E093FF14B5E03B2E4C
:1057B0008CC014BC15BC24B5226024BD25B5216065
:1057C00025BDEAE6F4E0E491F0E0EE0FFF1FEC50B7
:1057D000FC4F2591349130930D1520930C15E0EB7F
:1057E000F4E0E491E0930B15312C6FC01092B000FF
:1057F0001092B1002091B00022602093B00020915F
:10580000B10021602093B100EAE6F4E0E491F0E019
:10581000EE0FFF1FEC50FC4F2591349130938D1407
:1058200020938C14E0EBF4E0E491E0938B14B2E06D
:105830003B2E4BC01092900010929100209191004D
:105840002860209391002091910021602093910085
:10585000EAE6F4E0E491F0E0EE0FFF1FEC50FC4FBD
:10586000259134913093071520930615E0EBF4E071
:10587000E491E093051533E0332E27C01092A00089
:105880001092A1002091A10028602093A1002091F6
:10589000A10021602093A100EAE6F4E0E491F0E0A9
:1058A000EE0FFF1FEC50FC4F2591349130930415FF
:1058B00020930315E0EBF4E0E491E093021504E09B
:1058C000302E03C03E2E37FC28C22A013B018C013A
:1058D00082E4CCDE4801A12CB12C832D8D7F09F010
:1058E000BBC060E072E18AE790E0A50194010E94EC
:1058F000645F29833A834B835C8369017A0121E0E9
:10590000C21AD108E108F1088FEFC816D104E104EA
:10591000F10409F008F44CC060E472E48FE090E018
:10592000A50194010E94645F69017A0191E0C91A9E
:10593000D108E108F108E2E03E1220C0FFEFCF16E7
:10594000D104E104F10409F008F4E5C160E970ED67
:1059500083E090E0A50194010E94645F69017A01EF
:1059600081E0C81AD108E108F1089FEFC916D104F7
:10597000E104F10409F0D0F583E067C0EFEFCE1643
:10598000D104E104F104B1F0A8F068E478EE81E01C
:1059900090E0A50194010E94645F69017A01F1E041
:1059A000CF1AD108E108F108332009F45AC1AAC17D
:1059B00081E001C082E03320A1F047C089819A8153
:1059C000AB81BC812AE0B595A795979587952A95D7
:1059D000D1F76C017D01F1E0CF1AD108E108F1089F
:1059E00085E095B5987F892B85BDA6C068E478EEE3
:1059F00081E090E0A50194010E94645F69017A0151
:105A000081E0C81AD108E108F1089FEFC916D10456
:105A1000E104F10409F008F422C164E274EF80E0CB
:105A200090E0A50194010E94645F69017A0181E020
:105A3000C81AD108E108F1089FEFC916D104E104A2
:105A4000F10411F008F02FC185E09091B100987F2A
:105A5000892B8093B10070C060E072E18AE790E02A
:105A6000A50194010E94645F69017A01F1E0CF1AF7
:105A7000D108E108F108C114D10421E0E206F104E3
:105A800088F068E478EE81E090E0A50194010E943E
:105A9000645F69017A0181E0C81AD108E108F10860
:105AA00083E001C081E091E0391210C09091810043
:105AB000987F892B80938100411451046104710403
:105AC00009F03FC02FEF3FEFA90171C0E3E03E12A4
:105AD0000FC090919100987F892B80939100411481
