:1000000052C2000081C200007FC200007DC2000019
:100010007BC2000079C2000077C2000075C20000F8
:1000200073C200000C948C2D0C948C2D0C948C2D90
:100030006BC200000C94820E67C2000065C2000013
:1000400063C2000061C200005FC200005DC2000028
:100050005BC2000059C2000057C200000C94563C1D
:1000600053C200000C9409190C9431184DC20000C1
:100070004BC2000049C2000047C2000045C2000058
:1000800043C2000041C200003FC200003DC2000068
:100090000C94D6180C94F21737C200000C94962DCD
:1000A00033C2000031C200002FC200002DC2000088
:1000B0002BC2000029C2000027C2000025C2000098
:1000C00023C2000021C200001FC200000C94A3182C
:1000D0000C94B31719C200000C9470180C94741788
:1000E00013C20000B44BBF4BC24BC84BCB4BCE4BE3
:1000F000F14BDD4BF14B7B4E7B4E7B4E004C7B4EF0
:10010000314C7B4E3D4E4B4EF74B2B4CC74CDC4C91
:10011000624E5B4E574E6A4E90139913A113A7136C
:10012000AF13B513D413BD13C61359165E16FB15C2
:100130001416711625162C16E8163816591625169B
:100140005E16FB15141671169016A216B416B01989
:10015000C019CA19FE19251A331A3A1A441A791AFB
:10016000821A8C1AA91AB41AC31AC71ACB1AE51A1A
:10017000E91AF01AF71A261B8C1BB71BE41BEA1BA3
:10018000F71BFD1B0A1C6A1CC91CC91C911C541BB3
:100190005B1B5D1B5F1B611B631B651B671B691B77
:1001A0006B1B04210721F620FA2000213E210B21A0
:1001B0000F21152119211D21232127212B213E212A
:1001C000312135213921942199219E21A821B22163
:1001D0002B22BC21C421CC21D621E021EA21F92106
:1001E00003222B220D2217222122FA331035123539
:1001F0004B3403346C342C349134F234D434F5342D
:10020000D7345935CC342A357035A8358C35C135BD
:100210004E414E494E495459494E46CDCCCC3D0AEB
:10022000D7233C17B7D13877CC2B329595E6241FCE
:10023000B14F0A000020410000C84200401C462087
:10024000BCBE4CCA1B0E5AAEC59D7400407A10F35A
:100250005A00A0724E18090010A5D4E80000E876F4
:1002600048170000E40B54020000CA9A3B0000004B
:10027000E1F505000080969800000040420F000064
:1002800000A08601000000102700000000E8030025
:100290000000006400000000000A000000000001EF
:1002A00000000000002C76D888DC674F0823DFC1EF
:1002B000DFAE59E1B1B796E5E3E453C63AE65199AA
:1002C0007696E8E6C28426EB898C9B62ED407C6FD3
:1002D000FCEFBC9C9F40F2BAA56FA5F490055A2A8A
:1002E000F75C936B6CF9676DC11BFCE0E40D47FE96
:1002F000F520E6B500D0ED902E030094357705008B
:1003000080841E080000204E0A000000C80C333311
:1003100033330F986E12831141EF8D2114893BE620
:100320005516CFFEE6DB18D1844B381BF77C1D90A9
:100330001DA4BBE424203284725E228100C9F12412
:10034000ECA1E53D27000020002300260029002C19
:10035000002F003200000100000301060109010026
:10036000000A0B02090C0D0E08070304010000002F
:10037000000000000000000000000000000000007D
:10038000000000000000000000000012111000003A
:10039000000000000000000000000000000000005D
:1003A00000000000000200002200250028002B00B1
:1003B0002E003100340002010000050108010B018C
:1003C00000002100240027002A002D003000330007
:1003D00001010000040107010A01050505050705E3
:1003E00008080808020202020A0A080804040404B1
:1003F00001010101010101010303030303030303DD
:10040000040707070C0C0C0C0C0C0C0C020202026B
:1004100006060606060606060B0B0B0B0B0B0B0B54
:100420000102102020080810204010204080020106
:1004300002010804020101020408102040808040EB
:1004400020100804020180040201804020100804EA
:100450000201080402010102040810204080010288
:100460000408102040805A44410056544700524D21
:100470004300475356004753540047534100474CED
:100480004C004747410041504200860482047E04EC
:100490007A04760472046E046A046604010000099A
:1004A0008A043151294711241FBECFEFD1E2DEBFAC
:1004B000CDBF00E00CBF1CE0A0E0B2E0EAE5FAEC42
:1004C00000E00BBF02C007900D92A037B107D9F72B
:1004D00025E1A0E7BCE001C01D92A934B207E1F715
:1004E00012E0C2E5D2E000E006C021970109802FAA
:1004F000FE010E94F25FC135D10780E00807A9F72D
:100500000E94E53C0C941C657BCDE091300FF0918E
:10051000310F0190F081E02D682F80E39FE0199565
:10052000029709F09DC08091830F882361F080912C
:10053000620F88608093620F1092840F8091830F06
:1005400081508093830F80915D0F80FF0CC02091BC
:10055000820F90915C0F20FF04C02091810F29171A
:1005600010F49093810F81FF0CC09091580F9093DD
:100570007D0F9091590F90937E0F90915A0F909309
:100580007F0F82FF10C09091560F90937B0F909138
:10059000550F90937A0F9091540F9093790F9091FB
:1005A0005B0F9093800F83FF09C088E0EFE3FFE0CB
:1005B000A4E6BFE001900D928A95E1F780915D0F6E
:1005C00084FF10C04091470F5091480F6091490F30
:1005D00070914A0F40936C0F50936D0F60936E0FA4
:1005E00070936F0F86FF10C040914F0F5091500FC6
:1005F0006091510F7091520F4093740F5093750F8B
:100600006093760F7093770F85FF10C040914B0F6A
:1006100050914C0F60914D0F70914E0F4093700FA1
:100620005093710F6093720F7093730F87FF04C024
:100630008091530F8093780F9091820F80915D0F7E
:10064000892B8093820F8091620F84FF09C01092E2
:10065000850F8091830F811103C081E08093830F08
:1006600008950C948F60CF93DF93EC01FC01E65961
:10067000FE4F88EE93E0A0E0B0E080839183A283F8
:10068000B383349681E090E09183808332968083B7
:100690000E948B22CF58DE4F688379838A839B83A5
:1006A000DF91CF910895FC01EB50FF4F8081918144
:1006B0000197039710F080E0089581E008956F920C
:1006C0007F928F929F92AF92BF92CF92DF92EF92E2
:1006D000FF920F931F93CF93DF9300D01F92CDB75C
:1006E000DEB73C014801590149835A836B837C83FF
:1006F000DADF49815A816B817C81811106C09501C5
:100700008401C3014E960E94C72E0F900F900F9048
:100710000F90DF91CF911F910F91FF90EF90DF909D
:10072000CF90BF90AF909F908F907F906F900895E3
:10073000CF92DF92EF92FF92CF93DF93EC016A01A9
:100740007B0120E030E0A901C701B6010E94B25C44
:1007500087FF0AC020E030E044EB53E4C701B60154
:100760000E94485E6B017C0120E030E044EB53E4E2
:10077000C701B6010E944C5FC550DF4F6883798383
:100780008A839B83DF91CF91FF90EF90DF90CF9092
:100790000895DC011C9295E0E9EEF2E05496019098
:1007A0000D929A95E1F708958F929F92AF92BF9222
:1007B000CF92DF92EF92FF920F931F93CF93DF932D
:1007C000EC014A015B01CB01BA010E94145F6B018D
:1007D0007C017983688320E030E048EC52E4C50175
:1007E000B4010E94175D0E94145F2CE9860120036A
:1007F000A001219F500D1124CA01860F971F9B83D2
:100800008A83CE01DF91CF911F910F91FF90EF90DE
:10081000DF90CF90BF90AF909F908F9008950F93EF
:100820001F93CF93DF938C01EB01FC01468D578D15
:1008300060A171A1CE010196B7DFF80142A153A1D9
:1008400064A175A1CE010596AFDFF80146A157A1BD
:1008500060A571A5CE010996A7DFF801E65BFF4F01
:10086000808191819B8B8A8B7D96808191819D8BEC
:100870008C8B85E0EEEEF2E0DE011D9601900D928C
:100880008A95E1F781E08883DF91CF911F910F91E5
:100890000895EF92FF920F931F93CF93DF938C01F4
:1008A000EB01FC01808591859C878B8782859385F0
:1008B00001979E878D87E856FF4F80819181998BA4
:1008C000888BF80182818A8B7801FAE9EF0EF11C9E
:1008D000F70142A953A964A975A9CE01439664DF23
:1008E000F70146A557A560A971A9CE0147965CDF1F
:1008F000F801848195819D8F8C8F868197819F8F50
:100900008E8F8AE0E3EFF2E0DE01119601900D9206
:100910008A95E1F781E08883DF91CF911F910F9154
:10092000FF90EF900895CF92DF92EF92FF92CF93D6
:10093000DF93EC0168817981072E000C880B990BFD
:100940000E94B85C6B017C018A819B81BC01990F7C
:10095000880B990B0E94B85C2AE037ED43E25CE318
:100960000E94175D9B01AC01C701B6010E94485E61
:10097000DF91CF91FF90EF90DF90CF900895EF92AD
:10098000FF920F931F93CF93DF93CDB7DEB77C0118
:1009900025EFE20EF11CF70120813181232B09F0B4
:1009A0004CC08C018B85882349F08D899E89F80184
:1009B0009187808760E0C8010E94193B8F8588235A
:1009C00049F08C8D90E0F8019383828360E0C80148
:1009D0000E94193B8889882351F0CE014D96A3DFF0
:1009E000F801E453FF4F6083718382839383898985
:1009F000882379F0CE01819696DFF701208131813D
:100A0000232B39F4F801E853FF4F6083718382830D
:100A100093838B89882399F08C89882381F08EA118
:100A20009FA1F8019583848388A599A597838683E0
:100A300060E0C8010E94193B02C080E001C081E073
:100A4000DF91CF911F910F91FF90EF900895FC01DE
:100A5000EE5BFE4F2081222319F0815A9E4F63CF17
:100A6000FC01E550FF4F608171818281938108957F
:100A7000EF92FF920F931F93CF93DF931F92CDB707
:100A8000DEB77C01FC0100811181C80169830E94ED
:100A9000CB5D6981681719F0C8010E94D35DC70159
:100AA0000F90DF91CF911F910F91FF90EF900895DC
:100AB000BC0189EF9EE00C946510EF92FF920F93BA
:100AC0001F93CF93DF93EC018B017C0185E8E81A3B
:100AD0008EEFF80AF7018081918168177907C9F0D4
:100AE000719788EE93E0A0E0B0E080839183A283C9
:100AF000B383349684E190E091838083329681E0E1
:100B000080830E948B22CF58DE4F688379838A834B
:100B10009B83F701118300831F930F9380E597E078
:100B20009F938F9380E79CE09F938F930E945362E3
:100B30000F900F900F900F900F900F9080E79CE018
:100B4000DF91CF911F910F91FF90EF90B1CF0F9355
:100B50001F93CF93DF93EC018B01FC01E358FE4F11
:100B6000718360831F936F9387E697E09F938F93C2
:100B700080E79CE09F938F930E94536280E79CE004
:100B800097DF0F900F900F900F900F900F90012B09
:100B9000D9F0FE01E659FE4F80ED97E0A0E0B0E00D
:100BA00080839183A283B383349684E190E0918320
:100BB0008083329681E080830E948B22CF58DE4F63
:100BC000688379838A839B83DF91CF911F910F91F3
:100BD00008954F925F926F927F928F929F92AF9201
:100BE000BF92CF92DF92EF92FF920F931F93CF931A
:100BF000DF93CDB7DEB7C254D1090FB6F894DEBF8C
:100C00000FBECDBF6C0125EFC20ED11CD601AD9039
:100C1000BC90A616B70609F471C17B018C01B3E044
:100C2000AB16B10431F0E5E0AE16B10409F441C0F1
:100C30004CC00E94E03A4C01880C991CF3E08F16DE
:100C400091041CF423E0822E912C9F928F928AE7CC
:100C500097E09F938F9381EF94E19F938F930E94EE
:100C6000536281EF94E10E94DB3AD80113969C9283
:100C70008E9212975A968D919C915B9715969C93A4
:100C80008E9314975C968D919C915D9717969C938B
:100C90008E93169719961C921E92189761E0C801C0
:100CA0000E94193B0F900F900F900F900F900F9094
:100CB0000CC06430710549F4865C9E4F34DEAB0194
:100CC000BC01C80189509F4F8CD3F6018080918070
:100CD000F182E082F3E0EF16F10431F58EE897E05F
:100CE0000E94DB3AD80113961C921E921297159619
:100CF0001C921E921497EE24EA9493E0F92E179614
:100D0000FC92EE92169719961C921E92189760E02C
:100D1000C8010E94193BF801F38EE28E158E148EE5
:100D20008AEA97E00E94DB3AD601ED90FC90B5E0AC
:100D30008B16910481F581E2982E3E01E2E26E0E5F
:100D4000711CD301E92D1D92EA95E9F7C30121DD5C
:100D5000F301DE011196892D01900D928A95E1F73C
:100D6000FE013196D801A35EBE4F01900D929A9478
:100D7000E1F70E948B22F801E25CFE4F60837183F1
:100D800082839383FF9680819181069721F460E0AE
:100D900070E0C801DCDEE114F10409F477C0F7FC6F
:100DA000ADC0F4E0EF1AF10822E0E216F10408F019
:100DB000A5C0F801E053FF4F8081882309F49AC051
:100DC000EA54F10910821182128213823497108240
:100DD000118212821382680186E5C80ED11CD601E9
:100DE0008C9181114AC0D801DA96ED91FC91DB9784
:100DF00080809180A280B3807801B2E4EB0EF11C78
:100E0000F70180829182A282B382D801D896ED91B7
:100E1000FC91D99780819181A281B381F801EA5B2D
:100E2000FF4F80839183A283B3833C96408051809F
:100E300062807380A3019201C501B4010E94A15F89
:100E4000181634F4F701408251826282738215C011
:100E5000F801E25BFF4F4080518062807380A30104
:100E60009201C501B4010E94B25C87FF06C0D701A0
:100E70004D925D926D927C92139781E0F601808392
:100E8000C8018B599F4F0E942E3938C0F801EA578C
:100E9000FF4F1082118212821382349710821182C6
:100EA00012821382BC971082D80158962D913C91E2
:100EB000599756968D919C915797281B390B1A96E6
:100EC0008D919C911B972817390714F0019707C043
:100ED000919581959109821793070CF4C901F80146
:100EE000EA56FF4F9183808340E050E0BA01C80189
:100EF0007BD304C0F601B182A08201C081E0CE5B49
:100F0000DF4F0FB6F894DEBF0FBECDBFDF91CF919C
:100F10001F910F91FF90EF90DF90CF90BF90AF9017
:100F20009F908F907F906F905F904F90089527E3F0
:100F300034E0FC0131832083E15AFF4F2FE334E09A
:100F4000318320838B599F4F0C947136EF92FF921F
:100F50000F931F93CF93DF93EC018BE694E099837B
:100F60008883FE01E15AFF4F83E794E091838083F9
:100F7000FB968BE794E0918380837E018FEFE80EF0
:100F8000F11CE114F10459F08E01035E1E4F0E15A1
:100F90001F0529F006501109C801FAD5F8CFCE0176
:100FA000DF91CF911F910F91FF90EF90C0CF0895E7
:100FB000CF93DF93EC016F3F710509F050F48C8102
:100FC0009D816817790729F07D836C8386E00E94F4
:100FD0006E218C819D81DF91CF910895CF93DF9316
:100FE000EC018A819B816817790729F07B836A83EA
:100FF00087E00E943F218A819B81DF91CF910895F4
:101000002F923F924F925F926F927F928F929F9218
:10101000AF92BF92CF92DF92EF92FF920F931F9306
:10102000CF93DF9300D0CDB7DEB71C018B012A83AD
:101030003B8349830E94B23A4C018091200D2A8162
:101040003B81498181110EC0F101808D918D6689AE
:101050007789861B970B90931F0D80931E0D81E05F
:101060008093200DF1016484758446845784411176
:1010700089016101F3E6CF0ED11CF601A080B18099
:10108000A114B10429F480911E0D90911F0D07C089
:10109000F101808D918D26893789821B930B081B66
:1010A000190B780117FF04C0EE24FF24E01AF10A9F
:1010B000F10162817381072E000C880B990B0E944D
:1010C000B85CF10122893389448955890E94175DF2
:1010D0000E94145FE616F7068CF0F101EF59FF4FFE
:1010E0008614970424F480819181019739F0481483
:1010F0005904C4F480819181892BA1F4AB2871F14A
:1011000060E070E0C101815A9F4F52DFF101808D94
:10111000918D26893789821B930B90931F0D8093A5
:101120001E0D1CC061E070E00E151F0511F460E09B
:1011300070E0808191816817790721F0C101815A9F
:101140009F4F4CDFF601808191818F3F910531F0F7
:101150006FEF70E0C101815A9F4F2ADFC8010F90E5
:101160000F900F90DF91CF911F910F91FF90EF9013
:10117000DF90CF90BF90AF909F908F907F906F90B7
:101180005F904F903F902F9008950F931F93CF93B0
:10119000DF93EC018B01FC01EB50FF4F208131818B
:1011A000213031050CF1233031050CF441C02330DE
:1011B0003105D1F4C15ADF4F61E070E0101611061D
:1011C00014F460E070E0CE0109DF6FEF70E0CE0153
:1011D000EFDE68EE73E080E090E00E94532260E072
:1011E00070E0CE01E5DE21C060E070E0CE01F1DC10
:1011F000FE01EA56FF4F80819181800F911F6A8521
:101200007B85861797071CF06150710907C071959F
:1012100061957109681779070CF4BC0171836083CB
:1012200020E030E040E0CE01EBDE81E090E002C063
:1012300080E090E0DF91CF911F910F910895CF92C0
:10124000DF92EF92FF926B017C0120E030E0A90178
:101250000E94B25C87FF0AC020E030E044EB53E418
:10126000C701B6010E94485E6B017C0120E030E0BE
:1012700044EB53E4C701B601FF90EF90DF90CF90AD
:101280000C944C5F23EA33E0FC01318320838E58B9
:101290009E4F7EC4CF93DF93EC01F4DFCE01DF914C
:1012A000CF910C948F6084589140F4CF8458914032
:1012B000E9CFFC0126A537A540A951A962A573A5D0
:1012C00084A595A50E94485EBACFCF92DF92EF9297
:1012D000FF920F931F93CF93DF93EC017B01FC01EF
:1012E000EB50FF4F00811181DED9811139C0E1142B
:1012F000F10431F0EA94EF2851F4CE01A8DB04C0E8
:10130000CE0186569F4FD5DF6B017C0106C0C12CF4
:10131000D12C80E8E82E8FEBF82EB701A601CE0184
:1013200007DAB701A601CE0189509F4F5AD00115A7
:10133000110551F017FD14C00450110902301105B8
:1013400078F460E070E002C064E070E0CE01DF910C
:10135000CF911F910F91FF90EF90DF90CF9039CCFC
:10136000DF91CF911F910F91FF90EF90DF90CF9081
:1013700008950F931F93CF93DF938C01EC018BEEB5
:1013800093E089939993C8010F9602D4C8010996F6
:10139000FFD3CE01DF91CF911F910F91F9C3CF936E
:1013A000DF93EB010E94CB5D8883CE01DF91CF916B
:1013B00008950F931F93CF93DF931F921F92CDB782
:1013C000DEB78B01FB0160819A838983CE01019690
:1013D0004FDBC8010F900F90DF91CF911F910F91BC
:1013E0000895CF92DF92EF92FF92CF93DF93EC01BB
:1013F0006A017B0120E030E0A901C701B6010E942B
:10140000B25C87FF0AC020E030E044EB53E4C70140
:10141000B6010E94485E6B017C0120E030E044EBA5
:1014200053E4C701B6010E944C5F688379838A83C5
:101430009B83DF91CF91FF90EF90DF90CF90089545
:10144000EF92FF920F931F93CF93DF93CDB7DEB749
:1014500068970FB6F894DEBF0FBECDBF8C01F62E95
:101460008EE698E025DBB80167597E4F8DE790E066
:10147000A0DFFF2099F086E1E4E8F2E0DE011196BA
:1014800001900D928A95E1F78EEB98E011DB8E01C9
:101490000F5F1F4F8EE7E82EF12C06C0BE016F5F75
:1014A0007F4FC801BCD9F3CFF80161918F01F88E4D
:1014B000EF8ACE014796DCDAFFEFEF1AFF0A84E9E4
:1014C000E816F10489F71F921F921F928EE78F93FF
:1014D00081E898E09F938F9380E79CE09F938F93A0
:1014E0000E94536280E79CE0E3DA0FB6F894DEBF17
:1014F0000FBECDBF8981882379F08A89882361F066
:101500008989882349F08E85882331F08F85882347
:1015100019F08889811103C087E998E0C9DA82E966
:1015200098E0C6DA81E068960FB6F894DEBF0FBE89
:10153000CDBFDF91CF911F910F91FF90EF90089554
:10154000EF92FF920F931F93CF93DF93CDB7DEB748
:10155000A2970FB6F894DEBF0FBECDBF8C01F62E5A
:1015600088EA98E0A5DAB80167597E4F89E490E0EF
:1015700020DFFF2099F08DEB98E09ADA80E2E7EB2C
:10158000F2E0DE01119601900D928A95E1F78E014D
:101590000F5F1F4F8AE4E82EF12C06C0BE016F5F7B
:1015A0007F4FC80176D9F3CFF80161918F01FAA27C
:1015B000E9A2CE0181965CDAFFEFEF1AFF0A8AE614
:1015C000E816F10489F788E09BE072DA81E0A296E0
:1015D0000FB6F894DEBF0FBECDBFDF91CF911F9144
:1015E0000F91FF90EF900895CF92DF92EF92FF92CC
:1015F0000F931F93CF93DF93EC016A017B0120E0EF
:1016000030E0A901C701B6010E94A15F181624F0BD
:10161000F7FAF094F7F8F094FE01EB58FE4F808152
:10162000682F70E080E090E00E94B85C9B01AC0104
:10163000C701B6010E94B25C90912C0D8E01065834
:101640001E4F87FF12C0992309F43DC010922C0D44
:10165000F801108282E412D3FE01E059FE4F10829D
:1016600060E070E0CE0173DA2EC091110FC081E00E
:1016700080932C0D0E948B220E94B65C6093280DF3
:101680007093290D80932A0D90932B0DF801808182
:10169000811119C00E948B220E94B65C2091280DF6
:1016A0003091290D40912A0D50912B0D0E94475EDB
:1016B000FE01EA58FE4F20813181428153810E9410
:1016C000A15F18165CF0F8018081DF91CF911F9126
:1016D0000F91FF90EF90DF90CF900895FF24F39447
:1016E000F801F08262E070E0CE0131DAFE01E659E5
:1016F000FE4F88EE93E0A0E0B0E080839183A28368
:10170000B38334968FEF93E0918380833296F08297
:101710000E948B22CF58DE4F688379838A839B8314
:10172000D2CF0895CF92DF92EF92FF920F931F9343
:10173000CF93DF936C017A018B01C0E0D0E0CE152E
:10174000DF0589F0D8016D918D01D601ED91FC91F5
:101750000190F081E02DC6011995892B11F47E01CD
:1017600002C02196ECCFC701DF91CF911F910F915D
:10177000FF90EF90DF90CF9008950E940B62EF9260
:10178000FF920F931F93CF93DF93CDB7DEB72C97C4
:101790000FB6F894DEBF0FBECDBF7C018B0184E293
:1017A000FB0111928A95E9F784E290E0A0E0B0E0B5
:1017B000FB0180839183A283B383F70184819581A8
:1017C000A681B781FB0184839583A683B78383E0D9
:1017D00090E0A0E0B0E080879187A287B3870E9465
:1017E0008B22F801608B718B828B938BB701CE01BA
:1017F00001960E94C62989819A81AB81BC81F8013A
:10180000848B958BA68BB78B8D819E81AF81B8859C
:10181000808F918FA28FB38F89859A85AB85BC8588
:10182000848F958FA68FB78F81E02C960FB6F89492
:10183000DEBF0FBECDBFDF91CF911F910F91FF9003
:10184000EF9008950F931F93CF93DF938C01EB01DB
:1018500088E2FB0111928A95E9F74BE050E06CEDCC
:1018600078E0CE010E9444621B8681E090E0A0E017
:10187000B0E08C879D87AE87BF87F8018481958112
:10188000A681B781888B998BAA8BBB8B83E090E074
:10189000A0E0B0E08C8B9D8BAE8BBF8B1CA21DA2F9
:1018A0001EA21FA2188E198E1A8E1B8E1C8E1D8EC4
:1018B0001E8E1F8E8AE097EDA3E2BCE388A399A356
:1018C000AAA3BBA3DF91CF911F910F910895CF934E
:1018D000DF93FC01248135814217530778F4C081DE
:1018E000D181062E000C770BCE01840F951F0E942C
:1018F0002962009719F08C1B9D0B02C08FEF9FEFA0
:10190000DF91CF910895FC0124813581621773071F
:1019100048F480819181009729F0FC01E60FF71FC0
:101920008081089580E00895FC0124813581232B76
:1019300031F421E061157105A1F0FB0108C0FC0143
:10194000808191816115710531F421E0FC01808174
:10195000882339F005C00E94346221E0892B09F008
:1019600020E0822F08950F931F93CF93DF938C0174
:10197000EB01FC01808191810097B1F06881798150
:101980006115710579F0428153812C813D814217A7
:10199000530740F00E943D628C819D81F801958340
:1019A000848313C00E948F6088819981F80191839C
:1019B00080838A819B81938382838C819D8195839F
:1019C0008483198218821B821A821D821C82DF91F5
:1019D000CF911F910F9108950F931F93CF93DF9392
:1019E000EC0188819981009729F02A813B81261793
:1019F000370788F48B016F5F7F4F0E942761009744
:101A000061F0998388831B830A832C813D81232B7A
:101A100011F4FC01108281E001C080E0DF91CF91E0
:101A20001F910F910895EF92FF920F931F93CF9301
:101A3000DF93FC01248135816115710511F480E08B
:101A400018C041155105A1F07B01EC018A01020F7C
:101A5000131FB801C1DF882391F3288139818C815C
:101A60009D81B701820F931F0E943D621D830C83ED
:101A700081E0DF91CF911F910F91FF90EF9008953A
:101A8000EF92FF920F931F93CF93DF93CDB7DEB703
:101A900028970FB6F894DEBF0FBECDBF7C01CB01F7
:101AA0004AE08E010F5F1F4FB8010E948458F80171
:101AB00001900020E9F73197AF01401B510BB801AD
:101AC000C701B1DF28960FB6F894DEBF0FBECDBFB9
:101AD000DF91CF911F910F91FF90EF900895CF93D9
:101AE000DF931F921F92CDB7DEB769831A8241E060
:101AF00050E0BE016F5F7F4F96DF0F900F90DF9138
:101B0000CF910895CF93DF93EC018881998100975D
:101B100011F00E948F60198218821D821C821B8224
:101B20001A82DF91CF910895EF92FF920F931F9346
:101B3000CF93DF93EC017B018A01BA014DDF811164
:101B400003C0CE01DFDF07C01D830C83B70188818E
:101B500099810E943D62CE01DF91CF911F910F913B
:101B6000FF90EF900895CF93DF93EC01611571051D
:101B700051F0FB0101900020E9F73197AF01461BBE
:101B8000570BD2DF01C0BEDFCE01DF91CF910895A8
:101B9000FC01808191810C948F60FB01DC01119626
:101BA0001C921E9213961C921E92129715961C92CE
:101BB0001E9214978617970741F060817181611515
:101BC000710519F044815581AFCF0895FC01118250
:101BD000108213821282158214826115710549F0F8
:101BE000FB0101900020E9F73197AF01461B570B2D
:101BF0009BCF0895BF92CF92DF92EF92FF920F9307
:101C00001F93CF93DF937C016B018A01E9012417B5
:101C1000350720F4812F8901C42FD82F6BE67BE094
:101C2000C701D4DFD60114968D919C9115970817A2
:101C30001907C8F48C179D0708F4EC01D601ED9143
:101C4000FC911197EC0FFD1FB08010824D915C91BB
:101C5000BA01600F711FC70186DFD601ED91FC91BB
:101C6000EC0FFD1FB082C701DF91CF911F910F9143
:101C7000FF90EF90DF90CF90BF9008959091B002C9
:101C800098133DC0E5EAF3E0E4919FEF9093B00232
:101C9000E230C9F050F4EE2399F0E13081F59091F3
:101CA0006F009D7F90936F002AC0E43019F1E0F03F
:101CB000E53029F5909173009D7F909373001FC0CC
:101CC00010926E001CC0909170009D7F90937000E8
:101CD00091E09093B0009091B100987F94609093C0
:101CE000B1001092B3000BC0909171009D7F909352
:101CF000710005C0909172009D7F9093720060E02A
:101D00000C943F211F920F920FB60F9211240BB625
:101D10000F922F933F934F935F936F937F938F9384
:101D20009F93AF93BF93EF93FF938091B8139091DC
:101D3000B913A091BA13B091BB13892B8A2B8B2BAB
:101D400051F18091B513E091B613F091B7139081E2
:101D5000892780838091B8139091B913A091BA1309
:101D6000B091BB13181619061A061B06BCF4809115
:101D7000B8139091B913A091BA13B091BB13019706
:101D8000A109B1098093B8139093B913A093BA1322
:101D9000B093BB1303C08091B00270DFFF91EF914D
:101DA000BF91AF919F918F917F916F915F914F9173
:101DB0003F912F910F900BBE0F900FBE0F901F9071
:101DC0001895DC01ED91FC910190F081E02D1994C2
:101DD0006115710579F0FB0101900020E9F7319759
:101DE000AF01461B570BDC01ED91FC910280F381A2
:101DF000E02D199480E090E008954F925F926F92E9
:101E00007F92EF92FF920F931F93CF93DF93CDB703
:101E1000DEB7A1970FB6F894DEBF0FBECDBF7C0131
:101E2000FA01CB0119A2223008F42AE08E010F5DDD
:101E30001F4F422E512C612C712CBF01A301920126
:101E40000E94F05DF901CA01015011096A3014F4D1
:101E5000605D01C0695CD8016C93232B242B252B7A
:101E600061F7B801C701B4DFA1960FB6F894DEBFE1
:101E70000FBECDBFDF91CF911F910F91FF90EF90DB
:101E80007F906F905F904F9008958F929F92AF9246
:101E9000BF92CF92DF92EF92FF920F931F93CF9357
:101EA000DF937C018B016C0182E0C80ED11C4701DD
:101EB000E5E08E0E911CC0E0D0E0F60141916F018B
:101EC00050E060E070E02AE0C80197DF5C016EE25C
:101ED000C80177DF8A0D9B1DC80FD91FC814D9040C
:101EE00061F7F701458150E060E070E02AE0C80149
:101EF00084DF8C0F9D1FDF91CF911F910F91FF9079
:101F0000EF90DF90CF90BF90AF909F908F9008950B
:101F10004F925F926F927F928F929F92AF92BF92F9
:101F2000CF92DF92EF92FF92CF93DF93EC016A01A1
:101F30007B01B22E9A01AB01C701B6010E94E75F97
:101F4000882319F063EE78E027C026013701E89472
:101F500077F82FEF3FEF4FE75FE7C301B2010E9431
:101F6000E75F81110DC02FEF3FEF4FE75FE7C30140
:101F7000B2010E94B25C18161CF467EE78E00CC047
:101F80002FEF3FEF4FE75FE4C701B6010E94A15F6B
:101F9000181694F46BEE78E0CE01DF91CF91FF90AC
:101FA000EF90DF90CF90BF90AF909F908F907F90F9
:101FB0006F905F904F900CCF2FEF3FEF4FE75FECAC
:101FC000C701B6010E94B25C87FDE4CF20E030E09B
:101FD000A901C701B6010E94B25C87FF09C06DE28A
:101FE000CE01EFDE4C01F7FAF094F7F8F09402C05E
:101FF000812C912CA12C60E070E080E09FE3AB1479
:1020000040F420E030E040E251E40E94AC5EA39452
:10201000F6CF9B01AC01C701B6010E94485E2B01BF
:102020003C010E94195F6B017C010E94B65C9B0120
:10203000AC01C301B2010E94475E2B013C012AE0C2
:10204000B701A601CE01D9DE7C01E80CF91CBB204A
:1020500029F06EE2CE01B5DEE80EF91EDB2CDD20A4
:1020600021F120E030E040E251E4C301B2010E94DE
:10207000175D2B013C010E94195F4B01A12CB12C73
:102080002AE0B501A401CE01B8DEE80EF91EC501B3
:10209000B4010E94B65C9B01AC01C301B2010E9475
:1020A000475E2B013C01DA94DACFC701DF91CF9173
:1020B000FF90EF90DF90CF90BF90AF909F908F9068
:1020C0007F906F905F904F90089582CECF93DF9373
:1020D000EC018B8191E0909305148093271410926A
:1020E0000614109228148DE19FE00E94292D81E0B2
:1020F0000E944E2361E08B810E94AB231092BD139E
:102100008093BC138DE19FE00E94AC2CDF91CF91B6
:102110000895CF93DF931F92CDB7DEB7FC01838183
:1021200091E0909305148093271410920614109256
:1021300028148DE19FE049830E94292D4981642F55
:102140008DE19FE00E94292D81E00E944E2381E0D5
:102150000F90DF91CF91089565E370E0B7DF803C89
:10216000B8F0282F30E0A90164E0559547956A95AD
:10217000E1F74370433061F4359527953595279500
:102180002370233029F4982F937081E0933009F065
:1021900080E00895462FFC01608771876DE370E051
:1021A000B8DF6EE170E080E090E00C945322CF92B3
:1021B000DF92EF92FF920F931F93CF93DF93EC0187
:1021C0008B01CADFE82E882309F4CAC0C884D984E9
:1021D00060E070E0CE01DEDF69E170E080E090E079
:1021E0000E94532266E570E0CE0170DFF82E65E5AF
:1021F00070E0CE016BDF2F2D30E0322F2227282B0D
:10220000F8013183208368E570E0CE015FDFF82EAE
:1022100067E570E0CE015ADF2F2D30E0322F222704
:10222000282BF801338322836AE570E0CE014EDF6C
:10223000F82E69E570E0CE0149DF2F2D30E0322F16
:102240002227282BF8013583248362E670E0CE0133
:102250003DDFF82E61E670E0CE0138DF2F2D30E053
:10226000322F2227282BF8013783268364E670E07B
:10227000CE012CDFF82E63E670E0CE0127DF2F2D94
:1022800030E0322F2227282BF8013187208766E69D
:1022900070E0CE011BDFF82E65E670E0CE0116DFA0
:1022A0002F2D30E0322F2227282BF8013387228769
:1022B0006CE570E0CE010ADFF82E6BE570E0CE0130
:1022C00005DF2F2D30E0322F2227282BF80135870C
:1022D00024876EE570E0CE01F9DEF82E6DE570E042
:1022E000CE01F4DE2F2D30E0322F2227282BF801EB
:1022F0003787268760E670E0CE01E8DEF82E6FE5CE
:1023000070E0CE01E3DE2F2D30E0322F2227282B84
:10231000F801318B208B68E670E0CE01D7DEF82E15
:1023200067E670E0CE01D2DE2F2D30E0322F22277B
:10233000282BF801338B228B6AE670E0CE01C6DED3
:10234000F82E69E670E0CE01C1DE2F2D30E0322F8D
:102350002227282BF801358B248BB601CE011ADFFA
:102360008E2DDF91CF911F910F91FF90EF90DF9015
:10237000CF900895FC01613311F0613411F483E0D2
:1023800013C0603321F06E3411F0663511F414A6D9
:102390000CC0623311F0643411F484E005C066337C
:1023A00011F0653429F481E084A785A5816085A7B3
:1023B00080E00895CF92DF92EF92FF921F93CF9328
:1023C000DF93FC01EB01142F80A9811108C0188252
:1023D00019821A821B8211AA82A9826082AB1E32E4
:1023E00081F01C3209F07BC081A9882351F081A9BA
:1023F000843091F5288139814A815B81A4E6B0E07F
:1024000045C081E081AB8981982F92959F708F7034
:102410002AE0929F800D11249A8191118C59488154
:10242000942F92959F704F702AE0929F400D112437
:1024300050E09CE3899F400D511D1124052E000C96
:10244000660B770B488359836A837B831E3209F4BA
:10245000A5C01C3261F243C0853039F4288139812E
:102460004A815B81AAE0B0E011C08630F1F008F04B
:1024700097C0288139814A815B81833019F4A8EEA5
:10248000B3E004C0823029F4A0E1B7E20E942E5EDE
:1024900008C0813051F460EA76E881E090E00E9463
:1024A000E15D688379838A839B83C880D980EA80D1
:1024B000FB80D701C601880F991FAA1FBB1FBC0153
:1024C000CD016F5F7F4F8F4F9F4F86D4C60ED71EB3
:1024D000E81EF91EC882D982EA82FB8261C081A906
:1024E000811118C0812F110F990BC097092E000C74
:1024F000AA0BBB0B488159816A817B8134E0440F70
:10250000551F661F771F3A95D1F7842B952BA62B65
:10251000B72B40C08F5F81AB8730C0F428813981F1
:102520004A815B81AAE0B0E00E942E5E212F110F4C
:10253000330B205331096901330FEE08FF08DC012A
:10254000CB018C0D9D1DAE1DBF1D24C0873031F504
:10255000C880D980EA80FB80D701C601880F991F07
:10256000AA1FBB1FBC01CD016F5F7F4F8F4F9F4FD5
:1025700033D4DC01CB018C0D9D1DAE1DBF1D193365
:1025800024F00296A11DB11D05C014331CF0019664
:10259000A11DB11D88839983AA83BB8380E001C0FC
:1025A00081E0DF91CF911F91FF90EF90DF90CF906E
:1025B0000895FC01EA57FE4F0190F081E02D808DD7
:1025C000918D26893789821B930B0895FC01EA5768
:1025D000FE4F8081918186569F4F0C945909FC01D2
:1025E000DB0180A9882321F04C3209F050C016C0CD
:1025F00011961C921E9213961C921E92129782A9FB
:10260000826082AB11AA81E04D3209F080E092A98C
:1026100080FB90F992AB882339F36EC081A98111B8
:1026200002C081E081AB12968D919C911397892B0A
:10263000B9F482A980FF29C012968D919C911397BD
:1026400091958195910913969C938E9312978D91F4
:102650009C9111979195819591098D939C9315C0AB
:102660003AE081A991E0980F91AB281710F31296E8
:102670004D915C911397349FC001359F900D1124AB
:1026800013969C938E931297ECCF81E008954E326F
:1026900019F481E081AB30C081A9811113C02D9163
:1026A0003C9111975AE0529FC001539F900D112405
:1026B000042E000C550B40535109480F591F4D93E0
:1026C0005C931AC091E0980F91AB2817A8F012966E
:1026D0002D913C9113975AE0529FC001539F900D4A
:1026E0001124042E000C550B40535109480F591F5B
:1026F00013965C934E93129780E008950F931F9367
:10270000DC01D0960C91D09710E00930110508F04B
:102710004BC0F8018827E457FF4F8F4F0C94F25FAE
:102720006C3209F441C0660F6056862F880F880FFF
:1027300004C096968C9196978053680F96966C93EA
:1027400033C0660F6056862F880F880F04C0959699
:102750008C9195978053680F95966C9325C0660F62
:102760006056862F880F880F04C094968C9194979A
:102770008053680F94966C9317C0660F6056862F2F
:10278000880F880F680F9B966C930EC09B968C9158
:102790009B978053680F9B966C939B979D968C910B
:1027A0009D9784609D968C9381E01F910F91089571
:1027B00081E00895FC01108208955F926F927F92EC
:1027C0008F929F92AF92BF92CF92DF92EF92FF9241
:1027D0000F931F93CF93DF93EC018B859C85AD8581
:1027E000BE850196A11DB11D8B879C87AD87BE87D5
:1027F000643279F48AA984FF02C08F7E8AAB1EA658
:102800001A8281E08BAB18AA8AA98D7F8F7D8AAB53
:1028100022C1162F0BA9023039F56A3219F483E070
:102820008BAB1AC080EE860F8F35C0F48EA586273D
:102830008EA7E881F9810284F385E02DCE011995F8
:10284000882309F4E8C01C3209F08AC08AA98D7F68
:102850008AAB8FA58F5F8FA718AAFDC0CE018D967A
:10286000A9DF1A821BAAE0C0013009F07DC08EA545
:1028700086278EA76C3221F48A818111E5C0CEC0F3
:1028800088A9811106C0603521F48AA980628AABCB
:1028900067C09AA995FF10C0843058F4E881F98187
:1028A0000480F581E02D612FCE011995811158C06A
:1028B000B5C04CEF942E05C0823008F451C03EEFF5
:1028C000932E980EE881F9810280F381E02DCE01EC
:1028D00019956A80E62CF12CC92CD12CFC01339679
:1028E0008490FC017490662009F4A1C0671460F024
:1028F000282D30E0270D311DE216F3062CF4062DAD
:10290000071996C01E173CF40196FC01859194911D
:10291000009721F783C00F5F0815B0F7FB01E00FA8
:10292000F11DE00FF11DA591B491A9015D01A21A5D
:10293000B30AE42FE21BE91550F4FA015490F501B3
:10294000E40FF51FE4914F5F5F4F5E1691F39D0119
:10295000F901EC0DFD1DE4911E13D4CF070D0A8380
:1029600088A98F5F88AB77C0033009F05AC0106226
:102970008FE9810F863010F4175501C0105328A934
:102980008EA5612F70E021110DC091E098AB90E011
:1029900024E0959587952A95E1F78617970709F41E
:1029A0005AC02EC08F7090E08617970749F58AA904
:1029B00081FF0CC08D7F8AAB2F5F28ABE881F98146
:1029C0000284F385E02D6CE2CE0119958B819C8108
:1029D000AD81BE810196A11DB11D8B839C83AD830A
:1029E000BE83E881F9810680F781E02DCE0119953B
:1029F0009AA980FB94F99AAB1BAA82E090E02DC0C3
:102A00008F819885A985BA850196A11DB11D8F83F7
:102A10009887A987BA87CE018D96CCDE1A821BAA29
:102A20001AC0011118C01A8280E090E016C000E0C0
:102A3000FC01349665917491FB01E00FF11DE00FEC
:102A4000F11D2591349184CFCE018D96B3DE0FA771
:102A500018AA82E08BAB81E090E0DF91CF911F91CB
:102A60000F91FF90EF90DF90CF90BF90AF909F902D
:102A70008F907F906F905F9008950F931F93CF93E7
:102A8000DF93FC01A685B7858D01005C1F4FE8012F
:102A90008881998101968F739927AD014E5B5F4FB5
:102AA000EA012881398182179307D1F3E80128814F
:102AB0003981A20FB31F6C93A685B785A05CBF4F69
:102AC00011969C938E93A689B7892C9181E090E012
:102AD000078C02C0880F991F0A94E2F7822B8C930F
:102AE00081E081A30488F589E02D80818064808362
:102AF00081E090E0DF91CF911F910F910895FC014B
:102B000081A1882329F0A489B5898C9186FFFBCF08
:102B100011A20895FC01A485B585FD01E05CFF4F7D
:102B2000208131813296808191812817390779F08F
:102B300080819181A80FB91F8C91208131812F5FF5
:102B40003F4F2F7333273183208390E008958FEF19
:102B50009FEF0895DC011C96ED91FC911D97DF011C
:102B6000A05CBF4F2D913C91119712968D919C9135
:102B700011972817390739F08D919C91E80FF91FAB
:102B8000808190E008958FEF9FEF0895FC012485E8
:102B90003585F901E05CFF4F80819181329620817B
:102BA0003181821B930B8F7399270895CF93DF9305
:102BB000EC01462F8A81823079F0873009F46AC0AF
:102BC000813009F005C1E881F9810084F185E02DAB
:102BD000CE01DF91CF911994EFA58E2F90E0FC01EB
:102BE0003197E930F10508F0F3C08827EB56FF4F25
:102BF0008F4F0C94F25F8AA982FFEAC088A98111E5
:102C0000E7C0433509F0E4C08F859889A989BA895E
:102C1000B095A095909581959F4FAF4FBF4F8F87EF
:102C2000988BA98BBA8BD4C04C3231F488A981110E
:102C300003C08AA98B7F8AAB8AA982FFC9C0BE0163
:102C40006D5E7F4FCE01B6DBC3C088A98111C0C0C5
:102C5000642FCE018FDBBCC0BE016D5D7F4FCE0106
:102C60000E948F3A882309F4B3C09DA590687AC06A
:102C700022E0BE01695E7F4FCE01B1DC882309F4FA
:102C8000A7C021E098A9911101C020E09DA520FBDB
:102C900094F968C0EFA58E2F90E0FC013197E930E0
:102CA000F10508F095C08827E256FF4F8F4F0C942E
:102CB000F25F642FCE01DF91CF9120CD88A98823C8
:102CC00039F08AA982FF84C0BE01615F7F4FBACF0D
:102CD00091E04C3209F490E08AA990FB82F98AAB2A
:102CE000F0CF9AA992FB882780F992FF71C098A92A
:102CF00091116EC09DA598609DA7473509F068C0E9
:102D00004B895C896D897E89709560955095419558
:102D10005F4F6F4F7F4F4B8B5C8B6D8B7E8B59C0A2
:102D200023E0BE01655E7F4FCE0159DC882309F4A4
:102D30004FC021E098A9911101C020E09DA520FB82
:102D400095F910C022E0BE01615E7F4FCE0147DCE5
:102D50008823F1F121E098A9911101C020E09DA5FF
:102D600020FB96F99DA735C088A98230F9F038F488
:102D7000882391F0813061F568A5605314C08430D8
:102D800001F1D0F0853021F56AA56053460F4AA7BE
:102D90008DA582608DA71CC06C32D1F0440F4056C7
:102DA000642F660F660F460F48A712C0440F4056A7
:102DB000642F660F660F02C069A56053460F49A7CE
:102DC00007C0440F4056642F660F660F460F4AA790
:102DD00081E0DF91CF9108958F929F92AF92BF9241
:102DE000CF92DF92EF92FF924B015C016B017C016D
:102DF00084E0F694E794D794C7948A95D1F7D501E7
:102E0000C40122E0B695A795979587952A95D1F7A5
:102E1000C80ED91EEA1EFB1ED701C60134E0B695C6
:102E2000A795979587953A95D1F7C80ED91EEA1EB2
:102E3000FB1EBB27AF2D9E2D8D2DC80ED91EEA1E61
:102E4000FB1EC701AA27BB27C80ED91EEA1EFB1E00
:102E5000A3E0B0E0A70196010E942E5EA5019401B7
:102E6000261B370B480B590BABE0B0E00E942E5EDF
:102E7000DC01CB0165E0B695A795979587956A9596
:102E8000D1F7BC01CD016C0D7D1D8E1D9F1DFF90E6
:102E9000EF90DF90CF90BF90AF909F908F9008956C
:102EA000FC0114821582168217821082118212820E
:102EB000138211861086138612861586148617864D
:102EC0001686118A108A138A128A148A168A178A19
:102ED000158A81E0818F828F138E87E0808F148E18
:102EE000158ECF014E9666CC1F920F920FB60F92A1
:102EF00011240BB60F922F933F938F939F93EF93D1
:102F0000FF932091BD0D3091BE0D8091BF0D90912A
:102F1000C00D2817390731F4809131018F7D8093DE
:102F2000310114C0E091BF0DF091C00DE358F24F94
:102F300020818091BF0D9091C00D01968F739927CC
:102F40009093C00D8093BF0D20933601FF91EF91B8
:102F50009F918F913F912F910F900BBE0F900FBEBD
:102F60000F901F9018951F920F920FB60F92112479
:102F70000BB60F922F933F938F939F93EF93FF93F3
:102F80002091250E3091260E8091270E9091280ECB
:102F90002817390731F48091D1008F7D8093D100BB
:102FA00014C0E091270EF091280EEB51F24F2081D2
:102FB0008091270E9091280E01968F7399279093F8
:102FC000280E8093270E2093D600FF91EF919F91BA
:102FD0008F913F912F910F900BBE0F900FBE0F90CE
:102FE0001F9018951F920F920FB60F9211240BB6D7
:102FF0000F922F933F938F939F93EF93FF93209183
:103000008D0E30918E0E80918F0E9091900E28171C
:10301000390731F48091C9008F7D8093C90014C0B5
:10302000E0918F0EF091900EE35BF14F2081809143
:103030008F0E9091900E01968F7399279093900E1A
:1030400080938F0E2093CE00FF91EF919F918F91EF
:103050003F912F910F900BBE0F900FBE0F901F90BE
:1030600018951F920F920FB60F9211240BB60F9264
:103070002F933F938F939F93EF93FF932091F50EA0
:103080003091F60E8091F70E9091F80E28173907BF
:1030900031F48091C1008F7D8093C10014C0E09114
:1030A000F70EF091F80EEB54F14F20818091F70E5E
:1030B0009091F80E01968F7399279093F80E809354
:1030C000F70E2093C600FF91EF919F918F913F9152
:1030D0002F910F900BBE0F900FBE0F901F90189561
:1030E0001F920F920FB60F9211240BB60F922F93CF
:1030F0003F934F935F936F937F938F939F93AF9380
:10310000BF93EF93FF938091300182FD07C06091E0
:10311000360181EC9DE00E94572D02C0809136015E
:10312000FF91EF91BF91AF919F918F917F916F919F
:103130005F914F913F912F910F900BBE0F900FBE5B
:103140000F901F9018951F920F920FB60F92112497
:103150000BB60F922F933F934F935F936F937F9391
:103160008F939F93AF93BF93EF93FF938091D00082
:1031700082FD07C06091D60089E29EE00E94572D33
:1031800002C08091D600FF91EF91BF91AF919F91C6
:103190008F917F916F915F914F913F912F910F9000
:1031A0000BBE0F900FBE0F901F9018951F920F929D
:1031B0000FB60F9211240BB60F922F933F934F939C
:1031C0005F936F937F938F939F93AF93BF93EF938F
:1031D000FF938091C80082FD07C06091CE0081E915
:1031E0009EE00E94572D02C08091CE00FF91EF918A
:1031F000BF91AF919F918F917F916F915F914F910F
:103200003F912F910F900BBE0F900FBE0F901F900C
:1032100018951F920F920FB60F9211240BB60F92B2
:103220002F933F934F935F936F937F938F939F93CE
:10323000AF93BF93EF93FF938091C00082FD07C0CF
:103240006091C60089EF9EE00E94572D02C08091D8
:10325000C600FF91EF91BF91AF919F918F917F91A8
:103260006F915F914F913F912F910F900BBE0F90F7
:103270000FBE0F901F901895CF93DF93EC01462F50
:103280008FA58430C9F060F4823079F0833009F082
:103290004BC09E0122583F4FBE016B587F4F12C05A
:1032A000853099F08630D9F03FC09E0123583F4FBA
:1032B000BE016F587F4F06C09E0121583F4FBE018F
:1032C00067587F4FCE0171D72FC09E0120583F4FC6
:1032D000BE016E577F4FCE010E94FC2F25C088A9EA
:1032E000811117C06D3439F06D3659F06134A9F48D
:1032F00082E090E008C0FE01EC57FF4F118210827F
:103300000FC081E090E0FE01EC57FF4F9183808376
:1033100007C0823010F46C3219F0CE010E944A3C92
:10332000C059DF4F81E0888381E0DF91CF9108951C
:103330000F931F93CF93DF93DC019F96EC919F97A0
:103340000E2F10E0F8013297E830F10508F0B3C015
:10335000462FEC018827E955FF4F8F4F0C94F25F01
:10336000BD016F567F4FCD010E94463A882309F474
:10337000A2C088A9882309F49EC0C957DF4F99C00D
:103380009D0128573F4FBD016D567F4FCD010E94D3
:10339000FC2F91C081E06C3209F080E098A9911176
:1033A00016C0811188C091E04D3209F090E08AA9E1
:1033B00090FB80F98AABFE01EB56FF4F992321F079
:1033C00082608AAB108277C04053408374C0811101
:1033D0000BC0FE01EB56FF4F40538081BAE08B9F3C
:1033E000400D1124408363C08AA980FF60C0FE01A4
:1033F000EB56FF4F80818195808359C088A9811148
:103400001CC0603581F0633531F06C32D1F4C657A1
:10341000DF4F188250C0FD01EA56FF4F1182108223
:10342000C657DF4F46C0FD01EA56FF4F81E090E0EE
:1034300091838083C657DF4F3DC0823010F46C32D9
:10344000D1F1CE010E944A3C36C0BD0168567F4F83
:10345000CD010E948F3A882371F188A9882359F100
:10346000C557DF4F26C09D0124573F4FBD0167560A
:103470007F4F06C09D0123573F4FBD0163567F4FCD
:10348000CE010E945B3017C0BD016F557F4FCD014B
:103490000E948F3A882341F088A9882329F081E08F
:1034A000FE01E257FF4F8083CA57DF4F02C0C75764
:1034B000DF4F81E0888381E0DF91CF911F910F91F1
:1034C00008950F931F93CF93DF93DC019F96EC91A8
:1034D0009F970E2F10E0F8013397EC30F10508F0BC
:1034E00097C0462FEC018827E155FF4F8F4F0C9472
:1034F000F25F9D0129553F4FBD0161557F4FCD01C1
:1035000054D686C088A9811139C0623511F06C3457
:1035100059F4CD54DF4F26C088A981112FC06B34D8
:1035200039F06E3409F474C0CE010E944A3C70C078
:10353000C155DF4FCE010E94930421E73DE34AE0ED
:103540005FE30E94175DAB01BC01CE010E94D40372
:103550005FC088A9811112C0613411F0663521F76E
:10356000CC54DF4F488354C088A9811107C061340F
:1035700011F06635C9F6CB54DF4FF4CF8230A0F698
:103580004C3291F645C0BD016A547F4F2CC0BD013D
:103590006A547F4F21C0CD0186549F4F28A9211125
:1035A0000AC03AA932603AAB6C3239F0FC01E20F42
:1035B000F11D40832DC06C3229F4FC01E20FF11D96
:1035C000108226C0243090F323C0BD0161547F4F88
:1035D0000AC0BD0161547F4FCE010E942E3018C039
:1035E000BD016D537F4FCE010E94883011C0BD01D7
:1035F0006D537F4FCD010E942E30FE01EA55FF4FE3
:1036000081E08083CE51DF4F86E190E0998388830B
:1036100081E0DF91CF911F910F9108950F931F9338
:10362000CF93DF93DC0112960C9112970A3008F4C5
:10363000ABC110E0F8013A97EC30F10508F0A9C1F0
:103640008827E554FF4F8F4F0C94F25F9F969C9113
:103650009F97913009F09DC1D0968C91D0978111A0
:103660000BC0603331F0613309F095C19093AC1316
:1036700090C11092AC138DC1813009F048C0809187
:10368000AC13811131C0462F660F550B660B770BBB
:10369000FA01F097EA30F10508F07DC18827E95377
:1036A000FF4F8F4F0C94F25FAE51BF4F81E090E01F
:1036B0008D939C9371C18BE027C08CE025C08DE079
:1036C00023C08EE021C08FE01FC080E11DC081E1DA
:1036D0001BC082E119C083E112968C931297AE5100
:1036E000BF4F81E190E03DC0603329F0613309F0C4
:1036F00052C185E109C084E112968C931297AE51B4
:10370000BF4F82E190E02DC012968C9342C181E0C0
:103710006C3209F040C140C19F968C919F978230D6
:1037200009F037C1D0968C91D097811132C16C329B
:1037300009F42FC16235C1F044F4693409F029C19C
:10374000AE51BF4F83E090E00CC0693631F0623774
:1037500009F01FC1AE51BF4F9AC0AE51BF4F82E0BA
:1037600090E08D939C9315C1AE51BF4F95C09F962D
:103770008C919F97823009F00CC1D0968C91D09794
:10378000811107C16C3209F404C16235C1F044F4FF
:10379000693409F0FEC0AE51BF4F87E090E0E1CF41
:1037A000693641F0623709F0F4C0AE51BF4F88E08E
:1037B00090E0D7CFAE51BF4F86E090E0D2CFAE5170
:1037C000BF4F89E090E0CDCFFD01EE51FF4F8CE07F
:1037D00090E005C0FD01EE51FF4F8DE090E0918338
:1037E0008083CD01DF91CF911F910F91A1CDFD017C
:1037F000EE51FF4F8EE090E005C0FD01EE51FF4F0E
:103800008FE090E091838083CD01DF91CF911F9174
:103810000F9132CD462FED01FD01EE51FF4F80E1BA
:1038200090E0918380839FA5943009F441C060F4B7
:103830009230E1F0933009F0ACC0BD016F597F4F79
:10384000CD010E94463AA5C09630E9F1A8F1973023
:1038500009F09FC09D01225A3F4FBD0164597F4F1F
:10386000CD01A3D4DE01A85ABF4F8BC088A9811116
:1038700016C0633539F0643569F06134A9F4A15A92
:10388000BF4F05C0A15ABF4F1D921C9282C084E059
:1038900090E067CFA15ABF4F85E090E062CF8230C1
:1038A00018F46C3209F475C0CE010E944A3C71C014
:1038B000BD016D597F4F03C0BD0169597F4FCE01D6
:1038C0000E94883066C0BD0165597F4FCD010E94BE
:1038D0008F3A5FC09F968C919F97823009F059C0B4
:1038E000D0968C91D097811154C06C3209F451C09C
:1038F000673489F0693449F0613409F04AC0FD0148
:10390000EE51FF4F85E190E038C0FD01EE51FF4FD1
:1039100083E190E032C0FD01EE51FF4F84E190E081
:103920002CC09F968C919F97823099F5D0968C9160
:10393000D09781112EC06C3261F16734C9F044F424
:10394000633439F5FD01EE51FF4F87E190E015C07A
:10395000693441F06235E9F4FD01EE51FF4F8AE12F
:1039600090E00BC0FD01EE51FF4F88E190E005C0F3
:10397000FD01EE51FF4F89E190E091838083AF51CB
:10398000BF4F81E08C9308C0DF91CF911F910F91C1
:103990000DC981E001C080E0DF91CF911F910F91AF
:1039A00008950F931F93CF93DF93EC010E94DD13D3
:1039B0008C01009719F0029729F01AC0CE010E94DD
:1039C0004A3C16C09AA991FF0DC09D7F9AAB88A969
:1039D0008F5F88ABE881F9810284F385E02D6CE28A
:1039E000CE011995FE01E052FF4F81E080831BAAB2
:1039F000C801DF91CF911F910F9108953FB7F894BF
:103A00008091B1139091B213A091B313B091B413FC
:103A100026B5A89B05C02F3F19F00196A11DB11D29
:103A20003FBFBA2FA92F982F8827820F911DA11D64
:103A3000B11DBC01CD0142E0660F771F881F991FA1
:103A40004A95D1F70895CF92DF92EF92FF920F93AC
:103A50001F93CF93DF9300D000D0CDB7DEB77C01AA
:103A60008C0108581E4F63EF79E0F8018081918145
:103A70000E9465106701F2EACF1AFEEFDF0AF60135
:103A80006081F801808191810E94E10E6CE2F80171
:103A9000808191810E94E10EF701E15AFE4F608121
:103AA000F801808191810E94F52B6CE2F801808100
:103AB00091810E94E10EF701E05AFE4F6081F8010A
:103AC000808191810E94F52B6CE2F80180819181C7
:103AD0000E94E10EF701EF59FE4F6081F8018081ED
:103AE00091810E94F52B6CE2F801808191810E9406
:103AF000E10EF701EE59FE4F6081F801808191815E
:103B00000E94F52B6CE2F801808191810E94E10E08
:103B1000F6012081F80180819181233451F5759758
:103B20004081518160E070E02AE00E94FD0E6CE26D
:103B3000F801808191810E94E10EF701EB59FE4F5F
:103B40006081062E000C770BF801808191810E9424
:103B5000FC2B6CE2F801808191810E94E10EF7015B
:103B6000EA59FE4F6081F801808191810E94F52B16
:103B700004C062E579E00E946510FEE8EF1AFEEFEE
:103B8000FF0AB701CE0101960E94CD0D8D819E8165
:103B9000892B19F089819A8102C080E090E00E940F
:103BA000322CCE0101960E94C80DC7010E94902CB4
:103BB00026960FB6F894DEBF0FBECDBFDF91CF9132
:103BC0001F910F91FF90EF90DF90CF900895EF92AB
:103BD000FF920F931F93CF93DF9300D000D0CDB708
:103BE000DEB77C018C0108581E4F6DEF79E0F801BB
:103BF000808191810E946510F701E351FF4F808120
:103C000091818430910544F48130910584F4892BAD
:103C1000A9F46BE07AE00DC08430910529F0059796
:103C200069F469E07AE005C067E07AE002C06DE01F
:103C30007AE0F801808191810E9465106CE2F801C0
:103C4000808191810E94E10EF701E151FF4F608177
:103C50007181F801808191810E94FC2B6CE2F80156
:103C6000808191810E94E10EC7018F509F4F0E9479
:103C70009304AB01BC0122E030E0F8018081918126
:103C80000E94880F6CE2F801808191810E94E10E10
:103C9000C7018B509F4F0E949304AB01BC0122E0EF
:103CA00030E0F801808191810E94880F6CE2F80178
:103CB000808191810E94E10EF701E750FF4F608102
:103CC000F801808191810E94F52B6CE2F8018081DE
:103CD00091810E94E10EC70186509F4F0E9493047C
:103CE000AB01BC0122E030E0F801808191810E94AB
:103CF000880FFEE8EF1AFEEFFF0AB701CE0101962A
:103D00000E94CD0D8D819E81892B19F089819A8128
:103D100002C080E090E00E94322CCE0101960E9409
:103D2000C80DC7010E94902C26960FB6F894DEBFEE
:103D30000FBECDBFDF91CF911F910F91FF90EF90FC
:103D40000895EF92FF920F931F93CF93DF9300D0CC
:103D500000D0CDB7DEB77C018C0102501F4FFC01B3
:103D6000EC57FE4FB801828193810E940F0481E0DD
:103D7000F801808306581F4F6FE07AE0F8018081D8
:103D800091810E94651065E0F801808191810E9417
:103D9000F52B63E579E0F801808191810E9465103F
:103DA000C70181509F4F0E949304AB01BC0122E0E8
:103DB00030E0F801808191810E94880F6CE2F80167
:103DC000808191810E94E10EC7018D5F9E4F0E940C
:103DD0009304AB01BC0122E030E0F80180819181C5
:103DE0000E94880F6CE2F801808191810E94E10EAF
:103DF000C701895F9E4F0E949304AB01BC0122E082
:103E000030E0F801808191810E94880F6CE2F80116
:103E1000808191810E94E10EF701E05FFE4F4081B9
:103E2000518160E070E02AE0F801808191810E9478
:103E3000FD0E6CE2F801808191810E94E10EF70194
:103E4000EE5EFE4F808191818130910541F082309C
:103E5000910541F0892B69F46CE279E005C067E1D6
:103E60007AE002C067E07AE0F801808191810E94E7
:103E70006510FEE8EF1AFEEFFF0AB701CE010196CA
:103E80000E94CD0D8D819E81892B19F089819A81A7
:103E900002C080E090E00E94322CCE0101960E9488
:103EA000C80DC7010E94902C26960FB6F894DEBF6D
:103EB0000FBECDBFDF91CF911F910F91FF90EF907B
:103EC0000895EF92FF920F931F93CF93DF9300D04B
:103ED00000D0CDB7DEB77C018C010C5E1E4FFC011B
:103EE000EC57FE4FB801828193810E94490481E022
:103EF000F80180830C591F4F6FE07AE0F801808150
:103F000091810E94651063E0F801808191810E9497
:103F1000F52B63E579E0F801808191810E946510BD
:103F2000F701E15EFE4F60817181F801808191812E
:103F30000E94FC2B6CE2F801808191810E94E10ECD
:103F4000F701EF5DFE4F4081518160E070E02AE0B3
:103F5000F801808191810E94FD0E6CE2F801808160
:103F600091810E94E10EF701ED5DFE4F6081062E0A
:103F7000000C770BF801808191810E94FC2B6CE290
:103F8000F801808191810E94E10EF701EC5DFE4F06
:103F900080819181009729F0019751F469E17AE0DD
:103FA00002C06BE07AE0F801808191810E94651087
:103FB0006CE2F801808191810E94E10EF701EA5DD7
:103FC000FE4F6081F801808191810E94F52B6CE2A7
:103FD000F801808191810E94E10EC701895D9E4FA9
:103FE0000E949304AB01BC0122E030E0F801808123
:103FF00091810E94880F6CE2F801808191810E947A
:10400000E10EC701855D9E4F0E949304AB01BC0188
:1040100022E030E0F801808191810E94880F6CE2FB
:10402000F801808191810E94E10EF701E15DFE4F70
:104030006081F801808191810E94F52BFEE8EF1AE2
:10404000FEEFFF0AB701CE0101960E94CD0D8D81D2
:104050009E81892B19F089819A8102C080E090E0CD
:104060000E94322CCE0101960E94C80DC7010E9409
:10407000902C26960FB6F894DEBF0FBECDBFDF9111
:10408000CF911F910F91FF90EF900895FC01DB01FC
:1040900080A9882321F04C3209F050C016C0119637
:1040A0001C921E9213961C921E92129782A98260F5
:1040B00082AB11AA81E04D3209F080E092A980FB29
:1040C00090F992AB882339F36EC081A9811102C0A7
:1040D00081E081AB12968D919C911397892BB9F455
:1040E00082A980FF29C012968D919C91139791957A
:1040F0008195910913969C938E9312978D919C9123
:1041000011979195819591098D939C9315C02AE003
:1041100081A991E0980F91AB833010F712964D91E1
:104120005C911397249FC001259F900D1124139635
:104130009C938E931297ECCF81E008954E3219F440
:1041400081E081AB30C081A9811113C02D913C91D8
:1041500011975AE0529FC001539F900D1124042ED5
:10416000000C550B40535109480F591F4D935C9358
:104170001AC091E0980F91AB8330A8F412962D915C
:104180003C9113975AE0529FC001539F900D112408
:10419000042E000C550B40535109480F591F13961C
:1041A0005C934E93129780E008950F931F93CF93E3
:1041B000DF93EC0189016ADF882331F098A9992304
:1041C00019F091E0F8019083DF91CF911F910F9149
:1041D000089590E0FC013197E231F10508F04EC0FE
:1041E0008827EF52FF4F8F4F0C94F25F8091800031
:1041F0008F7703C0809180008F7D80938000089529
:1042000080918000877FF9CF84B58F7702C084B515
:104210008F7D84BD08958091B0008F7703C0809119
:10422000B0008F7D8093B0000895809190008F77CB
:1042300007C0809190008F7D03C080919000877FA0
:104240008093900008958091A0008F7707C080919F
:10425000A0008F7D03C08091A000877F8093A00085
:104260000895809120018F7707C0809120018F7D74
:1042700003C080912001877F8093200108951F93C0
:10428000CF93DF93282F30E0F901E15AFC4F84915E
:10429000F901E05EFB4FD491F901E652FC4FC49165
:1042A000CC23C1F0162F811194DFEC2FF0E0EE0F3C
:1042B000FF1FEA55FC4FA591B4918FB7F8941111E7
:1042C00005C09C91ED2FE095E92302C0EC91ED2B08
:1042D000EC938FBFDF91CF911F9108951F93CF93E0
:1042E000DF93182FEB017BD4209711F460E004C01A
:1042F000CF3FD10531F461E0812FDF91CF911F9144
:10430000BECFE12FF0E0E15AFC4FE4914E2F50E098
:10431000FA013197E231F10508F09DC08827ED518F
:10432000FF4F8F4F0C94F25F84B5806884BDC7BD8A
:1043300097C084B5806284BDC8BD92C08091800062
:10434000806880938000D0938900C093880088C0E3
:1043500080918000806280938000D0938B00C09316
:104360008A007EC080918000886080938000D09316
:104370008D00C0938C0074C08091B00080688093E1
:10438000B000C093B3006CC08091B0008062809395
:10439000B000C093B40064C08091900080688093A6
:1043A0009000D0939900C09398005AC080919000DB
:1043B000806280939000D0939B00C0939A0050C07D
:1043C00080919000886080939000D0939D00C0936E
:1043D0009C0046C08091A00080688093A0008091DE
:1043E000A0008F7B8093A000D093A900C093A80069
:1043F00037C08091A00080628093A000D093AB0072
:10440000C093AA002DC08091A00088608093A00076
:10441000D093AD00C093AC0023C080912001806890
:1044200080932001D0932901C093280119C0809165
:104430002001806280932001D0932B01C0932A0138
:104440000FC080912001886080932001D0932D01BE
:10445000C0932C0105C0C038D1050CF04CCF46CF1D
:10446000DF91CF911F910895863308F08653909184
:104470007B00282F2870977F922B90937B0087706A
:10448000806480937C0080917A00806480937A00BD
:1044900080917A0086FDFCCF809178002091790090
:1044A00090E0922B08958F929F92AF92BF92CF92FD
:1044B000DF92EF92FF926B017C01A0DA4B015C016D
:1044C000C114D104E104F104E9F098DADC01CB0174
:1044D00088199909AA09BB09883E9340A105B1052D
:1044E00078F321E0C21AD108E108F10888EE880EBD
:1044F00083E0981EA11CB11CC114D104E104F10495
:1045000021F7DECFFF90EF90DF90CF90BF90AF907C
:104510009F908F9008952FB7F8946091AD1370918C
:10452000AE138091AF139091B0132FBF08951F93D6
:10453000CF93DF93182FC0918911D0918A1160E039
:1045400070E081E891E10E94CA1069E170E080E0CA
:1045500090E0A9DF40E067E070E081E891E10E942F
:104560008910112311F040E801C040E06FE370E0D2
:1045700081E891E10E9489106AE070E080E090E0BB
:1045800092DFBE0181E891E10E94CA1064E170E00F
:1045900080E090E0DF91CF911F9185CF0F931F9323
:1045A000CF93DF93EC018D818F938C818F938B81DF
:1045B0008F938A818F9389818F9388818F938BE1E9
:1045C0009AE09F938F930CE414E11F930F930E9442
:1045D0005362C8010E94E2398B858F938A858F933D
:1045E00089858F9388858F938F818F938E818F9309
:1045F0008CE39AE09F938F931F930F930E945362D3
:10460000C8010E94E23989898F9388898F938F85A9
:104610008F938E858F938D858F938C858F9384E573
:104620009AE09F938F931F930F930E945362C80148
:104630000E94E2398B898F938A898F938BE69AE067
:104640009F938F931F930F930E9453628DB79EB7D2
:1046500084960FB6F8949EBF0FBE8DBFC8010E940E
:10466000E2398D898F938C898F938DE79AE09F93A0
:104670008F931F930F930E945362C8010E94E239E7
:104680000F900F900F900F900F900F9089EF9EE07A
:10469000DF91CF911F910F910C947F15382F2091AE
:1046A000281490912714213208F049C080910414F5
:1046B0008111FCCF42E040930414309303143FEF88
:1046C000309302141092011420930014A7E0B4E177
:1046D00040EE53E1FA013E2F341B321718F43D919E
:1046E0003193F9CF1092DF132091DF13990F922BA2
:1046F0009093DF139091DE13913061F41092DE13EA
:104700009091DF139093BB009091BC0093FDF8CF84
:1047100095EC01C095EE9093BC00909104149230FA
:10472000E1F3909102149F3F79F08091021480325E
:1047300041F080910214803331F084E005C081E0C3
:1047400003C082E001C083E0109206141092281486
:10475000109205140895909104149111FCCF91E0EA
:1047600090930414909303142FEF2093021410924B
:104770000114260F209300149093DF139091DF1300
:10478000880F892B8093DF138091DE13813061F4D1
:104790001092DE138091DF138093BB008091BC00E8
:1047A00083FDF8CF85EC01C085EE8093BC0080913D
:1047B00004148130E1F380910114861710F46091A4
:1047C0000114A0EEB3E12EEB33E1F9018E2F821B31
:1047D000861718F48D918193F9CF862F08952F9223
:1047E0003F924F925F926F927F928F929F92AF9281
:1047F000BF92CF92DF92EF92FF920F931F93CF93CE
:10480000DF93CDB7DEB728970FB6F894DEBF0FBEA3
:10481000CDBFEBE8F1E140815181EDE8F1E130817C
:104820002181EFE8F1E120803180E1E9F1E1408090
:104830005180E3E9F1E160807180E5E9F1E1808098
:104840009180E7E9F1E1A080B180E9E9F1E1C08080
:10485000D180EBE9F1E1E080F180EDE9F1E1008167
:104860001181EFE9F1E18081898391819A8380E070
:104870002E833D834B835C835ADE80918911909116
:104880008A1198878F8360E070E081E891E10E944F
:10489000CA1069E170E080E090E005DE4B8165E5DB
:1048A00070E081E891E10E9489105C81452F66E506
:1048B00070E081E891E10E9489103D81432F67E516
:1048C00070E081E891E10E9489102E81422F68E515
:1048D00070E081E891E10E948910422D69E570E065
:1048E00081E891E10E948910432D6AE570E081E83A
:1048F00091E10E948910442D61E670E081E891E128
:104900000E948910452D62E670E081E891E10E94E5
:104910008910462D63E670E081E891E10E948910DC
:10492000472D64E670E081E891E10E948910482DEE
:1049300065E670E081E891E10E948910492D66E604
:1049400070E081E891E10E9489104A2D6BE570E0EA
:1049500081E891E10E9489104B2D6CE570E081E8BF
:1049600091E10E9489104C2D6DE570E081E891E1A4
:104970000E9489104D2D6EE570E081E891E10E9462
:1049800089104E2D6FE570E081E891E10E94891059
:104990004F2D60E670E081E891E10E948910402F80
:1049A00067E670E081E891E10E948910412F68E696
:1049B00070E081E891E10E948910498169E670E028
:1049C00081E891E10E9489104A816AE670E081E8FD
:1049D00091E10E9489106F81788581E891E10E94C0
:1049E000CA1081E028960FB6F894DEBF0FBECDBF87
:1049F000DF91CF911F910F91FF90EF90DF90CF90BB
:104A0000BF90AF909F908F907F906F905F904F90EE
:104A10003F902F908CCDCF93DF93CDB7DEB72A9701
:104A20000FB6F894DEBF0FBECDBF8B81809383118C
:104A300088E28093841187E390E0A0E0B0E0809367
:104A4000851190938611A0938711B0938811898561
:104A50009A8590938A11809389111092BD131092B8
:104A6000BC1310920614109228141092041481E0C2
:104A7000809303141092DE1361E084E100DC61E0B6
:104A800085E1FDDB8091B9008E7F8093B900809134
:104A9000B9008D7F8093B90088E48093B80085E4E5
:104AA0008093BC0060E070E081E891E10E946610B4
:104AB000803A71F460E070E081E891E10E94CA10F0
:104AC00040E26FE370E081E891E10E94891012C03A
:104AD00068EE73E080E090E0E6DC60E070E081E8A2
:104AE00091E10E946610803A29F31092B71110925A
:104AF000B61168C060E070E081E891E10E94661044
:104B0000803A31F06AE070E080E090E0CCDCF2CFF7
:104B100062E370E080E090E0C6DC40E06EE370E0CD
:104B200081E891E10E9489106AE070E080E090E005
:104B3000BADC40E067E070E081E891E10E94891012
:104B400040E06FE370E081E891E10E9489106AE043
:104B500070E080E090E0A7DC6CE070E081E891E13B
:104B60000E94CA1064E170E080E090E09CDC81E08B
:104B700090E09093B7118093B6118DE89AE00E946F
:104B8000E23981EA9AE00E94E2391F9285E18F932F
:104B90001F9284E18F938DEA9AE09F938F938CE428
:104BA00094E19F938F930E9453628CE494E10E945E
:104BB000E23989EF9EE00E947F150FB6F894DEBFC0
:104BC0000FBECDBF8091B6119091B7112A960FB646
:104BD000F894DEBF0FBECDBFDF91CF91089590E076
:104BE000FC01E05EFB4F2491FC01E652FC4F8491F6
:104BF000882399F090E0880F991FFC01E054FC4F46
:104C0000A591B491FC01EA55FC4F859194918FB721
:104C1000F894EC91E22BEC938FBF08953F924F9262
:104C20005F926F927F928F929F92AF92BF92CF923C
:104C3000DF92EF92FF920F931F93CF93DF9300D0F9
:104C40001F92CDB7DEB72091B002223421F02F3F62
:104C500009F01CC304C0E5EAF3E03490EDC022E49F
:104C60002093B002E5EAF3E0E491EF3F09F40EC3CC
:104C7000E23009F474C054F5EE2309F453C0E13076
:104C800009F0D9C01092800010928100209181001B
:104C90002860209381002091810021602093810071
:104CA000ECE1F4E0E491F0E0EE0FFF1FEA55FC4F79
:104CB000259134913093341420933314E2E6F4E0D8
:104CC000E491E093321433243394B8C0E43009F40F
:104CD0008EC00CF468C0E53009F0ADC01092200120
:104CE000109221012091210128602093210120911F
:104CF0002101216020932101ECE1F4E0E491F0E056
:104D0000EE0FFF1FEA55FC4F2591349130932B1481
:104D100020932A14E2E6F4E0E491E0932914B5E04C
:104D20003B2E8CC014BC15BC24B5226024BD25B517
:104D3000216025BDECE1F4E0E491F0E0EE0FFF1F0F
:104D4000EA55FC4F25913491309337142093361453
:104D5000E2E6F4E0E491E0933514312C6FC0109258
:104D6000B0001092B1002091B00022602093B000FA
:104D70002091B10021602093B100ECE1F4E0E491D6
:104D8000F0E0EE0FFF1FEA55FC4F25913491309370
:104D9000B7132093B613E2E6F4E0E491E093B51381
:104DA000B2E03B2E4BC010929000109291002091E7
:104DB0009100286020939100209191002160209320
:104DC0009100ECE1F4E0E491F0E0EE0FFF1FEA5512
:104DD000FC4F259134913093311420933014E2E646
:104DE000F4E0E491E0932F1433E0332E27C01092C7
:104DF000A0001092A1002091A10028602093A100A2
:104E00002091A10021602093A100ECE1F4E0E49165
:104E1000F0E0EE0FFF1FEA55FC4F259134913093DF
:104E20002E1420932D14E2E6F4E0E491E0932C1488
:104E300004E0302E03C03E2E37FC28C22A013B017D
:104E40008C0182E4CCDE4801A12CB12C832D8D7F16
:104E500009F0BBC060E072E18AE790E0A50194012F
:104E60000E94125E29833A834B835C8369017A0135
:104E700021E0C21AD108E108F1088FEFC816D10469
:104E8000E104F10409F008F44CC060E472E48FE03E
:104E900090E0A50194010E94125E69017A0191E0FF
:104EA000C91AD108E108F108E2E03E1220C0FFEF84
:104EB000CF16D104E104F10409F008F4E5C160E97A
:104EC00070ED83E090E0A50194010E94125E6901FB
:104ED0007A0181E0C81AD108E108F1089FEFC916EC
:104EE000D104E104F10409F0D0F583E067C0EFEFED
:104EF000CE16D104E104F104B1F0A8F068E478EE34
:104F000081E090E0A50194010E94125E69017A019E
:104F1000F1E0CF1AD108E108F108332009F45AC1B1
:104F2000AAC181E001C082E03320A1F047C089819D
:104F30009A81AB81BC812AE0B595A7959795879515
:104F40002A95D1F76C017D01F1E0CF1AD108E10873
:104F5000F10885E095B5987F892B85BDA6C068E4EA
:104F600078EE81E090E0A50194010E94125E690153
:104F70007A0181E0C81AD108E108F1089FEFC9164B
:104F8000D104E104F10409F008F422C164E274EFF1
:104F900080E090E0A50194010E94125E69017A010F
:104FA00081E0C81AD108E108F1089FEFC916D104C1
:104FB000E104F10411F008F02FC185E09091B100F7
:104FC000987F892B8093B10070C060E072E18AE71E
:104FD00090E0A50194010E94125E69017A01F1E05E
:104FE000CF1AD108E108F108C114D10421E0E2068A
:104FF000F10488F068E478EE81E090E0A501940186
:105000000E94125E69017A0181E0C81AD108E108A4
:10501000F10883E001C081E091E0391210C0909165
:105020008100987F892B8093810041145104610491
:10503000710409F03FC02FEF3FEFA90171C0E3E019
:105040003E120FC090919100987F892B8093910020
:10505000411451046104710469F52FEF3FEFA90178
:1050600081C0F4E03F120FC09091A100987F892B7E
:105070008093A1004114510461047104D9F42FEF0D
:105080003FEFA90181C025E032120FC090912101AC
:10509000987F892B8093210141145104610471048C
:1050A00049F42FEF3FEFA90181C04114510461047D
:1050B000710471F0D801AA0FBB1FA30192010E94D5
:1050C0002E5E28EE33E040E050E00E94F05D03C029
:1050D0002FEF3FEFA90182E03816A1F1831534F0DC
:1050E000332079F091E03916D9F0D0C0E4E03E16D3
:1050F00009F44AC03E16B4F1F5E03F1609F456C073
:10510000C5C0C7BC209348143093491440934A1437
:1051100050934B1480916E00826080936E00B6C0F5
:10512000D0928900C0928800209344143093451493
:10513000409346145093471480916F00826080938F
:105140006F00A4C0C092B3002093B8133093B9137A
:105150004093BA135093BB13809170008260809388
:10516000700094C0D0929900C0929800209340148F
:105170003093411440934214509343148091710032
:1051800082608093710082C0D092A900C092A80072
:1051900020933C1430933D1440933E1450933F149D
:1051A0008091720082608093720070C0D092290159
:1051B000C0922801209338143093391440933A1444
:1051C00050933B14809173008260809373005EC0A3
:1051D00084E0F4CE2FEFC216D104E104F104D1F043
:1051E000C8F062E17AE780E090E0A50194010E94B6
:1051F000125E69017A01E1E0CE1AD108E108F108F6
:10520000FFEFCF16D104E104F10411F008F08FCEC6
:1052100084E0A0CE83E09ECE62E17AE780E090E079
:10522000A50194010E94125E69017A0181E0C81A09
:10523000D108E108F1089FEFC916D104E104F10497
:10524000C1F0B8F089819A81AB81BC814AE0B59503
:10525000A795979587954A95D1F76C017D01E1E077
:10526000CE1AD108E108F108332009F472CE87E0A4
:10527000A5CE86E059CEEFEFCE16D104E104F104BD
:1052800009F050F684E050CE82E098CE0F900F9057
:105290000F900F90DF91CF911F910F91FF90EF90A2
:1052A000DF90CF90BF90AF909F908F907F906F9046
:1052B0005F904F903F900895FC01A489B58981E0EB
:1052C00090E09C0100A002C0220F331F0A94E2F775
:1052D0002C93A089B1891C92A289B3892FEC2C93BD
:1052E00011A2A689B7894C919C01048C02C0220F9F
:1052F000331F0A94E2F7242B2C93A689B7894C918B
:105300009C01058C02C0220F331F0A94E2F7242B64
:105310002C93A689B7894C919C01068C02C0220F60
:10532000331F0A94E2F7242B2C93A689B7892C917A
:10533000078C02C0880F991F0A94E2F78095822398
:105340008C930895CF93DF93EC0165E370E081E8DF
:1053500091E10E946610209731F0982F92959695D2
:10536000969593709883282F30E094E03595279593
:105370009A95E1F72370223028F0982F937081E0FE
:10538000923008F480E0DF91CF910895CF92DF92C0
:10539000EF92FF920F931F93CF93DF9300D000D033
:1053A000CDB7DEB76C017B018CE0F60111928A95D6
:1053B000E9F78E010F5F1F4F86E0F80111928A9581
:1053C000E9F7FB01838191E0909305148093271402
:1053D00010920614109228146AE18DE19FE039D3EF
:1053E00081E05CD966E0F7018381B5D91092BD13E5
:1053F0008093BC1336E0F32EF00E8DE19FE0ACD22B
:10540000F80181938F01FE12F8CFEC80F12CFE2C75
:10541000EE248B81E82A0E8110E0102F00278D8169
:10542000082B6A8170E0762F66278981682B072E0A
:10543000000C880B990B0E94B85C20E030E040E83B
:105440005DE30E94175DF60160837183828393831D
:10545000B701FF0C880B990B0E94B85C20E030E08C
:1054600040E85DE30E94175DF601648375838683DF
:105470009783B801110F880B990B0E94B85C20E04C
:1054800030E040E85DE30E94175DF60160877187B8
:1054900082879387C60126960FB6F894DEBF0FBEAB
:1054A000CDBFDF91CF911F910F91FF90EF90DF90D3
:1054B000CF9008951F93CF93DF93CDB7DEB72C978E
:1054C0000FB6F894DEBF0FBECDBFCE0101963ADF16
:1054D000182F61E871E1CE01019658DF69817A8168
:1054E0008B819C816093A9117093AA118093AB1159
:1054F0009093AC112091B511211107C00E94145F47
:10550000672B19F081E08093B511812F2C960FB68F
:10551000F894DEBF0FBECDBFDF91CF911F910895EC
:105520000F931F93CF93DF93CDB7DEB7EA970FB6F4
:10553000F894DEBF0FBECDBF0091B6111091B71128
:1055400002301105D1F00330110509F442C00130D9
:10555000110509F0CAC01092BB111092BA1122E0D5
:1055600030E03093B7112093B611882319F08CEBFB
:105570009AE071C080EE9AE06EC02091BA1130912D
:10558000BB112F5F3F4F3093BB112093BA1188237B
:1055900029F081E891E10E94AC1003C0CE01019690
:1055A000D1DE882311F003E010E01093B7110093CF
:1055B000B6110330110559F48BEF9AE00E94E239DD
:1055C0001092B5118CE09BE00E94E23973DF81E01C
:1055D0008DC0882309F489C00091B8111091B911C8
:1055E00001301105D9F10230110509F47EC0011511
:1055F000110509F076C080E29EE49093BB11809380
:10560000BA1181E090E09093B9118093B811BE0176
:105610006B5D7F4F81E891E10E94D71086E1FE012A
:10562000B596DE01119601900D928A95E1F786E11B
:10563000FE013196ABE8B1E101900D928A95E1F758
:10564000CED887E39BE00E94E239CE0185960E9486
:10565000CE228DE49BE00E94E239B9CF8091BA114D
:105660009091BB119C01215031093093BB112093C3
:10567000BA111816190634F5BE016F5F7F4F81E825
:1056800091E10E94BF0B6D897E898F89988D0E9460
:10569000145F7093BD116093BC11698D7A8D8B8DF1
:1056A0009C8D0E94145F6093BE116D8D7E8D8F8DD9
:1056B00098A10E94145F6093BF111093B9110093D9
:1056C000B81106C082E090E09093B9118093B811B0
:1056D00081E02091B8113091B9112130310529F4C0
:1056E00005C081E00130110509F080E0EA960FB6AF
:1056F000F894DEBF0FBECDBFDF91CF911F910F9108
:10570000089565E370E081E891E10E946610282F1A
:1057100030E0982F92959695969593709093C0113E
:10572000A90194E0559547959A95E1F74370409308
:10573000C111359527953595279523702093C21172
:1057400083708093C31108950F931F930E948B223F
:105750006093990E70939A0E80939B0E90939C0E7B
:10576000E091910EF091920E0680F781E02D81E993
:105770009EE0199597FF1FC00E948B220091990E01
:1057800010919A0E20919B0E30919C0EDC01CB0162
:10579000801B910BA20BB30B0091950E1091960EEE
:1057A0002091970E3091980E80179107A207B307AA
:1057B000B8F28FEF9FEF1F910F910895CF93DF9372
:1057C000FC01448155816081718189EF9EE00E94D6
:1057D000920BEC0169E67BE089EF9EE00E94E80E07
:1057E0008C0F9D1FDF91CF910895462F50E060E010
:1057F00070E02AE00C94FD0ECF92DF92EF92FF92C0
:105800000F931F93CF93DF936B01770FEE08FF0881
:10581000F7FE1BC0EC016DE20E94E10E8C014427F3
:105820005527BA014C195D096E097F092AE0CE019E
:105830000E94FD0E800F911FDF91CF911F910F915C
:10584000FF90EF90DF90CF9008952AE0B701A60176
:10585000DF91CF911F910F91FF90EF90DF90CF904C
:105860000C94FD0E0F931F93CF93DF93EC01892BC4
:1058700009F451C08881882309F44DC0843209F4A9
:10588000219664E289EF9EE00E94E10E8E01C0E065
:10589000D0E0F80161918F01662361F06A3211F066
:1058A000DD2311F0DF5F01C0C62789EF9EE00E9473
:1058B000E10EEFCFD1112FC06AE289EF9EE00E9486
:1058C000E10E6C2F70E084E0759567958A95E1F79D
:1058D0006A30710514F0695C01C0605D89EF9EE07B
:1058E0000E94E10ECF70CA3010F067E301C060E3A0
:1058F0006C0F89EF9EE00E94E10E6DE089EF9EE063
:105900000E94E10E6AE089EF9EE0DF91CF911F9146
:105910000F910C94E10EDF91CF911F910F9108959B
:10592000FC0184819581892B31F0158214820190CC
:10593000F081E02D108208950895E091BD138091CB
:10594000BC13E81730F4F0E0E254FC4E808190E0A4
:1059500008958FEF9FEF08959091BD138091BC1330
:10596000981750F4E92FF0E0E254FC4E208130E02B
:105970009F5F9093BD1302C02FEF3FEFC9010895C1
:105980008091BC1390E02091BD13821B9109089572
:1059900085ED8093BC008091BC0084FDFCCF10920B
:1059A000041408954091BE14262F30E0240F311DB9
:1059B00021323105DCF4209104142430C9F4FC01B7
:1059C00080E090E0861758F43091BE142191DC01FC
:1059D000A456BB4EA30FB11D2C930196F3CF80911B
:1059E000BE14680F6093BE1480E0089581E00895AE
:1059F00082E00895CF92DF92EF92FF920F931F9370
:105A0000CF93DF937C01262F972F8A018091051475
:105A1000882391F0C62FD72F6E01C40ED51ECC154A
:105A2000DD0569F06991D701ED91FC910190F0815C
:105A3000E02DC7011995F3CF642F822FB3DFC80182
:105A4000DF91CF911F910F91FF90EF90DF90CF905A
:105A50000895CF93DF931F92CDB7DEB7698320916E
:105A600005142223D1F020912814203240F021E0A7
:105A700030E0FC013383228380E090E014C0809109
:105A80000614E82FF0E0E95FFB4E998190838F5F69
:105A9000809306148093281404C061E0CE0101961F
:105AA00081DF81E090E00F90DF91CF910895CF9357
:105AB000DF93DC01862F9296ED91FC9193973097BE
:105AC00019F0DF91CF9119941C96ED91FC911D97DF
:105AD000BF01605C7F4FEB01288139812F5F3F4F11
