:1000000052C2000081C200007FC200007DC2000019
:100010007BC2000079C2000077C2000075C20000F8
:1000200073C200000C9414340C9414340C941434E3
:100030006BC200000C94CA1D67C2000065C20000BC
:1000400063C2000061C200005FC200005DC2000028
:100050005BC2000059C2000057C200000C94FD3B77
:1000600053C200000C94E2330C940D334DC20000D7
:100070004BC2000049C2000047C2000045C2000058
:1000800043C2000041C200003FC200003DC2000068
:100090000C94B0330C94CE3237C200000C941E3452
:1000A00033C2000031C200002FC200002DC2000088
:1000B0002BC2000029C2000027C2000025C2000098
:1000C00023C2000021C200001FC200000C947E3336
:1000D0000C948F3219C200000C944C330C945032A3
:1000E00013C20000A848B348B648BC48BF48C2483D
:1000F000E548D148E5486F4B6F4B6F4BF4486F4B69
:1001000025496F4B314B3F4BEB481F49BB49D04909
:10011000564B4F4B4B4B5E4BE415EE15F815151631
:1001200020162F1633163716511655165B16611604
:100130008F169F16A816DC1603171117181721170C
:100140005617BC17E71714181A1827182D183A183D
:100150009A18FA18FA18C11884178B178D178F1769
:10016000911793179517971799179B17C525C825AA
:10017000B725BB25C125FF25CC25D025D625DA25D9
:10018000DE25E425E825EC25FF25F225F625FA25D0
:1001900056265B2660266A267426ED267E2686264F
:1001A0008E269826A226AC26BB26C526ED26CF266F
:1001B000D926E3264A29662A682A9E295429C02975
:1001C0007E29E729482A2A2A4B2A2D2AB02A222AC0
:1001D000812AC82A002BE42A192B74377D378537EA
:1001E0008B3793379937B837A137AA373E3843381A
:1001F000E137FA3756380B381238CD381D383E38CB
:100200000B384338E137FA3756387538873899381C
:100210004E414E494E495459494E46CDCCCC3D0AEB
:10022000D7233C17B7D13877CC2B329595E6241FCE
:10023000B14F0A000020410000C84200401C462087
:10024000BCBE4CCA1B0E5AAEC59D7400407A10F35A
:100250005A00A0724E18090010A5D4E80000E876F4
:1002600048170000E40B54020000CA9A3B0000004B
:10027000E1F505000080969800000040420F000064
:1002800000A08601000000102700000000E8030025
:100290000000006400000000000A000000000001EF
:1002A00000000000002C76D888DC674F0823DFC1EF
:1002B000DFAE59E1B1B796E5E3E453C63AE65199AA
:1002C0007696E8E6C28426EB898C9B62ED407C6FD3
:1002D000FCEFBC9C9F40F2BAA56FA5F490055A2A8A
:1002E000F75C936B6CF9676DC11BFCE0E40D47FE96
:1002F000F520E6B500D0ED902E030094357705008B
:1003000080841E080000204E0A000000C80C333311
:1003100033330F986E12831141EF8D2114893BE620
:100320005516CFFEE6DB18D1844B381BF77C1D90A9
:100330001DA4BBE424203284725E228100C9F12412
:10034000ECA1E53D270200002200250028002B003B
:100350002E003100340002010000050108010B01EC
:1003600000002100240027002A002D003000330067
:1003700001010000040107010A0105050505070543
:1003800008080808020202020A0A08080404040411
:10039000010101010101010103030303030303033D
:1003A000040707070C0C0C0C0C0C0C0C02020202CC
:1003B00006060606060606060B0B0B0B0B0B0B0BB5
:1003C0000102102020080810204010204080020167
:1003D000020108040201010204081020408080404C
:1003E000201008040201800402018040201008044B
:1003F00002010804020101020408102040800102E9
:100400000408102040805A44410056544700524D81
:100410004300475356004753540047534100474C4D
:100420004C004747410041504200260422041E046C
:100430001A04160412040E040A040604010000093A
:100440002A0400000A0B02090C0D0E080703040120
:10045000000000000000000000000000000000009C
:100460000000000000000000000000000000121169
:10047000100000000000000000000000000000006C
:100480000000000000000000000020002300260003
:1004900029002C002F00320000010000030106019A
:1004A0000901AD4DB53C11241FBECFEFD1E2DEBF37
:1004B000CDBF00E00CBF1CE0A0E0B2E0E2E5FCEC48
:1004C00000E00BBF02C007900D92AA36B107D9F722
:1004D00025E1AAE6BCE001C01D92AD34B207E1F708
:1004E00012E0C2E5D2E000E006C021970109802FAA
:1004F000FE010E94EE60C135D10780E00807A9F730
:100500000E94C13C0C9418667BCDE0912810F091BC
:1005100029100190F081E02D682F88E290E1199573
:10052000029709F09DC080917B10882361F0809133
:100530005A10886080935A1010927C1080917B1022
:10054000815080937B108091551080FF0CC02091CA
:100550007A109091541020FF04C02091791029172F
:1005600010F49093791081FF0CC0909150109093EB
:100570007510909151109093761090915210909325
:10058000771082FF10C090914E109093731090914D
:100590004D109093721090914C1090937110909117
:1005A00053109093781083FF09C088E0E7E3F0E1EF
:1005B000ACE5B0E101900D928A95E1F7809155107C
:1005C00084FF10C040913F10509140106091411045
:1005D00070914210409364105093651060936610C0
:1005E0007093671086FF10C04091471050914810DB
:1005F0006091491070914A1040936C1050936D10A7
:1006000060936E1070936F1085FF10C0409143107F
:1006100050914410609145107091461040936810BD
:100620005093691060936A1070936B1087FF04C039
:1006300080914B108093701090917A10809155109A
:10064000892B80937A1080915A1084FF09C01092F0
:100650007D1080917B10811103C081E080937B101D
:1006600008950C948B61CF92DF92EF92FF92CF931B
:10067000DF93EC016A017B0120E030E0A901C701B2
:10068000B6010E94A85D87FF0AC020E030E044EB7D
:1006900053E4C701B6010E94445F6B017C0120E076
:1006A00030E044EB53E4C701B6010E944860688320
:1006B00079838A839B83DF91CF91FF90EF90DF90C6
:1006C000CF900895CF93DF93EC01FC01E659FE4FE4
:1006D00088EE93E0A0E0B0E080839183A283B383AF
:1006E000349681E090E091838083329680830E94EB
:1006F000F13BCF58DE4F688379838A839B83DF91F8
:10070000CF910895FC01EB50FF4F808191810197BB
:10071000039710F080E0089581E008956F927F9232
:100720008F929F92AF92BF92CF92DF92EF92FF9201
:100730000F931F93CF93DF9300D01F92CDB7DEB7F7
:100740003C014801590149835A836B837C83DADF7A
:1007500049815A816B817C81811106C09501840198
:10076000C3014E960E9434190F900F900F900F9076
:10077000DF91CF911F910F91FF90EF90DF90CF907D
:10078000BF90AF909F908F907F906F900895CF9281
:10079000DF92EF92FF92CF93DF93EC016A017B012E
:1007A00020E030E0A901C701B6010E94A85D87FFE3
:1007B0000AC020E030E044EB53E4C701B6010E94D8
:1007C000445F6B017C0120E030E044EB53E4C7015F
:1007D000B6010E944860C550DF4F688379838A83E1
:1007E0009B83DF91CF91FF90EF90DF90CF900895A2
:1007F000DC011C9295E0EBEBF2E0549601900D9237
:100800009A95E1F708958F929F92AF92BF92CF92FF
:10081000DF92EF92FF920F931F93CF93DF93EC0140
:100820004A015B01CB01BA010E9410606B017C019F
:100830007983688320E030E048EC52E4C501B401DC
:100840000E940D5E0E9410602CE986012003A00129
:10085000219F500D1124CA01860F971F9B838A8305
:10086000CE01DF91CF911F910F91FF90EF90DF901C
:10087000CF90BF90AF909F908F9008950F931F934C
:10088000CF93DF938C01EB01FC01468D578D60A166
:1008900071A1CE010196B7DFF80142A153A164A175
:1008A00075A1CE010596AFDFF80146A157A160A55D
:1008B00071A5CE010996A7DFF801E65BFF4F8081A5
:1008C00091819B8B8A8B7D96808191819D8B8C8B76
:1008D00085E0E0ECF2E0DE011D9601900D928A9534
:1008E000E1F781E08883DF91CF911F910F91089507
:1008F000EF92FF920F931F93CF93DF938C01EB0145
:10090000FC01808591859C878B87828593850197E3
:100910009E878D87E856FF4F80819181998B888BC8
:10092000F80182818A8B7801FAE9EF0EF11CF70158
:1009300042A953A964A975A9CE01439664DFF701C2
:1009400046A557A560A971A9CE0147965CDFF801BD
:10095000848195819D8F8C8F868197819F8F8E8FCB
:100960008AE0E5ECF2E0DE01119601900D928A95A5
:10097000E1F781E08883DF91CF911F910F91FF9084
:10098000EF900895CF92DF92EF92FF92CF93DF9393
:10099000EC0168817981072E000C880B990B0E946D
:1009A000AE5D6B017C018A819B81BC01990F880B34
:1009B000990B0E94AE5D2AE037ED43E25CE30E94B2
:1009C0000D5E9B01AC01C701B6010E94445FDF913F
:1009D000CF91FF90EF90DF90CF900895EF92FF922C
:1009E0000F931F93CF93DF93CDB7DEB77C0125EF35
:1009F000E20EF11CF70120813181232B09F04CC05C
:100A00008C018B85882349F08D899E89F801918717
:100A1000808760E0C8010E940D3A8F85882349F0E5
:100A20008C8D90E0F8019383828360E0C8010E947E
:100A30000D3A8889882351F0CE014D96A3DFF80145
:100A4000E453FF4F60837183828393838989882372
:100A500079F0CE01819696DFF70120813181232B39
:100A600039F4F801E853FF4F6083718382839383E5
:100A70008B89882399F08C89882381F08EA19FA18E
:100A8000F8019583848388A599A59783868360E080
:100A9000C8010E940D3A02C080E001C081E0DF91F0
:100AA000CF911F910F91FF90EF900895FC01EE5BA5
:100AB000FE4F2081222319F0815A9E4F63CFFC0103
:100AC000E550FF4F60817181828193810895EF929B
:100AD000FF920F931F93CF93DF931F92CDB7DEB793
:100AE0007C01FC0100811181C80169830E94C15E03
:100AF0006981681719F0C8010E94C95EC7010F908B
:100B0000DF91CF911F910F91FF90EF900895BC015D
:100B100081EF9FE00C94AD1FEF92FF920F931F9314
:100B2000CF93DF93CDB7DEB768970FB6F894DEBFEB
:100B30000FBECDBF8C01F62E8FEA94E0E8DFB8013E
:100B400067597E4F8DE790E00E94552FFF2099F066
:100B500086E1E5E8F2E0DE01119601900D928A95BA
:100B6000E1F78FEF94E0D3DF8E010F5F1F4F8EE729
:100B7000E82EF12C06C0BE016F5F7F4FC8017EDEFC
:100B8000F3CFF80161918F01F88EEF8ACE0147967D
:100B90009EDFFFEFEF1AFF0A84E9E816F10489F7F8
:100BA0001F921F921F928EE78F9382EC94E09F9387
:100BB0008F9389E79CE09F938F930E944F6389E70F
:100BC0009CE0A5DF0FB6F894DEBF0FBECDBF8981D4
:100BD000882379F08A89882361F08989882349F0FC
:100BE0008E85882331F08F85882319F088898111BB
:100BF00003C088ED94E08BDF83ED94E088DF81E033
:100C000068960FB6F894DEBF0FBECDBFDF91CF91CF
:100C10001F910F91FF90EF900895EF92FF920F9325
:100C20001F93CF93DF93CDB7DEB7A2970FB6F8949B
:100C3000DEBF0FBECDBF8C01F62E89EE94E067DFDC
:100C4000B80167597E4F89E490E00E94552FFF203C
:100C500099F08EEF94E05BDF80E2EFECF2E0DE01F2
:100C6000119601900D928A95E1F78E010F5F1F4F4B
:100C70008AE4E82EF12C06C0BE016F5F7F4FC801E9
:100C800037DEF3CFF80161918F01FAA2E9A2CE011C
:100C900081961DDFFFEFEF1AFF0A8AE6E816F104DE
:100CA00089F781E399E033DF81E0A2960FB6F894EB
:100CB000DEBF0FBECDBFDF91CF911F910F91FF908F
:100CC000EF900895EF92FF920F931F93CF93DF93CE
:100CD000EC018B017C0185E8E81A8EEFF80AF70138
:100CE0008081918168177907C9F0719788EE93E048
:100CF000A0E0B0E080839183A283B383349684E143
:100D000090E091838083329681E080830E94F13B62
:100D1000CF58DE4F688379838A839B83F7011183E1
:100D200000831F930F938DE195E09F938F9389E745
:100D30009CE09F938F930E944F630F900F900F90B2
:100D40000F900F900F9089E79CE0DF91CF911F915A
:100D50000F91FF90EF90DBCE0F931F93CF93DF9314
:100D6000EC018B01FC01E358FE4F718360831F93FC
:100D70006F9384E395E09F938F9389E79CE09F9323
:100D80008F930E944F6389E79CE0C1DE0F900F9024
:100D90000F900F900F900F90012BD9F0FE01E659A4
:100DA000FE4F80ED97E0A0E0B0E080839183A283C6
:100DB000B383349684E190E091838083329681E01E
:100DC00080830E94F13BCF58DE4F688379838A830A
:100DD0009B83DF91CF911F910F910895CF92DF9266
:100DE000EF92FF920F931F93CF93DF93EC016A0171
:100DF0007B0120E030E0A901C701B6010E949D609F
:100E0000181624F0F7FAF094F7F8F094FE01EB5876
:100E1000FE4F8081682F70E080E090E00E94AE5D20
:100E20009B01AC01C701B6010E94A85D9091780CAE
:100E30008E0106581E4F87FF13C0992309F43EC048
:100E40001092780CF801108282E40E94861DFE0147
:100E5000E059FE4F108260E070E0CE017DDF2EC0D1
:100E600091110FC081E08093780C0E94F13B0E94A9
:100E7000AC5D6093740C7093750C8093760C9093BA
:100E8000770CF8018081811119C00E94F13B0E940A
:100E9000AC5D2091740C3091750C4091760C5091A2
:100EA000770C0E94435FFE01EA58FE4F208131819A
:100EB000428153810E949D6018165CF0F801808188
:100EC000DF91CF911F910F91FF90EF90DF90CF9026
:100ED0000895FF24F394F801F08262E070E0CE01FF
:100EE0003BDFFE01E659FE4F88EE93E0A0E0B0E064
:100EF00080839183A283B38334968FEF93E09183B1
:100F000080833296F0820E94F13BCF58DE4F688397
:100F100079838A839B83D2CF4F925F926F927F9225
:100F20008F929F92AF92BF92CF92DF92EF92FF92F9
:100F30000F931F93CF93DF93CDB7DEB7C254D10980
:100F40000FB6F894DEBF0FBECDBF6C0125EFC20E09
:100F5000D11CD601AD90BC90A616B70609F471C19C
:100F60007B018C01B3E0AB16B10431F0E5E0AE16C5
:100F7000B10409F441C04CC00E94D6394C01880C20
:100F8000991CF3E08F1691041CF423E0822E912C1F
:100F90009F928F9287E495E09F938F938DEE94E1DB
:100FA0009F938F930E944F638DEE94E10E94D139FD
:100FB000D80113969C928E9212975A968D919C917D
:100FC0005B9715969C938E9314975C968D919C914C
:100FD0005D9717969C938E93169719961C921E9266
:100FE000189761E0C8010E940D3A0F900F900F9082
:100FF0000F900F900F900CC06430710549F4865C1F
:101000009E4FC0DCAB01BC01C80189509F4F2BDB58
:10101000F60180809180F182E082F3E0EF16F10426
:1010200031F58BE595E00E94D139D80113961C92D9
:101030001E92129715961C921E921497EE24EA9413
:1010400093E0F92E1796FC92EE92169719961C9241
:101050001E92189760E0C8010E940D3AF801F38EC5
:10106000E28E158E148E87E795E00E94D139D60165
:10107000ED90FC90B5E08B16910481F581E2982EFD
:101080003E01E2E26E0E711CD301E92D1D92EA953C
:10109000E9F7C301ADDBF301DE011196892D019063
:1010A0000D928A95E1F7FE013196D801A35EBE4FFD
:1010B00001900D929A94E1F70E94F13BF801E25CF5
:1010C000FE4F6083718382839383FF968081918139
:1010D000069721F460E070E0C8013EDEE114F104FF
:1010E00009F477C0F7FCADC0F4E0EF1AF10822E094
:1010F000E216F10408F0A5C0F801E053FF4F80812B
:10110000882309F49AC0EA54F109108211821282EC
:10111000138234971082118212821382680186E54D
:10112000C80ED11CD6018C9181114AC0D801DA9623
:10113000ED91FC91DB9780809180A280B380780153
:10114000B2E4EB0EF11CF70180829182A282B3829D
:10115000D801D896ED91FC91D99780819181A28197
:10116000B381F801EA5BFF4F80839183A283B3834D
:101170003C964080518062807380A3019201C5013A
:10118000B4010E949D60181634F4F7014082518228
:101190006282738215C0F801E25BFF4F408051808C
:1011A00062807380A3019201C501B4010E94A85D11
:1011B00087FF06C0D7014D925D926D927C92139786
:1011C00081E0F6018083C8018B599F4F0E94602BFC
:1011D00038C0F801EA57FF4F108211821282138241
:1011E00034971082118212821382BC971082D80128
:1011F00058962D913C91599756968D919C91579761
:10120000281B390B1A968D919C911B97281739072B
:1012100014F0019707C09195819591098217930762
:101220000CF4C901F801EA56FF4F9183808340E036
:1012300050E0BA01C801D2DD04C0F601B182A0823B
:1012400001C081E0CE5BDF4F0FB6F894DEBF0FBE6A
:10125000CDBFDF91CF911F910F91FF90EF90DF9065
:10126000CF90BF90AF909F908F907F906F905F9046
:101270004F9008952BE334E0FC0131832083E15A41
:10128000FF4F23E434E0318320838B599F4F0C942C
:101290005D27EF92FF920F931F93CF93DF93EC01A3
:1012A0008FE694E099838883FE01E15AFF4F87E738
:1012B00094E091838083FB968FE794E09183808311
:1012C0007E018FEFE80EF11CE114F10461F08E0154
:1012D000035E1E4F0E151F0531F006501109C8019F
:1012E0000E94101DF7CFCE01DF91CF911F910F917A
:1012F000FF90EF90BFCF0895CF93DF93EC016F3F46
:10130000710509F050F48C819D816817790729F0E7
:101310007D836C8386E00E942F268C819D81DF91E6
:10132000CF910895CF93DF93EC018A819B81681759
:10133000790729F07B836A8387E00E9400268A81EF
:101340009B81DF91CF9108952F923F924F925F92B0
:101350006F927F928F929F92AF92BF92CF92DF92C5
:10136000EF92FF920F931F93CF93DF9300D0CDB7EF
:10137000DEB71C018B012A833B8349830E94A93974
:101380004C0180916C0C2A813B81498181110EC0F6
:10139000F101808D918D66897789861B970B9093DB
:1013A0006B0C80936A0C81E080936C0CF101648477
:1013B000758446845784411189016101F3E6CF0E9B
:1013C000D11CF601A080B180A114B10429F4809150
:1013D0006A0C90916B0C07C0F101808D918D26896C
:1013E0003789821B930B081B190B780117FF04C068
:1013F000EE24FF24E01AF10AF10162817381072EC5
:10140000000C880B990B0E94AE5DF1012289338993
:10141000448955890E940D5E0E941060E616F70609
:101420008CF0F101EF59FF4F8614970424F480816A
:101430009181019739F048145904C4F48081918155
:10144000892BA1F4AB2871F160E070E0C101815AF1
:101450009F4F52DFF101808D918D26893789821B44
:10146000930B90936B0C80936A0C1CC061E070E04E
:101470000E151F0511F460E070E0808191816817FE
:10148000790721F0C101815A9F4F4CDFF60180811D
:1014900091818F3F910531F06FEF70E0C101815A6A
:1014A0009F4F2ADFC8010F900F900F90DF91CF91CF
:1014B0001F910F91FF90EF90DF90CF90BF90AF9072
:1014C0009F908F907F906F905F904F903F902F9064
:1014D00008950F931F93CF93DF93EC018B01FC01D1
:1014E000EB50FF4F20813181213031050CF1233049
:1014F00031050CF441C023303105D1F4C15ADF4F1E
:1015000061E070E01016110614F460E070E0CE01A6
:1015100009DF6FEF70E0CE01EFDE68EE73E080E090
:1015200090E00E94B93B60E070E0CE01E5DE21C0B2
:1015300060E070E0CE01F0DCFE01EA56FF4F8081F2
:101540009181800F911F6A857B85861797071CF014
:101550006150710907C07195619571096817790724
:101560000CF4BC017183608320E030E040E0CE01E8
:10157000EBDE81E090E002C080E090E0DF91CF916F
:101580001F910F910895CF92DF92EF92FF926B011E
:101590007C0120E030E0A9010E94A85D87FF0AC01D
:1015A00020E030E044EB53E4C701B6010E94445F01
:1015B0006B017C0120E030E044EB53E4C701B6014D
:1015C000FF90EF90DF90CF900C94486027EA33E0D3
:1015D000FC01318320838E589E4F0C94101DCF93B5
:1015E000DF93EC01F3DFCE01DF91CF910C948B619F
:1015F00084589140F4CF84589140E8CFFC0126A54F
:1016000037A540A951A962A573A584A595A50E94F7
:10161000445FB9CFCF92DF92EF92FF920F931F9367
:10162000CF93DF93EC017B01FC01EB50FF4F008176
:10163000118168D881113AC0E114F10431F0EA94C3
:10164000EF2851F4CE0132DA04C0CE0186569F4F06
:10165000D5DF6B017C0106C0C12CD12C80E8E82EBF
:101660008FEBF82EB701A601CE0191D8B701A601E4
:10167000CE0189509F4F0E9433030115110551F08F
:1016800017FD14C0045011090230110578F460E010
:1016900070E002C064E070E0CE01DF91CF911F9155
:1016A0000F91FF90EF90DF90CF9036CCDF91CF91EC
:1016B0001F910F91FF90EF90DF90CF9008951F93AF
:1016C000CF93DF93182FC0918112D091821260E0E6
:1016D00070E089E792E10E94D13869E170E080E032
:1016E00090E00E94B93B40E067E070E089E792E15A
:1016F0000E94D11F112311F040E801C040E06FE3C8
:1017000070E089E792E10E94D11F6AE070E080E01A
:1017100090E00E94B93BBE0189E792E10E94D13876
:1017200064E170E080E090E0DF91CF911F910C9434
:10173000B93B0F931F93CF93DF93EC018D818F9370
:101740008C818F938B818F938A818F9389818F93E3
:1017500088818F9384E498E09F938F9308EC1DE039
:101760001F930F930E944F63C8010E942D2F8B85FA
:101770008F938A858F9389858F9388858F938F81A7
:101780008F938E818F9385E698E09F938F931F931D
:101790000F930E944F63C8010E942D2F89898F9358
:1017A00088898F938F858F938E858F938D858F9367
:1017B0008C858F938DE798E09F938F931F930F9362
:1017C0000E944F63C8010E942D2F8B898F938A89B5
:1017D0008F9384E998E09F938F931F930F930E94B8
:1017E0004F638DB79EB784960FB6F8949EBF0FBE19
:1017F0008DBFC8010E942D2F8D898F938C898F9367
:1018000086EA98E09F938F931F930F930E944F63F4
:10181000C8010E942D2F0F900F900F900F900F90E6
:101820000F9081EF9FE0DF91CF911F910F910C946A
:101830001531382F2091A40D9091A30D213208F07D
:1018400049C08091800D8111FCCF42E04093800D12
:1018500030937F0D3FEF30937E0D10927D0D2093DE
:101860007C0DA3E8BDE04CE55DE0FA013E2F341BA2
:10187000321718F43D913193F9CF10925B0D2091FE
:101880005B0D990F922B90935B0D90915A0D9130B7
:1018900061F410925A0D90915B0D9093BB00909162
:1018A000BC0093FDF8CF95EC01C095EE9093BC0081
:1018B0009091800D9230E1F390917E0D9F3F79F0F1
:1018C00080917E0D803241F080917E0D803331F029
:1018D00084E005C081E003C082E001C083E0109293
:1018E000820D1092A40D1092810D08959091800D9B
:1018F0009111FCCF91E09093800D90937F0D2FEF8D
:1019000020937E0D10927D0D260F20937C0D9093D9
:101910005B0D90915B0D880F892B80935B0D8091FF
:101920005A0D813061F410925A0D80915B0D8093B5
:10193000BB008091BC0083FDF8CF85EC01C085EE33
:101940008093BC008091800D8130E1F380917D0D0A
:10195000861710F460917D0DACE5BDE02AE33DE013
:10196000F9018E2F821B861718F48D918193F9CF80
:10197000862F08952F923F924F925F926F927F929F
:101980008F929F92AF92BF92CF92DF92EF92FF928F
:101990000F931F93CF93DF93CDB7DEB728970FB682
:1019A000F894DEBF0FBECDBFE3E8F2E14081518184
:1019B000E5E8F2E130812181E7E8F2E12080318041
:1019C000E9E8F2E140805180EBE8F2E1608071806B
:1019D000EDE8F2E180809180EFE8F2E1A080B18053
:1019E000E1E9F2E1C080D180E3E9F2E1E080F18059
:1019F000E5E9F2E100811181E7E9F2E18081898383
:101A000091819A8380E02E833D834B835C8357DEF4
:101A1000809181129091821298878F8360E070E0AC
:101A200089E792E10E94D13869E170E080E090E0BE
:101A30000E94B93B4B8165E570E089E792E10E9425
:101A4000D11F5C81452F66E570E089E792E10E9435
:101A5000D11F3D81432F67E570E089E792E10E9445
:101A6000D11F2E81422F68E570E089E792E10E9444
:101A7000D11F422D69E570E089E792E10E94D11FF4
:101A8000432D6AE570E089E792E10E94D11F442D61
:101A900061E670E089E792E10E94D11F452D62E680
:101AA00070E089E792E10E94D11F462D63E670E065
:101AB00089E792E10E94D11F472D64E670E089E733
:101AC00092E10E94D11F482D65E670E089E792E11E
:101AD0000E94D11F492D66E670E089E792E10E94DD
:101AE000D11F4A2D6BE570E089E792E10E94D11F7A
:101AF0004B2D6CE570E089E792E10E94D11F4C2DDF
:101B00006DE570E089E792E10E94D11F4D2D6EE5F1
:101B100070E089E792E10E94D11F4E2D6FE570E0E1
:101B200089E792E10E94D11F4F2D60E670E089E7BE
:101B300092E10E94D11F402F67E670E089E792E1B1
:101B40000E94D11F412F68E670E089E792E10E9470
:101B5000D11F498169E670E089E792E10E94D11FB7
:101B60004A816AE670E089E792E10E94D11F6F81A5
:101B7000788589E792E10E94D13881E028960FB6F6
:101B8000F894DEBF0FBECDBFDF91CF911F910F91B3
:101B9000FF90EF90DF90CF90BF90AF909F908F908D
:101BA0007F906F905F904F903F902F9088CDCF9314
:101BB000DF93CDB7DEB72A970FB6F894DEBF0FBE1E
:101BC000CDBF8B8180937B1288E280937C1287E368
:101BD00090E0A0E0B0E080937D1290937E12A093FD
:101BE0007F12B093801289859A8590938212809398
:101BF00081121092390D1092380D1092820D1092B0
:101C0000A40D1092800D81E080937F0D10925A0DEB
:101C100061E084E10E94002661E085E10E940026E7
:101C20008091B9008E7F8093B9008091B9008D7F3B
:101C30008093B90088E48093B80085E48093BC0069
:101C400060E070E089E792E10E94AE1F803A71F493
:101C500060E070E089E792E10E94D13840E26FE3F2
:101C600070E089E792E10E94D11F13C068EE73E033
:101C700080E090E00E94B93B60E070E089E792E18B
:101C80000E94AE1F803A21F31092AF121092AE1252
:101C90006DC060E070E089E792E10E94AE1F803A7B
:101CA00039F06AE070E080E090E00E94B93BF1CF4B
:101CB00062E370E080E090E00E94B93B40E06EE3B8
:101CC00070E089E792E10E94D11F6AE070E080E055
:101CD00090E00E94B93B40E067E070E089E792E164
:101CE0000E94D11F40E06FE370E089E792E10E941B
:101CF000D11F6AE070E080E090E00E94B93B6CE0A8
:101D000070E089E792E10E94D13864E170E080E000
:101D100090E00E94B93B81E090E09093AF128093F5
:101D2000AE1286EB98E00E942D2F8AEC98E00E947C
:101D30002D2F1F9285E18F931F9284E18F9386ED63
:101D400098E09F938F9388EC9DE09F938F930E94E0
:101D50004F6388EC9DE00E942D2F81EF9FE00E9451
:101D600015310FB6F894DEBF0FBECDBF8091AE1215
:101D70009091AF122A960FB6F894DEBF0FBECDBF7A
:101D8000DF91CF91089590E0FC01E054FC4F249145
:101D9000FC01E658FC4F8491882399F090E0880F6D
:101DA000991FFC01E05AFC4FA591B491FC01EA5B3C
:101DB000FC4F859194918FB7F894EC91E22BEC93C2
:101DC0008FBF08953F924F925F926F927F928F9252
:101DD0009F92AF92BF92CF92DF92EF92FF920F93BA
:101DE0001F93CF93DF9300D01F92CDB7DEB7209122
:101DF0000002223421F02F3F09F01CC304C0E5E4A7
:101E0000F3E03490EDC022E420930002E5E4F3E037
:101E1000E491EF3F09F40EC3E23009F474C054F5C5
:101E2000EE2309F453C0E13009F0D9C010928000CC
:101E300010928100209181002860209381002091E0
:101E40008100216020938100ECEBF3E0E491F0E06D
:101E5000EE0FFF1FEA5BFC4F259134913093B00DDC
:101E60002093AF0DE2E0F4E0E491E093AE0D332473
:101E70003394B8C0E43009F48EC00CF468C0E53087
:101E800009F0ADC010922001109221012091210192
:101E900028602093210120912101216020932101BC
:101EA000ECEBF3E0E491F0E0EE0FFF1FEA5BFC4F98
:101EB000259134913093A70D2093A60DE2E0F4E034
:101EC000E491E093A50DB5E03B2E8CC014BC15BC8D
:101ED00024B5226024BD25B5216025BDECEBF3E0DF
:101EE000E491F0E0EE0FFF1FEA5BFC4F2591349187
:101EF0003093B30D2093B20DE2E0F4E0E491E0936F
:101F0000B10D312C6FC01092B0001092B100209131
:101F1000B00022602093B0002091B1002160209396
:101F2000B100ECEBF3E0E491F0E0EE0FFF1FEA5BB1
:101F3000FC4F259134913093330D2093320DE2E024
:101F4000F4E0E491E093310DB2E03B2E4BC01092EF
:101F500090001092910020919100286020939100B0
:101F600020919100216020939100ECEBF3E0E4914B
:101F7000F0E0EE0FFF1FEA5BFC4F259134913093A8
:101F8000AD0D2093AC0DE2E0F4E0E491E093AB0DF5
:101F900033E0332E27C01092A0001092A1002091B0
:101FA000A10028602093A1002091A100216020932E
:101FB000A100ECEBF3E0E491F0E0EE0FFF1FEA5B31
:101FC000FC4F259134913093AA0D2093A90DE2E0A6
:101FD000F4E0E491E093A80D04E0302E03C03E2E1F
:101FE00037FC28C22A013B018C0182E4CCDE480187
:101FF000A12CB12C832D8D7F09F0BBC060E072E174
:102000008AE790E0A50194010E94085F29833A8342
:102010004B835C8369017A0121E0C21AD108E1088F
:10202000F1088FEFC816D104E104F10409F008F4B7
:102030004CC060E472E48FE090E0A50194010E943E
:10204000085F69017A0191E0C91AD108E108F10835
:10205000E2E03E1220C0FFEFCF16D104E104F1040C
:1020600009F008F4E5C160E970ED83E090E0A501B6
:1020700094010E94085F69017A0181E0C81AD108C1
:10208000E108F1089FEFC916D104E104F10409F059
:10209000D0F583E067C0EFEFCE16D104E104F10480
:1020A000B1F0A8F068E478EE81E090E0A501940139
:1020B0000E94085F69017A01F1E0CF1AD108E108B6
:1020C000F108332009F45AC1AAC181E001C082E0BD
:1020D0003320A1F047C089819A81AB81BC812AE07D
:1020E000B595A795979587952A95D1F76C017D01B0
:1020F000F1E0CF1AD108E108F10885E095B5987FA5
:10210000892B85BDA6C068E478EE81E090E0A5014A
:1021100094010E94085F69017A0181E0C81AD10820
:10212000E108F1089FEFC916D104E104F10409F0B8
:1021300008F422C164E274EF80E090E0A50194010C
:102140000E94085F69017A0181E0C81AD108E1089C
:10215000F1089FEFC916D104E104F10411F008F071
:102160002FC185E09091B100987F892B8093B100B9
:1021700070C060E072E18AE790E0A50194010E94DE
:10218000085F69017A01F1E0CF1AD108E108F1088E
:10219000C114D10421E0E206F10488F068E478EE8D
:1021A00081E090E0A50194010E94085F69017A0135
:1021B00081E0C81AD108E108F10883E001C081E09C
:1021C00091E0391210C090918100987F892B809303
:1021D0008100411451046104710409F03FC02FEFE4
:1021E0003FEFA90171C0E3E03E120FC09091910052
:1021F000987F892B809391004114510461047104EC
:1022000069F52FEF3FEFA90181C0F4E03F120FC045
:102210009091A100987F892B8093A10041145104D3
:1022200061047104D9F42FEF3FEFA90181C025E0CB
:1022300032120FC090912101987F892B8093210148
:10224000411451046104710449F42FEF3FEFA901D7
:1022500081C0411451046104710471F0D801AA0FC6
:10226000BB1FA30192010E94245F28EE33E040E0EF
:1022700050E00E94E65E03C02FEF3FEFA90182E02D
:102280003816A1F1831534F0332079F091E0391636
:10229000D9F0D0C0E4E03E1609F44AC03E16B4F1CD
:1022A000F5E03F1609F456C0C5C0C7BC2093C40D65
:1022B0003093C50D4093C60D5093C70D80916E00AD
:1022C000826080936E00B6C0D0928900C092880070
:1022D0002093C00D3093C10D4093C20D5093C30D98
:1022E00080916F00826080936F00A4C0C092B300A1
:1022F0002093340D3093350D4093360D5093370DA8
:102300008091700082608093700094C0D092990098
:10231000C09298002093BC0D3093BD0D4093BE0D2C
:102320005093BF0D8091710082608093710082C0D4
:10233000D092A900C092A8002093B80D3093B90D97
:102340004093BA0D5093BB0D8091720082608093D0
:10235000720070C0D0922901C09228012093B40D60
:102360003093B50D4093B60D5093B70D8091730027
:102370008260809373005EC084E0F4CE2FEFC216BB
:10238000D104E104F104D1F0C8F062E17AE780E021
:1023900090E0A50194010E94085F69017A01E1E0E3
:1023A000CE1AD108E108F108FFEFCF16D104E104FD
:1023B000F10411F008F08FCE84E0A0CE83E09ECE31
:1023C00062E17AE780E090E0A50194010E94085F55
:1023D00069017A0181E0C81AD108E108F1089FEF8C
:1023E000C916D104E104F104C1F0B8F089819A81E1
:1023F000AB81BC814AE0B595A795979587954A959D
:10240000D1F76C017D01E1E0CE1AD108E108F108B5
:10241000332009F472CE87E0A5CE86E059CEEFEFE7
:10242000CE16D104E104F10409F050F684E050CE58
:1024300082E098CE0F900F900F900F90DF91CF9188
:102440001F910F91FF90EF90DF90CF90BF90AF90D2
:102450009F908F907F906F905F904F903F900895E6
:10246000FC01A489B58981E090E09C0100A002C034
:10247000220F331F0A94E2F72C93A089B1891C9292
:10248000A289B3892FEC2C9311A2A689B7894C910C
:102490009C01048C02C0220F331F0A94E2F7242B04
:1024A0002C93A689B7894C919C01058C02C0220F00
:1024B000331F0A94E2F7242B2C93A689B7894C91F9
:1024C0009C01068C02C0220F331F0A94E2F7242BD2
:1024D0002C93A689B7892C91078C02C0880F991F6D
:1024E0000A94E2F7809582238C9308950F931F93AB
:1024F000CF93DF93CDB7DEB7EA970FB6F894DEBF80
:102500000FBECDBF0091AE121091AF120230110577
:10251000D1F00330110509F464C00130110509F050
:10252000E7C01092B3121092B21222E030E0309362
:10253000AF122093AE12882319F085EE98E092C076
:1025400089E099E08FC02091B2123091B3122F5FD1
:102550003F4F3093B3122093B212882339F089E7AA
:1025600092E10E94F41F8823B1F013C065E370E08C
:1025700089E792E10E94AE1F282F30E094E0359564
:1025800027959A95E1F72370223028F083708230E6
:1025900010F003E010E01093AF120093AE1203307E
:1025A000110509F0ABC084E299E00E942D2F109232
:1025B000AD1285E399E00E942D2F8091BC1290917D
:1025C000BD12A091BE12B091BF128093A112909340
:1025D000A212A093A312B093A41281E08093AD1233
:1025E0008DC0882309F484C00091B0121091B112FB
:1025F00001301105D1F10230110509F479C001153E
:10260000110509F072C080E29EE49093B3128093AA
:10261000B21281E090E09093B1128093B012BE01AB
:102620006B5D7F4F89E792E10E94122086E1FE01F7
:10263000B596DE01119601900D928A95E1F786E13B
:10264000FE013196A3E8B2E101900D928A95E1F77F
:1026500091D980E699E00E942D2FCE01859669D808
:1026600086E799E00E942D2F49C08091B212909187
:10267000B3129C01215031093093B3122093B2124E
:10268000181619062CF5BE016F5F7F4F89E792E19E
:102690004ED76D897E898F89988D0E9410607093C6
:1026A000B5126093B412698D7A8D8B8D9C8D0E94CA
:1026B00010606093B6126D8D7E8D8F8D98A10E94F3
:1026C00010606093B7121093B1120093B01206C05D
:1026D00082E090E09093B1128093B0128091B0129A
:1026E0009091B112019721F409C00130110531F028
:1026F00060E070E08DED91E10E948C0780E090E059
:10270000EA960FB6F894DEBF0FBECDBFDF91CF9132
:102710001F910F91089565E370E089E792E10E94AF
:10272000AE1F282F30E0982F92959695969593702E
:102730009093B812A90194E0559547959A95E1F7C1
:1027400043704093B9123595279535952795237099
:102750002093BA1283708093BB1208950F931F9336
:102760000E94F13B6093910F7093920F8093930FAF
:102770009093940FE091890FF0918A0F0680F78172
:10278000E02D89E89FE0199597FF1FC00E94F13B5B
:102790000091910F1091920F2091930F3091940F0F
:1027A000DC01CB01801B910BA20BB30B00918D0FB1
:1027B00010918E0F20918F0F3091900F80179107FD
:1027C000A207B307B8F28FEF9FEF1F910F91089503
:1027D000CF93DF93FC01448155816081718181EF4A
:1027E0009FE078D6EC0162E979E081EF9FE00E94FA
:1027F000301E8C0F9D1FDF91CF910895FC01EA5789
:10280000FE4F0190F081E02D808D918D26893789D2
:10281000821B930B0895FC01EA57FE4F0190F08153
:10282000E02DE656FF4F62A973A984A995A90895E2
:10283000FC0120A9213019F0223029F008C081E0E4
:10284000653461F40CC081E06D3441F408C0633438
:1028500029F42AE0FC01228381E0089580E00895B4
:1028600021E0FC018281873009F020E0822F089569
:102870008CE394E00895FC01EA57FE4F808191813A
:1028800086569F4F0C94FE0ACF92DF92EF92FF92F2
:102890006A017B01FC01EA57FE4F0190F081E02DB7
:1028A000E656FF4F22A933A944A955A9C701B6018D
:1028B0000E94445FFF90EF90DF90CF900C94C30A8A
:1028C000CF92DF92EF92FF926A017B01FC01EA57FF
:1028D000FE4F0190F081E02DE656FF4F22A933A96B
:1028E00044A955A9C701B6010E94435FFF90EF902C
:1028F000DF90CF900C94C30ACF92DF92EF92FF92B9
:10290000CF93DF93EC016A017B0120E030E0A90165
:10291000C701B6010E94A85D87FF0AC020E030E031
:1029200044EB53E4C701B6010E94445F6B017C0194
:1029300020E030E044EB53E4C701B6010E94486058
:10294000688379838A839B83DF91CF91FF90EF9097
:10295000DF90CF9008952091180E3091190E2130FC
:10296000310559F4811103C083E090E002C082E098
:1029700090E09093190E8093180E8091180E90910C
:10298000190E0895CF93FC01DB0182A98E7F82ABE3
:1029900081E04C3209F080E090A9911106C08111CC
:1029A00017C050E04053510910C0811113C050E0CE
:1029B000405351096D917C911197CAE0C69FC001A7
:1029C000C79F900D1124480F591F4D935C9302C06F
:1029D00080E008C080A9882321F081E0F90180838C
:1029E00001C081E0CF9108950F931F93CF93DF93A0
:1029F000EC018B0198A9911116C04D34E1F04435DA
:102A0000A1F4CB010E94C204AB01BC01E881F981B1
:102A10000684F785E02DCE011995AB01BC01C801F4
:102A20000E94030408C0923020F0CE010E943D3B7A
:102A300002C04C32D1F781E0DF91CF911F910F910D
:102A40000895CF92DF92FF920F931F93CF93DF935E
:102A5000EC018B0169010E940725F82E8823A9F05B
:102A6000F801408151814C545F4F4836514038F055
:102A7000F80111821082CE010E943D3B06C088A958
:102A8000882319F081E0F60180838F2DDF91CF91AB
:102A90001F910F91FF90DF90CF900895FF920F93B9
:102AA0001F93CF93DF93EC018B010E940725F82E33
:102AB000882379F08AA980FD06C0F8018081918180
:102AC0008836914034F0F80111821082CE010E94C4
:102AD0003D3B8F2DDF91CF911F910F91FF90089576
:102AE000CF93DF93EC01462F8FA58430C9F060F4BB
:102AF000823079F0833009F04BC09E0122583F4F5D
:102B0000BE016B587F4F12C08530A1F08630D9F0DE
:102B10003FC09E0123583F4FBE016F587F4F06C0F4
:102B20009E0121583F4FBE0167587F4FCE010E9442
:102B300096252EC09E0120583F4FBE016E577F4FF5
:102B4000CE0120DF25C088A9811117C06D3439F06E
:102B50006D3659F06134A9F482E090E008C0FE01BE
:102B6000EC57FF4F118210820FC081E090E0FE0110
:102B7000EC57FF4F9183808307C0823010F46C3292
:102B800019F0CE010E943D3BC059DF4F81E08883A0
:102B900081E0DF91CF9108950F931F93CF93DF933F
:102BA000DC019F96EC919F970E2F10E0F801339770
:102BB000EC30F10508F095C0462FEC018827E4576A
:102BC000FF4F8F4F0C94EE609D0129553F4FBD0183
:102BD00061557F4FCD010E94962583C088A9811140
:102BE00039C0623511F06C3459F4CD54DF4F26C032
:102BF00088A981112FC06B3439F06E3409F471C08B
:102C0000CE010E943D3B6DC0C155DF4FCE010E94F9
:102C1000C20421E73DE34AE05FE30E940D5EAB01A1
:102C2000BC01CE010E9403045CC088A9811112C0BE
:102C3000613411F0663521F7CC54DF4F488351C021
:102C400088A9811107C0613411F06635C9F6CB54EB
:102C5000DF4FF4CF8230A0F64C3291F642C0BD0176
:102C60006A547F4F2BC0BD016A547F4F21C0CD01F4
:102C700086549F4F28A921110AC03AA932603AAB65
:102C80006C3239F0FC01E20FF11D40832AC06C3236
:102C900029F4FC01E20FF11D108223C0243090F3CF
:102CA00020C0BD0161547F4F09C0BD0161547F4FF9
:102CB000CE019ADE16C0BD016D537F4FCE01EEDE10
:102CC00010C0BD016D537F4FCD018EDEFE01EA5570
:102CD000FF4F81E08083CE51DF4F86E190E0998302
:102CE000888381E0DF91CF911F910F9108950F9319
:102CF0001F93CF93DF93DC019F96EC919F970E2F4C
:102D000010E0F8013297E830F10508F0B1C0462F25
:102D1000EC018827E856FF4F8F4F0C94EE60BD0101
:102D20006F567F4FCD010E943D39882309F4A0C022
:102D300088A9882309F49CC0C957DF4F97C09D011B
:102D400028573F4FBD016D567F4FCD011BDE90C010
:102D500081E06C3209F080E098A9911116C08111D0
:102D600087C091E04D3209F090E08AA990FB80F98C
:102D70008AABFE01EB56FF4F992321F082608AABAC
:102D8000108276C04053408373C081110BC0FE0196
:102D9000EB56FF4F40538081BAE08B9F400D1124CA
:102DA000408362C08AA980FF5FC0FE01EB56FF4FDF
:102DB00080818195808358C088A981111CC06035AD
:102DC00081F0633531F06C32D1F4C657DF4F188291
:102DD0004FC0FD01EA56FF4F11821082C657DF4FE8
:102DE00045C0FD01EA56FF4F81E090E0918380836A
:102DF000C657DF4F3CC0823010F46C32C9F1CE01AF
:102E00000E943D3B35C0BD0168567F4FCD010E94F9
:102E10008639882369F188A9882351F1C557DF4F86
:102E200025C09D0124573F4FBD0167567F4F06C007
:102E30009D0123573F4FBD0163567F4FCE0101DEF9
:102E400017C0BD016F557F4FCD010E948639882381
:102E500041F088A9882329F081E0FE01E257FF4F65
:102E60008083CA57DF4F02C0C757DF4F81E0888396
:102E700081E0DF91CF911F910F9108950F931F93E0
:102E8000CF93DF93DC0112960C9112970A3008F46D
:102E9000ABC110E0F8013A97EC30F10508F0AAC197
:102EA0008827E056FF4F8F4F0C94EE609F969C91C1
:102EB0009F97913009F09EC1D0968C91D097811147
:102EC0000BC0603331F0613309F096C190936A0E04
:102ED00091C110926A0E8EC1813009F048C0809174
:102EE0006A0E811131C0462F660F550B660B770BAA
:102EF000FA01F097EA30F10508F07EC18827E45521
:102F0000FF4F8F4F0C94EE60AE51BF4F81E090E0C9
:102F10008D939C9372C18BE027C08CE025C08DE01F
:102F200023C08EE021C08FE01FC080E11DC081E181
:102F30001BC082E119C083E112968C931297AE51A7
:102F4000BF4F81E190E03DC0603329F0613309F06B
:102F500053C185E109C084E112968C931297AE515A
:102F6000BF4F82E190E02DC012968C9343C181E067
:102F70006C3209F041C141C19F968C919F9782307C
:102F800009F038C1D0968C91D097811133C16C3241
:102F900009F430C16235C1F044F4693409F02AC142
:102FA000AE51BF4F83E090E00CC0693631F062371C
:102FB00009F020C1AE51BF4F9BC0AE51BF4F82E060
:102FC00090E08D939C9316C1AE51BF4F96C09F96D3
:102FD0008C919F97823009F00DC1D0968C91D0973B
:102FE000811108C16C3209F405C16235C1F044F4A5
:102FF000693409F0FFC0AE51BF4F87E090E0E1CFE8
:10300000693641F0623709F0F5C0AE51BF4F88E034
:1030100090E0D7CFAE51BF4F86E090E0D2CFAE5117
:10302000BF4F89E090E0CDCFFD01EE51FF4F8CE026
:1030300090E005C0FD01EE51FF4F8DE090E09183DF
:103040008083CD01DF91CF911F910F9150CEFD0173
:10305000EE51FF4F8EE090E005C0FD01EE51FF4FB5
:103060008FE090E091838083CD01DF91CF911F911C
:103070000F9136CD462FED01FD01EE51FF4F80E15E
:1030800090E0918380839FA5943009F442C060F45E
:103090009230E9F0933009F0ADC0BD016F597F4F18
:1030A000CD010E943D39A6C09630E9F1B0F19730CC
:1030B00009F0A0C09D01225A3F4FBD0164597F4FC6
:1030C000CD010E949625DE01A85ABF4F8AC088A96B
:1030D000811116C0633539F0643569F06134A9F4A3
:1030E000A15ABF4F05C0A15ABF4F1D921C9282C06A
:1030F00084E090E066CFA15ABF4F85E090E061CFB9
:10310000823018F46C3209F475C0CE010E943D3B48
:1031100071C0BD016D597F4F03C0BD0169597F4F1B
:10312000CE01BCDC67C0BD0165597F4FCD010E9457
:10313000863960C09F968C919F97823009F05AC063
:10314000D0968C91D097811155C06C3209F452C041
:10315000673489F0693449F0613409F04BC0FD01EE
:10316000EE51FF4F85E190E038C0FD01EE51FF4F79
:1031700083E190E032C0FD01EE51FF4F84E190E029
:103180002CC09F968C919F978230A1F5D0968C9100
:10319000D09781112FC06C3269F16734C9F044F4C3
:1031A000633441F5FD01EE51FF4F87E190E015C01A
:1031B000693441F06235F1F4FD01EE51FF4F8AE1CF
:1031C00090E00BC0FD01EE51FF4F88E190E005C09B
:1031D000FD01EE51FF4F89E190E091838083AF5173
:1031E000BF4F81E08C9309C0DF91CF911F910F9168
:1031F0000C94BC3781E001C080E0DF91CF911F913A
:103200000F91089585ED8093BC008091BC0084FDF2
:10321000FCCF1092800D08954091C414262F30E009
:10322000240F311D21323105DCF42091800D243032
:10323000C9F4FC0180E090E0861758F43091C41482
:103240002191DC01AC55BB4EA30FB11D2C9301960F
:10325000F3CF8091C414680F6093C41480E0089584
:1032600081E0089582E008952F923F924F925F92FD
:103270006F927F928F929F92AF92BF92CF92DF9286
:10328000EF92FF920F931F93CF93DF9300D01F9283
:10329000CDB7DEB71C01CB01BA0148015901C98283
:1032A000DA82EB82FC8220E030E048EC52E40E94BB
:1032B0000D5E6B017C0120E030E0A9010E949D6061
:1032C00020E030E040E05FE387FD05C0C701B601C4
:1032D0000E94445F04C0C701B6010E94435F0E9480
:1032E00010600E94AE5D20E030E048EC52E40E94A5
:1032F000A85F6B017C0120E030E048EC52E4C5019E
:10330000B4010E940D5E4B015C0120E030E0A90198
:103310000E949D6020E030E040E05FE387FD05C053
:10332000C501B4010E94445F04C0C501B4010E94FC
:10333000435F0E9410600E94AE5D20E030E048ECE8
:1033400052E40E94A85F2B013C0120E030E048ECF1
:1033500052E469817A818B819C810E940D5E4B01D0
:103360005C0120E030E0A9010E949D6020E030E097
:1033700040E05FE387FD05C0C501B4010E94445FE2
:1033800004C0C501B4010E94435F0E9410600E9406
:10339000AE5D20E030E048EC52E40E94A85F4B01B3
:1033A0005C0120E030E0A901C701B6010E94A85DE0
:1033B00087FD78C020E030E0A901C301B2010E947E
:1033C000A85D87FD6FC020E030E0A901C501B40110
:1033D0000E94A85D87FD66C0F101C082D182E282B1
:1033E000F382448255826682778280869186A286A5
:1033F000B38664A575A586A597A50E94AC5D20E05F
:1034000030E04AE754E40E94A85F69837A838B83A3
:103410009C83F101C486D586E686F7869B01AC01C4
:10342000C301B2010E940D5E2B013C01F101608BD2
:10343000718B828B938B29813A814B815C81C50191
:10344000B4010E94A85F4B015C01F101648B758B94
:10345000868B978B808D918D019721F5A701960121
:1034600060E070E0CB010E94435FF10164877587E3
:1034700086879787A301920160E070E0CB010E94EC
:10348000435FF101608B718B828B938BA50194015B
:1034900060E070E0CB010E94435FF101648B758BAB
:1034A000868B978B0F900F900F900F90DF91CF919D
:1034B0001F910F91FF90EF90DF90CF90BF90AF9052
:1034C0009F908F907F906F905F904F903F902F9044
:1034D00008950895CF92DF92EF92FF920F931F937A
:1034E000CF93DF936C017A018B01C0E0D0E0CE1561
:1034F000DF0589F0D8016D918D01D601ED91FC9128
:103500000190F081E02DC6011995892B11F47E01FF
:1035100002C02196ECCFC701DF91CF911F910F918F
:10352000FF90EF90DF90CF9008950E9407638F92F5
:103530009F92AF92BF92CF92DF92EF92FF920F9342
:103540001F93CF93DF93CDB7DEB762970FB6F89492
:10355000DEBF0FBECDBF6C018B0184E2DB011D928B
:103560008A95E9F784E290E0A0E0B0E0FB01808377
:103570009183A283B383F60184819581A681B7816B
:10358000FB0184839583A683B78383E090E0A0E06A
:10359000B0E080879187A287B3870E94F13BD80172
:1035A00050966D937D938D939C935397FE01319626
:1035B0008CE0DF011D928A95E9F77E01BDE0EB0EFC
:1035C000F11C86E0F70111928A95E9F7D60113966E
:1035D0008C9191E09093810D8093A30D1092820DB8
:1035E0001092A40D6AE185E190E10E94FD3181E035
:1035F0000E94190C66E0F60183810E94760C1092FD
:10360000390D8093380D36E0D32EDE0C85E190E144
:103610000E94B131D7018D937D01DA12F7CF6E850B
:1036200070E0762F66278D85682B072E000C880B9F
:10363000990B0E94AE5D20E030E040E85DE30E941F
:103640000D5E4B015C01688970E0762F66278F85DF
:10365000682B072E000C880B990B0E94AE5D20E0B2
:1036600030E040E85DE30E940D5E6B017C018A89D9
:1036700090E0982F88272989822BBC01990F880B0D
:10368000990B0E94AE5D20E030E040E85DE30E94CF
:103690000D5EF801848A958AA68AB78AC08ED18E7B
:1036A000E28EF38E648F758F868F978F81E062969E
:1036B0000FB6F894DEBF0FBECDBFDF91CF911F9143
:1036C0000F91FF90EF90DF90CF90BF90AF909F90C1
:1036D0008F9008950F931F93CF93DF938C01EB018D
:1036E00088E2FB0111928A95E9F74BE050E060E730
:1036F0007AE0CE010E9440631B8681E090E0A0E06A
:10370000B0E08C879D87AE87BF87F8018481958163
:10371000A681B781888B998BAA8BBB8B83E090E0C5
:10372000A0E0B0E08C8B9D8BAE8BBF8B1CA21DA24A
:103730001EA21FA2188E198E1A8E1B8E1C8E1D8E15
:103740001E8E1F8E8AE097EDA3E2BCE388A399A3A7
:10375000AAA3BBA3DF91CF911F910F910895CF939F
:10376000DF93FC01248135814217530778F4C0812F
:10377000D181062E000C770BCE01840F951F0E947D
:103780002563009719F08C1B9D0B02C08FEF9FEFF4
:10379000DF91CF910895FC01248135816217730771
:1037A00048F480819181009729F0FC01E60FF71F12
:1037B0008081089580E00895FC0124813581232BC8
:1037C00031F421E061157105A1F0FB0108C0FC0195
:1037D000808191816115710531F421E0FC018081C6
:1037E000882339F005C00E94306321E0892B09F05D
:1037F00020E0822F08950F931F93CF93DF938C01C6
:10380000EB01FC01808191810097B1F068817981A1
:103810006115710579F0428153812C813D814217F8
:10382000530740F00E9439638C819D81F801958394
:10383000848313C00E948B6188819981F8019183F0
:1038400080838A819B81938382838C819D819583F0
:103850008483198218821B821A821D821C82DF9146
:10386000CF911F910F9108950F931F93CF93DF93E3
:10387000EC0188819981009729F02A813B812617E4
:10388000370788F48B016F5F7F4F0E942362009798
:1038900061F0998388831B830A832C813D81232BCC
:1038A00011F4FC01108281E001C080E0DF91CF9132
:1038B0001F910F910895EF92FF920F931F93CF9353
:1038C000DF93FC01248135816115710511F480E0DD
:1038D00018C041155105A1F07B01EC018A01020FCE
:1038E000131FB801C1DF882391F3288139818C81AE
:1038F0009D81B701820F931F0E9439631D830C8342
:1039000081E0DF91CF911F910F91FF90EF9008958B
:10391000EF92FF920F931F93CF93DF93CDB7DEB754
:1039200028970FB6F894DEBF0FBECDBF7C01CB0148
:103930004AE08E010F5F1F4FB8010E947A59F801CB
:1039400001900020E9F73197AF01401B510BB801FE
:10395000C701B1DF28960FB6F894DEBF0FBECDBF0A
:10396000DF91CF911F910F91FF90EF900895CF932A
:10397000DF931F921F92CDB7DEB769831A8241E0B1
:1039800050E0BE016F5F7F4F96DF0F900F90DF9189
:10399000CF910895CF93DF93EC01888199810097AF
:1039A00011F00E948B61198218821D821C821B8279
:1039B0001A82DF91CF910895EF92FF920F931F9398
:1039C000CF93DF93EC017B018A01BA014DDF8111B6
:1039D00003C0CE01DFDF07C01D830C83B7018881E0
:1039E00099810E943963CE01DF91CF911F910F9190
:1039F000FF90EF900895CF93DF93EC01611571056F
:103A000051F0FB0101900020E9F73197AF01461B0F
:103A1000570BD2DF01C0BEDFCE01DF91CF910895F9
:103A2000FC01808191810C948B61FB01DC0111967A
:103A30001C921E9213961C921E92129715961C921F
:103A40001E9214978617970741F060817181611566
:103A5000710519F044815581AFCF0895FC011182A1
:103A6000108213821282158214826115710549F049
:103A7000FB0101900020E9F73197AF01461B570B7E
:103A80009BCF0895BF92CF92DF92EF92FF920F9358
:103A90001F93CF93DF937C016B018A01E901241707
:103AA000350720F4812F8901C42FD82F64E979E0EC
:103AB000C701D4DFD60114968D919C9115970817F4
:103AC0001907C8F48C179D0708F4EC01D601ED9195
:103AD000FC911197EC0FFD1FB08010824D915C910D
:103AE000BA01600F711FC70186DFD601ED91FC910D
:103AF000EC0FFD1FB082C701DF91CF911F910F9195
:103B0000FF90EF90DF90CF90BF90089590910002CA
:103B100098133DC0E5E4F3E0E4919FEF9093000239
:103B2000E230C9F050F4EE2399F0E13081F5909144
:103B30006F009D7F90936F002AC0E43019F1E0F090
:103B4000E53029F5909173009D7F909373001FC01D
:103B500010926E001CC0909170009D7F9093700039
:103B600091E09093B0009091B100987F9460909311
:103B7000B1001092B3000BC0909171009D7F9093A3
:103B8000710005C0909172009D7F9093720060E07B
:103B90000C9400261F920F920FB60F9211240BB6B1
:103BA0000F922F933F934F935F936F937F938F93D6
:103BB0009F93AF93BF93EF93FF938091340D9091B8
:103BC000350DA091360DB091370D892B8A2B8B2B9B
:103BD00051F18091310DE091320DF091330D9081D2
:103BE000892780838091340D9091350DA091360DF9
:103BF000B091370D181619061A061B06BCF48091F1
:103C0000340D9091350DA091360DB091370D01977F
:103C1000A109B1098093340D9093350DA093360D11
:103C2000B093370D03C08091000270DFFF91EF91D8
:103C3000BF91AF919F918F917F916F915F914F91C4
:103C40003F912F910F900BBE0F900FBE0F901F90C2
:103C50001895DC01ED91FC910190F081E02D199413
:103C60006115710579F0FB0101900020E9F73197AA
:103C7000AF01461B570BDC01ED91FC910280F381F3
:103C8000E02D199480E090E008954F925F926F923A
:103C90007F92EF92FF920F931F93CF93DF93CDB755
:103CA000DEB7A1970FB6F894DEBF0FBECDBF7C0183
:103CB000FA01CB0119A2223008F42AE08E010F5D2F
:103CC0001F4F422E512C612C712CBF01A301920178
:103CD0000E94E65EF901CA01015011096A3014F42C
:103CE000605D01C0695CD8016C93232B242B252BCC
:103CF00061F7B801C701B4DFA1960FB6F894DEBF33
:103D00000FBECDBFDF91CF911F910F91FF90EF902C
:103D10007F906F905F904F9008958F929F92AF9297
:103D2000BF92CF92DF92EF92FF920F931F93CF93A8
:103D3000DF937C018B016C0182E0C80ED11C47012E
:103D4000E5E08E0E911CC0E0D0E0F60141916F01DC
:103D500050E060E070E02AE0C80197DF5C016EE2AD
:103D6000C80177DF8A0D9B1DC80FD91FC814D9045D
:103D700061F7F701458150E060E070E02AE0C8019A
:103D800084DF8C0F9D1FDF91CF911F910F91FF90CA
:103D9000EF90DF90CF90BF90AF909F908F9008955D
:103DA0004F925F926F927F928F929F92AF92BF924B
:103DB000CF92DF92EF92FF92CF93DF93EC016A01F3
:103DC0007B01B22E9A01AB01C701B6010E94E360EC
:103DD000882319F067E77AE027C026013701E894C5
:103DE00077F82FEF3FEF4FE75FE7C301B2010E9483
:103DF000E36081110DC02FEF3FEF4FE75FE7C30195
:103E0000B2010E94A85D18161CF46BE77AE00CC0A2
:103E10002FEF3FEF4FE75FE4C701B6010E949D60BF
:103E2000181694F46FE77AE0CE01DF91CF91FF90FE
:103E3000EF90DF90CF90BF90AF909F908F907F904A
:103E40006F905F904F900CCF2FEF3FEF4FE75FECFD
:103E5000C701B6010E94A85D87FDE4CF20E030E0F5
:103E6000A901C701B6010E94A85D87FF09C06DE2E4
:103E7000CE01EFDE4C01F7FAF094F7F8F09402C0AF
:103E8000812C912CA12C60E070E080E09FE3AB14CA
:103E900040F420E030E040E251E40E94A85FA394A7
:103EA000F6CF9B01AC01C701B6010E94445F2B0114
:103EB0003C010E9415606B017C010E94AC5D9B017E
:103EC000AC01C301B2010E94435F2B013C012AE017
:103ED000B701A601CE01D9DE7C01E80CF91CBB209C
:103EE00029F06EE2CE01B5DEE80EF91EDB2CDD20F6
:103EF00021F120E030E040E251E4C301B2010E9430
:103F00000D5E2B013C010E9415604B01A12CB12CD0
:103F10002AE0B501A401CE01B8DEE80EF91EC50104
:103F2000B4010E94AC5D9B01AC01C301B2010E94CF
:103F3000435F2B013C01DA94DACFC701DF91CF91C7
:103F4000FF90EF90DF90CF90BF90AF909F908F90B9
:103F50007F906F905F904F90089582CECF93DF93C4
:103F6000EC018B8191E09093810D8093A30D1092D1
:103F7000820D1092A40D85E190E10E94FD3181E057
:103F80000E94190C61E08B810E94760C1092390D11
:103F90008093380D85E190E10E94B131DF91CF919E
:103FA0000895CF93DF931F92CDB7DEB7FC018381D5
:103FB00091E09093810D8093A30D1092820D109249
:103FC000A40D85E190E149830E94FD314981642F70
:103FD00085E190E10E94FD3181E00E94190C81E0B1
:103FE0000F90DF91CF91089565E370E0B7DF803CDB
:103FF000B8F0282F30E0A90164E0559547956A95FF
:10400000E1F74370433061F4359527953595279551
:104010002370233029F4982F937081E0933009F0B6
:1040200080E00895CF92DF92EF92FF920F931F935B
:10403000CF93DF93EC018B01D7DFE82E882309F4BF
:10404000CCC0C884D98460E070E0CE010E94D13831
:1040500069E170E080E090E00E94B93B66E570E0C5
:10406000CE017CDFF82E65E570E0CE0177DF2F2DE5
:1040700030E0322F2227282BF8013183208368E596
:1040800070E0CE016BDFF82E67E570E0CE0166DFF1
:104090002F2D30E0322F2227282BF8013383228363
:1040A0006AE570E0CE015ADFF82E69E570E0CE01D6
:1040B00055DF2F2D30E0322F2227282BF8013583B2
:1040C000248362E670E0CE0149DFF82E61E670E0FD
:1040D000CE0144DF2F2D30E0322F2227282BF8018C
:1040E0003783268364E670E0CE0138DFF82E63E67E
:1040F00070E0CE0133DF2F2D30E0322F2227282B26
:10410000F8013187208766E670E0CE0127DFF82EC0
:1041100065E670E0CE0122DF2F2D30E0322F22271E
:10412000282BF801338722876CE570E0CE0116DF7B
:10413000F82E6BE570E0CE0111DF2F2D30E0322F2D
:104140002227282BF801358724876EE570E0CE0101
:1041500005DFF82E6DE570E0CE0100DF2F2D30E099
:10416000322F2227282BF8013787268760E670E058
:10417000CE01F4DEF82E6FE570E0CE01EFDE2F2DDC
:1041800030E0322F2227282BF801318B208B68E674
:1041900070E0CE01E3DEF82E67E670E0CE01DEDEF1
:1041A0002F2D30E0322F2227282BF801338B228B42
:1041B0006AE670E0CE01D2DEF82E69E670E0CE014C
:1041C000CDDE2F2D30E0322F2227282BF801358B22
:1041D000248BB601CE010E94D1388E2DDF91CF9174
:1041E0001F910F91FF90EF90DF90CF900895462F91
:1041F00050E060E070E02AE048CDCF92DF92EF928D
:10420000FF920F931F93CF93DF936B01770FEE080D
:10421000FF08F7FE19C0EC016DE21BDD8C0144279D
:104220005527BA014C195D096E097F092AE0CE01B4
:104230002CDD800F911FDF91CF911F910F91FF9087
:10424000EF90DF90CF9008952AE0B701A601DF91AB
:10425000CF911F910F91FF90EF90DF90CF9015CDF0
:104260000F931F93CF93DF93EC01892B09F44AC07E
:104270008881882309F446C0843209F4219664E2D7
:1042800081EF9FE0E6DC8E01C0E0D0E0F8016191B3
:104290008F01662359F06A3211F0DD2311F0DF5FE0
:1042A00001C0C62781EF9FE0D4DCF0CFD1112AC036
:1042B0006AE281EF9FE0CDDC6C2F70E084E07595C1
:1042C00067958A95E1F76A30710514F0695C01C061
:1042D000605D81EF9FE0BDDCCF70CA3010F067E316
:1042E00001C060E36C0F81EF9FE0B3DC6DE081EF14
:1042F0009FE0AFDC6AE081EF9FE0DF91CF911F91FB
:104300000F91A7CCDF91CF911F910F910895FC01E0
:1043100084819581892B31F0158214820190F0817E
:10432000E02D108208952F923F924F925F926F92EC
:104330007F928F929F92AF92BF92CF92DF92EF9235
:10434000FF920F931F93CF93DF93CDB7DEB72A97DA
:104350000FB6F894DEBF0FBECDBF7C01FC01EC5759
:10436000FE4F82819381FC01ED52FF4F208131810C
:10437000F701EB5AFE4F2130310511F423E418C048
:10438000DC01AF52BF4F2D913C912230310569F0D5
:1043900024F437FD0EC02DE20BC02330310539F077
:1043A0002430310531F42EE403C02FE401C022E5AE
:1043B00021878C0106561F4F9C0125523F4FD90182
:1043C0002C912701B1EA4B1ABEEF5B0AD2012C9364
:1043D0009C0124523F4FD9012C911701B0EA2B1AAE
:1043E000BEEF3B0AD1012C939C0123523F4FD901D0
:1043F0002C91A7014F595E4FDA012C939C01225258
:104400003F4FD9012C91B7016E597E4F78876F834A
:10441000DB012C93D801D9962D913C91DA976F5FEF
:104420007F4F4B01D701AB59BE4F5D016D5F7F4F91
:104430006B0121303105A1F4D801DD962D913C911D
:10444000DE97D4012D933C93D801DF962C91D501B2
:104450002C93DC01A652BF4F8C91DB018C9307C0DB
:10446000D4011D921C92D5011C92DB011C9281E0AB
:104470008083870108581E4F63E87AE0F801808145
:10448000918149875A8769DD3701F2EA6F1AFEEF99
:104490007F0AD3016C91F80180819181DADB6CE2B3
:1044A000D8018D919C91D5DBF2016081D8018D916D
:1044B0009C919DDE6CE2F80180819181CADBD10183
:1044C0006C91F8018081918192DE6CE2D8018D912E
:1044D0009C91BFDB49855A85FA016081D8018D9195
:1044E0009C9185DE6CE2F80180819181B2DBAF8125
:1044F000B8856C91F8018081918179DE6CE2D801F8
:104500008D919C91A6DBF3012081D8018D919C9126
:10451000233409F5F4014081518160E070E02AE024
:10452000B4DB6CE2D8018D919C9193DBF501608145
:10453000062E000C770BD8018D919C915EDE6CE20B
:10454000F8018081918185DBD6016C91F801808131
:1045500091814DDE03C06DE67AE0FFDCFEE8EF1AE4
:10456000FEEFFF0AB701CE0101965FDA8D819E81D1
:10457000892B19F089819A8102C080E090E070DE79
:10458000CE0101964DDAC701C2DE2A960FB6F89425
:10459000DEBF0FBECDBFDF91CF911F910F91FF9076
:1045A000EF90DF90CF90BF90AF909F908F907F90D3
:1045B0006F905F904F903F902F900895EF92FF92F1
:1045C0000F931F93CF93DF9300D000D0CDB7DEB70A
:1045D0007C018C0108581E4F6DE87AE0F80180815B
:1045E0009181BBDCF701E351FF4F808191818430E1
:1045F000910544F48130910584F4892BA1F46BE991
:104600007AE00DC08430910529F0059761F469E9DD
:104610007AE005C067E97AE002C06DE97AE0F80166
:10462000808191819ADC6CE2F8018081918111DBBB
:10463000F701E151FF4F60817181F8018081918123
:10464000DCDD6CE2F8018081918103DBC7018F50D2
:104650009F4F0E94C204AB01BC0122E030E0F80190
:10466000808191819DDB6CE2F80180819181F1DA9A
:10467000C7018B509F4F0E94C204AB01BC0122E0D6
:1046800030E0F801808191818BDB6CE2F801808160
:104690009181DFDAF701E750FF4F6081F8018081F7
:1046A0009181A5DD6CE2F80180819181D2DAC701A8
:1046B00086509F4F0E94C204AB01BC0122E030E053
:1046C000F801808191816CDBFEE8EF1AFEEFFF0AB2
:1046D000B701CE010196A9D98D819E81892B19F050
:1046E00089819A8102C080E090E0BADDCE01019616
:1046F00097D9C7010CDE26960FB6F894DEBF0FBE21
:10470000CDBFDF91CF911F910F91FF90EF90089552
:10471000EF92FF920F931F93CF93DF9300D000D0BF
:10472000CDB7DEB77C018C0102501F4FFC01EC5766
:10473000FE4FB801828193810E943E0481E0F8011E
:10474000808306581F4F6FE97AE0F80180819181DC
:1047500004DC65E0F8018081918149DD6EE67AE054
:10476000F80180819181F9DBC70181509F4F0E9440
:10477000C204AB01BC0122E030E0F80180819181EC
:104780000FDB6CE2F8018081918163DAC7018D5FF4
:104790009E4F0E94C204AB01BC0122E030E0F80150
:1047A00080819181FDDA6CE2F8018081918151DA9A
:1047B000C701895F9E4F0E94C204AB01BC0122E089
:1047C00030E0F80180819181EBDA6CE2F8018081C0
:1047D00091813FDAF701E05FFE4F4081518160E057
:1047E00070E02AE0F801808191814FDA6CE2F801F3
:1047F000808191812EDAF701EE5EFE4F80819181FA
:104800008130910541F08230910541F0892B61F4AE
:1048100067E47AE005C067EA7AE002C067E97AE017
:10482000F8018081918199DBFEE8EF1AFEEFFF0A23
:10483000B701CE010196F9D88D819E81892B19F09F
:1048400089819A8102C080E090E00ADDCE01019664
:10485000E7D8C7015CDD26960FB6F894DEBF0FBE21
:10486000CDBFDF91CF911F910F91FF90EF900895F1
:10487000EF92FF920F931F93CF93DF9300D000D05E
:10488000CDB7DEB77C018C010C5E1E4FFC01EC57EE
:10489000FE4FB801828193810E94780481E0F80183
:1048A00080830C591F4F6FE97AE0F8018081918174
:1048B00054DB63E0F8018081918199DC6EE67AE057
:1048C000F8018081918149DBF701E15EFE4F608153
:1048D0007181F8018081918190DC6CE2F801808126
:1048E0009181B7D9F701EF5DFE4F4081518160E0C2
:1048F00070E02AE0F80180819181C7D96CE2F8016B
:1049000080819181A6D9F701ED5DFE4F6081062E71
:10491000000C770BF801808191816FDC6CE2F8016B
:104920008081918196D9F701EC5DFE4F8081918164
:10493000009729F0019749F469EA7AE002C06BE92F
:104940007AE0F8018081918108DB6CE2F8018081D6
:1049500091817FD9F701EA5DFE4F6081F801808186
:10496000918145DC6CE2F8018081918172D9C701A7
:10497000895D9E4F0E94C204AB01BC0122E030E081
:10498000F801808191810CDA6CE2F80180819181DB
:1049900060D9C701855D9E4F0E94C204AB01BC0176
:1049A00022E030E0F80180819181FAD96CE2F801CF
:1049B000808191814ED9F701E15DFE4F6081F80160
:1049C0008081918114DCFEE8EF1AFEEFFF0AB70147
:1049D000CE0101962AD88D819E81892B19F089817B
:1049E0009A8102C080E090E03BDCCE01019618D8AD
:1049F000C7018DDC26960FB6F894DEBF0FBECDBF83
:104A0000DF91CF911F910F91FF90EF900895FC01DE
:104A1000DB0180A9882321F04C3209F050C016C078
:104A200011961C921E9213961C921E92129782A9A6
:104A3000826082AB11AA81E04D3209F080E092A938
:104A400080FB90F992AB882339F36EC081A9811164
:104A500002C081E081AB12968D919C911397892BB6
:104A6000B9F482A980FF29C012968D919C91139769
:104A700091958195910913969C938E9312978D91A0
:104A80009C9111979195819591098D939C9315C057
:104A90002AE081A991E0980F91AB833010F712962C
:104AA0004D915C911397249FC001259F900D112477
:104AB00013969C938E931297ECCF81E008954E321B
:104AC00019F481E081AB30C081A9811113C02D910F
:104AD0003C9111975AE0529FC001539F900D1124B1
:104AE000042E000C550B40535109480F591F4D938C
:104AF0005C931AC091E0980F91AB8330A8F41296A2
:104B00002D913C9113975AE0529FC001539F900DF5
:104B10001124042E000C550B40535109480F591F06
:104B200013965C934E93129780E008950F931F9312
:104B3000CF93DF93EC0189016ADF882331F098A9D4
:104B4000992319F091E0F8019083DF91CF911F91A3
:104B50000F91089590E0FC013197E231F10508F0E2
:104B60004EC08827EA54FF4F8F4F0C94EE6080911F
:104B700080008F7703C0809180008F7D80938000BC
:104B8000089580918000877FF9CF84B58F7702C028
:104B900084B58F7D84BD08958091B0008F7703C068
:104BA0008091B0008F7D8093B00008958091900037
:104BB0008F7707C0809190008F7D03C08091900017
:104BC000877F8093900008958091A0008F7707C021
:104BD0008091A0008F7D03C08091A000877F80938B
:104BE000A0000895809120018F7707C08091200157
:104BF0008F7D03C080912001877F809320010895DD
:104C00001F93CF93DF93282F30E0F901EE5BFB4F2A
:104C10008491F901E054FC4FD491F901E658FC4F1E
:104C2000C491CC23C1F0162F811194DFEC2FF0E05A
:104C3000EE0FFF1FEA5BFC4FA591B4918FB7F8947C
:104C4000111105C09C91ED2FE095E92302C0EC9174
:104C5000ED2BEC938FBFDF91CF911F9108951F93A0
:104C6000CF93DF93182FEB010E94C30E209711F40E
:104C700060E004C0CF3FD10531F461E0812FDF91C6
:104C8000CF911F91BDCFE12FF0E0EE5BFB4FE491A0
:104C90004E2F50E0FA013197E231F10508F09DC046
:104CA0008827E853FF4F8F4F0C94EE6084B58068DF
:104CB00084BDC7BD97C084B5806284BDC8BD92C0A5
:104CC00080918000806880938000D0938900C09399
:104CD000880088C080918000806280938000D0939B
:104CE0008B00C0938A007EC0809180008860809392
:104CF0008000D0938D00C0938C0074C08091B00070
:104D000080688093B000C093B3006CC08091B00005
:104D100080628093B000C093B40064C08091900022
:104D2000806880939000D0939900C09398005AC0F7
:104D300080919000806280939000D0939B00C093FC
:104D40009A0050C080919000886080939000D0932A
:104D50009D00C0939C0046C08091A0008068809315
:104D6000A0008091A0008F7B8093A000D093A90029
:104D7000C093A80037C08091A00080628093A000FB
:104D8000D093AB00C093AA002DC08091A000886092
:104D90008093A000D093AD00C093AC0023C080915D
:104DA0002001806880932001D0932901C0932801BD
:104DB00019C080912001806280932001D0932B0143
:104DC000C0932A010FC08091200188608093200148
:104DD000D0932D01C0932C0105C0C038D1050CF033
:104DE0004CCF46CFDF91CF911F9108950895AF9298
:104DF000BF92CF92DF92EF92FF920F931F93CF93C8
:104E0000DF93EC015B010A811B81C80186569F4F2D
:104E10000E94FE0A6B017C01B501BB0C880B990B4B
:104E20000E94AE5D9B01AC01C701B6010E94445FC8
:104E3000AB01BC01C8010E94C7038A819B81DF913D
:104E4000CF911F910F91FF90EF90DF90CF90BF9087
:104E5000AF900C946203AF92BF92CF92DF92EF9229
:104E6000FF920F931F93CF93DF93EC015B010A81B5
:104E70001B81C8010E9456056B017C01B501BB0C6A
:104E8000880B990B0E94AE5D9B01AC01C701B60176
:104E90000E94445FAB01BC01C8010E94C7038A8124
:104EA0009B81DF91CF911F910F91FF90EF90DF9049
:104EB000CF90BF90AF900C94620323E334E0FC01E9
:104EC00031832083818992890C948B61CF93DF9306
:104ED000EC01F3DFCE01DF91CF910C948B610C9448
:104EE0008B610C948B61EF92FF920F931F93CF9382
:104EF000DF93CDB7DEB7A1970FB6F894DEBF0FBE34
:104F0000CDBF7C01663549F480912710481758F5CC
:104F1000E0912410F09125100AC0643421F58091AD
:104F20002610481700F5E0912210F091231084E03C
:104F3000489FE00DF11D1124608171818281938170
:104F4000F7011182108213821282158214828E015F
:104F50000F5F1F4F22E044E00E94D558BC01C701FB
:104F60000E94FB1C05C064E979E0C7010E942E1D68
:104F7000C701A1960FB6F894DEBF0FBECDBFDF917B
:104F8000CF911F910F91FF90EF9008950F931F9372
:104F9000CF93C62F8A018434A9F580912610681713
:104FA00008F04EC068EB75E0CA010E94DC1B882344
:104FB000A1F0C0932110E0912210F091231024E081
:104FC000C29FE00DF11D112480E090E0A0E8BFE356
:104FD00080839183A283B38333C065EA7AE0C801FA
:104FE0000E94DC1B882361F1E0912210F0912310D4
:104FF00084E0C89FE00DF11D1124108211821282FD
:1050000013821EC08635E1F4809127106817C0F422
:10501000FA0180819181009719F00E94495903C0DB
:1050200060E070E0CB01E0912410F091251024E0C5
:10503000C29FE00DF11D11246083718382839383ED
:10504000CF911F910F910895AF92BF92CF92DF92AF
:10505000EF92FF920F931F93CF93DF93CDB7DEB7FD
:10506000C454D1090FB6F894DEBF0FBECDBF5C01AA
:10507000FC01E280F3808BEA9AE00E948705FCE95C
:10508000EF0EF11CBE016F5F7F4FC7010E946A1BCC
:1050900089899A89AB89BC8923968CAF9DAFAEAFC5
:1050A000BFAF23978E01015C1F4F89E1C82ED12C21
:1050B000F80161918F01DA82C982CE0101960E94C6
:1050C0006705FFEFCF1ADF0A8DE1C816D10481F71B
:1050D000BE016F5F7F4FC7010E94122086E1FE0173
:1050E0003196DE01999601900D928A95E1F77E0145
:1050F000E9E2EE0EF11C0DE110E0F70161917F0194
:1051000025961FAF0EAF2597CE018D5B9F4F0E9456
:1051100067050F5F1F4F0333110579F781E399E0AE
:105120000E948705F501828193810E946203CC5B16
:10513000DF4F0FB6F894DEBF0FBECDBFDF91CF912A
:105140001F910F91FF90EF90DF90CF90BF90AF90A5
:105150000895EF92FF920F931F93CF93DF931F92C7
:10516000CDB7DEB77C01FC0102811381F801E7595C
:10517000FE4F80818983BE016F5F7F4F80E090E0AA
:1051800094D6F801E959FE4F0190F081E02D199570
:10519000F701828193810E9462030F90DF91CF918A
:1051A0001F910F91FF90EF9008950F931F93CF934E
:1051B000DF938C01FC01C281D381C950DF4F20E015
:1051C00030E040E251E4688179818A819B810E94CC
:1051D000445FAB01BC01CE010E947C14F8018281C6
:1051E0009381DF91CF911F910F910C946203CF9324
:1051F000DF93EC018A819B81FC01EB50FF4F208102
:1052000031812115310531F02330310539F460E069
:1052100070E002C063E070E00E948C078A819B818D
:10522000DF91CF910C9462034F925F926F927F92C5
:105230008F929F92AF92BF92CF92DF92EF92FF92A6
:105240000F931F93CF93DF93CDB7DEB7A1970FB620
:10525000F894DEBF0FBECDBFFC014091211042A3E8
:1052600081A180932110481709F413C220A531A50C
:10527000D901AB50BF4F0D911C9150E04331510506
:1052800008F007C25F01FA018827E652FF4F8F4FEF
:105290000C94EE60C9010E9482038111FAC10E9440
:1052A000AB1460E070E0D0C080E00E94AB1403302B
:1052B000110509F11CF4012BF1F0EBC106301105C9
:1052C0000CF0E7C1C5018496A1960FB6F894DEBF35
:1052D0000FBECDBFDF91CF911F910F91FF90EF9047
:1052E000DF90CF90BF90AF909F908F907F906F9006
:1052F0005F904F905ACF6EE170E01AC080E00E943C
:10530000AB140330110591F01CF4012B79F0C1C1ED
:10531000063011050CF0BDC1F50106A117A1095019
:105320001F4F20E030E040E251E43EC062EE7FEFEC
:10533000F50186A197A10E94690A87C180E00E94B9
:10534000AB1403301105C9F01CF4012BB1F0A1C15D
:10535000063011050CF09DC1F50106A117A10950F9
:105360001F4F20E030E040E85FE3F8016081718189
:10537000828193810E94445F1EC06AE070E0D8CFB2
:1053800080E00E94AB1403301105F1F0D4F0063038
:1053900011050CF07EC1F50106A117A109501F4FA0
:1053A00020E030E040E85FE3F801608171818281B4
:1053B00093810E94435FAB01BC01C8010E947C1431
:1053C00044C1012B09F065C166EF7FEFB1CFF50154
:1053D00006A117A17801FEEBEF1AFEEFFF0AF70115
:1053E0008081882309F44CC181E2DE01119601908D
:1053F0000D928A95E1F7D801A35EBE4F81E2FE01CE
:10540000319601900D928A95E1F70E94F13BF801E7
:10541000E25CFE4F6083718382839383F701108285
:10542000C801815A9E4F0E94C204AB01BC01C80151
:105430000E94C70365E070E0F50186A197A10E9474
:105440008C0703C161E070E0F50186A197A10E947D
:105450000A0BFBC064E670E002C06CE97FEFC50197
:105460008496A1960FB6F894DEBF0FBECDBFDF9134
:10547000CF911F910F91FF90EF90DF90CF90BF9051
:10548000AF909F908F907F906F905F904F90AFCC38
:105490006AE070E002C066EF7FEFC5018496A196D6
:1054A0000FB6F894DEBF0FBECDBFDF91CF911F9135
:1054B0000F91FF90EF90DF90CF90BF90AF909F90B3
:1054C0008F907F906F905F904F90C5CC81E001C02E
:1054D00080E0A1960FB6F894DEBF0FBECDBFDF917E
:1054E000CF911F910F91FF90EF90DF90CF90BF90E1
:1054F000AF909F908F907F906F905F904F900C94A3
:10550000AB14F50106A117A1C8010E9456052B0195
:105510003C017801FAE9EF0EF11CC7010E94FE0A76
:105520009B01AC01F70186A497A4A0A8B1A8E55AF5
:10553000FF4F80819181892B89F47801F8ECEF0E7F
:10554000F11CC301B2010E94435FA50194010E94B6
:10555000445FF7016083718382839383C80178C0BD
:10556000F50186A197A1FC01EE56FF4FC080D180C6
:10557000E280F38034970081118122813381349756
:1055800040815181628173814E960E9434195DC0C1
:10559000012B09F07EC0C5018496A1960FB6F89440
:1055A000DEBF0FBECDBFDF91CF911F910F91FF9056
:1055B000EF90DF90CF90BF90AF909F908F907F90B3
:1055C0006F905F904F90C5CD012B09F062C0C5016F
:1055D0008496A1960FB6F894DEBF0FBECDBFDF91C3
:1055E000CF911F910F91FF90EF90DF90CF90BF90E0
:1055F000AF909F908F907F906F905F904F9024CD51
:10560000C5018496A1960FB6F894DEBF0FBECDBF3C
:10561000DF91CF911F910F91FF90EF90DF90CF908E
:10562000BF90AF909F908F907F906F905F904F90C2
:10563000DECD0330110519F4C5018496D8DD60E094
:10564000F50186A197A10E940D06F50186A197A1FB
:10565000A1960FB6F894DEBF0FBECDBFDF91CF91FC
:105660001F910F91FF90EF90DF90CF90BF90AF9080
:105670009F908F907F906F905F904F900C946203FB
:10568000C8010E945605AB01BC01C80189509F4F5B
:1056900095CEA1960FB6F894DEBF0FBECDBFDF91B9
:1056A000CF911F910F91FF90EF90DF90CF90BF901F
:1056B000AF909F908F907F906F905F904F900895E4
:1056C000CF93DF93EC0189899A890E948B6189E3EA
:1056D00090E00E94F660FC01108211821282138217
:1056E00014821582168217821086118612861386FE
:1056F0001486158616861786108A118A128A138ACE
:10570000148A158A168A178A108E118E128E138E9D
:10571000148E158E168E178E10A211A212A213A22D
:1057200014A215A616A617A610AA11AA12AA13AAA1
:1057300014AA15AA16AA17AA10AE15A216A217A285
:1057400010A680E090E4ACE1B6E481A792A7A3A7FD
:10575000B4A7FA8BE98B188A0E94F13B6C877D878E
:105760008E879F870E94F13B688779878A879B870E
:10577000DF91CF910895FC0124813581232B29F0FD
:105780006389748985899689089560E070E0CB010A
:1057900008950F931F93CF93DF938C01EB01DC01EE
:1057A0001296ED91FC911397E950FF4F4081518182
:1057B00062817381CE010F960E940304F8018281F9
:1057C000938186569F4F0E94FE0AAB01BC01CE0119
:1057D0000B960E940304D8011296ED91FC91139749
:1057E000EB59FF4F86818B8B12968D919C9113976D
:1057F000FC01EB50FF4F2081318138872F83EF551B
:10580000F109208131813A8729878B599F4FB3DF76
:10581000AB01BC01CE014496DF91CF911F910F9156
:105820000C9403042F923F924F925F926F927F925B
:105830008F929F92AF92BF92CF92DF92EF92FF92A0
:105840000F931F93CF93DF93CDB7DEB72C970FB68F
:10585000F894DEBF0FBECDBF9A838983DC015D96CD
:105860002D903C905E9798966D907C909997C3018F
:105870000E9456054B015C01F101608371838283B4
:105880009383F301E053FF4F8081930126563F4FEE
:105890003B872A87882331F0C9010E94FE0A6B01E9
:1058A0007C0106C0C12CD12C8EE5E82E84E4F82EB4
:1058B000D1011496CD92DD92ED92FC921797F301EF
:1058C000E950FF4F80819181A281B3818B839C83BA
:1058D000AD83BE83F10180879187A287B38793014F
:1058E0002E573F4F38872F83F90180819181A28104
:1058F000B381F10184879587A687B787D30158962E
:105900006D917C91599756968D919C915797681BF4
:10591000790B072E000C880B990B0E94AE5DF101EC
:10592000608B718B828B938BF301E95AFF4F8081DF
:105930009181A281B381F101848B958BA68BB78B6A
:10594000F301EE5BFF4F80819181A281B381F10170
:10595000808F918FA28FB38FF301E55AFF4F808123
:105960009181A281B381F101848F958FA68FB78F2A
:10597000F301EA57FF4F80819181A281B381F10148
:1059800080A391A3A2A3B3A3D30118966D917C9198
:105990001997072E000C880B990B0E94AE5DF10140
:1059A00064A375A386A397A383010B591F4FD80146
:1059B00016964D905C901797B201052C000C880B41
:1059C000990B0E94AE5DF10160A771A782A793A712
:1059D000C801D1DED1019C966D937D938D939C93EC
:1059E0009F97EA85FB8581AD92AD019761F485AD06
:1059F00096AD9093740E8093730E07ADF301E6524B
:105A0000FF4F108106C01092740E1092730E10E0BA
:105A100000E091012C5B3F4F3B872A876091730E1A
:105A20007091740E80E090E00E94AC5DAA85BB8509
:105A30006D937D938D939C9313979101285B3F4FBA
:105A40003B872A87602F000F770B880B990B0E94EA
:105A5000AE5DAA85BB856D937D938D939C931397C3
:105A60009101245B3F4F3B872A87612F70E080E0E4
:105A700090E00E94AC5DAA85BB856D937D938D936C
:105A80009C931397F301628D738D7093720E6093E4
:105A9000710E248D358D3093700E20936F0E80E043
:105AA00090E02C8739870E94AC5DD101DC966D9324
:105AB0007D938D939C93DF978101005C1F4F2C8514
:105AC0003985B90180E090E00E94AC5DF801608307
:105AD000718382839383F301E552FF4F608160936A
