:1000000068C2000097C2000095C2000093C20000C1
:1000100091C200008FC200008DC200008BC20000A0
:1000200089C200000C942B260C942B260C942B26B2
:1000300081C200000C94810E7DC200007BC20000D2
:1000400079C2000077C2000075C2000073C20000D0
:1000500071C200006FC200006DC200000C94143425
:1000600069C200000C94F9250C94242563C2000099
:1000700061C200005FC200005DC200005BC2000000
:1000800059C2000057C2000055C2000053C2000010
:100090000C94C7250C94E5244DC200000C94352621
:1000A00049C2000047C2000045C2000043C2000030
:1000B00041C200003FC200003DC200003BC2000040
:1000C00039C2000037C2000035C200000C949525EB
:1000D0000C94A6242FC200000C9463250C94672472
:1000E00029C200006E3C843D863DBF3C783CF63C16
:1000F000923C263D793D733D7C3D763DBC3D6B3D5C
:100100008A3DDA3DEC3DE33DF23D6B41F641AA41CB
:100110005240F641F641F641F641CC3FF641F641F8
:10012000F641F641F641ED40F641DD3FF641F6413C
:10013000E63EF6417E40684D754D784D7E4D814DD1
:10014000844DA74D934DA74D335033503350B64D8A
:100150003350E74D3350F54F0350AD4DE14D7D4EDB
:10016000924E1A5013500F502250911F9A1FA21FE7
:10017000A81FB01FB61FD51FBE1FC71F6020652058
:100180000020192078202B203320EF203F206020F2
:100190002B2065200020192078209720A920BB2043
:1001A0001C28262830284D28582867286B286F28B7
:1001B00089288D2893289928C7282D2958298529E9
:1001C0008B2998299E29AB290B2A6B2A6B2A322A64
:1001D000F528FC28FE2800290229042906290829D7
:1001E0000A290C29CA30D930E23016313C31493164
:1001F0005031593190319331823186318C31CA314D
:1002000097319B31A131A531A931AF31B331B7312C
:10021000CA31BD31C131C531113316331B332533DA
:100220002F33A83339334133493353335D33673385
:1002300076338033A8338A3394339E334E414E490C
:100240004E495459494E46CDCCCC3D0AD7233C1794
:10025000B7D13877CC2B329595E6241FB14F0A00E1
:100260000020410000C84200401C4620BCBE4CCAD1
:100270001B0E5AAEC59D7400407A10F35A00A0724E
:100280004E18090010A5D4E80000E87648170000D1
:10029000E40B54020000CA9A3B000000E1F505009F
:1002A0000080969800000040420F000000A08601E8
:1002B000000000102700000000E8030000000064B8
:1002C00000000000000A0000000000010000000023
:1002D000002C76D888DC674F0823DFC1DFAE59E1F8
:1002E000B1B796E5E3E453C63AE651997696E8E667
:1002F000C28426EB898C9B62ED407C6FFCEFBC9C3A
:100300009F40F2BAA56FA5F490055A2AF75C936B4B
:100310006CF9676DC11BFCE0E40D47FEF520E6B506
:1003200000D0ED902E0300943577050080841E08E0
:100330000000204E0A000000C80C333333330F98FE
:100340006E12831141EF8D2114893BE65516CFFEC5
:10035000E6DB18D1844B381BF77C1D901DA4BBE451
:1003600024203284725E228100C9F124ECA1E53D93
:10037000270200002200250028002B002E0031005B
:10038000340002010000050108010B0100002100FA
:10039000240027002A002D00300033000101000056
:1003A000040107010A0105050505070508080808F5
:1003B000020202020A0A08080404040401010101FD
:1003C00001010101030303030303030304070707F8
:1003D0000C0C0C0C0C0C0C0C02020202060606069D
:1003E000060606060B0B0B0B0B0B0B0B010210206A
:1003F000200808102040102040800201020108045B
:1004000002010102040810204080804020100804EE
:100410000201800402018040201008040201080447
:10042000020101020408102040800102040810208B
:1004300040805A44410056544700524D43004753B0
:1004400056004753540047534100474C4C00474720
:1004500041004150420052044E044A044604420402
:100460003E043A0436043204010000095604000038
:1004700020002300260029002C002F00320000015C
:10048000000003010601090100000A0B02090C0D1E
:100490000E08070304010000000000000000000037
:1004A000000000000000000000000000000000004C
:1004B0000000000012111000000000000000000009
:1004C0000000000000000000000000000000715368
:1004D000EF4211241FBECFEFD1E2DEBFCDBF00E05F
:1004E0000CBF1CE0A0E0B2E0E4ECFEEC00E00BBFCF
:1004F00002C007900D92A639B107D9F727E1A6E906
:10050000BCE001C01D92A732B207E1F712E0C8E6D5
:10051000D2E000E006C021970109802FFE010E9471
:100520001362C736D10780E00807A9F70E94FB4293
:100530000C94516765CDE091E60FF091E70F0190C3
:10054000F081E02D682F86EE9FE01995029709F063
:100550009DC080913910882361F0809118108860C7
:100560008093181010923A10809139108150809326
:1005700039108091131080FF0CC020913810909199
:10058000121020FF04C020913710291710F4909307
:10059000371081FF0CC090910E1090933310909102
:1005A0000F1090933410909110109093351082FF9B
:1005B00010C090910C109093311090910B1090936B
:1005C000301090910A1090932F10909111109093E9
:1005D000361083FF09C088E0E5EFFFE0AAE1B0E153
:1005E00001900D928A95E1F78091131084FF10C05D
:1005F0004091FD0F5091FE0F6091FF0F7091001020
:100600004093221050932310609324107093251070
:1006100086FF10C0409105105091061060910710A0
:100620007091081040932A1050932B1060932C1057
:1006300070932D1085FF10C0409101105091021051
:10064000609103107091041040932610509327106E
:10065000609328107093291087FF04C080910910BF
:1006600080932E109091381080911310892B8093D5
:1006700038108091181084FF09C010923B108091AF
:100680003910811103C081E08093391008950C94D2
:10069000B06229E134E0FC01318320830C94352BD6
:1006A000CF93DF93EB010E94EC5F8883CE01DF9153
:1006B000CF910895CF92DF92EF92FF92CF93DF9385
:1006C000EC016A017B0120E030E0A901C701B6011D
:1006D0000E94D35E87FF0AC020E030E044EB53E481
:1006E000C701B6010E9469606B017C0120E030E027
:1006F00044EB53E4C701B6010E946D6168837983BE
:100700008A839B83DF91CF91FF90EF90DF90CF9012
:100710000895CF93DF93EC01FC01E659FE4F88EE7C
:1007200093E0A0E0B0E080839183A283B38334960A
:1007300081E090E091838083329680830E94083428
:10074000CF58DE4F688379838A839B83DF91CF9173
:100750000895FC01EB50FF4F808191810197039731
:1007600010F080E0089581E008956F927F928F925B
:100770009F92AF92BF92CF92DF92EF92FF920F9330
:100780001F93CF93DF9300D01F92CDB7DEB73C010C
:100790004801590149835A836B837C83DADF49819D
:1007A0005A816B817C81811106C095018401C3014E
:1007B0004E960E94D72E0F900F900F900F90DF91C2
:1007C000CF911F910F91FF90EF90DF90CF90BF904E
:1007D000AF909F908F907F906F900895CF92DF920F
:1007E000EF92FF92CF93DF93EC016A017B0120E04F
:1007F00030E0A901C701B6010E94D35E87FF0AC09D
:1008000020E030E044EB53E4C701B6010E94696088
:100810006B017C0120E030E044EB53E4C701B601FA
:100820000E946D61C550DF4F688379838A839B8303
:10083000DF91CF91FF90EF90DF90CF900895DC0192
:100840001C9295E0E7EBF2E0549601900D929A9598
:10085000E1F708958F929F92AF92BF92CF92DF926D
:10086000EF92FF920F931F93CF93DF93EC014A0116
:100870005B01CB01BA010E9435616B017C01798378
:10088000688320E030E048EC52E4C501B4010E94E6
:10089000385F0E9435612CE986012003A001219F69
:1008A000500D1124CA01860F971F9B838A83CE01A6
:1008B000DF91CF911F910F91FF90EF90DF90CF903C
:1008C000BF90AF909F908F9008950F931F93CF93F9
:1008D000DF938C01EB01FC01468D578D60A171A166
:1008E000CE010196B7DFF80142A153A164A175A121
:1008F000CE010596AFDFF80146A157A160A571A50D
:10090000CE010996A7DFF801E65BFF4F8081918158
:100910009B8B8A8B7D96808191819D8B8C8B85E0D2
:10092000ECEBF2E0DE011D9601900D928A95E1F765
:1009300081E08883DF91CF911F910F910895EF920D
:10094000FF920F931F93CF93DF938C01EB01FC0178
:10095000808591859C878B878285938501979E876B
:100960008D87E856FF4F80819181998B888BF801A4
:1009700082818A8B7801FAE9EF0EF11CF70142A916
:1009800053A964A975A9CE01439664DFF70146A572
:1009900057A560A971A9CE0147965CDFF801848153
:1009A00095819D8F8C8F868197819F8F8E8F8AE016
:1009B000E1ECF2E0DE01119601900D928A95E1F7EB
:1009C00081E08883DF91CF911F910F91FF90EF908D
:1009D0000895CF92DF92EF92FF92CF93DF93EC01D5
:1009E00068817981072E000C880B990B0E94D95ED3
:1009F0006B017C018A819B81BC01990F880B990B4B
:100A00000E94D95E2AE037ED43E25CE30E94385F42
:100A10009B01AC01C701B6010E946960DF91CF91D3
:100A2000FF90EF90DF90CF900895EF92FF920F9399
:100A30001F93CF93DF93CDB7DEB77C0125EFE20E96
:100A4000F11CF70120813181232B09F04CC08C016E
:100A50008B85882349F08D899E89F801918780874D
:100A600060E0C8010E948D358F85882349F08C8D08
:100A700090E0F8019383828360E0C8010E948D3585
:100A80008889882351F0CE014D96A3DFF801E45305
:100A9000FF4F60837183828393838989882379F0F0
:100AA000CE01819696DFF70120813181232B39F425
:100AB000F801E853FF4F60837183828393838B89AE
:100AC000882399F08C89882381F08EA19FA1F80159
:100AD0009583848388A599A59783868360E0C80160
:100AE0000E948D3502C080E001C081E0DF91CF918E
:100AF0001F910F91FF90EF900895FC01EE5BFE4F68
:100B00002081222319F0815A9E4F63CFFC01E550CA
:100B1000FF4F60817181828193810895EF92FF92EE
:100B20000F931F93CF93DF931F92CDB7DEB77C0156
:100B3000FC0100811181C80169830E94EC5F698119
:100B4000681719F0C8010E94F45FC7010F90DF9188
:100B5000CF911F910F91FF90EF9008950F931F93E6
:100B6000CF93DF931F921F92CDB7DEB78B01FB01AE
:100B700060819A838983CE010196D0DFC8010F90EE
:100B80000F90DF91CF911F910F910895BC0182E9E1
:100B90009FE00C945110EF92FF920F931F93CF930D
:100BA000DF93CDB7DEB768970FB6F894DEBF0FBE00
:100BB000CDBF8C01F62E80E695E0E8DFB8016759DD
:100BC0007E4F8DE790E0CADFFF2099F086E1E5E8EF
:100BD000F2E0DE01119601900D928A95E1F780EB2B
:100BE00095E0D4DF8E010F5F1F4F8EE7E82EF12CCA
:100BF00006C0BE016F5F7F4FC80167DEF3CFF8010B
:100C000061918F01F88EEF8ACE01479687DFFFEF63
:100C1000EF1AFF0A84E9E816F10489F71F921F9280
:100C20001F928EE78F9383E795E09F938F9385EADA
:100C30009CE09F938F930E94886485EA9CE0A6DFE6
:100C40000FB6F894DEBF0FBECDBF8981882379F03F
:100C50008A89882361F08989882349F08E858823D1
:100C600031F08F85882319F08889811103C089E8C4
:100C700095E08CDF84E895E089DF81E068960FB627
:100C8000F894DEBF0FBECDBFDF91CF911F910F91C2
:100C9000FF90EF900895EF92FF920F931F93CF93E1
:100CA000DF93CDB7DEB7A2970FB6F894DEBF0FBEC5
:100CB000CDBF8C01F62E8AE995E068DFB80167594F
:100CC0007E4F89E490E04ADFFF2099F08FEA95E0BB
:100CD0005DDF80E2EBECF2E0DE01119601900D9217
:100CE0008A95E1F78E010F5F1F4F8AE4E82EF12C01
:100CF00006C0BE016F5F7F4FC80121DEF3CFF80150
:100D000061918F01FAA2E9A2CE01819607DFFFEF80
:100D1000EF1AFF0A8AE6E816F10489F78EEA99E0ED
:100D200035DF81E0A2960FB6F894DEBF0FBECDBFCF
:100D3000DF91CF911F910F91FF90EF900895EF9267
:100D4000FF920F931F93CF93DF93EC018B017C01F4
:100D500085E8E81A8EEFF80AF7018081918168171B
:100D60007907C9F0719788EE93E0A0E0B0E0808346
:100D70009183A283B383349684E190E0918380834E
:100D8000329681E080830E940834CF58DE4F68831A
:100D900079838A839B83F701118300831F930F93C9
:100DA0008EEC95E09F938F9385EA9CE09F938F93C1
:100DB0000E9488640F900F900F900F900F900F90EB
:100DC00085EA9CE0DF91CF911F910F91FF90EF900A
:100DD000DDCE0F931F93CF93DF93EC018B01FC01CA
:100DE000E358FE4F718360831F936F9385EE95E008
:100DF0009F938F9385EA9CE09F938F930E948864D2
:100E000085EA9CE0C3DE0F900F900F900F900F903B
:100E10000F90012BD9F0FE01E659FE4F80ED97E0CF
:100E2000A0E0B0E080839183A283B383349684E111
:100E300090E091838083329681E080830E94083421
:100E4000CF58DE4F688379838A839B83DF91CF916C
:100E50001F910F910895CF92DF92EF92FF920F931F
:100E60001F93CF93DF93EC016A017B0120E030E018
:100E7000A901C701B6010E94C261181624F0F7FA51
:100E8000F094F7F8F094FE01EB58FE4F8081682F44
:100E900070E080E090E00E94D95E9B01AC01C70148
:100EA000B6010E94D35E9091A40C8E0106581E4F8D
:100EB00087FF12C0992309F43DC01092A40CF801D9
:100EC000108282E4DAD6FE01E059FE4F108260E023
:100ED00070E0CE017EDF2EC091110FC081E08093C3
:100EE000A40C0E9408340E94D75E6093A00C7093FB
:100EF000A10C8093A20C9093A30CF8018081811126
:100F000019C00E9408340E94D75E2091A00C309135
:100F1000A10C4091A20C5091A30C0E946860FE01AC
:100F2000EA58FE4F20813181428153810E94C26183
:100F300018165CF0F8018081DF91CF911F910F911D
:100F4000FF90EF90DF90CF900895FF24F394F80185
:100F5000F08262E070E0CE013CDFFE01E659FE4F18
:100F600088EE93E0A0E0B0E080839183A283B38316
:100F700034968FEF93E0918380833296F0820E94C3
:100F80000834CF58DE4F688379838A839B83D2CF1E
:100F90004F925F926F927F928F929F92AF92BF9289
:100FA000CF92DF92EF92FF920F931F93CF93DF9335
:100FB000CDB7DEB7C254D1090FB6F894DEBF0FBE6D
:100FC000CDBF6C0125EFC20ED11CD601AD90BC90F7
:100FD000A616B70609F471C17B018C01B3E0AB160C
:100FE000B10431F0E5E0AE16B10409F441C04CC0E3
:100FF0000E9456354C01880C991CF3E08F16910421
:101000001CF423E0822E912C9F928F9288EF95E022
:101010009F938F9380ED96E19F938F930E948864B6
:1010200080ED96E10E945135D80113969C928E92E4
:1010300012975A968D919C915B9715969C938E93DF
:1010400014975C968D919C915D9717969C938E93C7
:10105000169719961C921E92189761E0C8010E947B
:101060008D350F900F900F900F900F900F900CC038
:101070006430710549F4865C9E4FABDCAB01BC016A
:10108000C80189509F4F16DBF60180809180F18264
:10109000E082F3E0EF16F10431F58CE096E00E9477
:1010A0005135D80113961C921E92129715961C92D8
:1010B0001E921497EE24EA9493E0F92E1796FC9270
:1010C000EE92169719961C921E92189760E0C8012E
:1010D0000E948D35F801F38EE28E158E148E88E213
:1010E00096E00E945135D601ED90FC90B5E08B164C
:1010F000910481F581E2982E3E01E2E26E0E711CB0
:10110000D301E92D1D92EA95E9F7C30198DBF301BC
:10111000DE011196892D01900D928A95E1F7FE016D
:101120003196D801A35EBE4F01900D929A94E1F7DB
:101130000E940834F801E25CFE4F60837183828371
:101140009383FF9680819181069721F460E070E09F
:10115000C8013FDEE114F10409F477C0F7FCADC02B
:10116000F4E0EF1AF10822E0E216F10408F0A5C05D
:10117000F801E053FF4F8081882309F49AC0EA54B4
:10118000F109108211821282138234971082118227
:1011900012821382680186E5C80ED11CD6018C919B
:1011A00081114AC0D801DA96ED91FC91DB978080DD
:1011B0009180A280B3807801B2E4EB0EF11CF701BC
:1011C00080829182A282B382D801D896ED91FC915F
:1011D000D99780819181A281B381F801EA5BFF4FA9
:1011E00080839183A283B3833C9640805180628048
:1011F0007380A3019201C501B4010E94C261181657
:1012000034F4F701408251826282738215C0F80182
:10121000E25BFF4F4080518062807380A3019201A6
:10122000C501B4010E94D35E87FF06C0D7014D926D
:101230005D926D927C92139781E0F6018083C801E4
:101240008B599F4F0E94352D38C0F801EA57FF4F48
:1012500010821182128213823497108211821282BC
:101260001382BC971082D80158962D913C915997C2
:1012700056968D919C915797281B390B1A968D91F4
:101280009C911B972817390714F0019707C0919577
:1012900081959109821793070CF4C901F801EA5668
:1012A000FF4F9183808340E050E0BA01C801D3DD55
:1012B00004C0F601B182A08201C081E0CE5BDF4FA5
:1012C0000FB6F894DEBF0FBECDBFDF91CF911F9157
:1012D0000F91FF90EF90DF90CF90BF90AF909F90D5
:1012E0008F907F906F905F904F90089529E434E045
:1012F000FC0131832083E15AFF4F21E534E0318343
:1013000020838B599F4F0C941F2BEF92FF920F93CA
:101310001F93CF93DF93EC018DE794E0998388834B
:10132000FE01E15AFF4F85E894E091838083FB96AC
:101330008DE894E0918380837E018FEFE80EF11CAD
:10134000E114F10459F08E01035E1E4F0E151F05C6
:1013500029F006501109C8012CD4F8CFCE01DF9135
:10136000CF911F910F91FF90EF90C0CF0895CF9331
:10137000DF93EC016F3F710509F050F48C819D8182
:101380006817790729F07D836C8386E00E94EA3232
:101390008C819D81DF91CF910895CF93DF93EC01F4
:1013A0008A819B816817790729F07B836A8387E0AC
:1013B0000E94BB328A819B81DF91CF9108952F9249
:1013C0003F924F925F926F927F928F929F92AF92D5
:1013D000BF92CF92DF92EF92FF920F931F93CF9322
:1013E000DF9300D0CDB7DEB71C018B012A833B838E
:1013F00049830E9429354C018091980C2A813B81B8
:10140000498181110EC0F101808D918D66897789A6
:10141000861B970B9093970C8093960C81E080939A
:10142000980CF101648475844684578441118901C4
:101430006101F3E6CF0ED11CF601A080B180A114AA
:10144000B10429F48091960C9091970C07C0F1019A
:10145000808D918D26893789821B930B081B190B70
:10146000780117FF04C0EE24FF24E01AF10AF1010D
:1014700062817381072E000C880B990B0E94D95E44
:10148000F10122893389448955890E94385F0E947D
:101490003561E616F7068CF0F101EF59FF4F86141F
:1014A000970424F480819181019739F048145904FC
:1014B000C4F480819181892BA1F4AB2871F160E0A3
:1014C00070E0C101815A9F4F52DFF101808D918DF3
:1014D00026893789821B930B9093970C8093960CE7
:1014E0001CC061E070E00E151F0511F460E070E0B3
:1014F000808191816817790721F0C101815A9F4F3E
:101500004CDFF601808191818F3F910531F06FEFC3
:1015100070E0C101815A9F4F2ADFC8010F900F90E0
:101520000F90DF91CF911F910F91FF90EF90DF907F
:10153000CF90BF90AF909F908F907F906F905F9073
:101540004F903F902F9008950F931F93CF93DF9369
:10155000EC018B01FC01EB50FF4F208131812130E8
:1015600031050CF1233031050CF441C02330310535
:10157000D1F4C15ADF4F61E070E01016110614F487
:1015800060E070E0CE0109DF6FEF70E0CE01EFDECA
:1015900068EE73E080E090E00E94D03360E070E09D
:1015A000CE01E5DE21C060E070E0CE01F1DCFE019D
:1015B000EA56FF4F80819181800F911F6A857B855C
:1015C000861797071CF06150710907C071956195E6
:1015D0007109681779070CF4BC017183608320E0FE
:1015E00030E040E0CE01EBDE81E090E002C080E040
:1015F00090E0DF91CF911F910F910895CF92DF92EC
:10160000EF92FF926B017C0120E030E0A9010E9483
:10161000D35E87FF0AC020E030E044EB53E4C7010B
:10162000B6010E9469606B017C0120E030E044EB70
:1016300053E4C701B601FF90EF90DF90CF900C9478
:101640006D612DEB33E0FC01318320838E589E4F7A
:10165000B0C2CF93DF93EC01F4DFCE01DF91CF91E5
:101660000C94B06284589140F4CF84589140E9CFF3
:10167000FC0126A537A540A951A962A573A584A59B
:1016800095A50E946960BACF0895CF92DF92EF923C
:10169000FF920F931F93CF93DF936C017A018B011D
:1016A000C0E0D0E0CE15DF0589F0D8016D918D0145
:1016B000D601ED91FC910190F081E02DC6011995C4
:1016C000892B11F47E0102C02196ECCFC701DF9176
:1016D000CF911F910F91FF90EF90DF90CF900895E1
:1016E0000E942C640F931F93CF93DF93EC018881AA
:1016F0009981009729F02A813B812617370788F4C2
:101700008B016F5F7F4F0E944863009761F0998360
:1017100088831B830A832C813D81232B11F4FC01D8
:10172000108281E001C080E0DF91CF911F910F9185
:101730000895EF92FF920F931F93CF93DF93FC01D5
:10174000248135816115710511F480E018C04115BF
:101750005105A1F07B01EC018A01020F131FB801B2
:10176000C1DF882391F3288139818C819D81B70164
:10177000820F931F0E944D641D830C8381E0DF91D3
:10178000CF911F910F91FF90EF900895EF92FF92EC
:101790000F931F93CF93DF93CDB7DEB72C970FB680
:1017A000F894DEBF0FBECDBF7C018B0184E2FB014C
:1017B00011928A95E9F784E290E0A0E0B0E0FB01A5
:1017C00080839183A283B383F70184819581A6816D
:1017D000B781FB0184839583A683B78383E090E080
:1017E000A0E0B0E080879187A287B3870E94083489
:1017F000F801608B718B828B938BB701CE010196C0
:10180000E9D689819A81AB81BC81F801848B958B63
:10181000A68BB78B8D819E81AF81B885808F918F8C
:10182000A28FB38F89859A85AB85BC85848F958F70
:10183000A68FB78F81E02C960FB6F894DEBF0FBE4F
:10184000CDBFDF91CF911F910F91FF90EF90089541
:101850000F931F93CF93DF938C01EB0188E2FB0181
:1018600011928A95E9F74BE050E06FE479E0CE0100
:101870000E9454641B8681E090E0A0E0B0E08C8779
:101880009D87AE87BF87F80184819581A681B78146
:10189000888B998BAA8BBB8B83E090E0A0E0B0E0B3
:1018A0008C8B9D8BAE8BBF8B1CA21DA21EA21FA278
:1018B000188E198E1A8E1B8E1C8E1D8E1E8E1F8EDC
:1018C0008AE097EDA3E2BCE388A399A3AAA3BBA3F4
:1018D000DF91CF911F910F910895CF93DF93DC019A
:1018E0001496ED91FC9115976E177F0728F5411519
:1018F000510511F19F01261B370B4217530708F4BE
:101900009A01DB01EC0188819981E21BF30BFD83D5
:10191000EC83AF01461B570B260F371FBC01620F2C
:10192000731F8A0F9B1F0E945464E881F9818C8188
:101930009D81E80FF91F1082DF91CF9108954FEF3D
:101940005FEFCBCFCF93DF93FC0124813581232B35
:1019500069F0C081D181062E000C770BCE010E9468
:101960003964009719F08C1B9D0B02C08FEF9FEF1D
:10197000DF91CF910895FC012481358162177307AF
:1019800048F480819181009729F0FC01E60FF71F50
:101990008081089580E00895EF92FF920F931F9346
:1019A000CF93DF9300D01F92CDB7DEB77C01862F97
:1019B0004AE08E010F5F1F4FB80190E00E94A55AC8
:1019C000F80101900020E9F73197AF01401B510B5E
:1019D000B801C701AEDE0F900F900F900F90DF910E
:1019E000CF911F910F91FF90EF900895CF93DF93C8
:1019F0001F921F92CDB7DEB769831A8241E050E093
:101A0000BE016F5F7F4F95DE0F900F90DF91CF91FA
:101A100008956115710549F0FB0101900020E9F777
:101A20003197AF01461B570B84CE80E00895FB0130
:101A300044815581608171817CCE0F931F93CF9338
:101A4000DF938C01EB01FC01808191810097B1F063
:101A5000688179816115710579F0428153812C810A
:101A60003D814217530740F00E944D648C819D8157
:101A7000F8019583848313C00E94B06288819981A4
:101A8000F801918380838A819B81938382838C81F7
:101A90009D8195838483198218821B821A821D82FC
:101AA0001C82DF91CF911F910F910895CF93DF9307
:101AB000EC0188819981009711F00E94B06219822F
:101AC00018821D821C821B821A82DF91CF91089599
:101AD000CF93DF93EC016115710559F0FB01019083
:101AE0000020E9F73197AF01461B570B22DE811129
:101AF00002C0CE01DBDFCE01DF91CF910895CF93FD
:101B0000DF93EC01FB01448155816081718111DE1D
:101B1000811102C0CE01CADFCE01DF91CF910895BD
:101B2000EF92FF920F931F93CF93DF93EC017B0112
:101B30008A01BA01D7DD811103C0CE01B7DF07C02A
:101B40001D830C83B701888199810E944D64CE0169
:101B5000DF91CF911F910F91FF90EF900895CF9358
:101B6000DF93EC016115710551F0FB01019000203C
:101B7000E9F73197AF01461B570BD2DF01C096DF63
:101B8000CE01DF91CF910895CF93DF93EC01FB015C
:101B90008617970751F0608171816115710521F0F9
:101BA00044815581BDDF01C081DFCE01DF91CF913E
:101BB0000895FC01808191810C94B0620F931F9372
:101BC000CF93DF93CDB7DEB762970FB6F894DEBF41
:101BD0000FBECDBF8C01CB01F801118210821382A0
:101BE00012821582148250E0BE016F5F7F4F0E9407
:101BF0009B5ABE016F5F7F4FC801B1DF62960FB67F
:101C0000F894DEBF0FBECDBFDF91CF911F910F9132
:101C10000895CF93DF931F921F92CDB7DEB7FC01DB
:101C200011821082138212821582148269831A82B1
:101C3000BE016F5F7F4F93DF0F900F90DF91CF91C9
:101C40000895FC011182108213821282158214827F
:101C50009BCFFC01118210821382128215821482A2
:101C60006115710549F0FB0101900020E9F73197FA
:101C7000AF01461B570B54CF089590910002981363
:101C80003DC0E1E7F3E0E4919FEF90930002E23082
:101C9000C9F050F4EE2399F0E13081F590916F0096
:101CA0009D7F90936F002AC0E43019F1E0F0E53099
:101CB00029F5909173009D7F909373001FC010923F
:101CC0006E001CC0909170009D7F9093700091E019
:101CD0009093B0009091B100987F94609093B10080
:101CE0001092B3000BC0909171009D7F9093710092
:101CF00005C0909172009D7F9093720060E00C94FB
:101D0000BB321F920F920FB60F9211240BB60F9297
:101D10002F933F934F935F936F937F938F939F93F3
:101D2000AF93BF93EF93FF938091560D9091570D12
:101D3000A091580DB091590D892B8A2B8B2B51F105
:101D40008091530DE091540DF091550D90818927AC
:101D500080838091560D9091570DA091580DB091B0
:101D6000590D181619061A061B06BCF48091560D5B
:101D70009091570DA091580DB091590D0197A1095F
:101D8000B1098093560D9093570DA093580DB093C1
:101D9000590D03C08091000270DFFF91EF91BF9158
:101DA000AF919F918F917F916F915F914F913F91F3
:101DB0002F910F900BBE0F900FBE0F901F90189594
:101DC0000F931F93CF93DF93EC010E940834688731
:101DD00079878A879B87E881F9810680F781E02DE2
:101DE000CE01199597FF17C00E9408340885198500
:101DF0002A853B85DC01CB01801B910BA20BB30B29
:101E00000C811D812E813F8180179107A207B307A6
:101E100010F38FEF9FEFDF91CF911F910F910895F6
:101E2000DC01ED91FC910190F081E02D1994611598
:101E3000710579F0FB0101900020E9F73197AF01BE
:101E4000461B570BDC01ED91FC910280F381E02DE4
:101E5000199480E090E008954F925F926F927F9284
:101E6000EF92FF920F931F93CF93DF93CDB7DEB71F
:101E7000A1970FB6F894DEBF0FBECDBF7C01FA016B
:101E8000CB0119A2223008F42AE08E010F5D1F4F0A
:101E9000422E512C612C712CBF01A30192010E9492
:101EA0001160F901CA01015011096A3014F4605D32
:101EB00001C0695CD8016C93232B242B252B61F77F
:101EC000B801C701B4DFA1960FB6F894DEBF0FBE0C
:101ED000CDBFDF91CF911F910F91FF90EF907F9039
:101EE0006F905F904F9008954F925F926F927F92A4
:101EF0008F929F92AF92BF92CF92DF92EF92FF921A
:101F0000CF93DF93EC016A017B01B22E9A01AB0102
:101F1000C701B6010E940862882319F066E579E0DE
:101F200027C026013701E89477F82FEF3FEF4FE7FE
:101F30005FE7C301B2010E94086281110DC02FEF5B
:101F40003FEF4FE75FE7C301B2010E94D35E18166F
:101F50001CF46AE579E00CC02FEF3FEF4FE75FE438
:101F6000C701B6010E94C261181694F46EE579E0CB
:101F7000CE01DF91CF91FF90EF90DF90CF90BF9097
:101F8000AF909F908F907F906F905F904F904FCFCA
:101F90002FEF3FEF4FE75FECC701B6010E94D35E22
:101FA00087FDE4CF20E030E0A901C701B6010E941F
:101FB000D35E87FF09C06DE2CE0132DF4C01F7FA34
:101FC000F094F7F8F09402C0812C912CA12C60E0E1
:101FD00070E080E09FE3AB1440F420E030E040E2AA
:101FE00051E40E94CD60A394F6CF9B01AC01C701E0
:101FF000B6010E9469602B013C010E943A616B01AD
:102000007C010E94D75E9B01AC01C301B2010E941A
:1020100068602B013C012AE0B701A601CE011CDF5C
:102020007C01E80CF91CBB2029F06EE2CE01F8DE41
:10203000E80EF91EDB2CDD2021F120E030E040E24B
:1020400051E4C301B2010E94385F2B013C010E94A0
:102050003A614B01A12CB12C2AE0B501A401CE01BB
:10206000FBDEE80EF91EC501B4010E94D75E9B019C
:10207000AC01C301B2010E9468602B013C01DA94FB
:10208000DACFC701DF91CF91FF90EF90DF90CF9033
:10209000BF90AF909F908F907F906F905F904F9088
:1020A0000895C5CECF93DF93EC018B8191E090939F
:1020B000A30D8093C50D1092A40D1092C60D86EB52
:1020C0009FE00E94362481E00E94941861E08B8199
:1020D0000E94F11810925B0D80935A0D86EB9FE0E1
:1020E0000E94B923DF91CF910895CF93DF931F9280
:1020F000CDB7DEB7FC01838191E09093A30D80936F
:10210000C50D1092A40D1092C60D86EB9FE0498379
:102110000E9436244981642F86EB9FE00E9436247A
:1021200081E00E94941881E00F90DF91CF91089593
:1021300065E370E0B7DF803CB8F0282F30E0A901FC
:1021400064E0559547956A95E1F74370433061F433
:1021500035952795359527952370233029F4982FA9
:10216000937081E0933009F080E00895462FFC01E0
:10217000608771876DE370E0B8DF6EE170E080E04A
:1021800090E00C94D033CF92DF92EF92FF920F93B6
:102190001F93CF93DF93EC018B01CADFE82E8823D6
:1021A00009F4CAC0C884D98460E070E0CE01DEDFE3
:1021B00069E170E080E090E00E94D03366E570E075
:1021C000CE0170DFF82E65E570E0CE016BDF2F2DBC
:1021D00030E0322F2227282BF8013183208368E555
:1021E00070E0CE015FDFF82E67E570E0CE015ADFC8
:1021F0002F2D30E0322F2227282BF8013383228322
:102200006AE570E0CE014EDFF82E69E570E0CE01A0
:1022100049DF2F2D30E0322F2227282BF80135837C
:10222000248362E670E0CE013DDFF82E61E670E0C7
:10223000CE0138DF2F2D30E0322F2227282BF80156
:102240003783268364E670E0CE012CDFF82E63E648
:1022500070E0CE0127DF2F2D30E0322F2227282BF0
:10226000F8013187208766E670E0CE011BDFF82E8B
:1022700065E670E0CE0116DF2F2D30E0322F2227E9
:10228000282BF801338722876CE570E0CE010ADF46
:10229000F82E6BE570E0CE0105DF2F2D30E0322FF8
:1022A0002227282BF801358724876EE570E0CE01C0
:1022B000F9DEF82E6DE570E0CE01F4DE2F2D30E072
:1022C000322F2227282BF8013787268760E670E017
:1022D000CE01E8DEF82E6FE570E0CE01E3DE2F2DB3
:1022E00030E0322F2227282BF801318B208B68E633
:1022F00070E0CE01D7DEF82E67E670E0CE01D2DEC8
:102300002F2D30E0322F2227282BF801338B228B00
:102310006AE670E0CE01C6DEF82E69E670E0CE0116
:10232000C1DE2F2D30E0322F2227282BF801358BEC
:10233000248BB601CE011ADF8E2DDF91CF911F9134
:102340000F91FF90EF90DF90CF900895FC016133E3
:1023500011F0613411F483E013C0603321F06E3466
:1023600011F0663511F414A60CC0623311F0643418
:1023700011F484E005C0663311F0653429F481E07E
:1023800084A785A5816085A780E00895CF92DF921C
:10239000EF92FF921F93CF93DF93FC01EB01142F79
:1023A00080A9811108C0188219821A821B8211AA81
:1023B00082A9826082AB1E3281F01C3209F07CC09F
:1023C00081A9882351F081A9843091F52881398130
:1023D0004A815B81A4E6B0E045C081E081AB8981A0
:1023E000982F92959F708F702AE0929F800D1124F4
:1023F0009A8191118C594881942F92959F704F70BA
:102400002AE0929F400D112450E09CE3899F400DEB
:10241000511D1124052E000C660B770B4883598340
:102420006A837B831E3209F4A7C01C3261F244C068
:10243000853039F4288139814A815B81AAE0B0E096
:1024400011C08630F1F008F099C0288139814A81A5
:102450005B81833019F4A8EEB3E004C0823029F424
:10246000A0E1B7E20E944F6008C0813051F460EAF9
:1024700076E881E090E00E940260688379838A8335
:102480009B83C880D980EA80FB80D701C601880F72
:10249000991FAA1FBB1FBC01CD016F5F7F4F8F4FDC
:1024A0009F4F0E945322C60ED71EE81EF91EC882F7
:1024B000D982EA82FB8262C081A9811118C0812F72
:1024C000110F990BC097092E000CAA0BBB0B48816A
:1024D00059816A817B8134E0440F551F661F771F45
:1024E0003A95D1F7842B952BA62BB72B41C08F5F44
:1024F00081AB8730C0F4288139814A815B81AAE0B1
:10250000B0E00E944F60212F110F330B205331098F
:102510006901330FEE08FF08DC01CB018C0D9D1D16
:10252000AE1DBF1D25C0873039F5C880D980EA802F
:10253000FB80D701C601880F991FAA1FBB1FBC01D2
:10254000CD016F5F7F4F8F4F9F4F0E945322DC0161
:10255000CB018C0D9D1DAE1DBF1D193324F00296BD
:10256000A11DB11D05C014331CF00196A11DB11DA4
:1025700088839983AA83BB8380E001C081E0DF91D7
:10258000CF911F91FF90EF90DF90CF900895CF9360
:10259000DF93EC0165E370E082E394E183DD209753
:1025A00031F0982F92959695969593709883282F51
:1025B00030E094E0359527959A95E1F72370233024
:1025C00029F4982F937081E0933009F080E0DF9137
:1025D000CF910895CF92DF92EF92FF920F931F93C6
:1025E000CF93DF9300D000D0CDB7DEB76C017B0175
:1025F0008CE0F60111928A95E9F78E010F5F1F4F6B
:1026000086E0F80111928A95E9F7FB01838191E058
:102610009093A30D8093C50D1092A40D1092C60D3A
:102620006AE186EB9FE00E94362481E07DD566E07A
:10263000F7018381D6D510925B0D80935A0D36E059
:10264000F32EF00E86EB9FE00E94B923F8018193F0
:102650008F01FE12F7CFEC80F12CFE2CEE248B8143
:10266000E82A0E8110E0102F00278D81082B6A8147
:1026700070E0762F66278981682B072E000C880B67
:10268000990B0E94D95E20E030E040E85DE30E94B3
:10269000385FF6016083718382839383B701FF0CF7
:1026A000880B990B0E94D95E20E030E040E85DE3A2
:1026B0000E94385FF6016483758386839783B8012F
:1026C000110F880B990B0E94D95E20E030E040E8A2
:1026D0005DE30E94385FF601608771878287938788
:1026E000C60126960FB6F894DEBF0FBECDBFDF91B0
:1026F000CF911F910F91FF90EF90DF90CF900895B1
:102700001F93CF93DF93CDB7DEB72C970FB6F89416
:10271000DEBF0FBECDBFCE01019639DF182F62E3B9
:1027200074E1CE01019656DF69817A818B819C81AB
:1027300060935A1470935B1480935C1490935D14AF
:1027400020916614211107C00E943561672B19F092
:1027500081E080936614812F2C960FB6F894DEBF2B
:102760000FBECDBFDF91CF911F91089565E370E05B
:1027700082E394E197DC282F30E0482F429546957C
:102780004695437091E0433009F090E090937114C6
:10279000A90164E0559547956A95E1F7437091E08A
:1027A000433009F090E09093721435952795359554
:1027B0002795237091E0233009F090E090937314F3
:1027C000837091E0833009F090E090937414089541
:1027D0000F931F93CF93DF93CDB7DEB7EA970FB672
:1027E000F894DEBF0FBECDBF00916714109168143E
:1027F00002301105D1F00330110509F445C0013054
:10280000110509F0CBC010926C1410926B1422E0E9
:1028100030E03093681420936714882319F082E61F
:1028200099E072C086E899E06FC020916B143091F6
:102830006C142F5F3F4F30936C1420936B148823DC
:1028400021F082E394E174DC03C0CE0101969FDEA7
:10285000882311F003E010E01093681400936714CC
:1028600085DF8091671490916814039759F481EA89
:1028700099E00E94E72D1092661482EB99E00E9485
:10288000E72D3EDF81E08BC0882309F487C00091EB
:10289000691410916A1401301105C9F10230110553
:1028A00009F47CC00115110509F074C080E29EE4B2
:1028B00090936C1480936B1481E090E090936A1471
:1028C00080936914BE016B5D7F4F82E394E15BDC12
:1028D00086E1FE01B596DE01119601900D928A9572
:1028E000E1F786E1FE013196ACE3B4E101900D928F
:1028F0008A95E1F7BAD48DED99E00E94E72DCE01DB
:10290000859692D383EF99E00E94E72DBBCF80910B
:102910006B1490916C149C012150310930936C140C
:1029200020936B141816190634F5BE016F5F7F4FA4
:1029300082E394E10E94C60B6D897E898F89988D10
:102940000E94356170936E1460936D14698D7A8D59
:102950008B8D9C8D0E94356160936F146D8D7E8D83
:102960008F8D98A10E9435616093701410936A1442
:102970000093691406C082E090E090936A148093FB
:10298000691481E02091691430916A142130310575
:1029900029F405C081E00130110509F080E0EA96D4
:1029A0000FB6F894DEBF0FBECDBFDF91CF911F9160
:1029B0000F910895CF93DF93FC014481558160818D
:1029C000718182E99FE00E94450BEC016FE07AE0A3
:1029D00082E99FE02CDA8C0F9D1FDF91CF91089543
:1029E000CF93DF93EC0164E201D8811102C0CE01E4
:1029F0005DD8CE01DF91CF910895CF92DF92EF9213
:102A0000FF920F931F93CF93DF936B01770FEE0825
:102A1000FF08F7FE19C0EC016DE202DA8C014427D1
:102A20005527BA014C195D096E097F092AE0CE01CC
:102A300013DA800F911FDF91CF911F910F91FF90BB
:102A4000EF90DF90CF9008952AE0B701A601DF91C3
:102A5000CF911F910F91FF90EF90DF90CF90FCC925
:102A60000F931F93CF93DF93EC01892B09F44AC096
:102A70008881882309F446C0843209F4219664E2EF
:102A800082E99FE0CDD98E01C0E0D0E0F8016191EC
:102A90008F01662359F06A3211F0DD2311F0DF5FF8
:102AA00001C0C62782E99FE0BBD9F0CFD1112AC06F
:102AB0006AE282E99FE0B4D96C2F70E084E07595FA
:102AC00067958A95E1F76A30710514F0695C01C079
:102AD000605D82E99FE0A4D9CF70CA3010F067E34F
:102AE00001C060E36C0F82E99FE09AD96DE082E952
:102AF0009FE096D96AE082E99FE0DF91CF911F9134
:102B00000F918EC9DF91CF911F910F910895EF9290
:102B1000FF920F931F93CF93DF9300D000D0CDB7D8
:102B2000DEB77C018C0108581E4F62E17AE0F801A3
:102B300080819181B6DAF701E351FF4F8081918165
:102B40008430910544F48130910584F4892BA1F4FB
:102B50006EE17AE00DC08430910529F0059761F4AB
:102B60006FEC74E005C06CE17AE002C060E27AE0EC
:102B7000F8018081918195DA6CE2F8018081918180
:102B80004FD9F701E151FF4F60817181F8018081D8
:102B9000918133DF6CE2F8018081918141D9C701D5
:102BA0008F509F4F0E94E904AB01BC0122E030E04E
:102BB000F8018081918198D96CE2F801808191813E
:102BC0002FD9C7018B509F4F0E94E904AB01BC0174
:102BD00022E030E0F8018081918186D96CE2F80131
:102BE000808191811DD9F701E750FF4F408150E06E
:102BF00060E070E02AE0F801808191812DD96CE2DB
:102C0000F801808191810CD9C70186509F4F0E94A5
:102C1000E904AB01BC0122E030E0F8018081918140
:102C200063D9FEE8EF1AFEEFFF0AB701CE01019665
:102C300008D88D819E81892B19F089819A8102C0E3
:102C400080E090E00DDFCE0101960E94D90D60E09A
:102C500070E0C7010E949F0C26960FB6F894DEBF65
:102C60000FBECDBFDF91CF911F910F91FF90EF90DD
:102C70000895EF92FF920F931F93CF93DF9300D0AD
:102C800000D0CDB7DEB77C018C0102501F4FFC0194
:102C9000EC57FE4FB801828193810E94650481E068
:102CA000F801808306581F4F62E27AE0F8018081C4
:102CB0009181F7D92AE045E050E060E070E0F8014A
:102CC00080819181C9D866E279E0F80180819181A3
:102CD000E8D9C70181509F4F0E94E904AB01BC01B4
:102CE00022E030E0F80180819181FED86CE2F801A9
:102CF0008081918195D8C7018D5F9E4F0E94E90424
:102D0000AB01BC0122E030E0F80180819181ECD878
:102D10006CE2F8018081918183D8C701895F9E4F61
:102D20000E94E904AB01BC0122E030E0F80180819F
:102D30009181DAD86CE2F8018081918171D8F70134
:102D4000E05FFE4F4081518160E070E02AE0F801D1
:102D50008081918181D86CE2F8018081918160D875
:102D6000F701EE5EFE4F808191818130910541F047
:102D70008230910541F0892B61F467E179E005C06B
:102D80006AE27AE002C06CE17AE0F8018081918128
:102D900088D9FEE8EF1AFEEFFF0AB701CE010196CF
:102DA0000E94210E8D819E81892B19F089819A8143
:102DB00002C080E090E054DECE0101960E94D90D61
:102DC00060E070E0C7010E949F0C26960FB6F89451
:102DD000DEBF0FBECDBFDF91CF911F910F91FF904E
:102DE000EF900895EF92FF920F931F93CF93DF938D
:102DF00000D000D0CDB7DEB77C018C010C5E1E4F39
:102E0000FC01EC57FE4FB801828193810E949F0420
:102E100081E0F80180830C591F4F62E27AE0F801EB
:102E2000808191813ED92AE043E050E060E070E08B
:102E3000F8018081918110D866E279E0F801808103
:102E400091812FD9F701E15EFE4F60817181F80118
:102E500080819181D2DD6CE2F801808191810E94B4
:102E6000100FF701EF5DFE4F4081518160E070E08F
:102E70002AE0F801808191810E942C0F6CE2F80118
:102E8000808191810E94100FF701ED5DFE4F6081FE
:102E9000062E000C770BF80180819181AEDD6CE28B
:102EA000F801808191810E94100FF701EC5DFE4FC7
:102EB00080819181009729F0019749F46CE27AE0D2
:102EC00002C06EE17AE0F80180819181EAD86CE27B
:102ED000F801808191810E94100FF701EA5DFE4F99
:102EE000408150E060E070E02AE0F801808191814B
:102EF0000E942C0F6CE2F801808191810E94100FDA
:102F0000C701895D9E4F0E94E904AB01BC0122E02C
:102F100030E0F801808191810E94740F6CE2F80129
:102F2000808191810E94100FC701855D9E4F0E9494
:102F3000E904AB01BC0122E030E0F801808191811D
:102F40000E94740F6CE2F801808191810E94100F41
:102F5000F701E15DFE4F408150E060E070E02AE063
:102F6000F801808191810E942C0FFEE8EF1AFEEF9C
:102F7000FF0AB701CE0101960E94210E8D819E812C
:102F8000892B19F089819A8102C080E090E068DD88
:102F9000CE0101960E94D90D60E070E0C7010E9449
:102FA0009F0C26960FB6F894DEBF0FBECDBFDF9103
:102FB000CF911F910F91FF90EF9008951F93CF93A2
:102FC000DF93182FC0913A14D0913B1460E070E069
:102FD00082E394E1CBD869E170E080E090E00E9468
:102FE000D03340E067E070E082E394E17ED81123C3
:102FF00011F040E801C040E06FE370E082E394E14B
:1030000074D86AE070E080E090E00E94D033BE01A6
:1030100082E394E1ABD864E170E080E090E0DF917E
:10302000CF911F910C94D0330F931F93CF93DF93C5
:10303000EC018D818F938C818F938B818F938A810B
:103040008F9389818F9388818F938EE29AE09F93EB
:103050008F930AEE1DE01F930F930E948864C801AE
:103060000E94E72D8B858F938A858F9389858F9317
:1030700088858F938F818F938E818F938FE49AE0D1
:103080009F938F931F930F930E948864C8010E949F
:10309000E72D89898F9388898F938F858F938E856C
:1030A0008F938D858F938C858F9387E69AE09F937E
:1030B0008F931F930F930E948864C8010E94E72D8D
:1030C0008B898F938A898F938EE79AE09F938F9352
:1030D0001F930F930E9488648DB79EB784960FB696
:1030E000F8949EBF0FBE8DBFC8010E94E72D8D8949
:1030F0008F938C898F9380E99AE09F938F931F938E
:103100000F930E948864C8010E94E72D0F900F90D2
:103110000F900F900F900F9082E99FE0DF91CF9179
:103120001F910F910C941D23382F2091C60D909163
:10313000C50D213208F049C08091A20D8111FCCF4C
:1031400042E04093A20D3093A10D3FEF3093A00DCC
:1031500010929F0D20939E0DA5EABDE04EE75DE025
:10316000FA013E2F341B321718F43D913193F9CFF9
:1031700010927D0D20917D0D990F922B90937D0DD6
:1031800090917C0D913061F410927C0D90917D0DA9
:103190009093BB009091BC0093FDF8CF95EC01C0DB
:1031A00095EE9093BC009091A20D9230E1F3909136
:1031B000A00D9F3F79F08091A00D803241F0809169
:1031C000A00D803331F084E005C081E003C082E0CF
:1031D00001C083E01092A40D1092C60D1092A30DB1
:1031E00008959091A20D9111FCCF91E09093A20DC2
:1031F0009093A10D2FEF2093A00D10929F0D260FFD
:1032000020939E0D90937D0D90917D0D880F892BBD
:1032100080937D0D80917C0D813061F410927C0D46
:1032200080917D0D8093BB008091BC0083FDF8CF21
:1032300085EC01C085EE8093BC008091A20D8130A9
:10324000E1F380919F0D861710F460919F0DAEE71A
:10325000BDE02CE53DE0F9018E2F821B861718F4A6
:103260008D918193F9CF862F08952F923F924F929F
:103270005F926F927F928F929F92AF92BF92CF9206
:10328000DF92EF92FF920F931F93CF93DF93CDB70F
:10329000DEB728970FB6F894DEBF0FBECDBFECE3C4
:1032A000F4E140815181EEE3F4E130812181E0E4F9
:1032B000F4E120803180E2E4F4E140805180E4E4F4
:1032C000F4E160807180E6E4F4E180809180E8E4DC
:1032D000F4E1A080B180EAE4F4E1C080D180ECE4C4
:1032E000F4E1E080F180EEE4F4E100811181E0E5B9
:1032F000F4E18081898391819A8380E02E833D83EC
:103300004B835C835BDE80913A1490913B149887E9
:103310008F8360E070E082E394E10E94B61069E17F
:1033200070E080E090E00E94D0334B8165E570E072
:1033300082E394E10E9475105C81452F66E570E0A0
:1033400082E394E10E9475103D81432F67E570E0B0
:1033500082E394E10E9475102E81422F68E570E0AF
:1033600082E394E10E947510422D69E570E082E3EA
:1033700094E10E947510432D6AE570E082E394E1C8
:103380000E947510442D61E670E082E394E10E9492
:103390007510452D62E670E082E394E10E9475109D
:1033A000462D63E670E082E394E10E947510472D9C
:1033B00064E670E082E394E10E947510482D65E6B2
:1033C00070E082E394E10E947510492D66E670E09A
:1033D00082E394E10E9475104A2D6BE570E082E370
:1033E00094E10E9475104B2D6CE570E082E394E14E
:1033F0000E9475104C2D6DE570E082E394E10E940F
:1034000075104D2D6EE570E082E394E10E94751019
:103410004E2D6FE570E082E394E10E9475104F2D10
:1034200060E670E082E394E10E947510402F67E649
:1034300070E082E394E10E947510412F68E670E02D
:1034400082E394E10E947510498169E670E082E3AD
:1034500094E10E9475104A816AE670E082E394E18B
:103460000E9475106F81788582E394E10E94B61006
:1034700081E028960FB6F894DEBF0FBECDBFDF9176
:10348000CF911F910F91FF90EF90DF90CF90BF9061
:10349000AF909F908F907F906F905F904F903F90F4
:1034A0002F908CCDCF93DF93CDB7DEB72A970FB691
:1034B000F894DEBF0FBECDBF8B818093341488E2B9
:1034C0008093351487E390E0A0E0B0E08093361459
:1034D00090933714A0933814B093391489859A8542
:1034E00090933B1480933A1410925B0D10925A0DF6
:1034F0001092A40D1092C60D1092A20D81E080933F
:10350000A10D10927C0D61E084E10E94BB3261E06C
:1035100085E10E94BB328091B9008E7F8093B90013
:103520008091B9008D7F8093B90088E48093B800C2
:1035300085E48093BC0060E070E082E394E10E9447
:103540005210803A71F460E070E082E394E10E94EE
:10355000B61040E26FE370E082E394E10E947510E0
:1035600013C068EE73E080E090E00E94D03360E02A
:1035700070E082E394E10E945210803A21F31092AD
:103580006814109267146CC060E070E082E394E10C
:103590000E945210803A39F06AE070E080E090E0DA
:1035A0000E94D033F1CF62E370E080E090E00E94AF
:1035B000D03340E06EE370E082E394E10E94751046
:1035C0006AE070E080E090E00E94D03340E067E085
:1035D00070E082E394E10E94751040E06FE370E0D8
:1035E00082E394E10E9475106AE070E080E090E070
:1035F0000E94D0336CE070E082E394E10E94B61048
:1036000064E170E080E090E00E94D03381E090E0DF
:10361000909368148093671480EA9AE00E94E72DE3
:1036200084EB9AE00E94E72D1F9285E18F931F9211
:1036300084E18F9380EC9AE09F938F938AEE9DE0D4
:103640009F938F930E9488648AEE9DE00E94E72DED
:1036500082E99FE0F2D70FB6F894DEBF0FBECDBF70
:1036600080916714909168142A960FB6F894DEBF83
:103670000FBECDBFDF91CF91089590E0FC01E451E2
:10368000FC4F2491FC01EA55FC4F8491882399F06A
:1036900090E0880F991FFC01E457FC4FA591B4916D
:1036A000FC01EE58FC4F859194918FB7F894EC9102
:1036B000E22BEC938FBF08953F924F925F926F92EF
:1036C0007F928F929F92AF92BF92CF92DF92EF92B2
:1036D000FF920F931F93CF93DF9300D01F92CDB72C
:1036E000DEB720910002223421F02F3F09F01CC3E5
:1036F00004C0E1E7F3E03490EDC022E4209300023F
:10370000E1E7F3E0E491EF3F09F40EC3E23009F49E
:1037100074C054F5EE2309F453C0E13009F0D9C068
:1037200010928000109281002091810028602093E7
:10373000810020918100216020938100E8EEF3E078
:10374000E491F0E0EE0FFF1FEE58FC4F259134910D
:103750003093D20D2093D10DEEE2F4E0E491E093AA
:10376000D00D33243394B8C0E43009F48EC00CF487
:1037700068C0E53009F0ADC010922001109221011F
:1037800020912101286020932101209121012160B5
:1037900020932101E8EEF3E0E491F0E0EE0FFF1F4B
:1037A000EE58FC4F259134913093C90D2093C80DEC
:1037B000EEE2F4E0E491E093C70DB5E03B2E8CC05F
:1037C00014BC15BC24B5226024BD25B5216025BDDF
:1037D000E8EEF3E0E491F0E0EE0FFF1FEE58FC4F4F
:1037E000259134913093D50D2093D40DEEE2F4E081
:1037F000E491E093D30D312C6FC01092B000109281
:10380000B1002091B00022602093B0002091B1005F
:1038100021602093B100E8EEF3E0E491F0E0EE0FD8
:10382000FF1FEE58FC4F259134913093550D209396
:10383000540DEEE2F4E0E491E093530DB2E03B2E40
:103840004BC010929000109291002091910028603E
:103850002093910020919100216020939100E8EE47
:10386000F3E0E491F0E0EE0FFF1FEE58FC4F2591DE
:1038700034913093CF0D2093CE0DEEE2F4E0E4913D
:10388000E093CD0D33E0332E27C01092A0001092AC
:10389000A1002091A10028602093A1002091A10007
:1038A00021602093A100E8EEF3E0E491F0E0EE0F58
:1038B000FF1FEE58FC4F259134913093CC0D20938F
:1038C000CB0DEEE2F4E0E491E093CA0D04E0302E7B
:1038D00003C03E2E37FC28C22A013B018C0182E442
:1038E000CCDE4801A12CB12C832D8D7F09F0BBC00B
:1038F00060E072E18AE790E0A50194010E943360E4
:1039000029833A834B835C8369017A0121E0C21ADF
:10391000D108E108F1088FEFC816D104E104F104E1
:1039200009F008F44CC060E472E48FE090E0A50177
:1039300094010E94336069017A0191E0C91AD108AB
:10394000E108F108E2E03E1220C0FFEFCF16D104FB
:10395000E104F10409F008F4E5C160E970ED83E0E9
:1039600090E0A50194010E94336069017A0181E031
:10397000C81AD108E108F1089FEFC916D104E10483
:10398000F10409F0D0F583E067C0EFEFCE16D10463
:10399000E104F104B1F0A8F068E478EE81E090E091
:1039A000A50194010E94336069017A01F1E0CF1A08
:1039B000D108E108F108332009F45AC1AAC181E015
:1039C00001C082E03320A1F047C089819A81AB8198
:1039D000BC812AE0B595A795979587952A95D1F74B
:1039E0006C017D01F1E0CF1AD108E108F10885E012
:1039F00095B5987F892B85BDA6C068E478EE81E0F7
:103A000090E0A50194010E94336069017A0181E090
:103A1000C81AD108E108F1089FEFC916D104E104E2
:103A2000F10409F008F422C164E274EF80E090E050
:103A3000A50194010E94336069017A0181E0C81AEE
:103A4000D108E108F1089FEFC916D104E104F1049F
:103A500011F008F02FC185E09091B100987F892B7B
:103A60008093B10070C060E072E18AE790E0A50148
:103A700094010E94336069017A01F1E0CF1AD10804
:103A8000E108F108C114D10421E0E206F10488F054
:103A900068E478EE81E090E0A50194010E94336033
:103AA00069017A0181E0C81AD108E108F10883E0D0
:103AB00001C081E091E0391210C090918100987F9F
:103AC000892B80938100411451046104710409F031
:103AD0003FC02FEF3FEFA90171C0E3E03E120FC0DE
:103AE00090919100987F892B80939100411451040B
:103AF0006104710469F52FEF3FEFA90181C0F4E083
:103B00003F120FC09091A100987F892B8093A10054
:103B10004114510461047104D9F42FEF3FEFA9015E
:103B200081C025E032120FC090912101987F892B2E
:103B300080932101411451046104710449F42FEF71
:103B40003FEFA90181C0411451046104710471F077
:103B5000D801AA0FBB1FA30192010E944F6028EE5B
:103B600033E040E050E00E94116003C02FEF3FEFD0
:103B7000A90182E03816A1F1831534F0332079F0E1
:103B800091E03916D9F0D0C0E4E03E1609F44AC0FD
:103B90003E16B4F1F5E03F1609F456C0C5C0C7BCE7
:103BA0002093E60D3093E70D4093E80D5093E90D17
:103BB00080916E00826080936E00B6C0D0928900C2
:103BC000C09288002093E20D3093E30D4093E40D02
:103BD0005093E50D80916F00826080936F00A4C0C8
:103BE000C092B3002093560D3093570D4093580D5B
:103BF0005093590D8091700082608093700094C042
:103C0000D0929900C09298002093DE0D3093DF0D82
:103C10004093E00D5093E10D80917100826080939C
:103C2000710082C0D092A900C092A8002093DA0D42
:103C30003093DB0D4093DC0D5093DD0D80917200CD
:103C400082608093720070C0D0922901C0922801D6
:103C50002093D60D3093D70D4093D80D5093D90DA6
:103C6000809173008260809373005EC084E0F4CE24
:103C70002FEFC216D104E104F104D1F0C8F062E1E3
:103C80007AE780E090E0A50194010E943360690129
:103C90007A01E1E0CE1AD108E108F108FFEFCF1672
:103CA000D104E104F10411F008F08FCE84E0A0CE3D
:103CB00083E09ECE62E17AE780E090E0A501940186
:103CC0000E94336069017A0181E0C81AD108E108D5
:103CD000F1089FEFC916D104E104F104C1F0B8F076
:103CE00089819A81AB81BC814AE0B595A79597956A
:103CF00087954A95D1F76C017D01E1E0CE1AD10894
:103D0000E108F108332009F472CE87E0A5CE86E001
:103D100059CEEFEFCE16D104E104F10409F050F6CC
:103D200084E050CE82E098CE0F900F900F900F90CD
:103D3000DF91CF911F910F91FF90EF90DF90CF9087
:103D4000BF90AF909F908F907F906F905F904F90BB
:103D50003F900895FC01A489B58981E090E09C0121
:103D600000A002C0220F331F0A94E2F72C93A0890F
:103D7000B1891C92A289B3892FEC2C9311A2A68938
:103D8000B7894C919C01048C02C0220F331F0A9406
:103D9000E2F7242B2C93A689B7894C919C01058CC2
:103DA00002C0220F331F0A94E2F7242B2C93A6891A
:103DB000B7894C919C01068C02C0220F331F0A94D4
:103DC000E2F7242B2C93A689B7892C91078C02C08B
:103DD000880F991F0A94E2F7809582238C930895A7
:103DE000FC01DB0180A9882321F04C3209F050C08E
:103DF00016C011961C921E9213961C921E92129738
:103E000082A9826082AB11AA81E04D3209F080E084
:103E100092A980FB90F992AB882339F36EC081A9F7
:103E2000811102C081E081AB12968D919C91139714
:103E3000892BB9F482A980FF29C012968D919C919B
:103E4000139791958195910913969C938E93129750
:103E50008D919C9111979195819591098D939C934A
:103E600015C03AE081A991E0980F91AB281710F3A3
:103E700012964D915C911397349FC001359F900D20
:103E8000112413969C938E931297ECCF81E00895A2
:103E90004E3219F481E081AB30C081A9811113C089
:103EA0002D913C9111975AE0529FC001539F900D64
:103EB0001124042E000C550B40535109480F591F73
:103EC0004D935C931AC091E0980F91AB2817A8F01E
:103ED00012962D913C9113975AE0529FC001539F27
:103EE000900D1124042E000C550B40535109480F1E
:103EF000591F13965C934E93129780E008950F9389
:103F00001F93DC01D0960C91D09710E00930110579
:103F100008F04BC0F8018827EB54FF4F8F4F0C94EB
:103F200013626C3209F441C0660F6056862F880F09
:103F3000880F04C096968C9196978053680F96963A
:103F40006C9333C0660F6056862F880F880F04C0AD
:103F500095968C9195978053680F95966C9325C094
:103F6000660F6056862F880F880F04C094968C9138
:103F700094978053680F94966C9317C0660F6056A1
:103F8000862F880F880F680F9B966C930EC09B96A8
:103F90008C919B978053680F9B966C939B979D96F3
:103FA0008C919D9784609D968C9381E01F910F91D9
:103FB000089581E00895CF93DF93EC01462F8A8125
:103FC000823079F0873009F46CC0813009F007C184
:103FD000E881F9810084F185E02DCE01DF91CF9158
:103FE0001994EFA58E2F90E0FC013197E930F1058F
:103FF00008F0F5C08827E254FF4F8F4F0C941362EE
:104000008AA982FFECC088A98111E9C0433509F073
:10401000E6C08F859889A989BA89B095A0959095B1
:1040200081959F4FAF4FBF4F8F87988BA98BBA8BCE
:10403000D6C04C3231F488A9811103C08AA98B7F84
:104040008AAB8AA982FFCBC0BE016D5E7F4FCE01D5
:104050000E94C611C4C088A98111C1C0642FCE01BD
:104060000E94A611BCC0BE016D5D7F4FCE010E94B3
:104070000635882309F4B3C09DA590687AC022E074
:10408000BE01695E7F4FCE01ABDE882309F4A7C075
:1040900021E098A9911101C020E09DA520FB94F991
:1040A00068C0EFA58E2F90E0FC013197E930F10553
:1040B00008F095C08827E953FF4F8F4F0C94136287
:1040C000642FCE01DF91CF911ACF88A9882339F0D0
:1040D0008AA982FF84C0BE01615F7F4FB8CF91E0A3
:1040E0004C3209F490E08AA990FB82F98AABF0CFB8
:1040F0009AA992FB882780F992FF71C098A9911123
:104100006EC09DA598609DA7473509F068C04B8992
:104110005C896D897E8970956095509541955F4F5A
:104120006F4F7F4F4B8B5C8B6D8B7E8B59C023E029
:10413000BE01655E7F4FCE0153DE882309F44FC078
:1041400021E098A9911101C020E09DA520FB95F9DF
:1041500010C022E0BE01615E7F4FCE0141DE8823A8
:10416000F1F121E098A9911101C020E09DA520FB6B
:1041700096F99DA735C088A98230F9F038F48823D4
:1041800091F0813061F568A5605314C0843001F16D
:10419000D0F0853021F56AA56053460F4AA78DA55A
:1041A00082608DA71CC06C32D1F0440F4056642F42
:1041B000660F660F460F48A712C0440F4056642F83
:1041C000660F660F02C069A56053460F49A707C076
:1041D000440F4056642F660F660F460F4AA781E0D2
:1041E000DF91CF9108955F926F927F928F929F920D
:1041F000AF92BF92CF92DF92EF92FF920F931F93F5
:10420000CF93DF93EC018B859C85AD85BE850196B0
:10421000A11DB11D8B879C87AD87BE87643279F461
:104220008AA984FF02C08F7E8AAB1EA61A8281E013
:104230008BAB18AA8AA98D7F8F7D8AAB22C1162FDE
:104240000BA9023039F56A3219F483E08BAB1AC03E
:1042500080EE860F8F35C0F48EA586278EA7E88165
:10426000F9810284F385E02DCE011995882309F4A4
:10427000E8C01C3209F08AC08AA98D7F8AAB8FA55D
:104280008F5F8FA718AAFDC0CE018D961DD31A820D
:104290001BAAE0C0013009F07DC08EA586278EA73D
:1042A0006C3221F48A818111E5C0CEC088A98111C8
:1042B00006C0603521F48AA980628AAB67C09AA9DA
:1042C00095FF10C0843058F4E881F9810480F581AD
:1042D000E02D612FCE011995811158C0B5C04CEF6A
:1042E000942E05C0823008F451C03EEF932E980EF4
:1042F000E881F9810280F381E02DCE0119956A8071
:10430000E62CF12CC92CD12CFC0133968490FC01B5
:104310007490662009F4A1C0671460F0282D30E085
:10432000270D311DE216F3062CF4062D071996C051
:104330001E173CF40196FC0185919491009721F79A
:1043400083C00F5F0815B0F7FB01E00FF11DE00F10
:10435000F11DA591B491A9015D01A21AB30AE42F40
:10436000E21BE91550F4FA015490F501E40FF51F32
:10437000E4914F5F5F4F5E1691F39D01F901EC0DE3
:10438000FD1DE4911E13D4CF070D0A8388A98F5F0A
:1043900088AB77C0033009F05AC010628FE9810FF3
:1043A000863010F4175501C0105328A98EA5612F2F
:1043B00070E021110DC091E098AB90E024E095955C
:1043C00087952A95E1F78617970709F45AC02EC0FA
:1043D0008F7090E08617970749F58AA981FF0CC076
:1043E0008D7F8AAB2F5F28ABE881F9810284F3854A
:1043F000E02D6CE2CE0119958B819C81AD81BE814F
:104400000196A11DB11D8B839C83AD83BE83E88182
:10441000F9810680F781E02DCE0119959AA980FBDC
:1044200094F99AAB1BAA82E090E02DC08F81988509
:10443000A985BA850196A11DB11D8F839887A9878B
:10444000BA87CE018D9640D21A821BAA1AC00111DA
:1044500018C01A8280E090E016C000E0FC0134969B
:1044600065917491FB01E00FF11DE00FF11D2591A5
:10447000349184CFCE018D9627D20FA718AA82E05F
:104480008BAB81E090E0DF91CF911F910F91FF9076
:10449000EF90DF90CF90BF90AF909F908F907F90E4
:1044A0006F905F9008958F929F92AF92BF92CF923C
:1044B000DF92EF92FF924B015C016B017C0184E083
:1044C000F694E794D794C7948A95D1F7D501C4019F
:1044D00022E0B695A795979587952A95D1F7C80EAE
:1044E000D91EEA1EFB1ED701C60134E0B695A7957A
:1044F000979587953A95D1F7C80ED91EEA1EFB1EEF
:10450000BB27AF2D9E2D8D2DC80ED91EEA1EFB1E7A
:10451000C701AA27BB27C80ED91EEA1EFB1EA3E0AF
:10452000B0E0A70196010E944F60A5019401261BEF
:10453000370B480B590BABE0B0E00E944F60DC0139
:10454000CB0165E0B695A795979587956A95D1F7C4
:10455000BC01CD016C0D7D1D8E1D9F1DFF90EF9048
:10456000DF90CF90BF90AF909F908F900895FC0107
:10457000148215821682178210821182128213828F
:10458000118610861386128615861486178616865F
:10459000118A108A138A128A148A168A178A158A2F
:1045A00081E0818F828F138E87E0808F148E158E2D
:1045B000CF014E9689C10F931F93CF93DF93FC01D8
:1045C000A685B7858D01005C1F4FE8018881998120
:1045D00001968F739927AD014E5B5F4FEA012881E9
:1045E000398182179307D1F3E80128813981A20F1D
:1045F000B31F6C93A685B785A05CBF4F11969C93A3
:104600008E93A689B7892C9181E090E0078C02C037
:10461000880F991F0A94E2F7822B8C9381E081A383
:104620000488F589E02D80818064808381E090E0BA
:10463000DF91CF911F910F910895FC0181A18823F3
:1046400029F0A489B5898C9186FFFBCF11A208952A
:10465000FC01A485B585FD01E05CFF4F208131811F
:104660003296808191812817390779F08081918174
:10467000A80FB91F8C91208131812F5F3F4F2F737D
:1046800033273183208390E008958FEF9FEF0895C3
:10469000DC011C96ED91FC911D97DF01A05CBF4FE2
:1046A0002D913C91119712968D919C9111972817FD
:1046B000390739F08D919C91E80FF91F808190E0C6
:1046C00008958FEF9FEF0895FC0124853585F9014A
:1046D000E05CFF4F80819181329620813181821B85
:1046E000930B8F7399270895CF93DF93DC01862F67
:1046F0009296ED91FC919397309719F0DF91CF91BD
:1047000019941C96ED91FC911D97BF01605C7F4F41
:10471000EB01288139812F5F3F4F2F733327AF0182
:104720004E5B5F4FEA01488159812417350771F0CC
:10473000EB0148815981E40FF51F80831C96ED91B0
:10474000FC911D97E05CFF4F31832083DF91CF9177
:1047500008950895E0915B0D80915A0DE81730F4AB
:10476000F0E0E45AF24F808190E008958FEF9FEFE0
:10477000089590915B0D80915A0D981750F4E92F90
:10478000F0E0E45AF24F208130E09F5F90935B0DA0
:1047900002C02FEF3FEFC901089580915A0D90E0BC
:1047A00020915B0D821B9109089585ED8093BC00DB
:1047B0008091BC0084FDFCCF1092A20D0895409121
:1047C0004D16262F30E0240F311D21323105DCF447
:1047D0002091A20D2430C9F4FC0180E090E08617FE
:1047E00058F430914D162191DC01A55DB94EA30F0F
:1047F000B11D2C930196F3CF80914D16680F6093F5
:104800004D1680E0089581E0089582E00895CF92EA
:10481000DF92EF92FF920F931F93CF93DF937C0170
:10482000262F972F8A018091A30D882391F0C62F00
:10483000D72F6E01C40ED51ECC15DD0569F0699128
:10484000D701ED91FC910190F081E02DC701199500
:10485000F3CF642F822FB3DFC801DF91CF911F9177
:104860000F91FF90EF90DF90CF900895CF93DF935B
:104870001F92CDB7DEB769832091A30D2223D1F01B
:104880002091C60D203240F021E030E0FC0133835E
:10489000228380E090E014C08091A40DE82FF0E026
:1048A000EB55F24F998190838F5F8093A40D809395
:1048B000C60D04C061E0CE01019681DF81E090E089
:1048C0000F90DF91CF910895FC01108208951F92FF
:1048D0000F920FB60F9211240BB60F922F933F93A6
:1048E0008F939F93EF93FF9320917A0E30917B0EDD
:1048F00080917C0E90917D0E2817390731F48091BC
:1049000031018F7D8093310114C0E0917C0EF091D4
:104910007D0EE65CF14F208180917C0E90917D0EA2
:1049200001968F73992790937D0E80937C0E209330
:104930003601FF91EF919F918F913F912F910F90B1
:104940000BBE0F900FBE0F901F9018951F920F92E5
:104950000FB60F9211240BB60F922F933F938F93A4
:104960009F93EF93FF932091E20E3091E30E80919D
:10497000E40E9091E50E2817390731F48091D100AB
:104980008F7D8093D10014C0E091E40EF091E50E8C
:10499000EE55F14F20818091E40E9091E50E019645
:1049A0008F7399279093E50E8093E40E2093D600A1
:1049B000FF91EF919F918F913F912F910F900BBE9F
:1049C0000F900FBE0F901F9018951F920F920FB669
:1049D0000F9211240BB60F922F933F938F939F93B7
:1049E000EF93FF9320914A0F30914B0F80914C0F22
:1049F00090914D0F2817390731F48091C9008F7DB0
:104A00008093C90014C0E0914C0FF0914D0FE65F08
:104A1000F04F208180914C0F90914D0F01968F7334
:104A2000992790934D0F80934C0F2093CE00FF91C8
:104A3000EF919F918F913F912F910F900BBE0F900F
:104A40000FBE0F901F9018951F920F920FB60F92E6
:104A500011240BB60F922F933F938F939F93EF9355
:104A6000FF9320918E0F30918F0F8091900F909136
:104A7000910F2817390731F48091C1008F7D809301
:104A8000C10014C0E091900FF091910FE25BF04FE4
:104A900020818091900F9091910F01968F739927AB
:104AA0009093910F8093900F2093C600FF91EF9108
:104AB0009F918F913F912F910F900BBE0F900FBE42
:104AC0000F901F9018951F920F920FB60F921124FE
:104AD0000BB60F922F933F934F935F936F937F93F8
:104AE0008F939F93AF93BF93EF93FF938091300188
:104AF00082FD06C0609136018EE79EE0F5DD02C0C2
:104B000080913601FF91EF91BF91AF919F918F916D
:104B10007F916F915F914F913F912F910F900BBEBD
:104B20000F900FBE0F901F9018951F920F920FB607
:104B30000F9211240BB60F922F933F934F935F93D5
:104B40006F937F938F939F93AF93BF93EF93FF9355
:104B50008091D00082FD06C06091D60086EE9EE076
:104B6000C3DD02C08091D600FF91EF91BF91AF915C
:104B70009F918F917F916F915F914F913F912F9175
:104B80000F900BBE0F900FBE0F901F9018951F92A5
:104B90000F920FB60F9211240BB60F922F933F93E3
:104BA0004F935F936F937F938F939F93AF93BF9335
:104BB000EF93FF938091C80082FD06C06091CE0004
:104BC00082EC9FE091DD02C08091CE00FF91EF91D9
:104BD000BF91AF919F918F917F916F915F914F9115
:104BE0003F912F910F900BBE0F900FBE0F901F9013
:104BF00018951F920F920FB60F9211240BB60F92B9
:104C00002F933F934F935F936F937F938F939F93D4
:104C1000AF93BF93EF93FF938091C00082FD06C0D6
:104C20006091C60082E99FE05FDD02C08091C6000E
:104C3000FF91EF91BF91AF919F918F917F916F9174
:104C40005F914F913F912F910F900BBE0F900FBE30
:104C50000F901F9018951F920F920FB60F9211246C
:104C60000F900FBE0F901F9018951F920F920FB6C6
:104C70000F9211240BB60F922F933F934F935F9394
:104C80006F937F938F939F93AF93BF93EF93FF9314
:104C90008091B900887F803609F49CC068F588321D
:104CA00009F45BC090F4803109F454C038F48823CF
:104CB00009F4F6C0883009F44DC0F5C0883109F414
:104CC0004CC0803209F45DC0EEC0803409F468C085
:104CD00048F4803309F455C0883309F0E4C0809368
:104CE000A00DD8C0803509F44FC0883509F45DC0E7
:104CF000883409F0D8C0D6C0883909F4C7C0A8F4F0
:104D0000883709F467C038F4883609F463C08037FF
:104D100009F460C0C8C0883809F4B8C0803909F403
:104D20005FC0803809F0BFC05BC0803B09F486C01B
:104D300038F4803A09F466C0883A09F47FC0B3C0F9
:104D4000803C09F4A7C0883C09F4A4C0883B09F45E
:104D50008AC0A9C080917D0D10C090919F0D809157
:104D60009E0D981770F5E0919F0D81E08E0F809356
:104D70009F0DF0E0E258F24F80818093BB0085ECFC
:104D800086C08093A00D8EC0E0919F0D81E08E0FB4
:104D900080939F0D8091BB00F0E0E258F24F80833A
:104DA00090919F0D80919E0D6EC0E0919F0D81E0CE
:104DB0008E0F80939F0D8091BB00F0E0E258F24F80
:104DC00080838091A10D81116DC081E080937C0D65
:104DD00084EA61C083E08093A20D10927116CFCF58
:104DE00080917116803208F051C0E091711681E017
:104DF0008E0F809371168091BB00F0E0EF5AF94E50
:104E00008083BDCF85EC8093BC001092A20D809171
:104E10007116803230F4E0917116F0E0EF5AF94EDD
:104E200010826091711670E0E0914F16F09150166B
:104E300081E596E119951092711635C084E0809352
:104E4000A20D10924E1610924D16E0914B16F09155
:104E50004C16199580914D16811105C081E0809303
:104E60004D1610922B16E0914E1681E08E0F809316
:104E70004E16F0E0E55DF94E80818093BB00909185
:104E80004E1680914D16981708F479CF85E88093D7
:104E9000BC0009C085EC8093BC001092A20D03C039
:104EA0001092A00D82DCFF91EF91BF91AF919F9185
:104EB0008F917F916F915F914F913F912F910F90C3
:104EC0000BBE0F900FBE0F901F901895BF92CF9200
:104ED000DF92EF92FF920F931F93CF93DF93CDB7A3
:104EE000DEB762970FB6F894DEBF0FBECDBF8C0160
:104EF000B62E7A01690161E17AE0CE010D960E9439
:104F0000290E61E2CE010D960E94F60C6B2DCE01AA
:104F10000D960E94F60C8AE0E816F1042CF460E38A
:104F2000CE010D960E94F60C4AE0B701CE01019623
:104F30000E94DE0DBE01635F7F4FCE0107960E9487
:104F4000210EBE016F5F7F4FCE0107960E947F0D3D
:104F5000BC01CE010D960E94C40DCE0107960E94A1
:104F6000D90DCE0101960E94D90D6DE3CE010D96AB
:104F70000E94F60CB601CE010D960E94170D64E258
:104F8000CE010D960E94F60CF801EB5EFD4F80817C
:104F90009181892B79F07801AFEEEA1AADEFFA0A28
:104FA000B701CE010D960E94170D61E17AE0C701AD
:104FB0000E94AF0DF801E95EFD4F80819181DC0117
:104FC000ED91FC9149895A896D857E850280F38136
:104FD000E02D19956AE070E080E090E00E94D03307
:104FE000CE010D960E94D90D62960FB6F894DEBFE1
:104FF0000FBECDBFDF91CF911F910F91FF90EF902A
:10500000DF90CF90BF9008950F931F93CF93DF93BE
:10501000DC019F96EC919F970E2F10E0F8013397DB
:10502000EC30F10508F095C0462FEC018827E053DD
:10503000FF4F8F4F0C9413629D0129553F4FBD01C7
:1050400061557F4FCD010E947F3283C088A98111B5
:1050500039C0623511F06C3459F4CD54DF4F26C09D
:1050600088A981112FC06B3439F06E3409F471C0F6
:10507000CE010E94BD366DC0C155DF4FCE010E94EA
:10508000E90421E73DE34AE05FE30E94385FAB01BA
:10509000BC01CE010E942A045CC088A9811112C003
:1050A000613411F0663521F7CC54DF4F488351C08D
:1050B00088A9811107C0613411F06635C9F6CB5457
:1050C000DF4FF4CF8230A0F64C3291F642C0BD01E2
:1050D0006A547F4F2BC0BD016A547F4F21C0CD0160
:1050E00086549F4F28A921110AC03AA932603AABD1
:1050F0006C3239F0FC01E20FF11D40832AC06C32A2
:1051000029F4FC01E20FF11D108223C0243090F33A
:1051100020C0BD0161547F4F09C0BD0161547F4F64
:10512000CE017AD716C0BD016D537F4FCE01A0D7F7
:1051300010C0BD016D537F4FCD016ED7FE01EA5502
:10514000FF4F81E08083CE51DF4F86E190E099836D
:10515000888381E0DF91CF911F910F9108950F9384
:105160001F93CF93DF93DC0112960C9112970A30B4
:1051700008F4ABC110E0F8013A97EC30F10508F003
:10518000AAC18827E452FF4F8F4F0C9413629F9659
:105190009C919F97913009F09EC1D0968C91D097A9
:1051A00081110BC0603331F0613309F096C19093E7
:1051B000741691C1109274168EC1813009F048C0E6
:1051C00080917416811131C0462F660F550B660B06
:1051D000770BFA01F097EA30F10508F07EC18827D5
:1051E000E851FF4F8F4F0C941362AE51BF4F81E0D7
:1051F00090E08D939C9372C18BE027C08CE025C01A
:105200008DE023C08EE021C08FE01FC080E11DC073
:1052100081E11BC082E119C083E112968C93129741
:10522000AE51BF4F81E190E03DC0603329F0613362
:1052300009F053C185E109C084E112968C9312975D
:10524000AE51BF4F82E190E02DC012968C9343C1C6
:1052500081E06C3209F041C141C19F968C919F97CA
:10526000823009F038C1D0968C91D097811133C12A
:105270006C3209F430C16235C1F044F4693409F08C
:105280002AC1AE51BF4F83E090E00CC0693631F0C7
:10529000623709F020C1AE51BF4F9BC0AE51BF4F26
:1052A00082E090E08D939C9316C1AE51BF4F96C0A3
:1052B0009F968C919F97823009F00DC1D0968C916A
:1052C000D097811108C16C3209F405C16235C1F073
:1052D00044F4693409F0FFC0AE51BF4F87E090E05D
:1052E000E1CF693641F0623709F0F5C0AE51BF4FEA
:1052F00088E090E0D7CFAE51BF4F86E090E0D2CFAC
:10530000AE51BF4F89E090E0CDCFFD01EE51FF4F90
:105310008CE090E005C0FD01EE51FF4F8DE090E084
:1053200091838083CD01DF91CF911F910F911AC797
:10533000FD01EE51FF4F8EE090E005C0FD01EE5102
:10534000FF4F8FE090E091838083CD01DF91CF917B
:105350001F910F91ADC6462FED01FD01EE51FF4F9C
:1053600080E190E0918380839FA5943009F442C04E
:1053700060F49230E9F0933009F0ADC0BD016F598F
:105380007F4FCD010E94BD34A6C09630E9F1B0F147
:10539000973009F0A0C09D01225A3F4FBD016459CA
:1053A0007F4FCD010E947F32DE01A85ABF4F8AC0D5
:1053B00088A9811116C0633539F0643569F061340C
:1053C000A9F4A15ABF4F05C0A15ABF4F1D921C920C
:1053D00082C084E090E066CFA15ABF4F85E090E0A4
:1053E00061CF823018F46C3209F475C0CE010E948E
:1053F000BD3671C0BD016D597F4F03C0BD016959F4
:105400007F4FCE0135D667C0BD0165597F4FCD01B5
:105410000E94063560C09F968C919F97823009F05C
:105420005AC0D0968C91D097811155C06C3209F436
:1054300052C0673489F0693449F0613409F04BC0D7
:10544000FD01EE51FF4F85E190E038C0FD01EE51C6
:10545000FF4F83E190E032C0FD01EE51FF4F84E148
:1054600090E02CC09F968C919F978230A1F5D096AA
:105470008C91D09781112FC06C3269F16734C9F0DB
:1054800044F4633441F5FD01EE51FF4F87E190E0B4
:1054900015C0693441F06235F1F4FD01EE51FF4F62
:1054A0008AE190E00BC0FD01EE51FF4F88E190E0F2
:1054B00005C0FD01EE51FF4F89E190E091838083AB
:1054C000AF51BF4F81E08C9309C0DF91CF911F9105
:1054D0000F910C94DB1F81E001C080E0DF91CF9140
:1054E0001F910F9108950F931F93CF93DF93EC01BA
:1054F0000E94F3208C01009719F0029729F01AC03E
:10550000CE010E94BD3616C09AA991FF0DC09D7FA5
:105510009AAB88A98F5F88ABE881F9810284F38513
:10552000E02D6CE2CE011995FE01E052FF4F81E0C3
:1055300080831BAAC801DF91CF911F910F9108951D
:10554000FC01EA57FE4F0190F081E02D808D918D96
:1055500026893789821B930B0895FC01EA57FE4F79
:105560000190F081E02DE656FF4F62A973A984A94E
:1055700095A90895FC0120A9213019F0223029F0C5
:1055800008C081E0653461F40CC081E06D3441F401
:1055900008C0633429F42AE0FC01228381E00895E5
:1055A00080E0089521E0FC018281873009F020E04D
:1055B000822F089588E694E008950895FC01EA5743
:1055C000FE4F8081918186569F4F0C94380BCF926D
:1055D000DF92EF92FF926A017B01FC01EA57FE4FD6
:1055E0000190F081E02DE656FF4F22A933A944A98E
:1055F00055A9C701B6010E946960FF90EF90DF9046
:10560000CF900C94FE0ACF92DF92EF92FF926A0144
:105610007B01FC01EA57FE4F0190F081E02DE65638
:10562000FF4F22A933A944A955A9C701B6010E9479
:105630006860FF90EF90DF90CF900C94FE0A21E419
:1056400034E0FC0131832083818992890C94B0621B
:10565000CF93DF93EC01F3DFCE01DF91CF910C9478
:10566000B0620C94B0620C94B062CF93DF93EC0103
:1056700085E094E099838883CE018D5E9D4F0E94E2
:10568000D90DCE01835F9D4F0E94D90DCE018B5F56
:105690009D4F0E94D90DCE010796DF91CF910C94BA
:1056A000D90DCF93DF93EC01E0DFCE01DF91CF91F5
:1056B0000C94B062CF92DF92EF92FF92CF93DF9380
:1056C000EC016A017B0120E030E0A901C701B601CD
:1056D0000E94D35E87FF0AC020E030E044EB53E431
:1056E000C701B6010E9469606B017C0120E030E0D7
:1056F00044EB53E4C701B6010E946D61688379836E
:105700008A839B83DF91CF91FF90EF90DF90CF90C2
:10571000089520917516309176162130310559F48F
:10572000811103C083E090E002C082E090E090939A
:105730007616809375168091751690917616823044
:10574000910529F0039731F467E77BE005C068E62F
:105750007BE002C066E87BE082E99FE00E94511096
:1057600080917516909176160895AF92BF92CF9260
:10577000DF92EF92FF920F931F93CF93DF93CDB7FA
:10578000DEB7C454D1090FB6F894DEBF0FBECDBF4B
:105790005C01FC01E280F3808DE89BE00E94C6057D
:1057A000FCE9EF0EF11CBE016F5F7F4FC7010E9445
:1057B000280C89899A89AB89BC8923968CAF9DAFC7
:1057C000AEAFBFAF23978E01015C1F4F89E1C82E9A
:1057D000D12CF80161918F01DA82C982CE01019644
:1057E0000E948E05FFEFCF1ADF0A8DE1C816D104A3
:1057F00081F7BE016F5F7F4FC7010E94C31086E132
:10580000FE013196DE01999601900D928A95E1F79D
:105810007E01E9E2EE0EF11C0DE110E0F70161916D
:105820007F0125961FAF0EAF2597CE018D5B9F4F51
:105830000E948E050F5F1F4F0333110579F78EEA23
:1058400099E00E94C605F501828193810E94890337
:10585000CC5BDF4F0FB6F894DEBF0FBECDBFDF913C
:10586000CF911F910F91FF90EF90DF90CF90BF905D
:10587000AF900895EF92FF920F931F93CF93DF9312
:105880001F92CDB7DEB77C01FC0102811381F801C4
:10589000E759FE4F80818983BE016F5F7F4F80E0B3
:1058A00090E00E94AE05F801E959FE4F0190F081A9
:1058B000E02D1995F701828193810E9489030F9051
:1058C000DF91CF911F910F91FF90EF900895AF92CC
:1058D000BF92CF92DF92EF92FF920F931F93CF93DD
:1058E000DF93EC015B010A811B81C8010E947D05E9
:1058F0006B017C01B501BB0C880B990B0E94D95E32
:105900009B01AC01C701B6010E946960AB01BC01FB
:10591000C8010E94EE038A819B81DF91CF911F9184
:105920000F91FF90EF90DF90CF90BF90AF900C94CD
:1059300089030F931F93CF93DF938C01FC01C281E6
:10594000D381C950DF4F20E030E040E251E468816C
:1059500079818A819B810E946960AB01BC01CE0183
:10596000A9DEF80182819381DF91CF911F910F9180
:105970000C948903CF93DF93EC018A819B81FC0116
:10598000EB50FF4F208131812115310531F023305B
:10599000310539F460E070E002C063E070E00E941D
:1059A000C8078A819B81DF91CF910C9489038F92E4
:1059B0009F92AF92BF92EF92FF920F931F93CF935C
:1059C000DF937C015B01FC01C281D381FE01EB50BE
:1059D000FF4F00811181CE010E94A903811136C0C1
:1059E000A114B10439F0AA94AB2861F4CE010E944D
:1059F0007D0505C0CE0186569F4F0E94380B4B0196
:105A00005C0106C0812C912C80E8A82E8FEBB82E6B
:105A1000B501A401CE010E94EE03B501A401CE019F
:105A200089509F4F0E945A030115110551F017FD2F
:105A30000DC0045011090230110540F460E070E01F
:105A400002C064E070E0CE010E94C807F7018281C5
:105A50009381DF91CF911F910F91FF90EF90BF90B5
:105A6000AF909F908F900C948903CF93DF93EC01BC
:105A700089899A890E94B06289E390E00E941B6242
:105A8000FC01108211821282138214821582168206
:105A9000178210861186128613861486158616863E
:105AA0001786108A118A128A138A148A158A168A0E
:105AB000178A108E118E128E138E148E158E168EDE
:105AC000178E10A211A212A213A214A215A616A636
:105AD00017A610AA11AA12AA13AA14AA15AA16AADE
